{
  "_format": "hh-sol-artifact-1",
  "contractName": "TokenOApp",
  "sourceName": "contracts/TokenOApp.sol",
  "abi": [
    {
      "inputs": [
        {
          "internalType": "string",
          "name": "_name",
          "type": "string"
        },
        {
          "internalType": "string",
          "name": "_symbol",
          "type": "string"
        },
        {
          "internalType": "address",
          "name": "_lzEndpoint",
          "type": "address"
        },
        {
          "internalType": "address",
          "name": "_delegate",
          "type": "address"
        },
        {
          "internalType": "uint256",
          "name": "_initialSupply",
          "type": "uint256"
        },
        {
          "internalType": "uint256",
          "name": "_mintingFee",
          "type": "uint256"
        }
      ],
      "stateMutability": "nonpayable",
      "type": "constructor"
    },
    {
      "inputs": [
        {
          "internalType": "address",
          "name": "target",
          "type": "address"
        }
      ],
      "name": "AddressEmptyCode",
      "type": "error"
    },
    {
      "inputs": [
        {
          "internalType": "address",
          "name": "account",
          "type": "address"
        }
      ],
      "name": "AddressInsufficientBalance",
      "type": "error"
    },
    {
      "inputs": [
        {
          "internalType": "address",
          "name": "spender",
          "type": "address"
        },
        {
          "internalType": "uint256",
          "name": "allowance",
          "type": "uint256"
        },
        {
          "internalType": "uint256",
          "name": "needed",
          "type": "uint256"
        }
      ],
      "name": "ERC20InsufficientAllowance",
      "type": "error"
    },
    {
      "inputs": [
        {
          "internalType": "address",
          "name": "sender",
          "type": "address"
        },
        {
          "internalType": "uint256",
          "name": "balance",
          "type": "uint256"
        },
        {
          "internalType": "uint256",
          "name": "needed",
          "type": "uint256"
        }
      ],
      "name": "ERC20InsufficientBalance",
      "type": "error"
    },
    {
      "inputs": [
        {
          "internalType": "address",
          "name": "approver",
          "type": "address"
        }
      ],
      "name": "ERC20InvalidApprover",
      "type": "error"
    },
    {
      "inputs": [
        {
          "internalType": "address",
          "name": "receiver",
          "type": "address"
        }
      ],
      "name": "ERC20InvalidReceiver",
      "type": "error"
    },
    {
      "inputs": [
        {
          "internalType": "address",
          "name": "sender",
          "type": "address"
        }
      ],
      "name": "ERC20InvalidSender",
      "type": "error"
    },
    {
      "inputs": [
        {
          "internalType": "address",
          "name": "spender",
          "type": "address"
        }
      ],
      "name": "ERC20InvalidSpender",
      "type": "error"
    },
    {
      "inputs": [],
      "name": "FailedInnerCall",
      "type": "error"
    },
    {
      "inputs": [],
      "name": "InvalidEndpointCall",
      "type": "error"
    },
    {
      "inputs": [],
      "name": "InvalidLocalDecimals",
      "type": "error"
    },
    {
      "inputs": [
        {
          "internalType": "bytes",
          "name": "options",
          "type": "bytes"
        }
      ],
      "name": "InvalidOptions",
      "type": "error"
    },
    {
      "inputs": [],
      "name": "LzTokenUnavailable",
      "type": "error"
    },
    {
      "inputs": [
        {
          "internalType": "uint32",
          "name": "eid",
          "type": "uint32"
        }
      ],
      "name": "NoPeer",
      "type": "error"
    },
    {
      "inputs": [
        {
          "internalType": "uint256",
          "name": "msgValue",
          "type": "uint256"
        }
      ],
      "name": "NotEnoughNative",
      "type": "error"
    },
    {
      "inputs": [
        {
          "internalType": "address",
          "name": "addr",
          "type": "address"
        }
      ],
      "name": "OnlyEndpoint",
      "type": "error"
    },
    {
      "inputs": [
        {
          "internalType": "uint32",
          "name": "eid",
          "type": "uint32"
        },
        {
          "internalType": "bytes32",
          "name": "sender",
          "type": "bytes32"
        }
      ],
      "name": "OnlyPeer",
      "type": "error"
    },
    {
      "inputs": [],
      "name": "OnlySelf",
      "type": "error"
    },
    {
      "inputs": [
        {
          "internalType": "address",
          "name": "owner",
          "type": "address"
        }
      ],
      "name": "OwnableInvalidOwner",
      "type": "error"
    },
    {
      "inputs": [
        {
          "internalType": "address",
          "name": "account",
          "type": "address"
        }
      ],
      "name": "OwnableUnauthorizedAccount",
      "type": "error"
    },
    {
      "inputs": [
        {
          "internalType": "address",
          "name": "token",
          "type": "address"
        }
      ],
      "name": "SafeERC20FailedOperation",
      "type": "error"
    },
    {
      "inputs": [
        {
          "internalType": "bytes",
          "name": "result",
          "type": "bytes"
        }
      ],
      "name": "SimulationResult",
      "type": "error"
    },
    {
      "inputs": [
        {
          "internalType": "uint256",
          "name": "amountToCreditLD",
          "type": "uint256"
        },
        {
          "internalType": "uint256",
          "name": "minAmountToCreditLD",
          "type": "uint256"
        }
      ],
      "name": "SlippageExceeded",
      "type": "error"
    },
    {
      "anonymous": false,
      "inputs": [
        {
          "indexed": true,
          "internalType": "address",
          "name": "owner",
          "type": "address"
        },
        {
          "indexed": true,
          "internalType": "address",
          "name": "spender",
          "type": "address"
        },
        {
          "indexed": false,
          "internalType": "uint256",
          "name": "value",
          "type": "uint256"
        }
      ],
      "name": "Approval",
      "type": "event"
    },
    {
      "anonymous": false,
      "inputs": [
        {
          "components": [
            {
              "internalType": "uint32",
              "name": "eid",
              "type": "uint32"
            },
            {
              "internalType": "uint16",
              "name": "msgType",
              "type": "uint16"
            },
            {
              "internalType": "bytes",
              "name": "options",
              "type": "bytes"
            }
          ],
          "indexed": false,
          "internalType": "struct EnforcedOptionParam[]",
          "name": "_enforcedOptions",
          "type": "tuple[]"
        }
      ],
      "name": "EnforcedOptionSet",
      "type": "event"
    },
    {
      "anonymous": false,
      "inputs": [
        {
          "indexed": false,
          "internalType": "address",
          "name": "inspector",
          "type": "address"
        }
      ],
      "name": "MsgInspectorSet",
      "type": "event"
    },
    {
      "anonymous": false,
      "inputs": [
        {
          "indexed": true,
          "internalType": "bytes32",
          "name": "guid",
          "type": "bytes32"
        },
        {
          "indexed": true,
          "internalType": "address",
          "name": "toAddress",
          "type": "address"
        },
        {
          "indexed": false,
          "internalType": "uint256",
          "name": "amountToCreditLD",
          "type": "uint256"
        },
        {
          "indexed": false,
          "internalType": "uint256",
          "name": "amountReceivedLD",
          "type": "uint256"
        }
      ],
      "name": "OFTReceived",
      "type": "event"
    },
    {
      "anonymous": false,
      "inputs": [
        {
          "indexed": true,
          "internalType": "bytes32",
          "name": "guid",
          "type": "bytes32"
        },
        {
          "indexed": true,
          "internalType": "address",
          "name": "fromAddress",
          "type": "address"
        },
        {
          "indexed": false,
          "internalType": "uint256",
          "name": "amountDebitedLD",
          "type": "uint256"
        },
        {
          "indexed": false,
          "internalType": "uint256",
          "name": "amountToCreditLD",
          "type": "uint256"
        },
        {
          "indexed": false,
          "internalType": "bytes",
          "name": "composeMsg",
          "type": "bytes"
        }
      ],
      "name": "OFTSent",
      "type": "event"
    },
    {
      "anonymous": false,
      "inputs": [
        {
          "indexed": true,
          "internalType": "address",
          "name": "previousOwner",
          "type": "address"
        },
        {
          "indexed": true,
          "internalType": "address",
          "name": "newOwner",
          "type": "address"
        }
      ],
      "name": "OwnershipTransferred",
      "type": "event"
    },
    {
      "anonymous": false,
      "inputs": [
        {
          "indexed": false,
          "internalType": "uint32",
          "name": "eid",
          "type": "uint32"
        },
        {
          "indexed": false,
          "internalType": "bytes32",
          "name": "peer",
          "type": "bytes32"
        }
      ],
      "name": "PeerSet",
      "type": "event"
    },
    {
      "anonymous": false,
      "inputs": [
        {
          "indexed": false,
          "internalType": "address",
          "name": "preCrimeAddress",
          "type": "address"
        }
      ],
      "name": "PreCrimeSet",
      "type": "event"
    },
    {
      "anonymous": false,
      "inputs": [
        {
          "indexed": true,
          "internalType": "address",
          "name": "from",
          "type": "address"
        },
        {
          "indexed": true,
          "internalType": "address",
          "name": "to",
          "type": "address"
        },
        {
          "indexed": false,
          "internalType": "uint256",
          "name": "value",
          "type": "uint256"
        }
      ],
      "name": "Transfer",
      "type": "event"
    },
    {
      "inputs": [],
      "name": "SEND",
      "outputs": [
        {
          "internalType": "uint16",
          "name": "",
          "type": "uint16"
        }
      ],
      "stateMutability": "view",
      "type": "function"
    },
    {
      "inputs": [],
      "name": "SEND_AND_CALL",
      "outputs": [
        {
          "internalType": "uint16",
          "name": "",
          "type": "uint16"
        }
      ],
      "stateMutability": "view",
      "type": "function"
    },
    {
      "inputs": [
        {
          "components": [
            {
              "internalType": "uint32",
              "name": "srcEid",
              "type": "uint32"
            },
            {
              "internalType": "bytes32",
              "name": "sender",
              "type": "bytes32"
            },
            {
              "internalType": "uint64",
              "name": "nonce",
              "type": "uint64"
            }
          ],
          "internalType": "struct Origin",
          "name": "origin",
          "type": "tuple"
        }
      ],
      "name": "allowInitializePath",
      "outputs": [
        {
          "internalType": "bool",
          "name": "",
          "type": "bool"
        }
      ],
      "stateMutability": "view",
      "type": "function"
    },
    {
      "inputs": [
        {
          "internalType": "address",
          "name": "owner",
          "type": "address"
        },
        {
          "internalType": "address",
          "name": "spender",
          "type": "address"
        }
      ],
      "name": "allowance",
      "outputs": [
        {
          "internalType": "uint256",
          "name": "",
          "type": "uint256"
        }
      ],
      "stateMutability": "view",
      "type": "function"
    },
    {
      "inputs": [
        {
          "internalType": "address",
          "name": "spender",
          "type": "address"
        },
        {
          "internalType": "uint256",
          "name": "value",
          "type": "uint256"
        }
      ],
      "name": "approve",
      "outputs": [
        {
          "internalType": "bool",
          "name": "",
          "type": "bool"
        }
      ],
      "stateMutability": "nonpayable",
      "type": "function"
    },
    {
      "inputs": [
        {
          "internalType": "address",
          "name": "account",
          "type": "address"
        }
      ],
      "name": "balanceOf",
      "outputs": [
        {
          "internalType": "uint256",
          "name": "",
          "type": "uint256"
        }
      ],
      "stateMutability": "view",
      "type": "function"
    },
    {
      "inputs": [
        {
          "internalType": "uint32",
          "name": "_eid",
          "type": "uint32"
        },
        {
          "internalType": "uint16",
          "name": "_msgType",
          "type": "uint16"
        },
        {
          "internalType": "bytes",
          "name": "_extraOptions",
          "type": "bytes"
        }
      ],
      "name": "combineOptions",
      "outputs": [
        {
          "internalType": "bytes",
          "name": "",
          "type": "bytes"
        }
      ],
      "stateMutability": "view",
      "type": "function"
    },
    {
      "inputs": [],
      "name": "decimalConversionRate",
      "outputs": [
        {
          "internalType": "uint256",
          "name": "",
          "type": "uint256"
        }
      ],
      "stateMutability": "view",
      "type": "function"
    },
    {
      "inputs": [],
      "name": "decimals",
      "outputs": [
        {
          "internalType": "uint8",
          "name": "",
          "type": "uint8"
        }
      ],
      "stateMutability": "view",
      "type": "function"
    },
    {
      "inputs": [],
      "name": "endpoint",
      "outputs": [
        {
          "internalType": "contract ILayerZeroEndpointV2",
          "name": "",
          "type": "address"
        }
      ],
      "stateMutability": "view",
      "type": "function"
    },
    {
      "inputs": [
        {
          "internalType": "uint32",
          "name": "eid",
          "type": "uint32"
        },
        {
          "internalType": "uint16",
          "name": "msgType",
          "type": "uint16"
        }
      ],
      "name": "enforcedOptions",
      "outputs": [
        {
          "internalType": "bytes",
          "name": "enforcedOption",
          "type": "bytes"
        }
      ],
      "stateMutability": "view",
      "type": "function"
    },
    {
      "inputs": [
        {
          "internalType": "uint32",
          "name": "_eid",
          "type": "uint32"
        },
        {
          "internalType": "bytes32",
          "name": "_peer",
          "type": "bytes32"
        }
      ],
      "name": "isPeer",
      "outputs": [
        {
          "internalType": "bool",
          "name": "",
          "type": "bool"
        }
      ],
      "stateMutability": "view",
      "type": "function"
    },
    {
      "inputs": [
        {
          "components": [
            {
              "internalType": "uint32",
              "name": "srcEid",
              "type": "uint32"
            },
            {
              "internalType": "bytes32",
              "name": "sender",
              "type": "bytes32"
            },
            {
              "internalType": "uint64",
              "name": "nonce",
              "type": "uint64"
            }
          ],
          "internalType": "struct Origin",
          "name": "_origin",
          "type": "tuple"
        },
        {
          "internalType": "bytes32",
          "name": "_guid",
          "type": "bytes32"
        },
        {
          "internalType": "bytes",
          "name": "_message",
          "type": "bytes"
        },
        {
          "internalType": "address",
          "name": "_executor",
          "type": "address"
        },
        {
          "internalType": "bytes",
          "name": "_extraData",
          "type": "bytes"
        }
      ],
      "name": "lzReceive",
      "outputs": [],
      "stateMutability": "payable",
      "type": "function"
    },
    {
      "inputs": [
        {
          "components": [
            {
              "components": [
                {
                  "internalType": "uint32",
                  "name": "srcEid",
                  "type": "uint32"
                },
                {
                  "internalType": "bytes32",
                  "name": "sender",
                  "type": "bytes32"
                },
                {
                  "internalType": "uint64",
                  "name": "nonce",
                  "type": "uint64"
                }
              ],
              "internalType": "struct Origin",
              "name": "origin",
              "type": "tuple"
            },
            {
              "internalType": "uint32",
              "name": "dstEid",
              "type": "uint32"
            },
            {
              "internalType": "address",
              "name": "receiver",
              "type": "address"
            },
            {
              "internalType": "bytes32",
              "name": "guid",
              "type": "bytes32"
            },
            {
              "internalType": "uint256",
              "name": "value",
              "type": "uint256"
            },
            {
              "internalType": "address",
              "name": "executor",
              "type": "address"
            },
            {
              "internalType": "bytes",
              "name": "message",
              "type": "bytes"
            },
            {
              "internalType": "bytes",
              "name": "extraData",
              "type": "bytes"
            }
          ],
          "internalType": "struct InboundPacket[]",
          "name": "_packets",
          "type": "tuple[]"
        }
      ],
      "name": "lzReceiveAndRevert",
      "outputs": [],
      "stateMutability": "payable",
      "type": "function"
    },
    {
      "inputs": [
        {
          "components": [
            {
              "internalType": "uint32",
              "name": "srcEid",
              "type": "uint32"
            },
            {
              "internalType": "bytes32",
              "name": "sender",
              "type": "bytes32"
            },
            {
              "internalType": "uint64",
              "name": "nonce",
              "type": "uint64"
            }
          ],
          "internalType": "struct Origin",
          "name": "_origin",
          "type": "tuple"
        },
        {
          "internalType": "bytes32",
          "name": "_guid",
          "type": "bytes32"
        },
        {
          "internalType": "bytes",
          "name": "_message",
          "type": "bytes"
        },
        {
          "internalType": "address",
          "name": "_executor",
          "type": "address"
        },
        {
          "internalType": "bytes",
          "name": "_extraData",
          "type": "bytes"
        }
      ],
      "name": "lzReceiveSimulate",
      "outputs": [],
      "stateMutability": "payable",
      "type": "function"
    },
    {
      "inputs": [
        {
          "internalType": "address",
          "name": "_to",
          "type": "address"
        },
        {
          "internalType": "uint256",
          "name": "_amount",
          "type": "uint256"
        }
      ],
      "name": "mint",
      "outputs": [],
      "stateMutability": "payable",
      "type": "function"
    },
    {
      "inputs": [],
      "name": "mintingFee",
      "outputs": [
        {
          "internalType": "uint256",
          "name": "",
          "type": "uint256"
        }
      ],
      "stateMutability": "view",
      "type": "function"
    },
    {
      "inputs": [],
      "name": "msgInspector",
      "outputs": [
        {
          "internalType": "address",
          "name": "",
          "type": "address"
        }
      ],
      "stateMutability": "view",
      "type": "function"
    },
    {
      "inputs": [],
      "name": "name",
      "outputs": [
        {
          "internalType": "string",
          "name": "",
          "type": "string"
        }
      ],
      "stateMutability": "view",
      "type": "function"
    },
    {
      "inputs": [
        {
          "internalType": "uint32",
          "name": "",
          "type": "uint32"
        },
        {
          "internalType": "bytes32",
          "name": "",
          "type": "bytes32"
        }
      ],
      "name": "nextNonce",
      "outputs": [
        {
          "internalType": "uint64",
          "name": "nonce",
          "type": "uint64"
        }
      ],
      "stateMutability": "view",
      "type": "function"
    },
    {
      "inputs": [],
      "name": "oApp",
      "outputs": [
        {
          "internalType": "address",
          "name": "",
          "type": "address"
        }
      ],
      "stateMutability": "view",
      "type": "function"
    },
    {
      "inputs": [],
      "name": "oAppVersion",
      "outputs": [
        {
          "internalType": "uint64",
          "name": "senderVersion",
          "type": "uint64"
        },
        {
          "internalType": "uint64",
          "name": "receiverVersion",
          "type": "uint64"
        }
      ],
      "stateMutability": "pure",
      "type": "function"
    },
    {
      "inputs": [],
      "name": "oftVersion",
      "outputs": [
        {
          "internalType": "uint64",
          "name": "major",
          "type": "uint64"
        },
        {
          "internalType": "uint64",
          "name": "minor",
          "type": "uint64"
        }
      ],
      "stateMutability": "pure",
      "type": "function"
    },
    {
      "inputs": [],
      "name": "owner",
      "outputs": [
        {
          "internalType": "address",
          "name": "",
          "type": "address"
        }
      ],
      "stateMutability": "view",
      "type": "function"
    },
    {
      "inputs": [
        {
          "internalType": "uint32",
          "name": "eid",
          "type": "uint32"
        }
      ],
      "name": "peers",
      "outputs": [
        {
          "internalType": "bytes32",
          "name": "peer",
          "type": "bytes32"
        }
      ],
      "stateMutability": "view",
      "type": "function"
    },
    {
      "inputs": [],
      "name": "preCrime",
      "outputs": [
        {
          "internalType": "address",
          "name": "",
          "type": "address"
        }
      ],
      "stateMutability": "view",
      "type": "function"
    },
    {
      "inputs": [
        {
          "components": [
            {
              "internalType": "uint32",
              "name": "dstEid",
              "type": "uint32"
            },
            {
              "internalType": "bytes32",
              "name": "to",
              "type": "bytes32"
            },
            {
              "internalType": "uint256",
              "name": "amountToSendLD",
              "type": "uint256"
            },
            {
              "internalType": "uint256",
              "name": "minAmountToCreditLD",
              "type": "uint256"
            }
          ],
          "internalType": "struct SendParam",
          "name": "_sendParam",
          "type": "tuple"
        },
        {
          "internalType": "bytes",
          "name": "",
          "type": "bytes"
        }
      ],
      "name": "quoteOFT",
      "outputs": [
        {
          "components": [
            {
              "internalType": "uint256",
              "name": "minAmountLD",
              "type": "uint256"
            },
            {
              "internalType": "uint256",
              "name": "maxAmountLD",
              "type": "uint256"
            }
          ],
          "internalType": "struct OFTLimit",
          "name": "oftLimit",
          "type": "tuple"
        },
        {
          "components": [
            {
              "internalType": "uint256",
              "name": "feeAmountLD",
              "type": "uint256"
            },
            {
              "internalType": "string",
              "name": "description",
              "type": "string"
            }
          ],
          "internalType": "struct OFTFeeDetail[]",
          "name": "oftFeeDetails",
          "type": "tuple[]"
        },
        {
          "components": [
            {
              "internalType": "uint256",
              "name": "amountDebitLD",
              "type": "uint256"
            },
            {
              "internalType": "uint256",
              "name": "amountCreditLD",
              "type": "uint256"
            }
          ],
          "internalType": "struct OFTReceipt",
          "name": "oftReceipt",
          "type": "tuple"
        }
      ],
      "stateMutability": "view",
      "type": "function"
    },
    {
      "inputs": [
        {
          "components": [
            {
              "internalType": "uint32",
              "name": "dstEid",
              "type": "uint32"
            },
            {
              "internalType": "bytes32",
              "name": "to",
              "type": "bytes32"
            },
            {
              "internalType": "uint256",
              "name": "amountToSendLD",
              "type": "uint256"
            },
            {
              "internalType": "uint256",
              "name": "minAmountToCreditLD",
              "type": "uint256"
            }
          ],
          "internalType": "struct SendParam",
          "name": "_sendParam",
          "type": "tuple"
        },
        {
          "internalType": "bytes",
          "name": "_extraOptions",
          "type": "bytes"
        },
        {
          "internalType": "bool",
          "name": "_payInLzToken",
          "type": "bool"
        },
        {
          "internalType": "bytes",
          "name": "_composeMsg",
          "type": "bytes"
        },
        {
          "internalType": "bytes",
          "name": "",
          "type": "bytes"
        }
      ],
      "name": "quoteSend",
      "outputs": [
        {
          "components": [
            {
              "internalType": "uint256",
              "name": "nativeFee",
              "type": "uint256"
            },
            {
              "internalType": "uint256",
              "name": "lzTokenFee",
              "type": "uint256"
            }
          ],
          "internalType": "struct MessagingFee",
          "name": "msgFee",
          "type": "tuple"
        }
      ],
      "stateMutability": "view",
      "type": "function"
    },
    {
      "inputs": [],
      "name": "renounceOwnership",
      "outputs": [],
      "stateMutability": "nonpayable",
      "type": "function"
    },
    {
      "inputs": [
        {
          "components": [
            {
              "internalType": "uint32",
              "name": "dstEid",
              "type": "uint32"
            },
            {
              "internalType": "bytes32",
              "name": "to",
              "type": "bytes32"
            },
            {
              "internalType": "uint256",
              "name": "amountToSendLD",
              "type": "uint256"
            },
            {
              "internalType": "uint256",
              "name": "minAmountToCreditLD",
              "type": "uint256"
            }
          ],
          "internalType": "struct SendParam",
          "name": "_sendParam",
          "type": "tuple"
        },
        {
          "internalType": "bytes",
          "name": "_extraOptions",
          "type": "bytes"
        },
        {
          "components": [
            {
              "internalType": "uint256",
              "name": "nativeFee",
              "type": "uint256"
            },
            {
              "internalType": "uint256",
              "name": "lzTokenFee",
              "type": "uint256"
            }
          ],
          "internalType": "struct MessagingFee",
          "name": "_fee",
          "type": "tuple"
        },
        {
          "internalType": "address",
          "name": "_refundAddress",
          "type": "address"
        },
        {
          "internalType": "bytes",
          "name": "_composeMsg",
          "type": "bytes"
        },
        {
          "internalType": "bytes",
          "name": "",
          "type": "bytes"
        }
      ],
      "name": "send",
      "outputs": [
        {
          "components": [
            {
              "internalType": "bytes32",
              "name": "guid",
              "type": "bytes32"
            },
            {
              "internalType": "uint64",
              "name": "nonce",
              "type": "uint64"
            },
            {
              "components": [
                {
                  "internalType": "uint256",
                  "name": "nativeFee",
                  "type": "uint256"
                },
                {
                  "internalType": "uint256",
                  "name": "lzTokenFee",
                  "type": "uint256"
                }
              ],
              "internalType": "struct MessagingFee",
              "name": "fee",
              "type": "tuple"
            }
          ],
          "internalType": "struct MessagingReceipt",
          "name": "msgReceipt",
          "type": "tuple"
        },
        {
          "components": [
            {
              "internalType": "uint256",
              "name": "amountDebitLD",
              "type": "uint256"
            },
            {
              "internalType": "uint256",
              "name": "amountCreditLD",
              "type": "uint256"
            }
          ],
          "internalType": "struct OFTReceipt",
          "name": "oftReceipt",
          "type": "tuple"
        }
      ],
      "stateMutability": "payable",
      "type": "function"
    },
    {
      "inputs": [
        {
          "internalType": "address",
          "name": "_delegate",
          "type": "address"
        }
      ],
      "name": "setDelegate",
      "outputs": [],
      "stateMutability": "nonpayable",
      "type": "function"
    },
    {
      "inputs": [
        {
          "components": [
            {
              "internalType": "uint32",
              "name": "eid",
              "type": "uint32"
            },
            {
              "internalType": "uint16",
              "name": "msgType",
              "type": "uint16"
            },
            {
              "internalType": "bytes",
              "name": "options",
              "type": "bytes"
            }
          ],
          "internalType": "struct EnforcedOptionParam[]",
          "name": "_enforcedOptions",
          "type": "tuple[]"
        }
      ],
      "name": "setEnforcedOptions",
      "outputs": [],
      "stateMutability": "nonpayable",
      "type": "function"
    },
    {
      "inputs": [
        {
          "internalType": "uint256",
          "name": "_newFee",
          "type": "uint256"
        }
      ],
      "name": "setMintingFee",
      "outputs": [],
      "stateMutability": "nonpayable",
      "type": "function"
    },
    {
      "inputs": [
        {
          "internalType": "address",
          "name": "_msgInspector",
          "type": "address"
        }
      ],
      "name": "setMsgInspector",
      "outputs": [],
      "stateMutability": "nonpayable",
      "type": "function"
    },
    {
      "inputs": [
        {
          "internalType": "uint32",
          "name": "_eid",
          "type": "uint32"
        },
        {
          "internalType": "bytes32",
          "name": "_peer",
          "type": "bytes32"
        }
      ],
      "name": "setPeer",
      "outputs": [],
      "stateMutability": "nonpayable",
      "type": "function"
    },
    {
      "inputs": [
        {
          "internalType": "address",
          "name": "_preCrime",
          "type": "address"
        }
      ],
      "name": "setPreCrime",
      "outputs": [],
      "stateMutability": "nonpayable",
      "type": "function"
    },
    {
      "inputs": [],
      "name": "sharedDecimals",
      "outputs": [
        {
          "internalType": "uint8",
          "name": "",
          "type": "uint8"
        }
      ],
      "stateMutability": "pure",
      "type": "function"
    },
    {
      "inputs": [],
      "name": "symbol",
      "outputs": [
        {
          "internalType": "string",
          "name": "",
          "type": "string"
        }
      ],
      "stateMutability": "view",
      "type": "function"
    },
    {
      "inputs": [],
      "name": "token",
      "outputs": [
        {
          "internalType": "address",
          "name": "",
          "type": "address"
        }
      ],
      "stateMutability": "view",
      "type": "function"
    },
    {
      "inputs": [],
      "name": "totalSupply",
      "outputs": [
        {
          "internalType": "uint256",
          "name": "",
          "type": "uint256"
        }
      ],
      "stateMutability": "view",
      "type": "function"
    },
    {
      "inputs": [
        {
          "internalType": "address",
          "name": "to",
          "type": "address"
        },
        {
          "internalType": "uint256",
          "name": "value",
          "type": "uint256"
        }
      ],
      "name": "transfer",
      "outputs": [
        {
          "internalType": "bool",
          "name": "",
          "type": "bool"
        }
      ],
      "stateMutability": "nonpayable",
      "type": "function"
    },
    {
      "inputs": [
        {
          "internalType": "address",
          "name": "from",
          "type": "address"
        },
        {
          "internalType": "address",
          "name": "to",
          "type": "address"
        },
        {
          "internalType": "uint256",
          "name": "value",
          "type": "uint256"
        }
      ],
      "name": "transferFrom",
      "outputs": [
        {
          "internalType": "bool",
          "name": "",
          "type": "bool"
        }
      ],
      "stateMutability": "nonpayable",
      "type": "function"
    },
    {
      "inputs": [
        {
          "internalType": "address",
          "name": "newOwner",
          "type": "address"
        }
      ],
      "name": "transferOwnership",
      "outputs": [],
      "stateMutability": "nonpayable",
      "type": "function"
    },
    {
      "inputs": [],
      "name": "withdrawFees",
      "outputs": [],
      "stateMutability": "nonpayable",
      "type": "function"
    }
  ],
  "bytecode": "0x60c06040523480156200001157600080fd5b50604051620064d8380380620064d8833981810160405281019062000037919062000832565b8585858583836200004d6200026960201b60201c565b8484818181818f600073ffffffffffffffffffffffffffffffffffffffff168173ffffffffffffffffffffffffffffffffffffffff1603620000c95760006040517f1e4fbdf7000000000000000000000000000000000000000000000000000000008152600401620000c091906200091d565b60405180910390fd5b620000da816200027260201b60201c565b50620000ec816200027260201b60201c565b8173ffffffffffffffffffffffffffffffffffffffff1660808173ffffffffffffffffffffffffffffffffffffffff168152505060805173ffffffffffffffffffffffffffffffffffffffff1663ca5eb5e1826040518263ffffffff1660e01b81526004016200015d91906200091d565b600060405180830381600087803b1580156200017857600080fd5b505af11580156200018d573d6000803e3d6000fd5b5050505050505050620001a56200033660201b60201c565b60ff168360ff161015620001e5576040517f1e9714b000000000000000000000000000000000000000000000000000000000815260040160405180910390fd5b620001f56200033660201b60201c565b8362000202919062000976565b600a62000210919062000b06565b60a0818152505050505081600890816200022b919062000d98565b5080600990816200023d919062000d98565b505050505050506200025683836200033f60201b60201c565b80600a8190555050505050505062000f25565b60006012905090565b60008060009054906101000a900473ffffffffffffffffffffffffffffffffffffffff169050816000806101000a81548173ffffffffffffffffffffffffffffffffffffffff021916908373ffffffffffffffffffffffffffffffffffffffff1602179055508173ffffffffffffffffffffffffffffffffffffffff168173ffffffffffffffffffffffffffffffffffffffff167f8be0079c531659141344cd1fd0a4f28419497f9722a3daafe3b4186f6b6457e060405160405180910390a35050565b60006006905090565b600073ffffffffffffffffffffffffffffffffffffffff168273ffffffffffffffffffffffffffffffffffffffff1603620003b45760006040517fec442f05000000000000000000000000000000000000000000000000000000008152600401620003ab91906200091d565b60405180910390fd5b620003c860008383620003cc60201b60201c565b5050565b600073ffffffffffffffffffffffffffffffffffffffff168373ffffffffffffffffffffffffffffffffffffffff16036200042257806007600082825462000415919062000e7f565b92505081905550620004fa565b6000600560008573ffffffffffffffffffffffffffffffffffffffff1673ffffffffffffffffffffffffffffffffffffffff16815260200190815260200160002054905081811015620004b2578381836040517fe450d38c000000000000000000000000000000000000000000000000000000008152600401620004a99392919062000ecb565b60405180910390fd5b818103600560008673ffffffffffffffffffffffffffffffffffffffff1673ffffffffffffffffffffffffffffffffffffffff16815260200190815260200160002081905550505b600073ffffffffffffffffffffffffffffffffffffffff168273ffffffffffffffffffffffffffffffffffffffff160362000545578060076000828254039250508190555062000593565b80600560008473ffffffffffffffffffffffffffffffffffffffff1673ffffffffffffffffffffffffffffffffffffffff168152602001908152602001600020600082825401925050819055505b8173ffffffffffffffffffffffffffffffffffffffff168373ffffffffffffffffffffffffffffffffffffffff167fddf252ad1be2c89b69c2b068fc378daa952ba7f163c4a11628f55a4df523b3ef83604051620005f2919062000f08565b60405180910390a3505050565b6000604051905090565b600080fd5b600080fd5b600080fd5b600080fd5b6000601f19601f8301169050919050565b7f4e487b7100000000000000000000000000000000000000000000000000000000600052604160045260246000fd5b62000668826200061d565b810181811067ffffffffffffffff821117156200068a57620006896200062e565b5b80604052505050565b60006200069f620005ff565b9050620006ad82826200065d565b919050565b600067ffffffffffffffff821115620006d057620006cf6200062e565b5b620006db826200061d565b9050602081019050919050565b60005b8381101562000708578082015181840152602081019050620006eb565b60008484015250505050565b60006200072b6200072584620006b2565b62000693565b9050828152602081018484840111156200074a576200074962000618565b5b62000757848285620006e8565b509392505050565b600082601f83011262000777576200077662000613565b5b81516200078984826020860162000714565b91505092915050565b600073ffffffffffffffffffffffffffffffffffffffff82169050919050565b6000620007bf8262000792565b9050919050565b620007d181620007b2565b8114620007dd57600080fd5b50565b600081519050620007f181620007c6565b92915050565b6000819050919050565b6200080c81620007f7565b81146200081857600080fd5b50565b6000815190506200082c8162000801565b92915050565b60008060008060008060c0878903121562000852576200085162000609565b5b600087015167ffffffffffffffff8111156200087357620008726200060e565b5b6200088189828a016200075f565b965050602087015167ffffffffffffffff811115620008a557620008a46200060e565b5b620008b389828a016200075f565b9550506040620008c689828a01620007e0565b9450506060620008d989828a01620007e0565b9350506080620008ec89828a016200081b565b92505060a0620008ff89828a016200081b565b9150509295509295509295565b6200091781620007b2565b82525050565b60006020820190506200093460008301846200090c565b92915050565b600060ff82169050919050565b7f4e487b7100000000000000000000000000000000000000000000000000000000600052601160045260246000fd5b600062000983826200093a565b915062000990836200093a565b9250828203905060ff811115620009ac57620009ab62000947565b5b92915050565b60008160011c9050919050565b6000808291508390505b600185111562000a1157808604811115620009e957620009e862000947565b5b6001851615620009f95780820291505b808102905062000a0985620009b2565b9450620009c9565b94509492505050565b60008262000a2c576001905062000aff565b8162000a3c576000905062000aff565b816001811462000a55576002811462000a605762000a96565b600191505062000aff565b60ff84111562000a755762000a7462000947565b5b8360020a91508482111562000a8f5762000a8e62000947565b5b5062000aff565b5060208310610133831016604e8410600b841016171562000ad05782820a90508381111562000aca5762000ac962000947565b5b62000aff565b62000adf8484846001620009bf565b9250905081840481111562000af95762000af862000947565b5b81810290505b9392505050565b600062000b1382620007f7565b915062000b20836200093a565b925062000b4f7fffffffffffffffffffffffffffffffffffffffffffffffffffffffffffffffff848462000a1a565b905092915050565b600081519050919050565b7f4e487b7100000000000000000000000000000000000000000000000000000000600052602260045260246000fd5b6000600282049050600182168062000baa57607f821691505b60208210810362000bc05762000bbf62000b62565b5b50919050565b60008190508160005260206000209050919050565b60006020601f8301049050919050565b600082821b905092915050565b60006008830262000c2a7fffffffffffffffffffffffffffffffffffffffffffffffffffffffffffffffff8262000beb565b62000c36868362000beb565b95508019841693508086168417925050509392505050565b6000819050919050565b600062000c7962000c7362000c6d84620007f7565b62000c4e565b620007f7565b9050919050565b6000819050919050565b62000c958362000c58565b62000cad62000ca48262000c80565b84845462000bf8565b825550505050565b600090565b62000cc462000cb5565b62000cd181848462000c8a565b505050565b5b8181101562000cf95762000ced60008262000cba565b60018101905062000cd7565b5050565b601f82111562000d485762000d128162000bc6565b62000d1d8462000bdb565b8101602085101562000d2d578190505b62000d4562000d3c8562000bdb565b83018262000cd6565b50505b505050565b600082821c905092915050565b600062000d6d6000198460080262000d4d565b1980831691505092915050565b600062000d88838362000d5a565b9150826002028217905092915050565b62000da38262000b57565b67ffffffffffffffff81111562000dbf5762000dbe6200062e565b5b62000dcb825462000b91565b62000dd882828562000cfd565b600060209050601f83116001811462000e10576000841562000dfb578287015190505b62000e07858262000d7a565b86555062000e77565b601f19841662000e208662000bc6565b60005b8281101562000e4a5784890151825560018201915060208501945060208101905062000e23565b8683101562000e6a578489015162000e66601f89168262000d5a565b8355505b6001600288020188555050505b505050505050565b600062000e8c82620007f7565b915062000e9983620007f7565b925082820190508082111562000eb45762000eb362000947565b5b92915050565b62000ec581620007f7565b82525050565b600060608201905062000ee260008301866200090c565b62000ef1602083018562000eba565b62000f00604083018462000eba565b949350505050565b600060208201905062000f1f600083018462000eba565b92915050565b60805160a05161554062000f98600039600081816112100152818161280701528181612b2d01528181612b4e0152612b8d015260008181610b4601528181611040015281816118a301528181611caf015281816122370152818161238501528181612cd60152612dd101526155406000f3fe6080604052600436106102675760003560e01c80636fc1b31e11610144578063bb0b6a53116100b6578063d045a0dc1161007a578063d045a0dc1461093f578063d42438851461095b578063dd62ed3e14610984578063f2fde38b146109c1578063fc0c546a146109ea578063ff7bd03d14610a1557610267565b8063bb0b6a5314610841578063bc70b3541461087e578063bd815db0146108bb578063c1e36500146108d7578063ca5eb5e11461091657610267565b80638da5cb5b116101085780638da5cb5b1461072f57806395d89b411461075a578063963efcaa14610785578063a9059cbb146107b0578063b731ea0a146107ed578063b98bd0701461081857610267565b80636fc1b31e1461064a57806370a0823114610673578063715018a6146106b05780637d25a05e146106c7578063857749b01461070457610267565b8063313ce567116101dd57806349e46017116101a157806349e460171461051e57806352ae28791461054f5780635535d4611461057a5780635a0dfe4d146105b75780635a64ad95146105f45780635e280f111461061f57610267565b8063313ce5671461045a5780633400288b1461048557806340c10f19146104ae57806346a40f75146104ca578063476343ee1461050757610267565b8063156a0d0f1161022f578063156a0d0f1461034657806317442b701461037257806318160ddd1461039e5780631f5e1334146103c9578063238a4709146103f457806323b872dd1461041d57610267565b806306fdde031461026c578063095ea7b314610297578063111ecdad146102d457806313137d65146102ff578063134d4f251461031b575b600080fd5b34801561027857600080fd5b50610281610a52565b60405161028e91906132bd565b60405180910390f35b3480156102a357600080fd5b506102be60048036038101906102b99190613387565b610ae4565b6040516102cb91906133e2565b60405180910390f35b3480156102e057600080fd5b506102e9610b07565b6040516102f6919061340c565b60405180910390f35b610319600480360381019061031491906134e6565b610b2d565b005b34801561032757600080fd5b50610330610c4f565b60405161033d91906135bf565b60405180910390f35b34801561035257600080fd5b5061035b610c54565b6040516103699291906135fd565b60405180910390f35b34801561037e57600080fd5b50610387610c62565b6040516103959291906135fd565b60405180910390f35b3480156103aa57600080fd5b506103b3610c70565b6040516103c09190613635565b60405180910390f35b3480156103d557600080fd5b506103de610c7a565b6040516103eb91906135bf565b60405180910390f35b34801561040057600080fd5b5061041b60048036038101906104169190613650565b610c7f565b005b34801561042957600080fd5b50610444600480360381019061043f919061367d565b610c91565b60405161045191906133e2565b60405180910390f35b34801561046657600080fd5b5061046f610cc0565b60405161047c91906136ec565b60405180910390f35b34801561049157600080fd5b506104ac60048036038101906104a79190613743565b610cc9565b005b6104c860048036038101906104c39190613387565b610d32565b005b3480156104d657600080fd5b506104f160048036038101906104ec91906137ce565b610d85565b6040516104fe91906138e9565b60405180910390f35b34801561051357600080fd5b5061051c610dfb565b005b61053860048036038101906105339190613923565b610e53565b604051610546929190613ad3565b60405180910390f35b34801561055b57600080fd5b50610564610f57565b604051610571919061340c565b60405180910390f35b34801561058657600080fd5b506105a1600480360381019061059c9190613b28565b610f5f565b6040516105ae9190613bbd565b60405180910390f35b3480156105c357600080fd5b506105de60048036038101906105d99190613743565b61100c565b6040516105eb91906133e2565b60405180910390f35b34801561060057600080fd5b50610609611038565b6040516106169190613635565b60405180910390f35b34801561062b57600080fd5b5061063461103e565b6040516106419190613c3e565b60405180910390f35b34801561065657600080fd5b50610671600480360381019061066c9190613c59565b611062565b005b34801561067f57600080fd5b5061069a60048036038101906106959190613c59565b6110e5565b6040516106a79190613635565b60405180910390f35b3480156106bc57600080fd5b506106c561112e565b005b3480156106d357600080fd5b506106ee60048036038101906106e99190613743565b611142565b6040516106fb9190613c86565b60405180910390f35b34801561071057600080fd5b5061071961114a565b60405161072691906136ec565b60405180910390f35b34801561073b57600080fd5b50610744611153565b604051610751919061340c565b60405180910390f35b34801561076657600080fd5b5061076f61117c565b60405161077c91906132bd565b60405180910390f35b34801561079157600080fd5b5061079a61120e565b6040516107a79190613635565b60405180910390f35b3480156107bc57600080fd5b506107d760048036038101906107d29190613387565b611232565b6040516107e491906133e2565b60405180910390f35b3480156107f957600080fd5b50610802611255565b60405161080f919061340c565b60405180910390f35b34801561082457600080fd5b5061083f600480360381019061083a9190613cf7565b61127b565b005b34801561084d57600080fd5b5061086860048036038101906108639190613d44565b6113fe565b6040516108759190613d80565b60405180910390f35b34801561088a57600080fd5b506108a560048036038101906108a09190613d9b565b611416565b6040516108b29190613bbd565b60405180910390f35b6108d560048036038101906108d09190613e65565b6115e0565b005b3480156108e357600080fd5b506108fe60048036038101906108f99190613eb2565b6117b9565b60405161090d9392919061408a565b60405180910390f35b34801561092257600080fd5b5061093d60048036038101906109389190613c59565b611899565b005b610959600480360381019061095491906134e6565b61192f565b005b34801561096757600080fd5b50610982600480360381019061097d9190613c59565b6119ac565b005b34801561099057600080fd5b506109ab60048036038101906109a691906140c8565b611a2f565b6040516109b89190613635565b60405180910390f35b3480156109cd57600080fd5b506109e860048036038101906109e39190613c59565b611ab6565b005b3480156109f657600080fd5b506109ff611b3c565b604051610a0c919061340c565b60405180910390f35b348015610a2157600080fd5b50610a3c6004803603810190610a379190614108565b611b44565b604051610a4991906133e2565b60405180910390f35b606060088054610a6190614164565b80601f0160208091040260200160405190810160405280929190818152602001828054610a8d90614164565b8015610ada5780601f10610aaf57610100808354040283529160200191610ada565b820191906000526020600020905b815481529060010190602001808311610abd57829003601f168201915b5050505050905090565b600080610aef611b85565b9050610afc818585611b8d565b600191505092915050565b600460009054906101000a900473ffffffffffffffffffffffffffffffffffffffff1681565b3373ffffffffffffffffffffffffffffffffffffffff167f000000000000000000000000000000000000000000000000000000000000000073ffffffffffffffffffffffffffffffffffffffff1614610bbd57336040517f91ac5e4f000000000000000000000000000000000000000000000000000000008152600401610bb4919061340c565b60405180910390fd5b8660200135610bdd886000016020810190610bd89190613d44565b611b9f565b14610c3757866000016020810190610bf59190613d44565b87602001356040517fc26bebcc000000000000000000000000000000000000000000000000000000008152600401610c2e9291906141a4565b60405180910390fd5b610c4687878787878787611c14565b50505050505050565b600281565b600080600180915091509091565b600080600180915091509091565b6000600754905090565b600181565b610c87611d9e565b80600a8190555050565b600080610c9c611b85565b9050610ca9858285611e25565b610cb4858585611eb9565b60019150509392505050565b60006012905090565b610cd1611d9e565b80600160008463ffffffff1663ffffffff168152602001908152602001600020819055507f238399d427b947898edb290f5ff0f9109849b1c3ba196a42e35f00c50a54b98b8282604051610d269291906141a4565b60405180910390a15050565b600a54341015610d77576040517f08c379a0000000000000000000000000000000000000000000000000000000008152600401610d6e90614219565b60405180910390fd5b610d818282611fad565b5050565b610d8d613191565b6000610db48a604001358b606001358c6000016020810190610daf9190613d44565b61202f565b915050600080610dc88c8c8c8b8b8861208f565b91509150610dea8c6000016020810190610de29190613d44565b83838c61222d565b935050505098975050505050505050565b610e03611d9e565b610e0b611153565b73ffffffffffffffffffffffffffffffffffffffff166108fc479081150290604051600060405180830381858888f19350505050158015610e50573d6000803e3d6000fd5b50565b610e5b6131ab565b610e636131df565b600080610e8b8d604001358e606001358f6000016020810190610e869190613d44565b612310565b91509150600080610ea08f8f8f8d8d8861208f565b91509150610ed38f6000016020810190610eba9190613d44565b83838f803603810190610ecd9190614309565b8f61234f565b955060405180604001604052808581526020018481525094503373ffffffffffffffffffffffffffffffffffffffff1686600001517fee6b77e8cd280835aecc97812d736c35faad222d91b12de19c7ed912e9aed71b86868e8e604051610f3d9493929190614372565b60405180910390a350505050995099975050505050505050565b600030905090565b6003602052816000526040600020602052806000526040600020600091509150508054610f8b90614164565b80601f0160208091040260200160405190810160405280929190818152602001828054610fb790614164565b80156110045780601f10610fd957610100808354040283529160200191611004565b820191906000526020600020905b815481529060010190602001808311610fe757829003601f168201915b505050505081565b600081600160008563ffffffff1663ffffffff1681526020019081526020016000205414905092915050565b600a5481565b7f000000000000000000000000000000000000000000000000000000000000000081565b61106a611d9e565b80600460006101000a81548173ffffffffffffffffffffffffffffffffffffffff021916908373ffffffffffffffffffffffffffffffffffffffff1602179055507ff0be4f1e87349231d80c36b33f9e8639658eeaf474014dee15a3e6a4d4414197816040516110da919061340c565b60405180910390a150565b6000600560008373ffffffffffffffffffffffffffffffffffffffff1673ffffffffffffffffffffffffffffffffffffffff168152602001908152602001600020549050919050565b611136611d9e565b611140600061246b565b565b600092915050565b60006006905090565b60008060009054906101000a900473ffffffffffffffffffffffffffffffffffffffff16905090565b60606009805461118b90614164565b80601f01602080910402602001604051908101604052809291908181526020018280546111b790614164565b80156112045780601f106111d957610100808354040283529160200191611204565b820191906000526020600020905b8154815290600101906020018083116111e757829003601f168201915b5050505050905090565b7f000000000000000000000000000000000000000000000000000000000000000081565b60008061123d611b85565b905061124a818585611eb9565b600191505092915050565b600260009054906101000a900473ffffffffffffffffffffffffffffffffffffffff1681565b611283611d9e565b60005b828290508110156113c0576112cd8383838181106112a7576112a66143b2565b5b90506020028101906112b991906143f0565b80604001906112c89190614418565b61252f565b8282828181106112e0576112df6143b2565b5b90506020028101906112f291906143f0565b80604001906113019190614418565b60036000868686818110611318576113176143b2565b5b905060200281019061132a91906143f0565b600001602081019061133c9190613d44565b63ffffffff1663ffffffff168152602001908152602001600020600086868681811061136b5761136a6143b2565b5b905060200281019061137d91906143f0565b602001602081019061138f919061447b565b61ffff1661ffff16815260200190815260200160002091826113b2929190614655565b508080600101915050611286565b507fbe4864a8e820971c0247f5992e2da559595f7bf076a21cb5928d443d2a13b67482826040516113f2929190614963565b60405180910390a15050565b60016020528060005260406000206000915090505481565b60606000600360008763ffffffff1663ffffffff16815260200190815260200160002060008661ffff1661ffff168152602001908152602001600020805461145d90614164565b80601f016020809104026020016040519081016040528092919081815260200182805461148990614164565b80156114d65780601f106114ab576101008083540402835291602001916114d6565b820191906000526020600020905b8154815290600101906020018083116114b957829003601f168201915b5050505050905060008151036115335783838080601f016020809104026020016040519081016040528093929190818152602001838380828437600081840152601f19601f820116905080830192505050505050509150506115d8565b6000848490500361154757809150506115d8565b600284849050106115995761155c848461252f565b808484600290809261157093929190614991565b60405160200161158293929190614a2d565b6040516020818303038152906040529150506115d8565b83836040517f9a6d49cd0000000000000000000000000000000000000000000000000000000081526004016115cf929190614a53565b60405180910390fd5b949350505050565b60005b828290508110156117085736838383818110611602576116016143b2565b5b90506020028101906116149190614a77565b905061163c81600001600001602081019061162f9190613d44565b826000016020013561100c565b61164657506116fb565b3073ffffffffffffffffffffffffffffffffffffffff1663d045a0dc8260c00135836000018460a00135858061010001906116819190614418565b8760e00160208101906116949190613c59565b888061012001906116a59190614418565b6040518963ffffffff1660e01b81526004016116c79796959493929190614b54565b6000604051808303818588803b1580156116e057600080fd5b505af11580156116f4573d6000803e3d6000fd5b5050505050505b80806001019150506115e3565b503373ffffffffffffffffffffffffffffffffffffffff16638e9e70996040518163ffffffff1660e01b8152600401600060405180830381865afa158015611754573d6000803e3d6000fd5b505050506040513d6000823e3d601f19601f8201168201806040525081019061177d9190614c5f565b6040517f8351eea70000000000000000000000000000000000000000000000000000000081526004016117b09190613bbd565b60405180910390fd5b6117c16131f9565b60606117cb6131df565b60008067ffffffffffffffff801690506040518060400160405280838152602001828152509450600067ffffffffffffffff81111561180d5761180c61423e565b5b60405190808252806020026020018201604052801561184657816020015b611833613213565b81526020019060019003908161182b5790505b5093506000806118718a604001358b606001358c600001602081019061186c9190613d44565b61202f565b9150915060405180604001604052808381526020018281525094505050505093509350939050565b6118a1611d9e565b7f000000000000000000000000000000000000000000000000000000000000000073ffffffffffffffffffffffffffffffffffffffff1663ca5eb5e1826040518263ffffffff1660e01b81526004016118fa919061340c565b600060405180830381600087803b15801561191457600080fd5b505af1158015611928573d6000803e3d6000fd5b5050505050565b3073ffffffffffffffffffffffffffffffffffffffff163373ffffffffffffffffffffffffffffffffffffffff1614611994576040517f14d4a4e800000000000000000000000000000000000000000000000000000000815260040160405180910390fd5b6119a3878787878787876125a9565b50505050505050565b6119b4611d9e565b80600260006101000a81548173ffffffffffffffffffffffffffffffffffffffff021916908373ffffffffffffffffffffffffffffffffffffffff1602179055507fd48d879cef83a1c0bdda516f27b13ddb1b3f8bbac1c9e1511bb2a659c242776081604051611a24919061340c565b60405180910390a150565b6000600660008473ffffffffffffffffffffffffffffffffffffffff1673ffffffffffffffffffffffffffffffffffffffff16815260200190815260200160002060008373ffffffffffffffffffffffffffffffffffffffff1673ffffffffffffffffffffffffffffffffffffffff16815260200190815260200160002054905092915050565b611abe611d9e565b600073ffffffffffffffffffffffffffffffffffffffff168173ffffffffffffffffffffffffffffffffffffffff1603611b305760006040517f1e4fbdf7000000000000000000000000000000000000000000000000000000008152600401611b27919061340c565b60405180910390fd5b611b398161246b565b50565b600030905090565b6000816020013560016000846000016020810190611b629190613d44565b63ffffffff1663ffffffff16815260200190815260200160002054149050919050565b600033905090565b611b9a83838360016125c1565b505050565b600080600160008463ffffffff1663ffffffff1681526020019081526020016000205490506000801b8103611c0b57826040517ff6ff4fb7000000000000000000000000000000000000000000000000000000008152600401611c029190614ca8565b60405180910390fd5b80915050919050565b6000611c28611c238787612798565b6127c4565b90506000611c3e611c3988886127d1565b612803565b90506000611c5f83838c6000016020810190611c5a9190613d44565b612842565b9050611c6b8888612858565b15611d41576000611cab8b6040016020810190611c889190614cc3565b8c6000016020810190611c9b9190613d44565b84611ca68d8d61286c565b6128cf565b90507f000000000000000000000000000000000000000000000000000000000000000073ffffffffffffffffffffffffffffffffffffffff16637cb59012858c6000856040518563ffffffff1660e01b8152600401611d0d9493929190614d2b565b600060405180830381600087803b158015611d2757600080fd5b505af1158015611d3b573d6000803e3d6000fd5b50505050505b8273ffffffffffffffffffffffffffffffffffffffff16897f80a66cf84dc0b742c17c4672ee6687d7cb340ab0e5d367ac6b02bed1a6489f8d8484604051611d8a929190614d77565b60405180910390a350505050505050505050565b611da6611b85565b73ffffffffffffffffffffffffffffffffffffffff16611dc4611153565b73ffffffffffffffffffffffffffffffffffffffff1614611e2357611de7611b85565b6040517f118cdaa7000000000000000000000000000000000000000000000000000000008152600401611e1a919061340c565b60405180910390fd5b565b6000611e318484611a2f565b90507fffffffffffffffffffffffffffffffffffffffffffffffffffffffffffffffff8114611eb35781811015611ea3578281836040517ffb8f41b2000000000000000000000000000000000000000000000000000000008152600401611e9a93929190614da0565b60405180910390fd5b611eb2848484840360006125c1565b5b50505050565b600073ffffffffffffffffffffffffffffffffffffffff168373ffffffffffffffffffffffffffffffffffffffff1603611f2b5760006040517f96c6fd1e000000000000000000000000000000000000000000000000000000008152600401611f22919061340c565b60405180910390fd5b600073ffffffffffffffffffffffffffffffffffffffff168273ffffffffffffffffffffffffffffffffffffffff1603611f9d5760006040517fec442f05000000000000000000000000000000000000000000000000000000008152600401611f94919061340c565b60405180910390fd5b611fa8838383612901565b505050565b600073ffffffffffffffffffffffffffffffffffffffff168273ffffffffffffffffffffffffffffffffffffffff160361201f5760006040517fec442f05000000000000000000000000000000000000000000000000000000008152600401612016919061340c565b60405180910390fd5b61202b60008383612901565b5050565b60008061203b85612b29565b9150819050838110156120875780846040517f71c4efed00000000000000000000000000000000000000000000000000000000815260040161207e929190614d77565b60405180910390fd5b935093915050565b60608060006120ef89602001356120a586612b89565b88888080601f016020809104026020016040519081016040528093929190818152602001838380828437600081840152601f19601f82011690508083019250505050505050612bbe565b8092508194505050600081612105576001612108565b60025b90506121288a60000160208101906121209190613d44565b828b8b611416565b9250600073ffffffffffffffffffffffffffffffffffffffff16600460009054906101000a900473ffffffffffffffffffffffffffffffffffffffff1673ffffffffffffffffffffffffffffffffffffffff161461222057600460009054906101000a900473ffffffffffffffffffffffffffffffffffffffff1673ffffffffffffffffffffffffffffffffffffffff1663043a78eb85856040518363ffffffff1660e01b81526004016121dd929190614dd7565b602060405180830381865afa1580156121fa573d6000803e3d6000fd5b505050506040513d601f19601f8201168201806040525081019061221e9190614e23565b505b5050965096945050505050565b612235613191565b7f000000000000000000000000000000000000000000000000000000000000000073ffffffffffffffffffffffffffffffffffffffff1663ddc28c586040518060a001604052808863ffffffff16815260200161229189611b9f565b8152602001878152602001868152602001851515815250306040518363ffffffff1660e01b81526004016122c6929190614f15565b6040805180830381865afa1580156122e2573d6000803e3d6000fd5b505050506040513d601f19601f820116820180604052508101906123069190614faa565b9050949350505050565b600080600085111561233457612327858585612c2d565b8092508193505050612347565b61233e8484612c55565b80925081935050505b935093915050565b6123576131ab565b60006123668460000151612c84565b9050600084602001511115612383576123828460200151612cd2565b5b7f000000000000000000000000000000000000000000000000000000000000000073ffffffffffffffffffffffffffffffffffffffff16632637a450826040518060a001604052808b63ffffffff1681526020016123e08c611b9f565b81526020018a815260200189815260200160008960200151111515815250866040518463ffffffff1660e01b815260040161241c929190614f15565b60806040518083038185885af115801561243a573d6000803e3d6000fd5b50505050506040513d601f19601f8201168201806040525081019061245f9190615065565b91505095945050505050565b60008060009054906101000a900473ffffffffffffffffffffffffffffffffffffffff169050816000806101000a81548173ffffffffffffffffffffffffffffffffffffffff021916908373ffffffffffffffffffffffffffffffffffffffff1602179055508173ffffffffffffffffffffffffffffffffffffffff168173ffffffffffffffffffffffffffffffffffffffff167f8be0079c531659141344cd1fd0a4f28419497f9722a3daafe3b4186f6b6457e060405160405180910390a35050565b6000828260009060029261254593929190614991565b9061255091906150be565b60f01c9050600361ffff168161ffff16146125a45782826040517f9a6d49cd00000000000000000000000000000000000000000000000000000000815260040161259b929190614a53565b60405180910390fd5b505050565b6125b887878787878787611c14565b50505050505050565b600073ffffffffffffffffffffffffffffffffffffffff168473ffffffffffffffffffffffffffffffffffffffff16036126335760006040517fe602df0500000000000000000000000000000000000000000000000000000000815260040161262a919061340c565b60405180910390fd5b600073ffffffffffffffffffffffffffffffffffffffff168373ffffffffffffffffffffffffffffffffffffffff16036126a55760006040517f94280d6200000000000000000000000000000000000000000000000000000000815260040161269c919061340c565b60405180910390fd5b81600660008673ffffffffffffffffffffffffffffffffffffffff1673ffffffffffffffffffffffffffffffffffffffff16815260200190815260200160002060008573ffffffffffffffffffffffffffffffffffffffff1673ffffffffffffffffffffffffffffffffffffffff168152602001908152602001600020819055508015612792578273ffffffffffffffffffffffffffffffffffffffff168473ffffffffffffffffffffffffffffffffffffffff167f8c5be1e5ebec7d5bd14f71427d1e84f3dd0314c0f7b2291e5b200ac8c7c3b925846040516127899190613635565b60405180910390a35b50505050565b60008282600090602060ff16926127b193929190614991565b906127bc919061511d565b905092915050565b60008160001c9050919050565b60008282602060ff1690602860ff16926127ed93929190614991565b906127f891906151a8565b60c01c905092915050565b60007f00000000000000000000000000000000000000000000000000000000000000008267ffffffffffffffff1661283b9190615236565b9050919050565b600061284e8484611fad565b8290509392505050565b6000602860ff168383905011905092915050565b60608282602860ff1690809261288493929190614991565b8080601f016020809104026020016040519081016040528093929190818152602001838380828437600081840152601f19601f82011690508083019250505050505050905092915050565b6060848484846040516020016128e89493929190615305565b6040516020818303038152906040529050949350505050565b600073ffffffffffffffffffffffffffffffffffffffff168373ffffffffffffffffffffffffffffffffffffffff1603612953578060076000828254612947919061534f565b92505081905550612a28565b6000600560008573ffffffffffffffffffffffffffffffffffffffff1673ffffffffffffffffffffffffffffffffffffffff168152602001908152602001600020549050818110156129e0578381836040517fe450d38c0000000000000000000000000000000000000000000000000000000081526004016129d793929190614da0565b60405180910390fd5b818103600560008673ffffffffffffffffffffffffffffffffffffffff1673ffffffffffffffffffffffffffffffffffffffff16815260200190815260200160002081905550505b600073ffffffffffffffffffffffffffffffffffffffff168273ffffffffffffffffffffffffffffffffffffffff1603612a715780600760008282540392505081905550612abf565b80600560008473ffffffffffffffffffffffffffffffffffffffff1673ffffffffffffffffffffffffffffffffffffffff168152602001908152602001600020600082825401925050819055505b8173ffffffffffffffffffffffffffffffffffffffff168373ffffffffffffffffffffffffffffffffffffffff167fddf252ad1be2c89b69c2b068fc378daa952ba7f163c4a11628f55a4df523b3ef83604051612b1c9190613635565b60405180910390a3505050565b60007f00000000000000000000000000000000000000000000000000000000000000007f000000000000000000000000000000000000000000000000000000000000000083612b7891906153b2565b612b829190615236565b9050919050565b60007f000000000000000000000000000000000000000000000000000000000000000082612bb791906153b2565b9050919050565b6060600080835111905080612bf4578484604051602001612be0929190615404565b604051602081830303815290604052612c23565b8484612bff33612e1c565b85604051602001612c139493929190615430565b6040516020818303038152906040525b9150935093915050565b600080612c3b85858561202f565b8092508193505050612c4d3383612e3f565b935093915050565b600080612c6b612c64306110e5565b858561202f565b8092508193505050612c7d3083612e3f565b9250929050565b6000813414612cca57346040517f9f704120000000000000000000000000000000000000000000000000000000008152600401612cc19190613635565b60405180910390fd5b819050919050565b60007f000000000000000000000000000000000000000000000000000000000000000073ffffffffffffffffffffffffffffffffffffffff1663e4fe1d946040518163ffffffff1660e01b8152600401602060405180830381865afa158015612d3f573d6000803e3d6000fd5b505050506040513d601f19601f82011682018060405250810190612d63919061548f565b9050600073ffffffffffffffffffffffffffffffffffffffff168173ffffffffffffffffffffffffffffffffffffffff1603612dcb576040517f5373352a00000000000000000000000000000000000000000000000000000000815260040160405180910390fd5b612e18337f0000000000000000000000000000000000000000000000000000000000000000848473ffffffffffffffffffffffffffffffffffffffff16612ec1909392919063ffffffff16565b5050565b60008173ffffffffffffffffffffffffffffffffffffffff1660001b9050919050565b600073ffffffffffffffffffffffffffffffffffffffff168273ffffffffffffffffffffffffffffffffffffffff1603612eb15760006040517f96c6fd1e000000000000000000000000000000000000000000000000000000008152600401612ea8919061340c565b60405180910390fd5b612ebd82600083612901565b5050565b612f3d848573ffffffffffffffffffffffffffffffffffffffff166323b872dd868686604051602401612ef6939291906154bc565b604051602081830303815290604052915060e01b6020820180517bffffffffffffffffffffffffffffffffffffffffffffffffffffffff8381831617835250505050612f43565b50505050565b6000612f6e828473ffffffffffffffffffffffffffffffffffffffff16612fda90919063ffffffff16565b90506000815114158015612f93575080806020019051810190612f919190614e23565b155b15612fd557826040517f5274afe7000000000000000000000000000000000000000000000000000000008152600401612fcc919061340c565b60405180910390fd5b505050565b6060612fe883836000612ff0565b905092915050565b60608147101561303757306040517fcd78605900000000000000000000000000000000000000000000000000000000815260040161302e919061340c565b60405180910390fd5b6000808573ffffffffffffffffffffffffffffffffffffffff16848660405161306091906154f3565b60006040518083038185875af1925050503d806000811461309d576040519150601f19603f3d011682016040523d82523d6000602084013e6130a2565b606091505b50915091506130b28683836130bd565b925050509392505050565b6060826130d2576130cd8261314c565b613144565b600082511480156130fa575060008473ffffffffffffffffffffffffffffffffffffffff163b145b1561313c57836040517f9996b315000000000000000000000000000000000000000000000000000000008152600401613133919061340c565b60405180910390fd5b819050613145565b5b9392505050565b60008151111561315f5780518082602001fd5b6040517f1425ea4200000000000000000000000000000000000000000000000000000000815260040160405180910390fd5b604051806040016040528060008152602001600081525090565b604051806060016040528060008019168152602001600067ffffffffffffffff1681526020016131d9613191565b81525090565b604051806040016040528060008152602001600081525090565b604051806040016040528060008152602001600081525090565b604051806040016040528060008152602001606081525090565b600081519050919050565b600082825260208201905092915050565b60005b8381101561326757808201518184015260208101905061324c565b60008484015250505050565b6000601f19601f8301169050919050565b600061328f8261322d565b6132998185613238565b93506132a9818560208601613249565b6132b281613273565b840191505092915050565b600060208201905081810360008301526132d78184613284565b905092915050565b6000604051905090565b600080fd5b600080fd5b600073ffffffffffffffffffffffffffffffffffffffff82169050919050565b600061331e826132f3565b9050919050565b61332e81613313565b811461333957600080fd5b50565b60008135905061334b81613325565b92915050565b6000819050919050565b61336481613351565b811461336f57600080fd5b50565b6000813590506133818161335b565b92915050565b6000806040838503121561339e5761339d6132e9565b5b60006133ac8582860161333c565b92505060206133bd85828601613372565b9150509250929050565b60008115159050919050565b6133dc816133c7565b82525050565b60006020820190506133f760008301846133d3565b92915050565b61340681613313565b82525050565b600060208201905061342160008301846133fd565b92915050565b600080fd5b60006060828403121561344257613441613427565b5b81905092915050565b6000819050919050565b61345e8161344b565b811461346957600080fd5b50565b60008135905061347b81613455565b92915050565b600080fd5b600080fd5b600080fd5b60008083601f8401126134a6576134a5613481565b5b8235905067ffffffffffffffff8111156134c3576134c2613486565b5b6020830191508360018202830111156134df576134de61348b565b5b9250929050565b600080600080600080600060e0888a031215613505576135046132e9565b5b60006135138a828b0161342c565b97505060606135248a828b0161346c565b965050608088013567ffffffffffffffff811115613545576135446132ee565b5b6135518a828b01613490565b955095505060a06135648a828b0161333c565b93505060c088013567ffffffffffffffff811115613585576135846132ee565b5b6135918a828b01613490565b925092505092959891949750929550565b600061ffff82169050919050565b6135b9816135a2565b82525050565b60006020820190506135d460008301846135b0565b92915050565b600067ffffffffffffffff82169050919050565b6135f7816135da565b82525050565b600060408201905061361260008301856135ee565b61361f60208301846135ee565b9392505050565b61362f81613351565b82525050565b600060208201905061364a6000830184613626565b92915050565b600060208284031215613666576136656132e9565b5b600061367484828501613372565b91505092915050565b600080600060608486031215613696576136956132e9565b5b60006136a48682870161333c565b93505060206136b58682870161333c565b92505060406136c686828701613372565b9150509250925092565b600060ff82169050919050565b6136e6816136d0565b82525050565b600060208201905061370160008301846136dd565b92915050565b600063ffffffff82169050919050565b61372081613707565b811461372b57600080fd5b50565b60008135905061373d81613717565b92915050565b6000806040838503121561375a576137596132e9565b5b60006137688582860161372e565b92505060206137798582860161346c565b9150509250929050565b60006080828403121561379957613798613427565b5b81905092915050565b6137ab816133c7565b81146137b657600080fd5b50565b6000813590506137c8816137a2565b92915050565b600080600080600080600080610100898b0312156137ef576137ee6132e9565b5b60006137fd8b828c01613783565b985050608089013567ffffffffffffffff81111561381e5761381d6132ee565b5b61382a8b828c01613490565b975097505060a061383d8b828c016137b9565b95505060c089013567ffffffffffffffff81111561385e5761385d6132ee565b5b61386a8b828c01613490565b945094505060e089013567ffffffffffffffff81111561388d5761388c6132ee565b5b6138998b828c01613490565b92509250509295985092959890939650565b6138b481613351565b82525050565b6040820160008201516138d060008501826138ab565b5060208201516138e360208501826138ab565b50505050565b60006040820190506138fe60008301846138ba565b92915050565b60006040828403121561391a57613919613427565b5b81905092915050565b60008060008060008060008060006101408a8c031215613946576139456132e9565b5b60006139548c828d01613783565b99505060808a013567ffffffffffffffff811115613975576139746132ee565b5b6139818c828d01613490565b985098505060a06139948c828d01613904565b96505060e06139a58c828d0161333c565b9550506101008a013567ffffffffffffffff8111156139c7576139c66132ee565b5b6139d38c828d01613490565b94509450506101208a013567ffffffffffffffff8111156139f7576139f66132ee565b5b613a038c828d01613490565b92509250509295985092959850929598565b613a1e8161344b565b82525050565b613a2d816135da565b82525050565b604082016000820151613a4960008501826138ab565b506020820151613a5c60208501826138ab565b50505050565b608082016000820151613a786000850182613a15565b506020820151613a8b6020850182613a24565b506040820151613a9e6040850182613a33565b50505050565b604082016000820151613aba60008501826138ab565b506020820151613acd60208501826138ab565b50505050565b600060c082019050613ae86000830185613a62565b613af56080830184613aa4565b9392505050565b613b05816135a2565b8114613b1057600080fd5b50565b600081359050613b2281613afc565b92915050565b60008060408385031215613b3f57613b3e6132e9565b5b6000613b4d8582860161372e565b9250506020613b5e85828601613b13565b9150509250929050565b600081519050919050565b600082825260208201905092915050565b6000613b8f82613b68565b613b998185613b73565b9350613ba9818560208601613249565b613bb281613273565b840191505092915050565b60006020820190508181036000830152613bd78184613b84565b905092915050565b6000819050919050565b6000613c04613bff613bfa846132f3565b613bdf565b6132f3565b9050919050565b6000613c1682613be9565b9050919050565b6000613c2882613c0b565b9050919050565b613c3881613c1d565b82525050565b6000602082019050613c536000830184613c2f565b92915050565b600060208284031215613c6f57613c6e6132e9565b5b6000613c7d8482850161333c565b91505092915050565b6000602082019050613c9b60008301846135ee565b92915050565b60008083601f840112613cb757613cb6613481565b5b8235905067ffffffffffffffff811115613cd457613cd3613486565b5b602083019150836020820283011115613cf057613cef61348b565b5b9250929050565b60008060208385031215613d0e57613d0d6132e9565b5b600083013567ffffffffffffffff811115613d2c57613d2b6132ee565b5b613d3885828601613ca1565b92509250509250929050565b600060208284031215613d5a57613d596132e9565b5b6000613d688482850161372e565b91505092915050565b613d7a8161344b565b82525050565b6000602082019050613d956000830184613d71565b92915050565b60008060008060608587031215613db557613db46132e9565b5b6000613dc38782880161372e565b9450506020613dd487828801613b13565b935050604085013567ffffffffffffffff811115613df557613df46132ee565b5b613e0187828801613490565b925092505092959194509250565b60008083601f840112613e2557613e24613481565b5b8235905067ffffffffffffffff811115613e4257613e41613486565b5b602083019150836020820283011115613e5e57613e5d61348b565b5b9250929050565b60008060208385031215613e7c57613e7b6132e9565b5b600083013567ffffffffffffffff811115613e9a57613e996132ee565b5b613ea685828601613e0f565b92509250509250929050565b600080600060a08486031215613ecb57613eca6132e9565b5b6000613ed986828701613783565b935050608084013567ffffffffffffffff811115613efa57613ef96132ee565b5b613f0686828701613490565b92509250509250925092565b604082016000820151613f2860008501826138ab565b506020820151613f3b60208501826138ab565b50505050565b600081519050919050565b600082825260208201905092915050565b6000819050602082019050919050565b600082825260208201905092915050565b6000613f898261322d565b613f938185613f6d565b9350613fa3818560208601613249565b613fac81613273565b840191505092915050565b6000604083016000830151613fcf60008601826138ab565b5060208301518482036020860152613fe78282613f7e565b9150508091505092915050565b60006140008383613fb7565b905092915050565b6000602082019050919050565b600061402082613f41565b61402a8185613f4c565b93508360208202850161403c85613f5d565b8060005b8581101561407857848403895281516140598582613ff4565b945061406483614008565b925060208a01995050600181019050614040565b50829750879550505050505092915050565b600060a08201905061409f6000830186613f12565b81810360408301526140b18185614015565b90506140c06060830184613aa4565b949350505050565b600080604083850312156140df576140de6132e9565b5b60006140ed8582860161333c565b92505060206140fe8582860161333c565b9150509250929050565b60006060828403121561411e5761411d6132e9565b5b600061412c8482850161342c565b91505092915050565b7f4e487b7100000000000000000000000000000000000000000000000000000000600052602260045260246000fd5b6000600282049050600182168061417c57607f821691505b60208210810361418f5761418e614135565b5b50919050565b61419e81613707565b82525050565b60006040820190506141b96000830185614195565b6141c66020830184613d71565b9392505050565b7f496e73756666696369656e74206d696e74696e67206665650000000000000000600082015250565b6000614203601883613238565b915061420e826141cd565b602082019050919050565b60006020820190508181036000830152614232816141f6565b9050919050565b600080fd5b7f4e487b7100000000000000000000000000000000000000000000000000000000600052604160045260246000fd5b61427682613273565b810181811067ffffffffffffffff821117156142955761429461423e565b5b80604052505050565b60006142a86132df565b90506142b4828261426d565b919050565b6000604082840312156142cf576142ce614239565b5b6142d9604061429e565b905060006142e984828501613372565b60008301525060206142fd84828501613372565b60208301525092915050565b60006040828403121561431f5761431e6132e9565b5b600061432d848285016142b9565b91505092915050565b82818337600083830152505050565b60006143518385613b73565b935061435e838584614336565b61436783613273565b840190509392505050565b60006060820190506143876000830187613626565b6143946020830186613626565b81810360408301526143a7818486614345565b905095945050505050565b7f4e487b7100000000000000000000000000000000000000000000000000000000600052603260045260246000fd5b600080fd5b600080fd5b600080fd5b60008235600160600383360303811261440c5761440b6143e1565b5b80830191505092915050565b60008083356001602003843603038112614435576144346143e1565b5b80840192508235915067ffffffffffffffff821115614457576144566143e6565b5b602083019250600182023603831315614473576144726143eb565b5b509250929050565b600060208284031215614491576144906132e9565b5b600061449f84828501613b13565b91505092915050565b600082905092915050565b60008190508160005260206000209050919050565b60006020601f8301049050919050565b600082821b905092915050565b6000600883026145157fffffffffffffffffffffffffffffffffffffffffffffffffffffffffffffffff826144d8565b61451f86836144d8565b95508019841693508086168417925050509392505050565b600061455261454d61454884613351565b613bdf565b613351565b9050919050565b6000819050919050565b61456c83614537565b61458061457882614559565b8484546144e5565b825550505050565b600090565b614595614588565b6145a0818484614563565b505050565b5b818110156145c4576145b960008261458d565b6001810190506145a6565b5050565b601f821115614609576145da816144b3565b6145e3846144c8565b810160208510156145f2578190505b6146066145fe856144c8565b8301826145a5565b50505b505050565b600082821c905092915050565b600061462c6000198460080261460e565b1980831691505092915050565b6000614645838361461b565b9150826002028217905092915050565b61465f83836144a8565b67ffffffffffffffff8111156146785761467761423e565b5b6146828254614164565b61468d8282856145c8565b6000601f8311600181146146bc57600084156146aa578287013590505b6146b48582614639565b86555061471c565b601f1984166146ca866144b3565b60005b828110156146f2578489013582556001820191506020850194506020810190506146cd565b8683101561470f578489013561470b601f89168261461b565b8355505b6001600288020188555050505b50505050505050565b600082825260208201905092915050565b6000819050919050565b600061474f602084018461372e565b905092915050565b61476081613707565b82525050565b60006147756020840184613b13565b905092915050565b614786816135a2565b82525050565b600080fd5b600080fd5b600080fd5b600080833560016020038436030381126147b8576147b7614796565b5b83810192508235915060208301925067ffffffffffffffff8211156147e0576147df61478c565b5b6001820236038313156147f6576147f5614791565b5b509250929050565b600082825260208201905092915050565b600061481b83856147fe565b9350614828838584614336565b61483183613273565b840190509392505050565b60006060830161484f6000840184614740565b61485c6000860182614757565b5061486a6020840184614766565b614877602086018261477d565b50614885604084018461479b565b858303604087015261489883828461480f565b925050508091505092915050565b60006148b2838361483c565b905092915050565b6000823560016060038336030381126148d6576148d5614796565b5b82810191505092915050565b6000602082019050919050565b60006148fb8385614725565b93508360208402850161490d84614736565b8060005b8781101561495157848403895261492882846148ba565b61493285826148a6565b945061493d836148e2565b925060208a01995050600181019050614911565b50829750879450505050509392505050565b6000602082019050818103600083015261497e8184866148ef565b90509392505050565b600080fd5b600080fd5b600080858511156149a5576149a4614987565b5b838611156149b6576149b561498c565b5b6001850283019150848603905094509492505050565b600081905092915050565b60006149e282613b68565b6149ec81856149cc565b93506149fc818560208601613249565b80840191505092915050565b6000614a1483856149cc565b9350614a21838584614336565b82840190509392505050565b6000614a3982866149d7565b9150614a46828486614a08565b9150819050949350505050565b60006020820190508181036000830152614a6e818486614345565b90509392505050565b60008235600161014003833603038112614a9457614a936143e1565b5b80830191505092915050565b6000614aaf602084018461346c565b905092915050565b614ac0816135da565b8114614acb57600080fd5b50565b600081359050614add81614ab7565b92915050565b6000614af26020840184614ace565b905092915050565b60608201614b0b6000830183614740565b614b186000850182614757565b50614b266020830183614aa0565b614b336020850182613a15565b50614b416040830183614ae3565b614b4e6040850182613a24565b50505050565b600060e082019050614b69600083018a614afa565b614b766060830189613d71565b8181036080830152614b89818789614345565b9050614b9860a08301866133fd565b81810360c0830152614bab818486614345565b905098975050505050505050565b600080fd5b600067ffffffffffffffff821115614bd957614bd861423e565b5b614be282613273565b9050602081019050919050565b6000614c02614bfd84614bbe565b61429e565b905082815260208101848484011115614c1e57614c1d614bb9565b5b614c29848285613249565b509392505050565b600082601f830112614c4657614c45613481565b5b8151614c56848260208601614bef565b91505092915050565b600060208284031215614c7557614c746132e9565b5b600082015167ffffffffffffffff811115614c9357614c926132ee565b5b614c9f84828501614c31565b91505092915050565b6000602082019050614cbd6000830184614195565b92915050565b600060208284031215614cd957614cd86132e9565b5b6000614ce784828501614ace565b91505092915050565b6000819050919050565b6000614d15614d10614d0b84614cf0565b613bdf565b6135a2565b9050919050565b614d2581614cfa565b82525050565b6000608082019050614d4060008301876133fd565b614d4d6020830186613d71565b614d5a6040830185614d1c565b8181036060830152614d6c8184613b84565b905095945050505050565b6000604082019050614d8c6000830185613626565b614d996020830184613626565b9392505050565b6000606082019050614db560008301866133fd565b614dc26020830185613626565b614dcf6040830184613626565b949350505050565b60006040820190508181036000830152614df18185613b84565b90508181036020830152614e058184613b84565b90509392505050565b600081519050614e1d816137a2565b92915050565b600060208284031215614e3957614e386132e9565b5b6000614e4784828501614e0e565b91505092915050565b6000614e5b82613b68565b614e6581856147fe565b9350614e75818560208601613249565b614e7e81613273565b840191505092915050565b614e92816133c7565b82525050565b600060a083016000830151614eb06000860182614757565b506020830151614ec36020860182613a15565b5060408301518482036040860152614edb8282614e50565b91505060608301518482036060860152614ef58282614e50565b9150506080830151614f0a6080860182614e89565b508091505092915050565b60006040820190508181036000830152614f2f8185614e98565b9050614f3e60208301846133fd565b9392505050565b600081519050614f548161335b565b92915050565b600060408284031215614f7057614f6f614239565b5b614f7a604061429e565b90506000614f8a84828501614f45565b6000830152506020614f9e84828501614f45565b60208301525092915050565b600060408284031215614fc057614fbf6132e9565b5b6000614fce84828501614f5a565b91505092915050565b600081519050614fe681613455565b92915050565b600081519050614ffb81614ab7565b92915050565b60006080828403121561501757615016614239565b5b615021606061429e565b9050600061503184828501614fd7565b600083015250602061504584828501614fec565b602083015250604061505984828501614f5a565b60408301525092915050565b60006080828403121561507b5761507a6132e9565b5b600061508984828501615001565b91505092915050565b60007fffff00000000000000000000000000000000000000000000000000000000000082169050919050565b60006150ca83836144a8565b826150d58135615092565b92506002821015615115576151107fffff000000000000000000000000000000000000000000000000000000000000836002036008026144d8565b831692505b505092915050565b600061512983836144a8565b82615134813561344b565b925060208210156151745761516f7fffffffffffffffffffffffffffffffffffffffffffffffffffffffffffffffff836020036008026144d8565b831692505b505092915050565b60007fffffffffffffffff00000000000000000000000000000000000000000000000082169050919050565b60006151b483836144a8565b826151bf813561517c565b925060088210156151ff576151fa7fffffffffffffffff000000000000000000000000000000000000000000000000836008036008026144d8565b831692505b505092915050565b7f4e487b7100000000000000000000000000000000000000000000000000000000600052601160045260246000fd5b600061524182613351565b915061524c83613351565b925082820261525a81613351565b9150828204841483151761527157615270615207565b5b5092915050565b60008160c01b9050919050565b600061529082615278565b9050919050565b6152a86152a3826135da565b615285565b82525050565b60008160e01b9050919050565b60006152c6826152ae565b9050919050565b6152de6152d982613707565b6152bb565b82525050565b6000819050919050565b6152ff6152fa82613351565b6152e4565b82525050565b60006153118287615297565b60088201915061532182866152cd565b60048201915061533182856152ee565b60208201915061534182846149d7565b915081905095945050505050565b600061535a82613351565b915061536583613351565b925082820190508082111561537d5761537c615207565b5b92915050565b7f4e487b7100000000000000000000000000000000000000000000000000000000600052601260045260246000fd5b60006153bd82613351565b91506153c883613351565b9250826153d8576153d7615383565b5b828204905092915050565b6000819050919050565b6153fe6153f98261344b565b6153e3565b82525050565b600061541082856153ed565b6020820191506154208284615297565b6008820191508190509392505050565b600061543c82876153ed565b60208201915061544c8286615297565b60088201915061545c82856153ed565b60208201915061546c82846149d7565b915081905095945050505050565b60008151905061548981613325565b92915050565b6000602082840312156154a5576154a46132e9565b5b60006154b38482850161547a565b91505092915050565b60006060820190506154d160008301866133fd565b6154de60208301856133fd565b6154eb6040830184613626565b949350505050565b60006154ff82846149d7565b91508190509291505056fea2646970667358221220f380e2ba35fda33ffb812d1b7cbff6aec6569ba305fa3ba5c79702fe7b2e034664736f6c63430008180033",
  "linkReferences": {},
  "deployedLinkReferences": {}
}