{
	"data": {
		"bytecode": {
			"linkReferences": {},
			"object": "60c060405234801562000010575f80fd5b5060405162004429380380620044298339810160408190526200003391620002d1565b86866012878781818181896001600160a01b0381166200006c57604051631e4fbdf760e01b81525f600482015260240160405180910390fd5b6200007781620001a0565b506001600160a01b038083166080528116620000a657604051632d618d8160e21b815260040160405180910390fd5b60805160405163ca5eb5e160e01b81526001600160a01b0383811660048301529091169063ca5eb5e1906024015f604051808303815f87803b158015620000eb575f80fd5b505af1158015620000fe573d5f803e3d5ffd5b505050505050505062000116620001ef60201b60201c565b60ff168360ff1610156200013d576040516301e9714b60e41b815260040160405180910390fd5b6200014a600684620003b0565b6200015790600a620004cb565b60a05250600591506200016d905083826200056c565b5060066200017c82826200056c565b50600d91506200018f905084826200056c565b5050600e5550620006389350505050565b5f80546001600160a01b038381166001600160a01b0319831681178455604051919092169283917f8be0079c531659141344cd1fd0a4f28419497f9722a3daafe3b4186f6b6457e09190a35050565b600690565b634e487b7160e01b5f52604160045260245ffd5b5f82601f83011262000218575f80fd5b81516001600160401b0380821115620002355762000235620001f4565b604051601f8301601f19908116603f01168101908282118183101715620002605762000260620001f4565b81604052838152602092508660208588010111156200027d575f80fd5b5f91505b83821015620002a0578582018301518183018401529082019062000281565b5f602085830101528094505050505092915050565b80516001600160a01b0381168114620002cc575f80fd5b919050565b5f805f805f805f60e0888a031215620002e8575f80fd5b87516001600160401b0380821115620002ff575f80fd5b6200030d8b838c0162000208565b985060208a015191508082111562000323575f80fd5b620003318b838c0162000208565b97506200034160408b01620002b5565b96506200035160608b01620002b5565b955060808a015191508082111562000367575f80fd5b50620003768a828b0162000208565b93505060a088015191506200038e60c08901620002b5565b905092959891949750929550565b634e487b7160e01b5f52601160045260245ffd5b60ff8281168282160390811115620003cc57620003cc6200039c565b92915050565b600181815b808511156200041257815f1904821115620003f657620003f66200039c565b808516156200040457918102915b93841c9390800290620003d7565b509250929050565b5f826200042a57506001620003cc565b816200043857505f620003cc565b81600181146200045157600281146200045c576200047c565b6001915050620003cc565b60ff8411156200047057620004706200039c565b50506001821b620003cc565b5060208310610133831016604e8410600b8410161715620004a1575081810a620003cc565b620004ad8383620003d2565b805f1904821115620004c357620004c36200039c565b029392505050565b5f620004db60ff8416836200041a565b9392505050565b600181811c90821680620004f757607f821691505b6020821081036200051657634e487b7160e01b5f52602260045260245ffd5b50919050565b601f8211156200056757805f5260205f20601f840160051c81016020851015620005435750805b601f840160051c820191505b8181101562000564575f81556001016200054f565b50505b505050565b81516001600160401b03811115620005885762000588620001f4565b620005a081620005998454620004e2565b846200051c565b602080601f831160018114620005d6575f8415620005be5750858301515b5f19600386901b1c1916600185901b17855562000630565b5f85815260208120601f198616915b828110156200060657888601518255948401946001909101908401620005e5565b50858210156200062457878501515f19600388901b60f8161c191681555b505060018460011b0185555b505050505050565b60805160a051613d89620006a05f395f818161075f015281816124bc0152818161252e015261264201525f818161061801528181610b110152818161151c015281816118e201528181611c9f015281816121390152818161274301526127fa0152613d895ff3fe6080604052600436106102f3575f3560e01c806370a0823111610189578063bb0b6a53116100d8578063d045a0dc11610092578063e985e9c51161006d578063e985e9c514610911578063f2fde38b14610930578063fc0c546a146105a1578063ff7bd03d1461094f575f80fd5b8063d045a0dc146108cc578063d0def521146108df578063d4243885146108f2575f80fd5b8063bb0b6a5314610810578063bc70b3541461083b578063bd815db01461085a578063c7c7f5b31461086d578063c87b56dd1461088e578063ca5eb5e1146108ad575f80fd5b806395d89b4111610143578063a22cb4651161011e578063a22cb46514610794578063b731ea0a146107b3578063b88d4fde146107d2578063b98bd070146107f1575f80fd5b806395d89b411461073a578063963efcaa1461074e5780639f68b96414610781575f80fd5b806370a0823114610678578063715018a6146106975780637d25a05e146106ab57806382413eac146106e4578063857749b0146107035780638da5cb5b1461071e575f80fd5b80633400288b1161024557806342842e0e116101ff5780635a0dfe4d116101da5780635a0dfe4d146105d25780635e280f11146106075780636352211e1461063a5780636fc1b31e14610659575f80fd5b806342842e0e1461058257806352ae2879146105a15780635535d461146105b3575f80fd5b80633400288b146104c457806334fcf437146104e35780633b6f743b146105025780633ccfd60b1461052e57806340fa54971461054257806341e8241f14610555575f80fd5b806313137d65116102b0578063162094c41161028b578063162094c41461045157806317442b70146104705780631f5e13341461049157806323b872dd146104a5575f80fd5b806313137d65146103f1578063134d4f2514610404578063156a0d0f1461042b575f80fd5b806301ffc9a7146102f757806306fdde031461032b578063081812fc1461034c578063095ea7b3146103835780630d35b415146103a4578063111ecdad146103d2575b5f80fd5b348015610302575f80fd5b50610316610311366004612c5f565b61096e565b60405190151581526020015b60405180910390f35b348015610336575f80fd5b5061033f61097e565b6040516103229190612cc7565b348015610357575f80fd5b5061036b610366366004612cd9565b610a0e565b6040516001600160a01b039091168152602001610322565b34801561038e575f80fd5b506103a261039d366004612d04565b610a35565b005b3480156103af575f80fd5b506103c36103be366004612d44565b610a44565b60405161032293929190612d75565b3480156103dd575f80fd5b5060045461036b906001600160a01b031681565b6103a26103ff366004612e60565b610b0f565b34801561040f575f80fd5b50610418600281565b60405161ffff9091168152602001610322565b348015610436575f80fd5b506040805162b9270b60e21b81526001602082015201610322565b34801561045c575f80fd5b506103a261046b366004612ffe565b610bcf565b34801561047b575f80fd5b5060408051600181526002602082015201610322565b34801561049c575f80fd5b50610418600181565b3480156104b0575f80fd5b506103a26104bf366004613041565b610c30565b3480156104cf575f80fd5b506103a26104de366004613097565b610cb9565b3480156104ee575f80fd5b506103a26104fd366004612cd9565b610ccb565b34801561050d575f80fd5b5061052161051c3660046130be565b610cd8565b604051610322919061310c565b348015610539575f80fd5b506103a2610d3c565b6103a2610550366004613123565b610dbf565b348015610560575f80fd5b5061057461056f366004613168565b610e62565b604051908152602001610322565b34801561058d575f80fd5b506103a261059c366004613041565b610ef1565b3480156105ac575f80fd5b503061036b565b3480156105be575f80fd5b5061033f6105cd366004613194565b610f10565b3480156105dd575f80fd5b506103166105ec366004613097565b63ffffffff919091165f908152600160205260409020541490565b348015610612575f80fd5b5061036b7f000000000000000000000000000000000000000000000000000000000000000081565b348015610645575f80fd5b5061036b610654366004612cd9565b610fb2565b348015610664575f80fd5b506103a2610673366004613168565b610fbc565b348015610683575f80fd5b50610574610692366004613168565b611019565b3480156106a2575f80fd5b506103a261105e565b3480156106b6575f80fd5b506106cc6106c5366004613097565b5f92915050565b6040516001600160401b039091168152602001610322565b3480156106ef575f80fd5b506103166106fe3660046131c5565b611071565b34801561070e575f80fd5b5060405160068152602001610322565b348015610729575f80fd5b505f546001600160a01b031661036b565b348015610745575f80fd5b5061033f611086565b348015610759575f80fd5b506105747f000000000000000000000000000000000000000000000000000000000000000081565b34801561078c575f80fd5b506001610316565b34801561079f575f80fd5b506103a26107ae366004613227565b611095565b3480156107be575f80fd5b5060025461036b906001600160a01b031681565b3480156107dd575f80fd5b506103a26107ec366004613253565b6110a0565b3480156107fc575f80fd5b506103a261080b3660046132fa565b6110b7565b34801561081b575f80fd5b5061057461082a366004613338565b60016020525f908152604090205481565b348015610846575f80fd5b5061033f610855366004613351565b6110d1565b6103a26108683660046132fa565b611272565b61088061087b3660046133ad565b6113f2565b604051610322929190613415565b348015610899575f80fd5b5061033f6108a8366004612cd9565b6114ea565b3480156108b8575f80fd5b506103a26108c7366004613168565b6114f5565b6103a26108da366004612e60565b611576565b6103a26108ed366004613466565b6115a5565b3480156108fd575f80fd5b506103a261090c366004613168565b611675565b34801561091c575f80fd5b5061031661092b36600461349c565b6116cb565b34801561093b575f80fd5b506103a261094a366004613168565b6116f8565b34801561095a575f80fd5b506103166109693660046134c8565b611735565b5f61097882611769565b92915050565b60606005805461098d906134e2565b80601f01602080910402602001604051908101604052809291908181526020018280546109b9906134e2565b8015610a045780601f106109db57610100808354040283529160200191610a04565b820191905f5260205f20905b8154815290600101906020018083116109e757829003601f168201915b5050505050905090565b5f610a188261178d565b505f828152600960205260409020546001600160a01b0316610978565b610a408282336117c5565b5050565b604080518082019091525f80825260208201526060610a7460405180604001604052805f81526020015f81525090565b6040805180820182525f8082526001600160401b03602080840182905284518381529081019094529195509182610acd565b604080518082019091525f815260606020820152815260200190600190039081610aa65790505b5093505f80610af1604089013560608a0135610aec60208c018c613338565b6117d2565b60408051808201909152918252602082015296989597505050505050565b7f00000000000000000000000000000000000000000000000000000000000000006001600160a01b03163314610b5f576040516391ac5e4f60e01b81523360048201526024015b60405180910390fd5b60208701803590610b7990610b74908a613338565b611815565b14610bb757610b8b6020880188613338565b60405163309afaf360e21b815263ffffffff909116600482015260208801356024820152604401610b56565b610bc687878787878787611850565b50505050505050565b610bd8826114ea565b5115610c265760405162461bcd60e51b815260206004820152601e60248201527f546f6b656e205552492063616e206f6e6c7920626520736574206f6e636500006044820152606401610b56565b610a4082826119ae565b6001600160a01b038216610c5957604051633250574960e11b81525f6004820152602401610b56565b5f610c658383336119fe565b9050836001600160a01b0316816001600160a01b031614610cb3576040516364283d7b60e01b81526001600160a01b0380861660048301526024820184905282166044820152606401610b56565b50505050565b610cc1611af2565b610a408282611b1e565b610cd3611af2565b600e55565b604080518082019091525f80825260208201525f610d0660408501356060860135610aec6020880188613338565b9150505f80610d158684611b6b565b9092509050610d32610d2a6020880188613338565b838388611c8a565b9695505050505050565b610d44611af2565b4780610d895760405162461bcd60e51b81526020600482015260146024820152734e6f2066756e647320746f20776974686472617760601b6044820152606401610b56565b5f80546040516001600160a01b039091169183156108fc02918491818181858888f19350505050158015610a40573d5f803e3d5ffd5b33610dc984610fb2565b6001600160a01b031614610def5760405162461bcd60e51b8152600401610b5690613514565b610dfb33848484611d68565b5050610e08848483611dba565b506001600160a01b0384163363ffffffff83167fe60f77052658b4b698db061b1cafad48cfb0710f86527e9394a59453ad84248586610e46816114ea565b604051610e5492919061355c565b60405180910390a450505050565b6001600160a01b0381165f908152600f60205260408120548103610ed65760405162461bcd60e51b815260206004820152602560248201527f546869732061646472657373206861736e2774206d696e74656420616e7920746044820152646f6b656e7360d81b6064820152608401610b56565b506001600160a01b03165f908152600f602052604090205490565b610f0b83838360405180602001604052805f8152506110a0565b505050565b600360209081525f928352604080842090915290825290208054610f33906134e2565b80601f0160208091040260200160405190810160405280929190818152602001828054610f5f906134e2565b8015610faa5780601f10610f8157610100808354040283529160200191610faa565b820191905f5260205f20905b815481529060010190602001808311610f8d57829003601f168201915b505050505081565b5f6109788261178d565b610fc4611af2565b600480546001600160a01b0319166001600160a01b0383169081179091556040519081527ff0be4f1e87349231d80c36b33f9e8639658eeaf474014dee15a3e6a4d4414197906020015b60405180910390a150565b5f6001600160a01b038216611043576040516322718ad960e21b81525f6004820152602401610b56565b506001600160a01b03165f9081526008602052604090205490565b611066611af2565b61106f5f611dcf565b565b6001600160a01b03811630145b949350505050565b60606006805461098d906134e2565b610a40338383611e1e565b6110ab848484610c30565b610cb384848484611ebc565b6110bf611af2565b610a406110cc8284613574565b611fdb565b63ffffffff84165f90815260036020908152604080832061ffff87168452909152812080546060929190611104906134e2565b80601f0160208091040260200160405190810160405280929190818152602001828054611130906134e2565b801561117b5780601f106111525761010080835404028352916020019161117b565b820191905f5260205f20905b81548152906001019060200180831161115e57829003601f168201915b5050505050905080515f036111c95783838080601f0160208091040260200160405190810160405280939291908181526020018383808284375f9201919091525092945061107e9350505050565b5f8390036111d857905061107e565b600283106112555761121e84848080601f0160208091040260200160405190810160405280939291908181526020018383808284375f920191909152506120dc92505050565b8061122c8460028188613641565b60405160200161123e93929190613668565b60405160208183030381529060405291505061107e565b8383604051639a6d49cd60e01b8152600401610b569291906136b6565b5f5b81811015611375573683838381811061128f5761128f6136c9565b90506020028101906112a191906136dd565b90506112d36112b36020830183613338565b602083013563ffffffff919091165f908152600160205260409020541490565b6112dd575061136d565b3063d045a0dc60c08301358360a08101356112fc6101008301836136fc565b61130d610100890160e08a01613168565b61131b6101208a018a6136fc565b6040518963ffffffff1660e01b815260040161133d9796959493929190613752565b5f604051808303818588803b158015611354575f80fd5b505af1158015611366573d5f803e3d5ffd5b5050505050505b600101611274565b50336001600160a01b0316638e9e70996040518163ffffffff1660e01b81526004015f60405180830381865afa1580156113b1573d5f803e3d5ffd5b505050506040513d5f823e601f3d908101601f191682016040526113d891908101906137d7565b604051638351eea760e01b8152600401610b569190612cc7565b6113fa612c07565b604080518082019091525f80825260208201525f8061142f33604089013560608a013561142a60208c018c613338565b611d68565b915091505f8061143f8984611b6b565b909250905061146b61145460208b018b613338565b8383611465368d90038d018d61383f565b8b612108565b60408051808201909152858152602080820186905282519298509096503391907f85496b760a4b7f8d66384b9df21b381f5d1b1e79f229a47aaf4c232edc2fe59a906114b9908d018d613338565b6040805163ffffffff909216825260208201899052810187905260600160405180910390a350505050935093915050565b60606109788261220e565b6114fd611af2565b60405163ca5eb5e160e01b81526001600160a01b0382811660048301527f0000000000000000000000000000000000000000000000000000000000000000169063ca5eb5e1906024015f604051808303815f87803b15801561155d575f80fd5b505af115801561156f573d5f803e3d5ffd5b5050505050565b3330146115965760405163029a949d60e31b815260040160405180910390fd5b610bc687878787878787610bb7565b600e543410156115ef5760405162461bcd60e51b8152602060048201526015602482015274496e73756666696369656e74206d696e742066656560581b6044820152606401610b56565b5f6115f9600c5490565b90506116058382612305565b61160f81836119ae565b61161d600c80546001019055565b6001600160a01b0383165f818152600f6020908152604091829020849055815192835282018390527fb9144c96c86541f6fa89c9f2f02495cccf4b08cd6643e26d34ee00aa586558a8910160405180910390a1505050565b61167d611af2565b600280546001600160a01b0319166001600160a01b0383169081179091556040519081527fd48d879cef83a1c0bdda516f27b13ddb1b3f8bbac1c9e1511bb2a659c24277609060200161100e565b6001600160a01b039182165f908152600a6020908152604080832093909416825291909152205460ff1690565b611700611af2565b6001600160a01b03811661172957604051631e4fbdf760e01b81525f6004820152602401610b56565b61173281611dcf565b50565b5f60208201803590600190839061174c9086613338565b63ffffffff16815260208101919091526040015f20541492915050565b5f6001600160e01b03198216632483248360e11b1480610978575061097882612366565b5f818152600760205260408120546001600160a01b03168061097857604051637e27328960e01b815260048101849052602401610b56565b610f0b83838360016123b5565b5f806117dd856124b9565b91508190508381101561180d576040516371c4efed60e01b81526004810182905260248101859052604401610b56565b935093915050565b63ffffffff81165f90815260016020526040812054806109785760405163f6ff4fb760e01b815263ffffffff84166004820152602401610b56565b5f61186161185e87876124ef565b90565b90505f61188c8261187a6118758a8a612506565b612528565b61188760208d018d613338565b611dba565b9050602886111561194c575f6118c86118ab60608c0160408d0161386f565b6118b860208d018d613338565b846118c38c8c61255c565b6125a6565b604051633e5ac80960e11b81529091506001600160a01b037f00000000000000000000000000000000000000000000000000000000000000001690637cb590129061191d9086908d905f90879060040161388a565b5f604051808303815f87803b158015611934575f80fd5b505af1158015611946573d5f803e3d5ffd5b50505050505b6001600160a01b038216887fefed6d3500546b29533b128a29e3a94d70788727f0507505ac12eaf2e578fd9c61198560208d018d613338565b6040805163ffffffff9092168252602082018690520160405180910390a3505050505050505050565b5f828152600b602052604090206119c582826138fe565b506040518281527ff8e1a15aba9398e019f0b49df1a4fde98ee17ae345cb5f6b5e2c27f5033e8ce7906020015b60405180910390a15050565b5f828152600760205260408120546001600160a01b0390811690831615611a2a57611a2a8184866125d8565b6001600160a01b03811615611a6457611a455f855f806123b5565b6001600160a01b0381165f90815260086020526040902080545f190190555b6001600160a01b03851615611a92576001600160a01b0385165f908152600860205260409020805460010190555b5f8481526007602052604080822080546001600160a01b0319166001600160a01b0389811691821790925591518793918516917fddf252ad1be2c89b69c2b068fc378daa952ba7f163c4a11628f55a4df523b3ef91a490505b9392505050565b5f546001600160a01b0316331461106f5760405163118cdaa760e01b8152336004820152602401610b56565b63ffffffff82165f81815260016020908152604091829020849055815192835282018390527f238399d427b947898edb290f5ff0f9109849b1c3ba196a42e35f00c50a54b98b91016119f2565b6060805f611bc68560200135611b808661263c565b611b8d60a08901896136fc565b8080601f0160208091040260200160405190810160405280939291908181526020018383808284375f9201919091525061266792505050565b90935090505f81611bd8576001611bdb565b60025b9050611bfb611bed6020880188613338565b8261085560808a018a6136fc565b6004549093506001600160a01b031615611c81576004805460405163043a78eb60e01b81526001600160a01b039091169163043a78eb91611c409188918891016139bd565b602060405180830381865afa158015611c5b573d5f803e3d5ffd5b505050506040513d601f19601f82011682018060405250810190611c7f91906139e1565b505b50509250929050565b604080518082019091525f80825260208201527f00000000000000000000000000000000000000000000000000000000000000006001600160a01b031663ddc28c586040518060a001604052808863ffffffff168152602001611cec89611815565b8152602001878152602001868152602001851515815250306040518363ffffffff1660e01b8152600401611d219291906139fc565b6040805180830381865afa158015611d3b573d5f803e3d5ffd5b505050506040513d601f19601f82011682018060405250810190611d5f9190613aa2565b95945050505050565b5f80856001600160a01b0316611d7d86610fb2565b6001600160a01b031614611da35760405162461bcd60e51b8152600401610b5690613514565b611dac856126e1565b506001958695509350505050565b5f611dc58484612305565b5060019392505050565b5f80546001600160a01b038381166001600160a01b0319831681178455604051919092169283917f8be0079c531659141344cd1fd0a4f28419497f9722a3daafe3b4186f6b6457e09190a35050565b6001600160a01b038216611e5057604051630b61174360e31b81526001600160a01b0383166004820152602401610b56565b6001600160a01b038381165f818152600a6020908152604080832094871680845294825291829020805460ff191686151590811790915591519182527f17307eab39ab6107e8899845ad3d59bd9653f200f220920489ca2b5937696c31910160405180910390a3505050565b6001600160a01b0383163b15610cb357604051630a85bd0160e11b81526001600160a01b0384169063150b7a0290611efe903390889087908790600401613abc565b6020604051808303815f875af1925050508015611f38575060408051601f3d908101601f19168201909252611f3591810190613aee565b60015b611f9f573d808015611f65576040519150601f19603f3d011682016040523d82523d5f602084013e611f6a565b606091505b5080515f03611f9757604051633250574960e11b81526001600160a01b0385166004820152602401610b56565b805181602001fd5b6001600160e01b03198116630a85bd0160e11b1461156f57604051633250574960e11b81526001600160a01b0385166004820152602401610b56565b5f5b81518110156120ac5761200c828281518110611ffb57611ffb6136c9565b6020026020010151604001516120dc565b81818151811061201e5761201e6136c9565b60200260200101516040015160035f84848151811061203f5761203f6136c9565b60200260200101515f015163ffffffff1663ffffffff1681526020019081526020015f205f848481518110612076576120766136c9565b60200260200101516020015161ffff1661ffff1681526020019081526020015f2090816120a391906138fe565b50600101611fdd565b507fbe4864a8e820971c0247f5992e2da559595f7bf076a21cb5928d443d2a13b6748160405161100e9190613b09565b600281015161ffff8116600314610a405781604051639a6d49cd60e01b8152600401610b569190612cc7565b612110612c07565b5f61211d845f0151612719565b602085015190915015612137576121378460200151612740565b7f00000000000000000000000000000000000000000000000000000000000000006001600160a01b0316632637a450826040518060a001604052808b63ffffffff1681526020016121878c611815565b81526020018a81526020018981526020015f8960200151111515815250866040518463ffffffff1660e01b81526004016121c29291906139fc565b60806040518083038185885af11580156121de573d5f803e3d5ffd5b50505050506040513d601f19601f820116820180604052508101906122039190613b92565b979650505050505050565b60606122198261178d565b505f828152600b602052604081208054612232906134e2565b80601f016020809104026020016040519081016040528092919081815260200182805461225e906134e2565b80156122a95780601f10612280576101008083540402835291602001916122a9565b820191905f5260205f20905b81548152906001019060200180831161228c57829003601f168201915b505050505090505f6122b961281f565b905080515f036122ca575092915050565b8151156122fc5780826040516020016122e4929190613bda565b60405160208183030381529060405292505050919050565b61107e8461282e565b6001600160a01b03821661232e57604051633250574960e11b81525f6004820152602401610b56565b5f61233a83835f6119fe565b90506001600160a01b03811615610f0b576040516339e3563760e11b81525f6004820152602401610b56565b5f6001600160e01b031982166380ac58cd60e01b148061239657506001600160e01b03198216635b5e139f60e01b145b8061097857506301ffc9a760e01b6001600160e01b0319831614610978565b80806123c957506001600160a01b03821615155b1561248a575f6123d88461178d565b90506001600160a01b038316158015906124045750826001600160a01b0316816001600160a01b031614155b8015612417575061241581846116cb565b155b156124405760405163a9fbf51f60e01b81526001600160a01b0384166004820152602401610b56565b81156124885783856001600160a01b0316826001600160a01b03167f8c5be1e5ebec7d5bd14f71427d1e84f3dd0314c0f7b2291e5b200ac8c7c3b92560405160405180910390a45b505b50505f90815260096020526040902080546001600160a01b0319166001600160a01b0392909216919091179055565b5f7f00000000000000000000000000000000000000000000000000000000000000006124e58184613c08565b6109789190613c27565b5f6124fd6020828486613641565b611aeb91613c4a565b5f612515602860208486613641565b61251e91613c67565b60c01c9392505050565b5f6109787f00000000000000000000000000000000000000000000000000000000000000006001600160401b038416613c27565b606061256b8260288186613641565b8080601f0160208091040260200160405190810160405280939291908181526020018383808284375f92019190915250929695505050505050565b6060848484846040516020016125bf9493929190613c97565b6040516020818303038152906040529050949350505050565b6125e3838383612892565b610f0b576001600160a01b03831661261157604051637e27328960e01b815260048101829052602401610b56565b60405163177e802f60e01b81526001600160a01b038316600482015260248101829052604401610b56565b5f6109787f000000000000000000000000000000000000000000000000000000000000000083613c08565b80516060901515806126b057848460405160200161269c92919091825260c01b6001600160c01b031916602082015260280190565b6040516020818303038152906040526126d7565b848433856040516020016126c79493929190613ce5565b6040516020818303038152906040525b9150935093915050565b5f6126ed5f835f6119fe565b90506001600160a01b038116610a4057604051637e27328960e01b815260048101839052602401610b56565b5f81341461273c576040516304fb820960e51b8152346004820152602401610b56565b5090565b5f7f00000000000000000000000000000000000000000000000000000000000000006001600160a01b031663e4fe1d946040518163ffffffff1660e01b8152600401602060405180830381865afa15801561279d573d5f803e3d5ffd5b505050506040513d601f19601f820116820180604052508101906127c19190613d27565b90506001600160a01b0381166127ea576040516329b99a9560e11b815260040160405180910390fd5b610a406001600160a01b038216337f0000000000000000000000000000000000000000000000000000000000000000856128f3565b6060600d805461098d906134e2565b60606128398261178d565b505f61284361281f565b90505f8151116128615760405180602001604052805f815250611aeb565b8061286b8461294d565b60405160200161287c929190613bda565b6040516020818303038152906040529392505050565b5f6001600160a01b0383161580159061107e5750826001600160a01b0316846001600160a01b031614806128cb57506128cb84846116cb565b8061107e5750505f908152600960205260409020546001600160a01b03908116911614919050565b604080516001600160a01b0385811660248301528416604482015260648082018490528251808303909101815260849091019091526020810180516001600160e01b03166323b872dd60e01b179052610cb39085906129dc565b60605f61295983612a3d565b60010190505f816001600160401b0381111561297757612977612ef8565b6040519080825280601f01601f1916602001820160405280156129a1576020820181803683370190505b5090508181016020015b5f19016f181899199a1a9b1b9c1cb0b131b232b360811b600a86061a8153600a85049450846129ab57509392505050565b5f6129f06001600160a01b03841683612b14565b905080515f14158015612a14575080806020019051810190612a1291906139e1565b155b15610f0b57604051635274afe760e01b81526001600160a01b0384166004820152602401610b56565b5f8072184f03e93ff9f4daa797ed6e38ed64bf6a1f0160401b8310612a7b5772184f03e93ff9f4daa797ed6e38ed64bf6a1f0160401b830492506040015b6d04ee2d6d415b85acef81000000008310612aa7576d04ee2d6d415b85acef8100000000830492506020015b662386f26fc100008310612ac557662386f26fc10000830492506010015b6305f5e1008310612add576305f5e100830492506008015b6127108310612af157612710830492506004015b60648310612b03576064830492506002015b600a83106109785760010192915050565b6060611aeb83835f845f80856001600160a01b03168486604051612b389190613d42565b5f6040518083038185875af1925050503d805f8114612b72576040519150601f19603f3d011682016040523d82523d5f602084013e612b77565b606091505b5091509150610d32868383606082612b9757612b9282612bde565b611aeb565b8151158015612bae57506001600160a01b0384163b155b15612bd757604051639996b31560e01b81526001600160a01b0385166004820152602401610b56565b5080611aeb565b805115612bee5780518082602001fd5b604051630a12f52160e11b815260040160405180910390fd5b60405180606001604052805f80191681526020015f6001600160401b03168152602001612c4560405180604001604052805f81526020015f81525090565b905290565b6001600160e01b031981168114611732575f80fd5b5f60208284031215612c6f575f80fd5b8135611aeb81612c4a565b5f5b83811015612c94578181015183820152602001612c7c565b50505f910152565b5f8151808452612cb3816020860160208601612c7a565b601f01601f19169290920160200192915050565b602081525f611aeb6020830184612c9c565b5f60208284031215612ce9575f80fd5b5035919050565b6001600160a01b0381168114611732575f80fd5b5f8060408385031215612d15575f80fd5b8235612d2081612cf0565b946020939093013593505050565b5f60e08284031215612d3e575f80fd5b50919050565b5f60208284031215612d54575f80fd5b81356001600160401b03811115612d69575f80fd5b61107e84828501612d2e565b83518152602080850151908201525f60a08201604060a0604085015281865180845260c08601915060c08160051b870101935060208089015f5b83811015612dee5788870360bf19018552815180518852830151838801879052612ddb87890182612c9c565b9750509382019390820190600101612daf565b5050875160608801525050506020850151608085015250905061107e565b5f60608284031215612d3e575f80fd5b5f8083601f840112612e2c575f80fd5b5081356001600160401b03811115612e42575f80fd5b602083019150836020828501011115612e59575f80fd5b9250929050565b5f805f805f805f60e0888a031215612e76575f80fd5b612e808989612e0c565b96506060880135955060808801356001600160401b0380821115612ea2575f80fd5b612eae8b838c01612e1c565b909750955060a08a01359150612ec382612cf0565b90935060c08901359080821115612ed8575f80fd5b50612ee58a828b01612e1c565b989b979a50959850939692959293505050565b634e487b7160e01b5f52604160045260245ffd5b604051606081016001600160401b0381118282101715612f2e57612f2e612ef8565b60405290565b604080519081016001600160401b0381118282101715612f2e57612f2e612ef8565b604051601f8201601f191681016001600160401b0381118282101715612f7e57612f7e612ef8565b604052919050565b5f6001600160401b03821115612f9e57612f9e612ef8565b50601f01601f191660200190565b5f82601f830112612fbb575f80fd5b8135612fce612fc982612f86565b612f56565b818152846020838601011115612fe2575f80fd5b816020850160208301375f918101602001919091529392505050565b5f806040838503121561300f575f80fd5b8235915060208301356001600160401b0381111561302b575f80fd5b61303785828601612fac565b9150509250929050565b5f805f60608486031215613053575f80fd5b833561305e81612cf0565b9250602084013561306e81612cf0565b929592945050506040919091013590565b803563ffffffff81168114613092575f80fd5b919050565b5f80604083850312156130a8575f80fd5b612d208361307f565b8015158114611732575f80fd5b5f80604083850312156130cf575f80fd5b82356001600160401b038111156130e4575f80fd5b6130f085828601612d2e565b9250506020830135613101816130b1565b809150509250929050565b815181526020808301519082015260408101610978565b5f805f8060808587031215613136575f80fd5b843561314181612cf0565b9350602085013592506040850135915061315d6060860161307f565b905092959194509250565b5f60208284031215613178575f80fd5b8135611aeb81612cf0565b803561ffff81168114613092575f80fd5b5f80604083850312156131a5575f80fd5b6131ae8361307f565b91506131bc60208401613183565b90509250929050565b5f805f8060a085870312156131d8575f80fd5b6131e28686612e0c565b935060608501356001600160401b038111156131fc575f80fd5b61320887828801612e1c565b909450925050608085013561321c81612cf0565b939692955090935050565b5f8060408385031215613238575f80fd5b823561324381612cf0565b91506020830135613101816130b1565b5f805f8060808587031215613266575f80fd5b843561327181612cf0565b9350602085013561328181612cf0565b92506040850135915060608501356001600160401b038111156132a2575f80fd5b6132ae87828801612fac565b91505092959194509250565b5f8083601f8401126132ca575f80fd5b5081356001600160401b038111156132e0575f80fd5b6020830191508360208260051b8501011115612e59575f80fd5b5f806020838503121561330b575f80fd5b82356001600160401b03811115613320575f80fd5b61332c858286016132ba565b90969095509350505050565b5f60208284031215613348575f80fd5b611aeb8261307f565b5f805f8060608587031215613364575f80fd5b61336d8561307f565b935061337b60208601613183565b925060408501356001600160401b03811115613395575f80fd5b6133a187828801612e1c565b95989497509550505050565b5f805f83850360808112156133c0575f80fd5b84356001600160401b038111156133d5575f80fd5b6133e187828801612d2e565b9450506040601f19820112156133f5575f80fd5b50602084019150606084013561340a81612cf0565b809150509250925092565b5f60c082019050835182526001600160401b036020850151166020830152604084015161344f604084018280518252602090810151910152565b5082516080830152602083015160a0830152611aeb565b5f8060408385031215613477575f80fd5b823561348281612cf0565b915060208301356001600160401b0381111561302b575f80fd5b5f80604083850312156134ad575f80fd5b82356134b881612cf0565b9150602083013561310181612cf0565b5f606082840312156134d8575f80fd5b611aeb8383612e0c565b600181811c908216806134f657607f821691505b602082108103612d3e57634e487b7160e01b5f52602260045260245ffd5b60208082526028908201527f426c6f70353a207472616e73666572206f6620746f6b656e2074686174206973604082015267103737ba1037bbb760c11b606082015260800190565b828152604060208201525f61107e6040830184612c9c565b5f6001600160401b038084111561358d5761358d612ef8565b8360051b602061359e818301612f56565b8681529185019181810190368411156135b5575f80fd5b865b84811015613635578035868111156135cd575f80fd5b880160603682900312156135df575f80fd5b6135e7612f0c565b6135f08261307f565b81526135fd868301613183565b8682015260408083013589811115613613575f80fd5b61361f36828601612fac565b91830191909152508452509183019183016135b7565b50979650505050505050565b5f808585111561364f575f80fd5b8386111561365b575f80fd5b5050820193919092039150565b5f8451613679818460208901612c7a565b8201838582375f930192835250909392505050565b81835281816020850137505f828201602090810191909152601f909101601f19169091010190565b602081525f61107e60208301848661368e565b634e487b7160e01b5f52603260045260245ffd5b5f823561013e198336030181126136f2575f80fd5b9190910192915050565b5f808335601e19843603018112613711575f80fd5b8301803591506001600160401b0382111561372a575f80fd5b602001915036819003821315612e59575f80fd5b6001600160401b0381168114611732575f80fd5b63ffffffff6137608961307f565b168152602088013560208201525f604089013561377c8161373e565b6001600160401b03811660408401525087606083015260e060808301526137a760e08301878961368e565b6001600160a01b03861660a084015282810360c08401526137c981858761368e565b9a9950505050505050505050565b5f602082840312156137e7575f80fd5b81516001600160401b038111156137fc575f80fd5b8201601f8101841361380c575f80fd5b805161381a612fc982612f86565b81815285602083850101111561382e575f80fd5b611d5f826020830160208601612c7a565b5f6040828403121561384f575f80fd5b613857612f34565b82358152602083013560208201528091505092915050565b5f6020828403121561387f575f80fd5b8135611aeb8161373e565b60018060a01b038516815283602082015261ffff83166040820152608060608201525f610d326080830184612c9c565b601f821115610f0b57805f5260205f20601f840160051c810160208510156138df5750805b601f840160051c820191505b8181101561156f575f81556001016138eb565b81516001600160401b0381111561391757613917612ef8565b61392b8161392584546134e2565b846138ba565b602080601f83116001811461395e575f84156139475750858301515b5f19600386901b1c1916600185901b1785556139b5565b5f85815260208120601f198616915b8281101561398c5788860151825594840194600190910190840161396d565b50858210156139a957878501515f19600388901b60f8161c191681555b505060018460011b0185555b505050505050565b604081525f6139cf6040830185612c9c565b8281036020840152611d5f8185612c9c565b5f602082840312156139f1575f80fd5b8151611aeb816130b1565b6040815263ffffffff8351166040820152602083015160608201525f604084015160a06080840152613a3160e0840182612c9c565b90506060850151603f198483030160a0850152613a4e8282612c9c565b60809690960151151560c08501525050506001600160a01b039190911660209091015290565b5f60408284031215613a84575f80fd5b613a8c612f34565b9050815181526020820151602082015292915050565b5f60408284031215613ab2575f80fd5b611aeb8383613a74565b6001600160a01b03858116825284166020820152604081018390526080606082018190525f90610d3290830184612c9c565b5f60208284031215613afe575f80fd5b8151611aeb81612c4a565b5f60208083018184528085518083526040925060408601915060408160051b8701018488015f5b83811015613b8457888303603f190185528151805163ffffffff1684528781015161ffff16888501528601516060878501819052613b7081860183612c9c565b968901969450505090860190600101613b30565b509098975050505050505050565b5f60808284031215613ba2575f80fd5b613baa612f0c565b825181526020830151613bbc8161373e565b6020820152613bce8460408501613a74565b60408201529392505050565b5f8351613beb818460208801612c7a565b835190830190613bff818360208801612c7a565b01949350505050565b5f82613c2257634e487b7160e01b5f52601260045260245ffd5b500490565b808202811582820484141761097857634e487b7160e01b5f52601160045260245ffd5b80356020831015610978575f19602084900360031b1b1692915050565b6001600160c01b03198135818116916008851015613c8f5780818660080360031b1b83161692505b505092915050565b6001600160401b0360c01b8560c01b16815263ffffffff60e01b8460e01b16600882015282600c8201525f8251613cd581602c850160208701612c7a565b91909101602c0195945050505050565b8481526001600160401b0360c01b8460c01b1660208201528260288201525f8251613d17816048850160208701612c7a565b9190910160480195945050505050565b5f60208284031215613d37575f80fd5b8151611aeb81612cf0565b5f82516136f2818460208701612c7a56fea264697066735822122068713142fb5c2613aece17b82e6e6ff32a437777f5d07a492878628f2e5e6e4964736f6c63430008160033",
			"opcodes": "PUSH1 0xC0 PUSH1 0x40 MSTORE CALLVALUE DUP1 ISZERO PUSH3 0x10 JUMPI PUSH0 DUP1 REVERT JUMPDEST POP PUSH1 0x40 MLOAD PUSH3 0x4429 CODESIZE SUB DUP1 PUSH3 0x4429 DUP4 CODECOPY DUP2 ADD PUSH1 0x40 DUP2 SWAP1 MSTORE PUSH3 0x33 SWAP2 PUSH3 0x2D1 JUMP JUMPDEST DUP7 DUP7 PUSH1 0x12 DUP8 DUP8 DUP2 DUP2 DUP2 DUP2 DUP10 PUSH1 0x1 PUSH1 0x1 PUSH1 0xA0 SHL SUB DUP2 AND PUSH3 0x6C JUMPI PUSH1 0x40 MLOAD PUSH4 0x1E4FBDF7 PUSH1 0xE0 SHL DUP2 MSTORE PUSH0 PUSH1 0x4 DUP3 ADD MSTORE PUSH1 0x24 ADD PUSH1 0x40 MLOAD DUP1 SWAP2 SUB SWAP1 REVERT JUMPDEST PUSH3 0x77 DUP2 PUSH3 0x1A0 JUMP JUMPDEST POP PUSH1 0x1 PUSH1 0x1 PUSH1 0xA0 SHL SUB DUP1 DUP4 AND PUSH1 0x80 MSTORE DUP2 AND PUSH3 0xA6 JUMPI PUSH1 0x40 MLOAD PUSH4 0x2D618D81 PUSH1 0xE2 SHL DUP2 MSTORE PUSH1 0x4 ADD PUSH1 0x40 MLOAD DUP1 SWAP2 SUB SWAP1 REVERT JUMPDEST PUSH1 0x80 MLOAD PUSH1 0x40 MLOAD PUSH4 0xCA5EB5E1 PUSH1 0xE0 SHL DUP2 MSTORE PUSH1 0x1 PUSH1 0x1 PUSH1 0xA0 SHL SUB DUP4 DUP2 AND PUSH1 0x4 DUP4 ADD MSTORE SWAP1 SWAP2 AND SWAP1 PUSH4 0xCA5EB5E1 SWAP1 PUSH1 0x24 ADD PUSH0 PUSH1 0x40 MLOAD DUP1 DUP4 SUB DUP2 PUSH0 DUP8 DUP1 EXTCODESIZE ISZERO DUP1 ISZERO PUSH3 0xEB JUMPI PUSH0 DUP1 REVERT JUMPDEST POP GAS CALL ISZERO DUP1 ISZERO PUSH3 0xFE JUMPI RETURNDATASIZE PUSH0 DUP1 RETURNDATACOPY RETURNDATASIZE PUSH0 REVERT JUMPDEST POP POP POP POP POP POP POP POP PUSH3 0x116 PUSH3 0x1EF PUSH1 0x20 SHL PUSH1 0x20 SHR JUMP JUMPDEST PUSH1 0xFF AND DUP4 PUSH1 0xFF AND LT ISZERO PUSH3 0x13D JUMPI PUSH1 0x40 MLOAD PUSH4 0x1E9714B PUSH1 0xE4 SHL DUP2 MSTORE PUSH1 0x4 ADD PUSH1 0x40 MLOAD DUP1 SWAP2 SUB SWAP1 REVERT JUMPDEST PUSH3 0x14A PUSH1 0x6 DUP5 PUSH3 0x3B0 JUMP JUMPDEST PUSH3 0x157 SWAP1 PUSH1 0xA PUSH3 0x4CB JUMP JUMPDEST PUSH1 0xA0 MSTORE POP PUSH1 0x5 SWAP2 POP PUSH3 0x16D SWAP1 POP DUP4 DUP3 PUSH3 0x56C JUMP JUMPDEST POP PUSH1 0x6 PUSH3 0x17C DUP3 DUP3 PUSH3 0x56C JUMP JUMPDEST POP PUSH1 0xD SWAP2 POP PUSH3 0x18F SWAP1 POP DUP5 DUP3 PUSH3 0x56C JUMP JUMPDEST POP POP PUSH1 0xE SSTORE POP PUSH3 0x638 SWAP4 POP POP POP POP JUMP JUMPDEST PUSH0 DUP1 SLOAD PUSH1 0x1 PUSH1 0x1 PUSH1 0xA0 SHL SUB DUP4 DUP2 AND PUSH1 0x1 PUSH1 0x1 PUSH1 0xA0 SHL SUB NOT DUP4 AND DUP2 OR DUP5 SSTORE PUSH1 0x40 MLOAD SWAP2 SWAP1 SWAP3 AND SWAP3 DUP4 SWAP2 PUSH32 0x8BE0079C531659141344CD1FD0A4F28419497F9722A3DAAFE3B4186F6B6457E0 SWAP2 SWAP1 LOG3 POP POP JUMP JUMPDEST PUSH1 0x6 SWAP1 JUMP JUMPDEST PUSH4 0x4E487B71 PUSH1 0xE0 SHL PUSH0 MSTORE PUSH1 0x41 PUSH1 0x4 MSTORE PUSH1 0x24 PUSH0 REVERT JUMPDEST PUSH0 DUP3 PUSH1 0x1F DUP4 ADD SLT PUSH3 0x218 JUMPI PUSH0 DUP1 REVERT JUMPDEST DUP2 MLOAD PUSH1 0x1 PUSH1 0x1 PUSH1 0x40 SHL SUB DUP1 DUP3 GT ISZERO PUSH3 0x235 JUMPI PUSH3 0x235 PUSH3 0x1F4 JUMP JUMPDEST PUSH1 0x40 MLOAD PUSH1 0x1F DUP4 ADD PUSH1 0x1F NOT SWAP1 DUP2 AND PUSH1 0x3F ADD AND DUP2 ADD SWAP1 DUP3 DUP3 GT DUP2 DUP4 LT OR ISZERO PUSH3 0x260 JUMPI PUSH3 0x260 PUSH3 0x1F4 JUMP JUMPDEST DUP2 PUSH1 0x40 MSTORE DUP4 DUP2 MSTORE PUSH1 0x20 SWAP3 POP DUP7 PUSH1 0x20 DUP6 DUP9 ADD ADD GT ISZERO PUSH3 0x27D JUMPI PUSH0 DUP1 REVERT JUMPDEST PUSH0 SWAP2 POP JUMPDEST DUP4 DUP3 LT ISZERO PUSH3 0x2A0 JUMPI DUP6 DUP3 ADD DUP4 ADD MLOAD DUP2 DUP4 ADD DUP5 ADD MSTORE SWAP1 DUP3 ADD SWAP1 PUSH3 0x281 JUMP JUMPDEST PUSH0 PUSH1 0x20 DUP6 DUP4 ADD ADD MSTORE DUP1 SWAP5 POP POP POP POP POP SWAP3 SWAP2 POP POP JUMP JUMPDEST DUP1 MLOAD PUSH1 0x1 PUSH1 0x1 PUSH1 0xA0 SHL SUB DUP2 AND DUP2 EQ PUSH3 0x2CC JUMPI PUSH0 DUP1 REVERT JUMPDEST SWAP2 SWAP1 POP JUMP JUMPDEST PUSH0 DUP1 PUSH0 DUP1 PUSH0 DUP1 PUSH0 PUSH1 0xE0 DUP9 DUP11 SUB SLT ISZERO PUSH3 0x2E8 JUMPI PUSH0 DUP1 REVERT JUMPDEST DUP8 MLOAD PUSH1 0x1 PUSH1 0x1 PUSH1 0x40 SHL SUB DUP1 DUP3 GT ISZERO PUSH3 0x2FF JUMPI PUSH0 DUP1 REVERT JUMPDEST PUSH3 0x30D DUP12 DUP4 DUP13 ADD PUSH3 0x208 JUMP JUMPDEST SWAP9 POP PUSH1 0x20 DUP11 ADD MLOAD SWAP2 POP DUP1 DUP3 GT ISZERO PUSH3 0x323 JUMPI PUSH0 DUP1 REVERT JUMPDEST PUSH3 0x331 DUP12 DUP4 DUP13 ADD PUSH3 0x208 JUMP JUMPDEST SWAP8 POP PUSH3 0x341 PUSH1 0x40 DUP12 ADD PUSH3 0x2B5 JUMP JUMPDEST SWAP7 POP PUSH3 0x351 PUSH1 0x60 DUP12 ADD PUSH3 0x2B5 JUMP JUMPDEST SWAP6 POP PUSH1 0x80 DUP11 ADD MLOAD SWAP2 POP DUP1 DUP3 GT ISZERO PUSH3 0x367 JUMPI PUSH0 DUP1 REVERT JUMPDEST POP PUSH3 0x376 DUP11 DUP3 DUP12 ADD PUSH3 0x208 JUMP JUMPDEST SWAP4 POP POP PUSH1 0xA0 DUP9 ADD MLOAD SWAP2 POP PUSH3 0x38E PUSH1 0xC0 DUP10 ADD PUSH3 0x2B5 JUMP JUMPDEST SWAP1 POP SWAP3 SWAP6 SWAP9 SWAP2 SWAP5 SWAP8 POP SWAP3 SWAP6 POP JUMP JUMPDEST PUSH4 0x4E487B71 PUSH1 0xE0 SHL PUSH0 MSTORE PUSH1 0x11 PUSH1 0x4 MSTORE PUSH1 0x24 PUSH0 REVERT JUMPDEST PUSH1 0xFF DUP3 DUP2 AND DUP3 DUP3 AND SUB SWAP1 DUP2 GT ISZERO PUSH3 0x3CC JUMPI PUSH3 0x3CC PUSH3 0x39C JUMP JUMPDEST SWAP3 SWAP2 POP POP JUMP JUMPDEST PUSH1 0x1 DUP2 DUP2 JUMPDEST DUP1 DUP6 GT ISZERO PUSH3 0x412 JUMPI DUP2 PUSH0 NOT DIV DUP3 GT ISZERO PUSH3 0x3F6 JUMPI PUSH3 0x3F6 PUSH3 0x39C JUMP JUMPDEST DUP1 DUP6 AND ISZERO PUSH3 0x404 JUMPI SWAP2 DUP2 MUL SWAP2 JUMPDEST SWAP4 DUP5 SHR SWAP4 SWAP1 DUP1 MUL SWAP1 PUSH3 0x3D7 JUMP JUMPDEST POP SWAP3 POP SWAP3 SWAP1 POP JUMP JUMPDEST PUSH0 DUP3 PUSH3 0x42A JUMPI POP PUSH1 0x1 PUSH3 0x3CC JUMP JUMPDEST DUP2 PUSH3 0x438 JUMPI POP PUSH0 PUSH3 0x3CC JUMP JUMPDEST DUP2 PUSH1 0x1 DUP2 EQ PUSH3 0x451 JUMPI PUSH1 0x2 DUP2 EQ PUSH3 0x45C JUMPI PUSH3 0x47C JUMP JUMPDEST PUSH1 0x1 SWAP2 POP POP PUSH3 0x3CC JUMP JUMPDEST PUSH1 0xFF DUP5 GT ISZERO PUSH3 0x470 JUMPI PUSH3 0x470 PUSH3 0x39C JUMP JUMPDEST POP POP PUSH1 0x1 DUP3 SHL PUSH3 0x3CC JUMP JUMPDEST POP PUSH1 0x20 DUP4 LT PUSH2 0x133 DUP4 LT AND PUSH1 0x4E DUP5 LT PUSH1 0xB DUP5 LT AND OR ISZERO PUSH3 0x4A1 JUMPI POP DUP2 DUP2 EXP PUSH3 0x3CC JUMP JUMPDEST PUSH3 0x4AD DUP4 DUP4 PUSH3 0x3D2 JUMP JUMPDEST DUP1 PUSH0 NOT DIV DUP3 GT ISZERO PUSH3 0x4C3 JUMPI PUSH3 0x4C3 PUSH3 0x39C JUMP JUMPDEST MUL SWAP4 SWAP3 POP POP POP JUMP JUMPDEST PUSH0 PUSH3 0x4DB PUSH1 0xFF DUP5 AND DUP4 PUSH3 0x41A JUMP JUMPDEST SWAP4 SWAP3 POP POP POP JUMP JUMPDEST PUSH1 0x1 DUP2 DUP2 SHR SWAP1 DUP3 AND DUP1 PUSH3 0x4F7 JUMPI PUSH1 0x7F DUP3 AND SWAP2 POP JUMPDEST PUSH1 0x20 DUP3 LT DUP2 SUB PUSH3 0x516 JUMPI PUSH4 0x4E487B71 PUSH1 0xE0 SHL PUSH0 MSTORE PUSH1 0x22 PUSH1 0x4 MSTORE PUSH1 0x24 PUSH0 REVERT JUMPDEST POP SWAP2 SWAP1 POP JUMP JUMPDEST PUSH1 0x1F DUP3 GT ISZERO PUSH3 0x567 JUMPI DUP1 PUSH0 MSTORE PUSH1 0x20 PUSH0 KECCAK256 PUSH1 0x1F DUP5 ADD PUSH1 0x5 SHR DUP2 ADD PUSH1 0x20 DUP6 LT ISZERO PUSH3 0x543 JUMPI POP DUP1 JUMPDEST PUSH1 0x1F DUP5 ADD PUSH1 0x5 SHR DUP3 ADD SWAP2 POP JUMPDEST DUP2 DUP2 LT ISZERO PUSH3 0x564 JUMPI PUSH0 DUP2 SSTORE PUSH1 0x1 ADD PUSH3 0x54F JUMP JUMPDEST POP POP JUMPDEST POP POP POP JUMP JUMPDEST DUP2 MLOAD PUSH1 0x1 PUSH1 0x1 PUSH1 0x40 SHL SUB DUP2 GT ISZERO PUSH3 0x588 JUMPI PUSH3 0x588 PUSH3 0x1F4 JUMP JUMPDEST PUSH3 0x5A0 DUP2 PUSH3 0x599 DUP5 SLOAD PUSH3 0x4E2 JUMP JUMPDEST DUP5 PUSH3 0x51C JUMP JUMPDEST PUSH1 0x20 DUP1 PUSH1 0x1F DUP4 GT PUSH1 0x1 DUP2 EQ PUSH3 0x5D6 JUMPI PUSH0 DUP5 ISZERO PUSH3 0x5BE JUMPI POP DUP6 DUP4 ADD MLOAD JUMPDEST PUSH0 NOT PUSH1 0x3 DUP7 SWAP1 SHL SHR NOT AND PUSH1 0x1 DUP6 SWAP1 SHL OR DUP6 SSTORE PUSH3 0x630 JUMP JUMPDEST PUSH0 DUP6 DUP2 MSTORE PUSH1 0x20 DUP2 KECCAK256 PUSH1 0x1F NOT DUP7 AND SWAP2 JUMPDEST DUP3 DUP2 LT ISZERO PUSH3 0x606 JUMPI DUP9 DUP7 ADD MLOAD DUP3 SSTORE SWAP5 DUP5 ADD SWAP5 PUSH1 0x1 SWAP1 SWAP2 ADD SWAP1 DUP5 ADD PUSH3 0x5E5 JUMP JUMPDEST POP DUP6 DUP3 LT ISZERO PUSH3 0x624 JUMPI DUP8 DUP6 ADD MLOAD PUSH0 NOT PUSH1 0x3 DUP9 SWAP1 SHL PUSH1 0xF8 AND SHR NOT AND DUP2 SSTORE JUMPDEST POP POP PUSH1 0x1 DUP5 PUSH1 0x1 SHL ADD DUP6 SSTORE JUMPDEST POP POP POP POP POP POP JUMP JUMPDEST PUSH1 0x80 MLOAD PUSH1 0xA0 MLOAD PUSH2 0x3D89 PUSH3 0x6A0 PUSH0 CODECOPY PUSH0 DUP2 DUP2 PUSH2 0x75F ADD MSTORE DUP2 DUP2 PUSH2 0x24BC ADD MSTORE DUP2 DUP2 PUSH2 0x252E ADD MSTORE PUSH2 0x2642 ADD MSTORE PUSH0 DUP2 DUP2 PUSH2 0x618 ADD MSTORE DUP2 DUP2 PUSH2 0xB11 ADD MSTORE DUP2 DUP2 PUSH2 0x151C ADD MSTORE DUP2 DUP2 PUSH2 0x18E2 ADD MSTORE DUP2 DUP2 PUSH2 0x1C9F ADD MSTORE DUP2 DUP2 PUSH2 0x2139 ADD MSTORE DUP2 DUP2 PUSH2 0x2743 ADD MSTORE PUSH2 0x27FA ADD MSTORE PUSH2 0x3D89 PUSH0 RETURN INVALID PUSH1 0x80 PUSH1 0x40 MSTORE PUSH1 0x4 CALLDATASIZE LT PUSH2 0x2F3 JUMPI PUSH0 CALLDATALOAD PUSH1 0xE0 SHR DUP1 PUSH4 0x70A08231 GT PUSH2 0x189 JUMPI DUP1 PUSH4 0xBB0B6A53 GT PUSH2 0xD8 JUMPI DUP1 PUSH4 0xD045A0DC GT PUSH2 0x92 JUMPI DUP1 PUSH4 0xE985E9C5 GT PUSH2 0x6D JUMPI DUP1 PUSH4 0xE985E9C5 EQ PUSH2 0x911 JUMPI DUP1 PUSH4 0xF2FDE38B EQ PUSH2 0x930 JUMPI DUP1 PUSH4 0xFC0C546A EQ PUSH2 0x5A1 JUMPI DUP1 PUSH4 0xFF7BD03D EQ PUSH2 0x94F JUMPI PUSH0 DUP1 REVERT JUMPDEST DUP1 PUSH4 0xD045A0DC EQ PUSH2 0x8CC JUMPI DUP1 PUSH4 0xD0DEF521 EQ PUSH2 0x8DF JUMPI DUP1 PUSH4 0xD4243885 EQ PUSH2 0x8F2 JUMPI PUSH0 DUP1 REVERT JUMPDEST DUP1 PUSH4 0xBB0B6A53 EQ PUSH2 0x810 JUMPI DUP1 PUSH4 0xBC70B354 EQ PUSH2 0x83B JUMPI DUP1 PUSH4 0xBD815DB0 EQ PUSH2 0x85A JUMPI DUP1 PUSH4 0xC7C7F5B3 EQ PUSH2 0x86D JUMPI DUP1 PUSH4 0xC87B56DD EQ PUSH2 0x88E JUMPI DUP1 PUSH4 0xCA5EB5E1 EQ PUSH2 0x8AD JUMPI PUSH0 DUP1 REVERT JUMPDEST DUP1 PUSH4 0x95D89B41 GT PUSH2 0x143 JUMPI DUP1 PUSH4 0xA22CB465 GT PUSH2 0x11E JUMPI DUP1 PUSH4 0xA22CB465 EQ PUSH2 0x794 JUMPI DUP1 PUSH4 0xB731EA0A EQ PUSH2 0x7B3 JUMPI DUP1 PUSH4 0xB88D4FDE EQ PUSH2 0x7D2 JUMPI DUP1 PUSH4 0xB98BD070 EQ PUSH2 0x7F1 JUMPI PUSH0 DUP1 REVERT JUMPDEST DUP1 PUSH4 0x95D89B41 EQ PUSH2 0x73A JUMPI DUP1 PUSH4 0x963EFCAA EQ PUSH2 0x74E JUMPI DUP1 PUSH4 0x9F68B964 EQ PUSH2 0x781 JUMPI PUSH0 DUP1 REVERT JUMPDEST DUP1 PUSH4 0x70A08231 EQ PUSH2 0x678 JUMPI DUP1 PUSH4 0x715018A6 EQ PUSH2 0x697 JUMPI DUP1 PUSH4 0x7D25A05E EQ PUSH2 0x6AB JUMPI DUP1 PUSH4 0x82413EAC EQ PUSH2 0x6E4 JUMPI DUP1 PUSH4 0x857749B0 EQ PUSH2 0x703 JUMPI DUP1 PUSH4 0x8DA5CB5B EQ PUSH2 0x71E JUMPI PUSH0 DUP1 REVERT JUMPDEST DUP1 PUSH4 0x3400288B GT PUSH2 0x245 JUMPI DUP1 PUSH4 0x42842E0E GT PUSH2 0x1FF JUMPI DUP1 PUSH4 0x5A0DFE4D GT PUSH2 0x1DA JUMPI DUP1 PUSH4 0x5A0DFE4D EQ PUSH2 0x5D2 JUMPI DUP1 PUSH4 0x5E280F11 EQ PUSH2 0x607 JUMPI DUP1 PUSH4 0x6352211E EQ PUSH2 0x63A JUMPI DUP1 PUSH4 0x6FC1B31E EQ PUSH2 0x659 JUMPI PUSH0 DUP1 REVERT JUMPDEST DUP1 PUSH4 0x42842E0E EQ PUSH2 0x582 JUMPI DUP1 PUSH4 0x52AE2879 EQ PUSH2 0x5A1 JUMPI DUP1 PUSH4 0x5535D461 EQ PUSH2 0x5B3 JUMPI PUSH0 DUP1 REVERT JUMPDEST DUP1 PUSH4 0x3400288B EQ PUSH2 0x4C4 JUMPI DUP1 PUSH4 0x34FCF437 EQ PUSH2 0x4E3 JUMPI DUP1 PUSH4 0x3B6F743B EQ PUSH2 0x502 JUMPI DUP1 PUSH4 0x3CCFD60B EQ PUSH2 0x52E JUMPI DUP1 PUSH4 0x40FA5497 EQ PUSH2 0x542 JUMPI DUP1 PUSH4 0x41E8241F EQ PUSH2 0x555 JUMPI PUSH0 DUP1 REVERT JUMPDEST DUP1 PUSH4 0x13137D65 GT PUSH2 0x2B0 JUMPI DUP1 PUSH4 0x162094C4 GT PUSH2 0x28B JUMPI DUP1 PUSH4 0x162094C4 EQ PUSH2 0x451 JUMPI DUP1 PUSH4 0x17442B70 EQ PUSH2 0x470 JUMPI DUP1 PUSH4 0x1F5E1334 EQ PUSH2 0x491 JUMPI DUP1 PUSH4 0x23B872DD EQ PUSH2 0x4A5 JUMPI PUSH0 DUP1 REVERT JUMPDEST DUP1 PUSH4 0x13137D65 EQ PUSH2 0x3F1 JUMPI DUP1 PUSH4 0x134D4F25 EQ PUSH2 0x404 JUMPI DUP1 PUSH4 0x156A0D0F EQ PUSH2 0x42B JUMPI PUSH0 DUP1 REVERT JUMPDEST DUP1 PUSH4 0x1FFC9A7 EQ PUSH2 0x2F7 JUMPI DUP1 PUSH4 0x6FDDE03 EQ PUSH2 0x32B JUMPI DUP1 PUSH4 0x81812FC EQ PUSH2 0x34C JUMPI DUP1 PUSH4 0x95EA7B3 EQ PUSH2 0x383 JUMPI DUP1 PUSH4 0xD35B415 EQ PUSH2 0x3A4 JUMPI DUP1 PUSH4 0x111ECDAD EQ PUSH2 0x3D2 JUMPI JUMPDEST PUSH0 DUP1 REVERT JUMPDEST CALLVALUE DUP1 ISZERO PUSH2 0x302 JUMPI PUSH0 DUP1 REVERT JUMPDEST POP PUSH2 0x316 PUSH2 0x311 CALLDATASIZE PUSH1 0x4 PUSH2 0x2C5F JUMP JUMPDEST PUSH2 0x96E JUMP JUMPDEST PUSH1 0x40 MLOAD SWAP1 ISZERO ISZERO DUP2 MSTORE PUSH1 0x20 ADD JUMPDEST PUSH1 0x40 MLOAD DUP1 SWAP2 SUB SWAP1 RETURN JUMPDEST CALLVALUE DUP1 ISZERO PUSH2 0x336 JUMPI PUSH0 DUP1 REVERT JUMPDEST POP PUSH2 0x33F PUSH2 0x97E JUMP JUMPDEST PUSH1 0x40 MLOAD PUSH2 0x322 SWAP2 SWAP1 PUSH2 0x2CC7 JUMP JUMPDEST CALLVALUE DUP1 ISZERO PUSH2 0x357 JUMPI PUSH0 DUP1 REVERT JUMPDEST POP PUSH2 0x36B PUSH2 0x366 CALLDATASIZE PUSH1 0x4 PUSH2 0x2CD9 JUMP JUMPDEST PUSH2 0xA0E JUMP JUMPDEST PUSH1 0x40 MLOAD PUSH1 0x1 PUSH1 0x1 PUSH1 0xA0 SHL SUB SWAP1 SWAP2 AND DUP2 MSTORE PUSH1 0x20 ADD PUSH2 0x322 JUMP JUMPDEST CALLVALUE DUP1 ISZERO PUSH2 0x38E JUMPI PUSH0 DUP1 REVERT JUMPDEST POP PUSH2 0x3A2 PUSH2 0x39D CALLDATASIZE PUSH1 0x4 PUSH2 0x2D04 JUMP JUMPDEST PUSH2 0xA35 JUMP JUMPDEST STOP JUMPDEST CALLVALUE DUP1 ISZERO PUSH2 0x3AF JUMPI PUSH0 DUP1 REVERT JUMPDEST POP PUSH2 0x3C3 PUSH2 0x3BE CALLDATASIZE PUSH1 0x4 PUSH2 0x2D44 JUMP JUMPDEST PUSH2 0xA44 JUMP JUMPDEST PUSH1 0x40 MLOAD PUSH2 0x322 SWAP4 SWAP3 SWAP2 SWAP1 PUSH2 0x2D75 JUMP JUMPDEST CALLVALUE DUP1 ISZERO PUSH2 0x3DD JUMPI PUSH0 DUP1 REVERT JUMPDEST POP PUSH1 0x4 SLOAD PUSH2 0x36B SWAP1 PUSH1 0x1 PUSH1 0x1 PUSH1 0xA0 SHL SUB AND DUP2 JUMP JUMPDEST PUSH2 0x3A2 PUSH2 0x3FF CALLDATASIZE PUSH1 0x4 PUSH2 0x2E60 JUMP JUMPDEST PUSH2 0xB0F JUMP JUMPDEST CALLVALUE DUP1 ISZERO PUSH2 0x40F JUMPI PUSH0 DUP1 REVERT JUMPDEST POP PUSH2 0x418 PUSH1 0x2 DUP2 JUMP JUMPDEST PUSH1 0x40 MLOAD PUSH2 0xFFFF SWAP1 SWAP2 AND DUP2 MSTORE PUSH1 0x20 ADD PUSH2 0x322 JUMP JUMPDEST CALLVALUE DUP1 ISZERO PUSH2 0x436 JUMPI PUSH0 DUP1 REVERT JUMPDEST POP PUSH1 0x40 DUP1 MLOAD PUSH3 0xB9270B PUSH1 0xE2 SHL DUP2 MSTORE PUSH1 0x1 PUSH1 0x20 DUP3 ADD MSTORE ADD PUSH2 0x322 JUMP JUMPDEST CALLVALUE DUP1 ISZERO PUSH2 0x45C JUMPI PUSH0 DUP1 REVERT JUMPDEST POP PUSH2 0x3A2 PUSH2 0x46B CALLDATASIZE PUSH1 0x4 PUSH2 0x2FFE JUMP JUMPDEST PUSH2 0xBCF JUMP JUMPDEST CALLVALUE DUP1 ISZERO PUSH2 0x47B JUMPI PUSH0 DUP1 REVERT JUMPDEST POP PUSH1 0x40 DUP1 MLOAD PUSH1 0x1 DUP2 MSTORE PUSH1 0x2 PUSH1 0x20 DUP3 ADD MSTORE ADD PUSH2 0x322 JUMP JUMPDEST CALLVALUE DUP1 ISZERO PUSH2 0x49C JUMPI PUSH0 DUP1 REVERT JUMPDEST POP PUSH2 0x418 PUSH1 0x1 DUP2 JUMP JUMPDEST CALLVALUE DUP1 ISZERO PUSH2 0x4B0 JUMPI PUSH0 DUP1 REVERT JUMPDEST POP PUSH2 0x3A2 PUSH2 0x4BF CALLDATASIZE PUSH1 0x4 PUSH2 0x3041 JUMP JUMPDEST PUSH2 0xC30 JUMP JUMPDEST CALLVALUE DUP1 ISZERO PUSH2 0x4CF JUMPI PUSH0 DUP1 REVERT JUMPDEST POP PUSH2 0x3A2 PUSH2 0x4DE CALLDATASIZE PUSH1 0x4 PUSH2 0x3097 JUMP JUMPDEST PUSH2 0xCB9 JUMP JUMPDEST CALLVALUE DUP1 ISZERO PUSH2 0x4EE JUMPI PUSH0 DUP1 REVERT JUMPDEST POP PUSH2 0x3A2 PUSH2 0x4FD CALLDATASIZE PUSH1 0x4 PUSH2 0x2CD9 JUMP JUMPDEST PUSH2 0xCCB JUMP JUMPDEST CALLVALUE DUP1 ISZERO PUSH2 0x50D JUMPI PUSH0 DUP1 REVERT JUMPDEST POP PUSH2 0x521 PUSH2 0x51C CALLDATASIZE PUSH1 0x4 PUSH2 0x30BE JUMP JUMPDEST PUSH2 0xCD8 JUMP JUMPDEST PUSH1 0x40 MLOAD PUSH2 0x322 SWAP2 SWAP1 PUSH2 0x310C JUMP JUMPDEST CALLVALUE DUP1 ISZERO PUSH2 0x539 JUMPI PUSH0 DUP1 REVERT JUMPDEST POP PUSH2 0x3A2 PUSH2 0xD3C JUMP JUMPDEST PUSH2 0x3A2 PUSH2 0x550 CALLDATASIZE PUSH1 0x4 PUSH2 0x3123 JUMP JUMPDEST PUSH2 0xDBF JUMP JUMPDEST CALLVALUE DUP1 ISZERO PUSH2 0x560 JUMPI PUSH0 DUP1 REVERT JUMPDEST POP PUSH2 0x574 PUSH2 0x56F CALLDATASIZE PUSH1 0x4 PUSH2 0x3168 JUMP JUMPDEST PUSH2 0xE62 JUMP JUMPDEST PUSH1 0x40 MLOAD SWAP1 DUP2 MSTORE PUSH1 0x20 ADD PUSH2 0x322 JUMP JUMPDEST CALLVALUE DUP1 ISZERO PUSH2 0x58D JUMPI PUSH0 DUP1 REVERT JUMPDEST POP PUSH2 0x3A2 PUSH2 0x59C CALLDATASIZE PUSH1 0x4 PUSH2 0x3041 JUMP JUMPDEST PUSH2 0xEF1 JUMP JUMPDEST CALLVALUE DUP1 ISZERO PUSH2 0x5AC JUMPI PUSH0 DUP1 REVERT JUMPDEST POP ADDRESS PUSH2 0x36B JUMP JUMPDEST CALLVALUE DUP1 ISZERO PUSH2 0x5BE JUMPI PUSH0 DUP1 REVERT JUMPDEST POP PUSH2 0x33F PUSH2 0x5CD CALLDATASIZE PUSH1 0x4 PUSH2 0x3194 JUMP JUMPDEST PUSH2 0xF10 JUMP JUMPDEST CALLVALUE DUP1 ISZERO PUSH2 0x5DD JUMPI PUSH0 DUP1 REVERT JUMPDEST POP PUSH2 0x316 PUSH2 0x5EC CALLDATASIZE PUSH1 0x4 PUSH2 0x3097 JUMP JUMPDEST PUSH4 0xFFFFFFFF SWAP2 SWAP1 SWAP2 AND PUSH0 SWAP1 DUP2 MSTORE PUSH1 0x1 PUSH1 0x20 MSTORE PUSH1 0x40 SWAP1 KECCAK256 SLOAD EQ SWAP1 JUMP JUMPDEST CALLVALUE DUP1 ISZERO PUSH2 0x612 JUMPI PUSH0 DUP1 REVERT JUMPDEST POP PUSH2 0x36B PUSH32 0x0 DUP2 JUMP JUMPDEST CALLVALUE DUP1 ISZERO PUSH2 0x645 JUMPI PUSH0 DUP1 REVERT JUMPDEST POP PUSH2 0x36B PUSH2 0x654 CALLDATASIZE PUSH1 0x4 PUSH2 0x2CD9 JUMP JUMPDEST PUSH2 0xFB2 JUMP JUMPDEST CALLVALUE DUP1 ISZERO PUSH2 0x664 JUMPI PUSH0 DUP1 REVERT JUMPDEST POP PUSH2 0x3A2 PUSH2 0x673 CALLDATASIZE PUSH1 0x4 PUSH2 0x3168 JUMP JUMPDEST PUSH2 0xFBC JUMP JUMPDEST CALLVALUE DUP1 ISZERO PUSH2 0x683 JUMPI PUSH0 DUP1 REVERT JUMPDEST POP PUSH2 0x574 PUSH2 0x692 CALLDATASIZE PUSH1 0x4 PUSH2 0x3168 JUMP JUMPDEST PUSH2 0x1019 JUMP JUMPDEST CALLVALUE DUP1 ISZERO PUSH2 0x6A2 JUMPI PUSH0 DUP1 REVERT JUMPDEST POP PUSH2 0x3A2 PUSH2 0x105E JUMP JUMPDEST CALLVALUE DUP1 ISZERO PUSH2 0x6B6 JUMPI PUSH0 DUP1 REVERT JUMPDEST POP PUSH2 0x6CC PUSH2 0x6C5 CALLDATASIZE PUSH1 0x4 PUSH2 0x3097 JUMP JUMPDEST PUSH0 SWAP3 SWAP2 POP POP JUMP JUMPDEST PUSH1 0x40 MLOAD PUSH1 0x1 PUSH1 0x1 PUSH1 0x40 SHL SUB SWAP1 SWAP2 AND DUP2 MSTORE PUSH1 0x20 ADD PUSH2 0x322 JUMP JUMPDEST CALLVALUE DUP1 ISZERO PUSH2 0x6EF JUMPI PUSH0 DUP1 REVERT JUMPDEST POP PUSH2 0x316 PUSH2 0x6FE CALLDATASIZE PUSH1 0x4 PUSH2 0x31C5 JUMP JUMPDEST PUSH2 0x1071 JUMP JUMPDEST CALLVALUE DUP1 ISZERO PUSH2 0x70E JUMPI PUSH0 DUP1 REVERT JUMPDEST POP PUSH1 0x40 MLOAD PUSH1 0x6 DUP2 MSTORE PUSH1 0x20 ADD PUSH2 0x322 JUMP JUMPDEST CALLVALUE DUP1 ISZERO PUSH2 0x729 JUMPI PUSH0 DUP1 REVERT JUMPDEST POP PUSH0 SLOAD PUSH1 0x1 PUSH1 0x1 PUSH1 0xA0 SHL SUB AND PUSH2 0x36B JUMP JUMPDEST CALLVALUE DUP1 ISZERO PUSH2 0x745 JUMPI PUSH0 DUP1 REVERT JUMPDEST POP PUSH2 0x33F PUSH2 0x1086 JUMP JUMPDEST CALLVALUE DUP1 ISZERO PUSH2 0x759 JUMPI PUSH0 DUP1 REVERT JUMPDEST POP PUSH2 0x574 PUSH32 0x0 DUP2 JUMP JUMPDEST CALLVALUE DUP1 ISZERO PUSH2 0x78C JUMPI PUSH0 DUP1 REVERT JUMPDEST POP PUSH1 0x1 PUSH2 0x316 JUMP JUMPDEST CALLVALUE DUP1 ISZERO PUSH2 0x79F JUMPI PUSH0 DUP1 REVERT JUMPDEST POP PUSH2 0x3A2 PUSH2 0x7AE CALLDATASIZE PUSH1 0x4 PUSH2 0x3227 JUMP JUMPDEST PUSH2 0x1095 JUMP JUMPDEST CALLVALUE DUP1 ISZERO PUSH2 0x7BE JUMPI PUSH0 DUP1 REVERT JUMPDEST POP PUSH1 0x2 SLOAD PUSH2 0x36B SWAP1 PUSH1 0x1 PUSH1 0x1 PUSH1 0xA0 SHL SUB AND DUP2 JUMP JUMPDEST CALLVALUE DUP1 ISZERO PUSH2 0x7DD JUMPI PUSH0 DUP1 REVERT JUMPDEST POP PUSH2 0x3A2 PUSH2 0x7EC CALLDATASIZE PUSH1 0x4 PUSH2 0x3253 JUMP JUMPDEST PUSH2 0x10A0 JUMP JUMPDEST CALLVALUE DUP1 ISZERO PUSH2 0x7FC JUMPI PUSH0 DUP1 REVERT JUMPDEST POP PUSH2 0x3A2 PUSH2 0x80B CALLDATASIZE PUSH1 0x4 PUSH2 0x32FA JUMP JUMPDEST PUSH2 0x10B7 JUMP JUMPDEST CALLVALUE DUP1 ISZERO PUSH2 0x81B JUMPI PUSH0 DUP1 REVERT JUMPDEST POP PUSH2 0x574 PUSH2 0x82A CALLDATASIZE PUSH1 0x4 PUSH2 0x3338 JUMP JUMPDEST PUSH1 0x1 PUSH1 0x20 MSTORE PUSH0 SWAP1 DUP2 MSTORE PUSH1 0x40 SWAP1 KECCAK256 SLOAD DUP2 JUMP JUMPDEST CALLVALUE DUP1 ISZERO PUSH2 0x846 JUMPI PUSH0 DUP1 REVERT JUMPDEST POP PUSH2 0x33F PUSH2 0x855 CALLDATASIZE PUSH1 0x4 PUSH2 0x3351 JUMP JUMPDEST PUSH2 0x10D1 JUMP JUMPDEST PUSH2 0x3A2 PUSH2 0x868 CALLDATASIZE PUSH1 0x4 PUSH2 0x32FA JUMP JUMPDEST PUSH2 0x1272 JUMP JUMPDEST PUSH2 0x880 PUSH2 0x87B CALLDATASIZE PUSH1 0x4 PUSH2 0x33AD JUMP JUMPDEST PUSH2 0x13F2 JUMP JUMPDEST PUSH1 0x40 MLOAD PUSH2 0x322 SWAP3 SWAP2 SWAP1 PUSH2 0x3415 JUMP JUMPDEST CALLVALUE DUP1 ISZERO PUSH2 0x899 JUMPI PUSH0 DUP1 REVERT JUMPDEST POP PUSH2 0x33F PUSH2 0x8A8 CALLDATASIZE PUSH1 0x4 PUSH2 0x2CD9 JUMP JUMPDEST PUSH2 0x14EA JUMP JUMPDEST CALLVALUE DUP1 ISZERO PUSH2 0x8B8 JUMPI PUSH0 DUP1 REVERT JUMPDEST POP PUSH2 0x3A2 PUSH2 0x8C7 CALLDATASIZE PUSH1 0x4 PUSH2 0x3168 JUMP JUMPDEST PUSH2 0x14F5 JUMP JUMPDEST PUSH2 0x3A2 PUSH2 0x8DA CALLDATASIZE PUSH1 0x4 PUSH2 0x2E60 JUMP JUMPDEST PUSH2 0x1576 JUMP JUMPDEST PUSH2 0x3A2 PUSH2 0x8ED CALLDATASIZE PUSH1 0x4 PUSH2 0x3466 JUMP JUMPDEST PUSH2 0x15A5 JUMP JUMPDEST CALLVALUE DUP1 ISZERO PUSH2 0x8FD JUMPI PUSH0 DUP1 REVERT JUMPDEST POP PUSH2 0x3A2 PUSH2 0x90C CALLDATASIZE PUSH1 0x4 PUSH2 0x3168 JUMP JUMPDEST PUSH2 0x1675 JUMP JUMPDEST CALLVALUE DUP1 ISZERO PUSH2 0x91C JUMPI PUSH0 DUP1 REVERT JUMPDEST POP PUSH2 0x316 PUSH2 0x92B CALLDATASIZE PUSH1 0x4 PUSH2 0x349C JUMP JUMPDEST PUSH2 0x16CB JUMP JUMPDEST CALLVALUE DUP1 ISZERO PUSH2 0x93B JUMPI PUSH0 DUP1 REVERT JUMPDEST POP PUSH2 0x3A2 PUSH2 0x94A CALLDATASIZE PUSH1 0x4 PUSH2 0x3168 JUMP JUMPDEST PUSH2 0x16F8 JUMP JUMPDEST CALLVALUE DUP1 ISZERO PUSH2 0x95A JUMPI PUSH0 DUP1 REVERT JUMPDEST POP PUSH2 0x316 PUSH2 0x969 CALLDATASIZE PUSH1 0x4 PUSH2 0x34C8 JUMP JUMPDEST PUSH2 0x1735 JUMP JUMPDEST PUSH0 PUSH2 0x978 DUP3 PUSH2 0x1769 JUMP JUMPDEST SWAP3 SWAP2 POP POP JUMP JUMPDEST PUSH1 0x60 PUSH1 0x5 DUP1 SLOAD PUSH2 0x98D SWAP1 PUSH2 0x34E2 JUMP JUMPDEST DUP1 PUSH1 0x1F ADD PUSH1 0x20 DUP1 SWAP2 DIV MUL PUSH1 0x20 ADD PUSH1 0x40 MLOAD SWAP1 DUP2 ADD PUSH1 0x40 MSTORE DUP1 SWAP3 SWAP2 SWAP1 DUP2 DUP2 MSTORE PUSH1 0x20 ADD DUP3 DUP1 SLOAD PUSH2 0x9B9 SWAP1 PUSH2 0x34E2 JUMP JUMPDEST DUP1 ISZERO PUSH2 0xA04 JUMPI DUP1 PUSH1 0x1F LT PUSH2 0x9DB JUMPI PUSH2 0x100 DUP1 DUP4 SLOAD DIV MUL DUP4 MSTORE SWAP2 PUSH1 0x20 ADD SWAP2 PUSH2 0xA04 JUMP JUMPDEST DUP3 ADD SWAP2 SWAP1 PUSH0 MSTORE PUSH1 0x20 PUSH0 KECCAK256 SWAP1 JUMPDEST DUP2 SLOAD DUP2 MSTORE SWAP1 PUSH1 0x1 ADD SWAP1 PUSH1 0x20 ADD DUP1 DUP4 GT PUSH2 0x9E7 JUMPI DUP3 SWAP1 SUB PUSH1 0x1F AND DUP3 ADD SWAP2 JUMPDEST POP POP POP POP POP SWAP1 POP SWAP1 JUMP JUMPDEST PUSH0 PUSH2 0xA18 DUP3 PUSH2 0x178D JUMP JUMPDEST POP PUSH0 DUP3 DUP2 MSTORE PUSH1 0x9 PUSH1 0x20 MSTORE PUSH1 0x40 SWAP1 KECCAK256 SLOAD PUSH1 0x1 PUSH1 0x1 PUSH1 0xA0 SHL SUB AND PUSH2 0x978 JUMP JUMPDEST PUSH2 0xA40 DUP3 DUP3 CALLER PUSH2 0x17C5 JUMP JUMPDEST POP POP JUMP JUMPDEST PUSH1 0x40 DUP1 MLOAD DUP1 DUP3 ADD SWAP1 SWAP2 MSTORE PUSH0 DUP1 DUP3 MSTORE PUSH1 0x20 DUP3 ADD MSTORE PUSH1 0x60 PUSH2 0xA74 PUSH1 0x40 MLOAD DUP1 PUSH1 0x40 ADD PUSH1 0x40 MSTORE DUP1 PUSH0 DUP2 MSTORE PUSH1 0x20 ADD PUSH0 DUP2 MSTORE POP SWAP1 JUMP JUMPDEST PUSH1 0x40 DUP1 MLOAD DUP1 DUP3 ADD DUP3 MSTORE PUSH0 DUP1 DUP3 MSTORE PUSH1 0x1 PUSH1 0x1 PUSH1 0x40 SHL SUB PUSH1 0x20 DUP1 DUP5 ADD DUP3 SWAP1 MSTORE DUP5 MLOAD DUP4 DUP2 MSTORE SWAP1 DUP2 ADD SWAP1 SWAP5 MSTORE SWAP2 SWAP6 POP SWAP2 DUP3 PUSH2 0xACD JUMP JUMPDEST PUSH1 0x40 DUP1 MLOAD DUP1 DUP3 ADD SWAP1 SWAP2 MSTORE PUSH0 DUP2 MSTORE PUSH1 0x60 PUSH1 0x20 DUP3 ADD MSTORE DUP2 MSTORE PUSH1 0x20 ADD SWAP1 PUSH1 0x1 SWAP1 SUB SWAP1 DUP2 PUSH2 0xAA6 JUMPI SWAP1 POP JUMPDEST POP SWAP4 POP PUSH0 DUP1 PUSH2 0xAF1 PUSH1 0x40 DUP10 ADD CALLDATALOAD PUSH1 0x60 DUP11 ADD CALLDATALOAD PUSH2 0xAEC PUSH1 0x20 DUP13 ADD DUP13 PUSH2 0x3338 JUMP JUMPDEST PUSH2 0x17D2 JUMP JUMPDEST PUSH1 0x40 DUP1 MLOAD DUP1 DUP3 ADD SWAP1 SWAP2 MSTORE SWAP2 DUP3 MSTORE PUSH1 0x20 DUP3 ADD MSTORE SWAP7 SWAP9 SWAP6 SWAP8 POP POP POP POP POP POP JUMP JUMPDEST PUSH32 0x0 PUSH1 0x1 PUSH1 0x1 PUSH1 0xA0 SHL SUB AND CALLER EQ PUSH2 0xB5F JUMPI PUSH1 0x40 MLOAD PUSH4 0x91AC5E4F PUSH1 0xE0 SHL DUP2 MSTORE CALLER PUSH1 0x4 DUP3 ADD MSTORE PUSH1 0x24 ADD JUMPDEST PUSH1 0x40 MLOAD DUP1 SWAP2 SUB SWAP1 REVERT JUMPDEST PUSH1 0x20 DUP8 ADD DUP1 CALLDATALOAD SWAP1 PUSH2 0xB79 SWAP1 PUSH2 0xB74 SWAP1 DUP11 PUSH2 0x3338 JUMP JUMPDEST PUSH2 0x1815 JUMP JUMPDEST EQ PUSH2 0xBB7 JUMPI PUSH2 0xB8B PUSH1 0x20 DUP9 ADD DUP9 PUSH2 0x3338 JUMP JUMPDEST PUSH1 0x40 MLOAD PUSH4 0x309AFAF3 PUSH1 0xE2 SHL DUP2 MSTORE PUSH4 0xFFFFFFFF SWAP1 SWAP2 AND PUSH1 0x4 DUP3 ADD MSTORE PUSH1 0x20 DUP9 ADD CALLDATALOAD PUSH1 0x24 DUP3 ADD MSTORE PUSH1 0x44 ADD PUSH2 0xB56 JUMP JUMPDEST PUSH2 0xBC6 DUP8 DUP8 DUP8 DUP8 DUP8 DUP8 DUP8 PUSH2 0x1850 JUMP JUMPDEST POP POP POP POP POP POP POP JUMP JUMPDEST PUSH2 0xBD8 DUP3 PUSH2 0x14EA JUMP JUMPDEST MLOAD ISZERO PUSH2 0xC26 JUMPI PUSH1 0x40 MLOAD PUSH3 0x461BCD PUSH1 0xE5 SHL DUP2 MSTORE PUSH1 0x20 PUSH1 0x4 DUP3 ADD MSTORE PUSH1 0x1E PUSH1 0x24 DUP3 ADD MSTORE PUSH32 0x546F6B656E205552492063616E206F6E6C7920626520736574206F6E63650000 PUSH1 0x44 DUP3 ADD MSTORE PUSH1 0x64 ADD PUSH2 0xB56 JUMP JUMPDEST PUSH2 0xA40 DUP3 DUP3 PUSH2 0x19AE JUMP JUMPDEST PUSH1 0x1 PUSH1 0x1 PUSH1 0xA0 SHL SUB DUP3 AND PUSH2 0xC59 JUMPI PUSH1 0x40 MLOAD PUSH4 0x32505749 PUSH1 0xE1 SHL DUP2 MSTORE PUSH0 PUSH1 0x4 DUP3 ADD MSTORE PUSH1 0x24 ADD PUSH2 0xB56 JUMP JUMPDEST PUSH0 PUSH2 0xC65 DUP4 DUP4 CALLER PUSH2 0x19FE JUMP JUMPDEST SWAP1 POP DUP4 PUSH1 0x1 PUSH1 0x1 PUSH1 0xA0 SHL SUB AND DUP2 PUSH1 0x1 PUSH1 0x1 PUSH1 0xA0 SHL SUB AND EQ PUSH2 0xCB3 JUMPI PUSH1 0x40 MLOAD PUSH4 0x64283D7B PUSH1 0xE0 SHL DUP2 MSTORE PUSH1 0x1 PUSH1 0x1 PUSH1 0xA0 SHL SUB DUP1 DUP7 AND PUSH1 0x4 DUP4 ADD MSTORE PUSH1 0x24 DUP3 ADD DUP5 SWAP1 MSTORE DUP3 AND PUSH1 0x44 DUP3 ADD MSTORE PUSH1 0x64 ADD PUSH2 0xB56 JUMP JUMPDEST POP POP POP POP JUMP JUMPDEST PUSH2 0xCC1 PUSH2 0x1AF2 JUMP JUMPDEST PUSH2 0xA40 DUP3 DUP3 PUSH2 0x1B1E JUMP JUMPDEST PUSH2 0xCD3 PUSH2 0x1AF2 JUMP JUMPDEST PUSH1 0xE SSTORE JUMP JUMPDEST PUSH1 0x40 DUP1 MLOAD DUP1 DUP3 ADD SWAP1 SWAP2 MSTORE PUSH0 DUP1 DUP3 MSTORE PUSH1 0x20 DUP3 ADD MSTORE PUSH0 PUSH2 0xD06 PUSH1 0x40 DUP6 ADD CALLDATALOAD PUSH1 0x60 DUP7 ADD CALLDATALOAD PUSH2 0xAEC PUSH1 0x20 DUP9 ADD DUP9 PUSH2 0x3338 JUMP JUMPDEST SWAP2 POP POP PUSH0 DUP1 PUSH2 0xD15 DUP7 DUP5 PUSH2 0x1B6B JUMP JUMPDEST SWAP1 SWAP3 POP SWAP1 POP PUSH2 0xD32 PUSH2 0xD2A PUSH1 0x20 DUP9 ADD DUP9 PUSH2 0x3338 JUMP JUMPDEST DUP4 DUP4 DUP9 PUSH2 0x1C8A JUMP JUMPDEST SWAP7 SWAP6 POP POP POP POP POP POP JUMP JUMPDEST PUSH2 0xD44 PUSH2 0x1AF2 JUMP JUMPDEST SELFBALANCE DUP1 PUSH2 0xD89 JUMPI PUSH1 0x40 MLOAD PUSH3 0x461BCD PUSH1 0xE5 SHL DUP2 MSTORE PUSH1 0x20 PUSH1 0x4 DUP3 ADD MSTORE PUSH1 0x14 PUSH1 0x24 DUP3 ADD MSTORE PUSH20 0x4E6F2066756E647320746F207769746864726177 PUSH1 0x60 SHL PUSH1 0x44 DUP3 ADD MSTORE PUSH1 0x64 ADD PUSH2 0xB56 JUMP JUMPDEST PUSH0 DUP1 SLOAD PUSH1 0x40 MLOAD PUSH1 0x1 PUSH1 0x1 PUSH1 0xA0 SHL SUB SWAP1 SWAP2 AND SWAP2 DUP4 ISZERO PUSH2 0x8FC MUL SWAP2 DUP5 SWAP2 DUP2 DUP2 DUP2 DUP6 DUP9 DUP9 CALL SWAP4 POP POP POP POP ISZERO DUP1 ISZERO PUSH2 0xA40 JUMPI RETURNDATASIZE PUSH0 DUP1 RETURNDATACOPY RETURNDATASIZE PUSH0 REVERT JUMPDEST CALLER PUSH2 0xDC9 DUP5 PUSH2 0xFB2 JUMP JUMPDEST PUSH1 0x1 PUSH1 0x1 PUSH1 0xA0 SHL SUB AND EQ PUSH2 0xDEF JUMPI PUSH1 0x40 MLOAD PUSH3 0x461BCD PUSH1 0xE5 SHL DUP2 MSTORE PUSH1 0x4 ADD PUSH2 0xB56 SWAP1 PUSH2 0x3514 JUMP JUMPDEST PUSH2 0xDFB CALLER DUP5 DUP5 DUP5 PUSH2 0x1D68 JUMP JUMPDEST POP POP PUSH2 0xE08 DUP5 DUP5 DUP4 PUSH2 0x1DBA JUMP JUMPDEST POP PUSH1 0x1 PUSH1 0x1 PUSH1 0xA0 SHL SUB DUP5 AND CALLER PUSH4 0xFFFFFFFF DUP4 AND PUSH32 0xE60F77052658B4B698DB061B1CAFAD48CFB0710F86527E9394A59453AD842485 DUP7 PUSH2 0xE46 DUP2 PUSH2 0x14EA JUMP JUMPDEST PUSH1 0x40 MLOAD PUSH2 0xE54 SWAP3 SWAP2 SWAP1 PUSH2 0x355C JUMP JUMPDEST PUSH1 0x40 MLOAD DUP1 SWAP2 SUB SWAP1 LOG4 POP POP POP POP JUMP JUMPDEST PUSH1 0x1 PUSH1 0x1 PUSH1 0xA0 SHL SUB DUP2 AND PUSH0 SWAP1 DUP2 MSTORE PUSH1 0xF PUSH1 0x20 MSTORE PUSH1 0x40 DUP2 KECCAK256 SLOAD DUP2 SUB PUSH2 0xED6 JUMPI PUSH1 0x40 MLOAD PUSH3 0x461BCD PUSH1 0xE5 SHL DUP2 MSTORE PUSH1 0x20 PUSH1 0x4 DUP3 ADD MSTORE PUSH1 0x25 PUSH1 0x24 DUP3 ADD MSTORE PUSH32 0x546869732061646472657373206861736E2774206D696E74656420616E792074 PUSH1 0x44 DUP3 ADD MSTORE PUSH5 0x6F6B656E73 PUSH1 0xD8 SHL PUSH1 0x64 DUP3 ADD MSTORE PUSH1 0x84 ADD PUSH2 0xB56 JUMP JUMPDEST POP PUSH1 0x1 PUSH1 0x1 PUSH1 0xA0 SHL SUB AND PUSH0 SWAP1 DUP2 MSTORE PUSH1 0xF PUSH1 0x20 MSTORE PUSH1 0x40 SWAP1 KECCAK256 SLOAD SWAP1 JUMP JUMPDEST PUSH2 0xF0B DUP4 DUP4 DUP4 PUSH1 0x40 MLOAD DUP1 PUSH1 0x20 ADD PUSH1 0x40 MSTORE DUP1 PUSH0 DUP2 MSTORE POP PUSH2 0x10A0 JUMP JUMPDEST POP POP POP JUMP JUMPDEST PUSH1 0x3 PUSH1 0x20 SWAP1 DUP2 MSTORE PUSH0 SWAP3 DUP4 MSTORE PUSH1 0x40 DUP1 DUP5 KECCAK256 SWAP1 SWAP2 MSTORE SWAP1 DUP3 MSTORE SWAP1 KECCAK256 DUP1 SLOAD PUSH2 0xF33 SWAP1 PUSH2 0x34E2 JUMP JUMPDEST DUP1 PUSH1 0x1F ADD PUSH1 0x20 DUP1 SWAP2 DIV MUL PUSH1 0x20 ADD PUSH1 0x40 MLOAD SWAP1 DUP2 ADD PUSH1 0x40 MSTORE DUP1 SWAP3 SWAP2 SWAP1 DUP2 DUP2 MSTORE PUSH1 0x20 ADD DUP3 DUP1 SLOAD PUSH2 0xF5F SWAP1 PUSH2 0x34E2 JUMP JUMPDEST DUP1 ISZERO PUSH2 0xFAA JUMPI DUP1 PUSH1 0x1F LT PUSH2 0xF81 JUMPI PUSH2 0x100 DUP1 DUP4 SLOAD DIV MUL DUP4 MSTORE SWAP2 PUSH1 0x20 ADD SWAP2 PUSH2 0xFAA JUMP JUMPDEST DUP3 ADD SWAP2 SWAP1 PUSH0 MSTORE PUSH1 0x20 PUSH0 KECCAK256 SWAP1 JUMPDEST DUP2 SLOAD DUP2 MSTORE SWAP1 PUSH1 0x1 ADD SWAP1 PUSH1 0x20 ADD DUP1 DUP4 GT PUSH2 0xF8D JUMPI DUP3 SWAP1 SUB PUSH1 0x1F AND DUP3 ADD SWAP2 JUMPDEST POP POP POP POP POP DUP2 JUMP JUMPDEST PUSH0 PUSH2 0x978 DUP3 PUSH2 0x178D JUMP JUMPDEST PUSH2 0xFC4 PUSH2 0x1AF2 JUMP JUMPDEST PUSH1 0x4 DUP1 SLOAD PUSH1 0x1 PUSH1 0x1 PUSH1 0xA0 SHL SUB NOT AND PUSH1 0x1 PUSH1 0x1 PUSH1 0xA0 SHL SUB DUP4 AND SWAP1 DUP2 OR SWAP1 SWAP2 SSTORE PUSH1 0x40 MLOAD SWAP1 DUP2 MSTORE PUSH32 0xF0BE4F1E87349231D80C36B33F9E8639658EEAF474014DEE15A3E6A4D4414197 SWAP1 PUSH1 0x20 ADD JUMPDEST PUSH1 0x40 MLOAD DUP1 SWAP2 SUB SWAP1 LOG1 POP JUMP JUMPDEST PUSH0 PUSH1 0x1 PUSH1 0x1 PUSH1 0xA0 SHL SUB DUP3 AND PUSH2 0x1043 JUMPI PUSH1 0x40 MLOAD PUSH4 0x22718AD9 PUSH1 0xE2 SHL DUP2 MSTORE PUSH0 PUSH1 0x4 DUP3 ADD MSTORE PUSH1 0x24 ADD PUSH2 0xB56 JUMP JUMPDEST POP PUSH1 0x1 PUSH1 0x1 PUSH1 0xA0 SHL SUB AND PUSH0 SWAP1 DUP2 MSTORE PUSH1 0x8 PUSH1 0x20 MSTORE PUSH1 0x40 SWAP1 KECCAK256 SLOAD SWAP1 JUMP JUMPDEST PUSH2 0x1066 PUSH2 0x1AF2 JUMP JUMPDEST PUSH2 0x106F PUSH0 PUSH2 0x1DCF JUMP JUMPDEST JUMP JUMPDEST PUSH1 0x1 PUSH1 0x1 PUSH1 0xA0 SHL SUB DUP2 AND ADDRESS EQ JUMPDEST SWAP5 SWAP4 POP POP POP POP JUMP JUMPDEST PUSH1 0x60 PUSH1 0x6 DUP1 SLOAD PUSH2 0x98D SWAP1 PUSH2 0x34E2 JUMP JUMPDEST PUSH2 0xA40 CALLER DUP4 DUP4 PUSH2 0x1E1E JUMP JUMPDEST PUSH2 0x10AB DUP5 DUP5 DUP5 PUSH2 0xC30 JUMP JUMPDEST PUSH2 0xCB3 DUP5 DUP5 DUP5 DUP5 PUSH2 0x1EBC JUMP JUMPDEST PUSH2 0x10BF PUSH2 0x1AF2 JUMP JUMPDEST PUSH2 0xA40 PUSH2 0x10CC DUP3 DUP5 PUSH2 0x3574 JUMP JUMPDEST PUSH2 0x1FDB JUMP JUMPDEST PUSH4 0xFFFFFFFF DUP5 AND PUSH0 SWAP1 DUP2 MSTORE PUSH1 0x3 PUSH1 0x20 SWAP1 DUP2 MSTORE PUSH1 0x40 DUP1 DUP4 KECCAK256 PUSH2 0xFFFF DUP8 AND DUP5 MSTORE SWAP1 SWAP2 MSTORE DUP2 KECCAK256 DUP1 SLOAD PUSH1 0x60 SWAP3 SWAP2 SWAP1 PUSH2 0x1104 SWAP1 PUSH2 0x34E2 JUMP JUMPDEST DUP1 PUSH1 0x1F ADD PUSH1 0x20 DUP1 SWAP2 DIV MUL PUSH1 0x20 ADD PUSH1 0x40 MLOAD SWAP1 DUP2 ADD PUSH1 0x40 MSTORE DUP1 SWAP3 SWAP2 SWAP1 DUP2 DUP2 MSTORE PUSH1 0x20 ADD DUP3 DUP1 SLOAD PUSH2 0x1130 SWAP1 PUSH2 0x34E2 JUMP JUMPDEST DUP1 ISZERO PUSH2 0x117B JUMPI DUP1 PUSH1 0x1F LT PUSH2 0x1152 JUMPI PUSH2 0x100 DUP1 DUP4 SLOAD DIV MUL DUP4 MSTORE SWAP2 PUSH1 0x20 ADD SWAP2 PUSH2 0x117B JUMP JUMPDEST DUP3 ADD SWAP2 SWAP1 PUSH0 MSTORE PUSH1 0x20 PUSH0 KECCAK256 SWAP1 JUMPDEST DUP2 SLOAD DUP2 MSTORE SWAP1 PUSH1 0x1 ADD SWAP1 PUSH1 0x20 ADD DUP1 DUP4 GT PUSH2 0x115E JUMPI DUP3 SWAP1 SUB PUSH1 0x1F AND DUP3 ADD SWAP2 JUMPDEST POP POP POP POP POP SWAP1 POP DUP1 MLOAD PUSH0 SUB PUSH2 0x11C9 JUMPI DUP4 DUP4 DUP1 DUP1 PUSH1 0x1F ADD PUSH1 0x20 DUP1 SWAP2 DIV MUL PUSH1 0x20 ADD PUSH1 0x40 MLOAD SWAP1 DUP2 ADD PUSH1 0x40 MSTORE DUP1 SWAP4 SWAP3 SWAP2 SWAP1 DUP2 DUP2 MSTORE PUSH1 0x20 ADD DUP4 DUP4 DUP1 DUP3 DUP5 CALLDATACOPY PUSH0 SWAP3 ADD SWAP2 SWAP1 SWAP2 MSTORE POP SWAP3 SWAP5 POP PUSH2 0x107E SWAP4 POP POP POP POP JUMP JUMPDEST PUSH0 DUP4 SWAP1 SUB PUSH2 0x11D8 JUMPI SWAP1 POP PUSH2 0x107E JUMP JUMPDEST PUSH1 0x2 DUP4 LT PUSH2 0x1255 JUMPI PUSH2 0x121E DUP5 DUP5 DUP1 DUP1 PUSH1 0x1F ADD PUSH1 0x20 DUP1 SWAP2 DIV MUL PUSH1 0x20 ADD PUSH1 0x40 MLOAD SWAP1 DUP2 ADD PUSH1 0x40 MSTORE DUP1 SWAP4 SWAP3 SWAP2 SWAP1 DUP2 DUP2 MSTORE PUSH1 0x20 ADD DUP4 DUP4 DUP1 DUP3 DUP5 CALLDATACOPY PUSH0 SWAP3 ADD SWAP2 SWAP1 SWAP2 MSTORE POP PUSH2 0x20DC SWAP3 POP POP POP JUMP JUMPDEST DUP1 PUSH2 0x122C DUP5 PUSH1 0x2 DUP2 DUP9 PUSH2 0x3641 JUMP JUMPDEST PUSH1 0x40 MLOAD PUSH1 0x20 ADD PUSH2 0x123E SWAP4 SWAP3 SWAP2 SWAP1 PUSH2 0x3668 JUMP JUMPDEST PUSH1 0x40 MLOAD PUSH1 0x20 DUP2 DUP4 SUB SUB DUP2 MSTORE SWAP1 PUSH1 0x40 MSTORE SWAP2 POP POP PUSH2 0x107E JUMP JUMPDEST DUP4 DUP4 PUSH1 0x40 MLOAD PUSH4 0x9A6D49CD PUSH1 0xE0 SHL DUP2 MSTORE PUSH1 0x4 ADD PUSH2 0xB56 SWAP3 SWAP2 SWAP1 PUSH2 0x36B6 JUMP JUMPDEST PUSH0 JUMPDEST DUP2 DUP2 LT ISZERO PUSH2 0x1375 JUMPI CALLDATASIZE DUP4 DUP4 DUP4 DUP2 DUP2 LT PUSH2 0x128F JUMPI PUSH2 0x128F PUSH2 0x36C9 JUMP JUMPDEST SWAP1 POP PUSH1 0x20 MUL DUP2 ADD SWAP1 PUSH2 0x12A1 SWAP2 SWAP1 PUSH2 0x36DD JUMP JUMPDEST SWAP1 POP PUSH2 0x12D3 PUSH2 0x12B3 PUSH1 0x20 DUP4 ADD DUP4 PUSH2 0x3338 JUMP JUMPDEST PUSH1 0x20 DUP4 ADD CALLDATALOAD PUSH4 0xFFFFFFFF SWAP2 SWAP1 SWAP2 AND PUSH0 SWAP1 DUP2 MSTORE PUSH1 0x1 PUSH1 0x20 MSTORE PUSH1 0x40 SWAP1 KECCAK256 SLOAD EQ SWAP1 JUMP JUMPDEST PUSH2 0x12DD JUMPI POP PUSH2 0x136D JUMP JUMPDEST ADDRESS PUSH4 0xD045A0DC PUSH1 0xC0 DUP4 ADD CALLDATALOAD DUP4 PUSH1 0xA0 DUP2 ADD CALLDATALOAD PUSH2 0x12FC PUSH2 0x100 DUP4 ADD DUP4 PUSH2 0x36FC JUMP JUMPDEST PUSH2 0x130D PUSH2 0x100 DUP10 ADD PUSH1 0xE0 DUP11 ADD PUSH2 0x3168 JUMP JUMPDEST PUSH2 0x131B PUSH2 0x120 DUP11 ADD DUP11 PUSH2 0x36FC JUMP JUMPDEST PUSH1 0x40 MLOAD DUP10 PUSH4 0xFFFFFFFF AND PUSH1 0xE0 SHL DUP2 MSTORE PUSH1 0x4 ADD PUSH2 0x133D SWAP8 SWAP7 SWAP6 SWAP5 SWAP4 SWAP3 SWAP2 SWAP1 PUSH2 0x3752 JUMP JUMPDEST PUSH0 PUSH1 0x40 MLOAD DUP1 DUP4 SUB DUP2 DUP6 DUP9 DUP1 EXTCODESIZE ISZERO DUP1 ISZERO PUSH2 0x1354 JUMPI PUSH0 DUP1 REVERT JUMPDEST POP GAS CALL ISZERO DUP1 ISZERO PUSH2 0x1366 JUMPI RETURNDATASIZE PUSH0 DUP1 RETURNDATACOPY RETURNDATASIZE PUSH0 REVERT JUMPDEST POP POP POP POP POP POP JUMPDEST PUSH1 0x1 ADD PUSH2 0x1274 JUMP JUMPDEST POP CALLER PUSH1 0x1 PUSH1 0x1 PUSH1 0xA0 SHL SUB AND PUSH4 0x8E9E7099 PUSH1 0x40 MLOAD DUP2 PUSH4 0xFFFFFFFF AND PUSH1 0xE0 SHL DUP2 MSTORE PUSH1 0x4 ADD PUSH0 PUSH1 0x40 MLOAD DUP1 DUP4 SUB DUP2 DUP7 GAS STATICCALL ISZERO DUP1 ISZERO PUSH2 0x13B1 JUMPI RETURNDATASIZE PUSH0 DUP1 RETURNDATACOPY RETURNDATASIZE PUSH0 REVERT JUMPDEST POP POP POP POP PUSH1 0x40 MLOAD RETURNDATASIZE PUSH0 DUP3 RETURNDATACOPY PUSH1 0x1F RETURNDATASIZE SWAP1 DUP2 ADD PUSH1 0x1F NOT AND DUP3 ADD PUSH1 0x40 MSTORE PUSH2 0x13D8 SWAP2 SWAP1 DUP2 ADD SWAP1 PUSH2 0x37D7 JUMP JUMPDEST PUSH1 0x40 MLOAD PUSH4 0x8351EEA7 PUSH1 0xE0 SHL DUP2 MSTORE PUSH1 0x4 ADD PUSH2 0xB56 SWAP2 SWAP1 PUSH2 0x2CC7 JUMP JUMPDEST PUSH2 0x13FA PUSH2 0x2C07 JUMP JUMPDEST PUSH1 0x40 DUP1 MLOAD DUP1 DUP3 ADD SWAP1 SWAP2 MSTORE PUSH0 DUP1 DUP3 MSTORE PUSH1 0x20 DUP3 ADD MSTORE PUSH0 DUP1 PUSH2 0x142F CALLER PUSH1 0x40 DUP10 ADD CALLDATALOAD PUSH1 0x60 DUP11 ADD CALLDATALOAD PUSH2 0x142A PUSH1 0x20 DUP13 ADD DUP13 PUSH2 0x3338 JUMP JUMPDEST PUSH2 0x1D68 JUMP JUMPDEST SWAP2 POP SWAP2 POP PUSH0 DUP1 PUSH2 0x143F DUP10 DUP5 PUSH2 0x1B6B JUMP JUMPDEST SWAP1 SWAP3 POP SWAP1 POP PUSH2 0x146B PUSH2 0x1454 PUSH1 0x20 DUP12 ADD DUP12 PUSH2 0x3338 JUMP JUMPDEST DUP4 DUP4 PUSH2 0x1465 CALLDATASIZE DUP14 SWAP1 SUB DUP14 ADD DUP14 PUSH2 0x383F JUMP JUMPDEST DUP12 PUSH2 0x2108 JUMP JUMPDEST PUSH1 0x40 DUP1 MLOAD DUP1 DUP3 ADD SWAP1 SWAP2 MSTORE DUP6 DUP2 MSTORE PUSH1 0x20 DUP1 DUP3 ADD DUP7 SWAP1 MSTORE DUP3 MLOAD SWAP3 SWAP9 POP SWAP1 SWAP7 POP CALLER SWAP2 SWAP1 PUSH32 0x85496B760A4B7F8D66384B9DF21B381F5D1B1E79F229A47AAF4C232EDC2FE59A SWAP1 PUSH2 0x14B9 SWAP1 DUP14 ADD DUP14 PUSH2 0x3338 JUMP JUMPDEST PUSH1 0x40 DUP1 MLOAD PUSH4 0xFFFFFFFF SWAP1 SWAP3 AND DUP3 MSTORE PUSH1 0x20 DUP3 ADD DUP10 SWAP1 MSTORE DUP2 ADD DUP8 SWAP1 MSTORE PUSH1 0x60 ADD PUSH1 0x40 MLOAD DUP1 SWAP2 SUB SWAP1 LOG3 POP POP POP POP SWAP4 POP SWAP4 SWAP2 POP POP JUMP JUMPDEST PUSH1 0x60 PUSH2 0x978 DUP3 PUSH2 0x220E JUMP JUMPDEST PUSH2 0x14FD PUSH2 0x1AF2 JUMP JUMPDEST PUSH1 0x40 MLOAD PUSH4 0xCA5EB5E1 PUSH1 0xE0 SHL DUP2 MSTORE PUSH1 0x1 PUSH1 0x1 PUSH1 0xA0 SHL SUB DUP3 DUP2 AND PUSH1 0x4 DUP4 ADD MSTORE PUSH32 0x0 AND SWAP1 PUSH4 0xCA5EB5E1 SWAP1 PUSH1 0x24 ADD PUSH0 PUSH1 0x40 MLOAD DUP1 DUP4 SUB DUP2 PUSH0 DUP8 DUP1 EXTCODESIZE ISZERO DUP1 ISZERO PUSH2 0x155D JUMPI PUSH0 DUP1 REVERT JUMPDEST POP GAS CALL ISZERO DUP1 ISZERO PUSH2 0x156F JUMPI RETURNDATASIZE PUSH0 DUP1 RETURNDATACOPY RETURNDATASIZE PUSH0 REVERT JUMPDEST POP POP POP POP POP JUMP JUMPDEST CALLER ADDRESS EQ PUSH2 0x1596 JUMPI PUSH1 0x40 MLOAD PUSH4 0x29A949D PUSH1 0xE3 SHL DUP2 MSTORE PUSH1 0x4 ADD PUSH1 0x40 MLOAD DUP1 SWAP2 SUB SWAP1 REVERT JUMPDEST PUSH2 0xBC6 DUP8 DUP8 DUP8 DUP8 DUP8 DUP8 DUP8 PUSH2 0xBB7 JUMP JUMPDEST PUSH1 0xE SLOAD CALLVALUE LT ISZERO PUSH2 0x15EF JUMPI PUSH1 0x40 MLOAD PUSH3 0x461BCD PUSH1 0xE5 SHL DUP2 MSTORE PUSH1 0x20 PUSH1 0x4 DUP3 ADD MSTORE PUSH1 0x15 PUSH1 0x24 DUP3 ADD MSTORE PUSH21 0x496E73756666696369656E74206D696E7420666565 PUSH1 0x58 SHL PUSH1 0x44 DUP3 ADD MSTORE PUSH1 0x64 ADD PUSH2 0xB56 JUMP JUMPDEST PUSH0 PUSH2 0x15F9 PUSH1 0xC SLOAD SWAP1 JUMP JUMPDEST SWAP1 POP PUSH2 0x1605 DUP4 DUP3 PUSH2 0x2305 JUMP JUMPDEST PUSH2 0x160F DUP2 DUP4 PUSH2 0x19AE JUMP JUMPDEST PUSH2 0x161D PUSH1 0xC DUP1 SLOAD PUSH1 0x1 ADD SWAP1 SSTORE JUMP JUMPDEST PUSH1 0x1 PUSH1 0x1 PUSH1 0xA0 SHL SUB DUP4 AND PUSH0 DUP2 DUP2 MSTORE PUSH1 0xF PUSH1 0x20 SWAP1 DUP2 MSTORE PUSH1 0x40 SWAP2 DUP3 SWAP1 KECCAK256 DUP5 SWAP1 SSTORE DUP2 MLOAD SWAP3 DUP4 MSTORE DUP3 ADD DUP4 SWAP1 MSTORE PUSH32 0xB9144C96C86541F6FA89C9F2F02495CCCF4B08CD6643E26D34EE00AA586558A8 SWAP2 ADD PUSH1 0x40 MLOAD DUP1 SWAP2 SUB SWAP1 LOG1 POP POP POP JUMP JUMPDEST PUSH2 0x167D PUSH2 0x1AF2 JUMP JUMPDEST PUSH1 0x2 DUP1 SLOAD PUSH1 0x1 PUSH1 0x1 PUSH1 0xA0 SHL SUB NOT AND PUSH1 0x1 PUSH1 0x1 PUSH1 0xA0 SHL SUB DUP4 AND SWAP1 DUP2 OR SWAP1 SWAP2 SSTORE PUSH1 0x40 MLOAD SWAP1 DUP2 MSTORE PUSH32 0xD48D879CEF83A1C0BDDA516F27B13DDB1B3F8BBAC1C9E1511BB2A659C2427760 SWAP1 PUSH1 0x20 ADD PUSH2 0x100E JUMP JUMPDEST PUSH1 0x1 PUSH1 0x1 PUSH1 0xA0 SHL SUB SWAP2 DUP3 AND PUSH0 SWAP1 DUP2 MSTORE PUSH1 0xA PUSH1 0x20 SWAP1 DUP2 MSTORE PUSH1 0x40 DUP1 DUP4 KECCAK256 SWAP4 SWAP1 SWAP5 AND DUP3 MSTORE SWAP2 SWAP1 SWAP2 MSTORE KECCAK256 SLOAD PUSH1 0xFF AND SWAP1 JUMP JUMPDEST PUSH2 0x1700 PUSH2 0x1AF2 JUMP JUMPDEST PUSH1 0x1 PUSH1 0x1 PUSH1 0xA0 SHL SUB DUP2 AND PUSH2 0x1729 JUMPI PUSH1 0x40 MLOAD PUSH4 0x1E4FBDF7 PUSH1 0xE0 SHL DUP2 MSTORE PUSH0 PUSH1 0x4 DUP3 ADD MSTORE PUSH1 0x24 ADD PUSH2 0xB56 JUMP JUMPDEST PUSH2 0x1732 DUP2 PUSH2 0x1DCF JUMP JUMPDEST POP JUMP JUMPDEST PUSH0 PUSH1 0x20 DUP3 ADD DUP1 CALLDATALOAD SWAP1 PUSH1 0x1 SWAP1 DUP4 SWAP1 PUSH2 0x174C SWAP1 DUP7 PUSH2 0x3338 JUMP JUMPDEST PUSH4 0xFFFFFFFF AND DUP2 MSTORE PUSH1 0x20 DUP2 ADD SWAP2 SWAP1 SWAP2 MSTORE PUSH1 0x40 ADD PUSH0 KECCAK256 SLOAD EQ SWAP3 SWAP2 POP POP JUMP JUMPDEST PUSH0 PUSH1 0x1 PUSH1 0x1 PUSH1 0xE0 SHL SUB NOT DUP3 AND PUSH4 0x24832483 PUSH1 0xE1 SHL EQ DUP1 PUSH2 0x978 JUMPI POP PUSH2 0x978 DUP3 PUSH2 0x2366 JUMP JUMPDEST PUSH0 DUP2 DUP2 MSTORE PUSH1 0x7 PUSH1 0x20 MSTORE PUSH1 0x40 DUP2 KECCAK256 SLOAD PUSH1 0x1 PUSH1 0x1 PUSH1 0xA0 SHL SUB AND DUP1 PUSH2 0x978 JUMPI PUSH1 0x40 MLOAD PUSH4 0x7E273289 PUSH1 0xE0 SHL DUP2 MSTORE PUSH1 0x4 DUP2 ADD DUP5 SWAP1 MSTORE PUSH1 0x24 ADD PUSH2 0xB56 JUMP JUMPDEST PUSH2 0xF0B DUP4 DUP4 DUP4 PUSH1 0x1 PUSH2 0x23B5 JUMP JUMPDEST PUSH0 DUP1 PUSH2 0x17DD DUP6 PUSH2 0x24B9 JUMP JUMPDEST SWAP2 POP DUP2 SWAP1 POP DUP4 DUP2 LT ISZERO PUSH2 0x180D JUMPI PUSH1 0x40 MLOAD PUSH4 0x71C4EFED PUSH1 0xE0 SHL DUP2 MSTORE PUSH1 0x4 DUP2 ADD DUP3 SWAP1 MSTORE PUSH1 0x24 DUP2 ADD DUP6 SWAP1 MSTORE PUSH1 0x44 ADD PUSH2 0xB56 JUMP JUMPDEST SWAP4 POP SWAP4 SWAP2 POP POP JUMP JUMPDEST PUSH4 0xFFFFFFFF DUP2 AND PUSH0 SWAP1 DUP2 MSTORE PUSH1 0x1 PUSH1 0x20 MSTORE PUSH1 0x40 DUP2 KECCAK256 SLOAD DUP1 PUSH2 0x978 JUMPI PUSH1 0x40 MLOAD PUSH4 0xF6FF4FB7 PUSH1 0xE0 SHL DUP2 MSTORE PUSH4 0xFFFFFFFF DUP5 AND PUSH1 0x4 DUP3 ADD MSTORE PUSH1 0x24 ADD PUSH2 0xB56 JUMP JUMPDEST PUSH0 PUSH2 0x1861 PUSH2 0x185E DUP8 DUP8 PUSH2 0x24EF JUMP JUMPDEST SWAP1 JUMP JUMPDEST SWAP1 POP PUSH0 PUSH2 0x188C DUP3 PUSH2 0x187A PUSH2 0x1875 DUP11 DUP11 PUSH2 0x2506 JUMP JUMPDEST PUSH2 0x2528 JUMP JUMPDEST PUSH2 0x1887 PUSH1 0x20 DUP14 ADD DUP14 PUSH2 0x3338 JUMP JUMPDEST PUSH2 0x1DBA JUMP JUMPDEST SWAP1 POP PUSH1 0x28 DUP7 GT ISZERO PUSH2 0x194C JUMPI PUSH0 PUSH2 0x18C8 PUSH2 0x18AB PUSH1 0x60 DUP13 ADD PUSH1 0x40 DUP14 ADD PUSH2 0x386F JUMP JUMPDEST PUSH2 0x18B8 PUSH1 0x20 DUP14 ADD DUP14 PUSH2 0x3338 JUMP JUMPDEST DUP5 PUSH2 0x18C3 DUP13 DUP13 PUSH2 0x255C JUMP JUMPDEST PUSH2 0x25A6 JUMP JUMPDEST PUSH1 0x40 MLOAD PUSH4 0x3E5AC809 PUSH1 0xE1 SHL DUP2 MSTORE SWAP1 SWAP2 POP PUSH1 0x1 PUSH1 0x1 PUSH1 0xA0 SHL SUB PUSH32 0x0 AND SWAP1 PUSH4 0x7CB59012 SWAP1 PUSH2 0x191D SWAP1 DUP7 SWAP1 DUP14 SWAP1 PUSH0 SWAP1 DUP8 SWAP1 PUSH1 0x4 ADD PUSH2 0x388A JUMP JUMPDEST PUSH0 PUSH1 0x40 MLOAD DUP1 DUP4 SUB DUP2 PUSH0 DUP8 DUP1 EXTCODESIZE ISZERO DUP1 ISZERO PUSH2 0x1934 JUMPI PUSH0 DUP1 REVERT JUMPDEST POP GAS CALL ISZERO DUP1 ISZERO PUSH2 0x1946 JUMPI RETURNDATASIZE PUSH0 DUP1 RETURNDATACOPY RETURNDATASIZE PUSH0 REVERT JUMPDEST POP POP POP POP POP JUMPDEST PUSH1 0x1 PUSH1 0x1 PUSH1 0xA0 SHL SUB DUP3 AND DUP9 PUSH32 0xEFED6D3500546B29533B128A29E3A94D70788727F0507505AC12EAF2E578FD9C PUSH2 0x1985 PUSH1 0x20 DUP14 ADD DUP14 PUSH2 0x3338 JUMP JUMPDEST PUSH1 0x40 DUP1 MLOAD PUSH4 0xFFFFFFFF SWAP1 SWAP3 AND DUP3 MSTORE PUSH1 0x20 DUP3 ADD DUP7 SWAP1 MSTORE ADD PUSH1 0x40 MLOAD DUP1 SWAP2 SUB SWAP1 LOG3 POP POP POP POP POP POP POP POP POP JUMP JUMPDEST PUSH0 DUP3 DUP2 MSTORE PUSH1 0xB PUSH1 0x20 MSTORE PUSH1 0x40 SWAP1 KECCAK256 PUSH2 0x19C5 DUP3 DUP3 PUSH2 0x38FE JUMP JUMPDEST POP PUSH1 0x40 MLOAD DUP3 DUP2 MSTORE PUSH32 0xF8E1A15ABA9398E019F0B49DF1A4FDE98EE17AE345CB5F6B5E2C27F5033E8CE7 SWAP1 PUSH1 0x20 ADD JUMPDEST PUSH1 0x40 MLOAD DUP1 SWAP2 SUB SWAP1 LOG1 POP POP JUMP JUMPDEST PUSH0 DUP3 DUP2 MSTORE PUSH1 0x7 PUSH1 0x20 MSTORE PUSH1 0x40 DUP2 KECCAK256 SLOAD PUSH1 0x1 PUSH1 0x1 PUSH1 0xA0 SHL SUB SWAP1 DUP2 AND SWAP1 DUP4 AND ISZERO PUSH2 0x1A2A JUMPI PUSH2 0x1A2A DUP2 DUP5 DUP7 PUSH2 0x25D8 JUMP JUMPDEST PUSH1 0x1 PUSH1 0x1 PUSH1 0xA0 SHL SUB DUP2 AND ISZERO PUSH2 0x1A64 JUMPI PUSH2 0x1A45 PUSH0 DUP6 PUSH0 DUP1 PUSH2 0x23B5 JUMP JUMPDEST PUSH1 0x1 PUSH1 0x1 PUSH1 0xA0 SHL SUB DUP2 AND PUSH0 SWAP1 DUP2 MSTORE PUSH1 0x8 PUSH1 0x20 MSTORE PUSH1 0x40 SWAP1 KECCAK256 DUP1 SLOAD PUSH0 NOT ADD SWAP1 SSTORE JUMPDEST PUSH1 0x1 PUSH1 0x1 PUSH1 0xA0 SHL SUB DUP6 AND ISZERO PUSH2 0x1A92 JUMPI PUSH1 0x1 PUSH1 0x1 PUSH1 0xA0 SHL SUB DUP6 AND PUSH0 SWAP1 DUP2 MSTORE PUSH1 0x8 PUSH1 0x20 MSTORE PUSH1 0x40 SWAP1 KECCAK256 DUP1 SLOAD PUSH1 0x1 ADD SWAP1 SSTORE JUMPDEST PUSH0 DUP5 DUP2 MSTORE PUSH1 0x7 PUSH1 0x20 MSTORE PUSH1 0x40 DUP1 DUP3 KECCAK256 DUP1 SLOAD PUSH1 0x1 PUSH1 0x1 PUSH1 0xA0 SHL SUB NOT AND PUSH1 0x1 PUSH1 0x1 PUSH1 0xA0 SHL SUB DUP10 DUP2 AND SWAP2 DUP3 OR SWAP1 SWAP3 SSTORE SWAP2 MLOAD DUP8 SWAP4 SWAP2 DUP6 AND SWAP2 PUSH32 0xDDF252AD1BE2C89B69C2B068FC378DAA952BA7F163C4A11628F55A4DF523B3EF SWAP2 LOG4 SWAP1 POP JUMPDEST SWAP4 SWAP3 POP POP POP JUMP JUMPDEST PUSH0 SLOAD PUSH1 0x1 PUSH1 0x1 PUSH1 0xA0 SHL SUB AND CALLER EQ PUSH2 0x106F JUMPI PUSH1 0x40 MLOAD PUSH4 0x118CDAA7 PUSH1 0xE0 SHL DUP2 MSTORE CALLER PUSH1 0x4 DUP3 ADD MSTORE PUSH1 0x24 ADD PUSH2 0xB56 JUMP JUMPDEST PUSH4 0xFFFFFFFF DUP3 AND PUSH0 DUP2 DUP2 MSTORE PUSH1 0x1 PUSH1 0x20 SWAP1 DUP2 MSTORE PUSH1 0x40 SWAP2 DUP3 SWAP1 KECCAK256 DUP5 SWAP1 SSTORE DUP2 MLOAD SWAP3 DUP4 MSTORE DUP3 ADD DUP4 SWAP1 MSTORE PUSH32 0x238399D427B947898EDB290F5FF0F9109849B1C3BA196A42E35F00C50A54B98B SWAP2 ADD PUSH2 0x19F2 JUMP JUMPDEST PUSH1 0x60 DUP1 PUSH0 PUSH2 0x1BC6 DUP6 PUSH1 0x20 ADD CALLDATALOAD PUSH2 0x1B80 DUP7 PUSH2 0x263C JUMP JUMPDEST PUSH2 0x1B8D PUSH1 0xA0 DUP10 ADD DUP10 PUSH2 0x36FC JUMP JUMPDEST DUP1 DUP1 PUSH1 0x1F ADD PUSH1 0x20 DUP1 SWAP2 DIV MUL PUSH1 0x20 ADD PUSH1 0x40 MLOAD SWAP1 DUP2 ADD PUSH1 0x40 MSTORE DUP1 SWAP4 SWAP3 SWAP2 SWAP1 DUP2 DUP2 MSTORE PUSH1 0x20 ADD DUP4 DUP4 DUP1 DUP3 DUP5 CALLDATACOPY PUSH0 SWAP3 ADD SWAP2 SWAP1 SWAP2 MSTORE POP PUSH2 0x2667 SWAP3 POP POP POP JUMP JUMPDEST SWAP1 SWAP4 POP SWAP1 POP PUSH0 DUP2 PUSH2 0x1BD8 JUMPI PUSH1 0x1 PUSH2 0x1BDB JUMP JUMPDEST PUSH1 0x2 JUMPDEST SWAP1 POP PUSH2 0x1BFB PUSH2 0x1BED PUSH1 0x20 DUP9 ADD DUP9 PUSH2 0x3338 JUMP JUMPDEST DUP3 PUSH2 0x855 PUSH1 0x80 DUP11 ADD DUP11 PUSH2 0x36FC JUMP JUMPDEST PUSH1 0x4 SLOAD SWAP1 SWAP4 POP PUSH1 0x1 PUSH1 0x1 PUSH1 0xA0 SHL SUB AND ISZERO PUSH2 0x1C81 JUMPI PUSH1 0x4 DUP1 SLOAD PUSH1 0x40 MLOAD PUSH4 0x43A78EB PUSH1 0xE0 SHL DUP2 MSTORE PUSH1 0x1 PUSH1 0x1 PUSH1 0xA0 SHL SUB SWAP1 SWAP2 AND SWAP2 PUSH4 0x43A78EB SWAP2 PUSH2 0x1C40 SWAP2 DUP9 SWAP2 DUP9 SWAP2 ADD PUSH2 0x39BD JUMP JUMPDEST PUSH1 0x20 PUSH1 0x40 MLOAD DUP1 DUP4 SUB DUP2 DUP7 GAS STATICCALL ISZERO DUP1 ISZERO PUSH2 0x1C5B JUMPI RETURNDATASIZE PUSH0 DUP1 RETURNDATACOPY RETURNDATASIZE PUSH0 REVERT JUMPDEST POP POP POP POP PUSH1 0x40 MLOAD RETURNDATASIZE PUSH1 0x1F NOT PUSH1 0x1F DUP3 ADD AND DUP3 ADD DUP1 PUSH1 0x40 MSTORE POP DUP2 ADD SWAP1 PUSH2 0x1C7F SWAP2 SWAP1 PUSH2 0x39E1 JUMP JUMPDEST POP JUMPDEST POP POP SWAP3 POP SWAP3 SWAP1 POP JUMP JUMPDEST PUSH1 0x40 DUP1 MLOAD DUP1 DUP3 ADD SWAP1 SWAP2 MSTORE PUSH0 DUP1 DUP3 MSTORE PUSH1 0x20 DUP3 ADD MSTORE PUSH32 0x0 PUSH1 0x1 PUSH1 0x1 PUSH1 0xA0 SHL SUB AND PUSH4 0xDDC28C58 PUSH1 0x40 MLOAD DUP1 PUSH1 0xA0 ADD PUSH1 0x40 MSTORE DUP1 DUP9 PUSH4 0xFFFFFFFF AND DUP2 MSTORE PUSH1 0x20 ADD PUSH2 0x1CEC DUP10 PUSH2 0x1815 JUMP JUMPDEST DUP2 MSTORE PUSH1 0x20 ADD DUP8 DUP2 MSTORE PUSH1 0x20 ADD DUP7 DUP2 MSTORE PUSH1 0x20 ADD DUP6 ISZERO ISZERO DUP2 MSTORE POP ADDRESS PUSH1 0x40 MLOAD DUP4 PUSH4 0xFFFFFFFF AND PUSH1 0xE0 SHL DUP2 MSTORE PUSH1 0x4 ADD PUSH2 0x1D21 SWAP3 SWAP2 SWAP1 PUSH2 0x39FC JUMP JUMPDEST PUSH1 0x40 DUP1 MLOAD DUP1 DUP4 SUB DUP2 DUP7 GAS STATICCALL ISZERO DUP1 ISZERO PUSH2 0x1D3B JUMPI RETURNDATASIZE PUSH0 DUP1 RETURNDATACOPY RETURNDATASIZE PUSH0 REVERT JUMPDEST POP POP POP POP PUSH1 0x40 MLOAD RETURNDATASIZE PUSH1 0x1F NOT PUSH1 0x1F DUP3 ADD AND DUP3 ADD DUP1 PUSH1 0x40 MSTORE POP DUP2 ADD SWAP1 PUSH2 0x1D5F SWAP2 SWAP1 PUSH2 0x3AA2 JUMP JUMPDEST SWAP6 SWAP5 POP POP POP POP POP JUMP JUMPDEST PUSH0 DUP1 DUP6 PUSH1 0x1 PUSH1 0x1 PUSH1 0xA0 SHL SUB AND PUSH2 0x1D7D DUP7 PUSH2 0xFB2 JUMP JUMPDEST PUSH1 0x1 PUSH1 0x1 PUSH1 0xA0 SHL SUB AND EQ PUSH2 0x1DA3 JUMPI PUSH1 0x40 MLOAD PUSH3 0x461BCD PUSH1 0xE5 SHL DUP2 MSTORE PUSH1 0x4 ADD PUSH2 0xB56 SWAP1 PUSH2 0x3514 JUMP JUMPDEST PUSH2 0x1DAC DUP6 PUSH2 0x26E1 JUMP JUMPDEST POP PUSH1 0x1 SWAP6 DUP7 SWAP6 POP SWAP4 POP POP POP POP JUMP JUMPDEST PUSH0 PUSH2 0x1DC5 DUP5 DUP5 PUSH2 0x2305 JUMP JUMPDEST POP PUSH1 0x1 SWAP4 SWAP3 POP POP POP JUMP JUMPDEST PUSH0 DUP1 SLOAD PUSH1 0x1 PUSH1 0x1 PUSH1 0xA0 SHL SUB DUP4 DUP2 AND PUSH1 0x1 PUSH1 0x1 PUSH1 0xA0 SHL SUB NOT DUP4 AND DUP2 OR DUP5 SSTORE PUSH1 0x40 MLOAD SWAP2 SWAP1 SWAP3 AND SWAP3 DUP4 SWAP2 PUSH32 0x8BE0079C531659141344CD1FD0A4F28419497F9722A3DAAFE3B4186F6B6457E0 SWAP2 SWAP1 LOG3 POP POP JUMP JUMPDEST PUSH1 0x1 PUSH1 0x1 PUSH1 0xA0 SHL SUB DUP3 AND PUSH2 0x1E50 JUMPI PUSH1 0x40 MLOAD PUSH4 0xB611743 PUSH1 0xE3 SHL DUP2 MSTORE PUSH1 0x1 PUSH1 0x1 PUSH1 0xA0 SHL SUB DUP4 AND PUSH1 0x4 DUP3 ADD MSTORE PUSH1 0x24 ADD PUSH2 0xB56 JUMP JUMPDEST PUSH1 0x1 PUSH1 0x1 PUSH1 0xA0 SHL SUB DUP4 DUP2 AND PUSH0 DUP2 DUP2 MSTORE PUSH1 0xA PUSH1 0x20 SWAP1 DUP2 MSTORE PUSH1 0x40 DUP1 DUP4 KECCAK256 SWAP5 DUP8 AND DUP1 DUP5 MSTORE SWAP5 DUP3 MSTORE SWAP2 DUP3 SWAP1 KECCAK256 DUP1 SLOAD PUSH1 0xFF NOT AND DUP7 ISZERO ISZERO SWAP1 DUP2 OR SWAP1 SWAP2 SSTORE SWAP2 MLOAD SWAP2 DUP3 MSTORE PUSH32 0x17307EAB39AB6107E8899845AD3D59BD9653F200F220920489CA2B5937696C31 SWAP2 ADD PUSH1 0x40 MLOAD DUP1 SWAP2 SUB SWAP1 LOG3 POP POP POP JUMP JUMPDEST PUSH1 0x1 PUSH1 0x1 PUSH1 0xA0 SHL SUB DUP4 AND EXTCODESIZE ISZERO PUSH2 0xCB3 JUMPI PUSH1 0x40 MLOAD PUSH4 0xA85BD01 PUSH1 0xE1 SHL DUP2 MSTORE PUSH1 0x1 PUSH1 0x1 PUSH1 0xA0 SHL SUB DUP5 AND SWAP1 PUSH4 0x150B7A02 SWAP1 PUSH2 0x1EFE SWAP1 CALLER SWAP1 DUP9 SWAP1 DUP8 SWAP1 DUP8 SWAP1 PUSH1 0x4 ADD PUSH2 0x3ABC JUMP JUMPDEST PUSH1 0x20 PUSH1 0x40 MLOAD DUP1 DUP4 SUB DUP2 PUSH0 DUP8 GAS CALL SWAP3 POP POP POP DUP1 ISZERO PUSH2 0x1F38 JUMPI POP PUSH1 0x40 DUP1 MLOAD PUSH1 0x1F RETURNDATASIZE SWAP1 DUP2 ADD PUSH1 0x1F NOT AND DUP3 ADD SWAP1 SWAP3 MSTORE PUSH2 0x1F35 SWAP2 DUP2 ADD SWAP1 PUSH2 0x3AEE JUMP JUMPDEST PUSH1 0x1 JUMPDEST PUSH2 0x1F9F JUMPI RETURNDATASIZE DUP1 DUP1 ISZERO PUSH2 0x1F65 JUMPI PUSH1 0x40 MLOAD SWAP2 POP PUSH1 0x1F NOT PUSH1 0x3F RETURNDATASIZE ADD AND DUP3 ADD PUSH1 0x40 MSTORE RETURNDATASIZE DUP3 MSTORE RETURNDATASIZE PUSH0 PUSH1 0x20 DUP5 ADD RETURNDATACOPY PUSH2 0x1F6A JUMP JUMPDEST PUSH1 0x60 SWAP2 POP JUMPDEST POP DUP1 MLOAD PUSH0 SUB PUSH2 0x1F97 JUMPI PUSH1 0x40 MLOAD PUSH4 0x32505749 PUSH1 0xE1 SHL DUP2 MSTORE PUSH1 0x1 PUSH1 0x1 PUSH1 0xA0 SHL SUB DUP6 AND PUSH1 0x4 DUP3 ADD MSTORE PUSH1 0x24 ADD PUSH2 0xB56 JUMP JUMPDEST DUP1 MLOAD DUP2 PUSH1 0x20 ADD REVERT JUMPDEST PUSH1 0x1 PUSH1 0x1 PUSH1 0xE0 SHL SUB NOT DUP2 AND PUSH4 0xA85BD01 PUSH1 0xE1 SHL EQ PUSH2 0x156F JUMPI PUSH1 0x40 MLOAD PUSH4 0x32505749 PUSH1 0xE1 SHL DUP2 MSTORE PUSH1 0x1 PUSH1 0x1 PUSH1 0xA0 SHL SUB DUP6 AND PUSH1 0x4 DUP3 ADD MSTORE PUSH1 0x24 ADD PUSH2 0xB56 JUMP JUMPDEST PUSH0 JUMPDEST DUP2 MLOAD DUP2 LT ISZERO PUSH2 0x20AC JUMPI PUSH2 0x200C DUP3 DUP3 DUP2 MLOAD DUP2 LT PUSH2 0x1FFB JUMPI PUSH2 0x1FFB PUSH2 0x36C9 JUMP JUMPDEST PUSH1 0x20 MUL PUSH1 0x20 ADD ADD MLOAD PUSH1 0x40 ADD MLOAD PUSH2 0x20DC JUMP JUMPDEST DUP2 DUP2 DUP2 MLOAD DUP2 LT PUSH2 0x201E JUMPI PUSH2 0x201E PUSH2 0x36C9 JUMP JUMPDEST PUSH1 0x20 MUL PUSH1 0x20 ADD ADD MLOAD PUSH1 0x40 ADD MLOAD PUSH1 0x3 PUSH0 DUP5 DUP5 DUP2 MLOAD DUP2 LT PUSH2 0x203F JUMPI PUSH2 0x203F PUSH2 0x36C9 JUMP JUMPDEST PUSH1 0x20 MUL PUSH1 0x20 ADD ADD MLOAD PUSH0 ADD MLOAD PUSH4 0xFFFFFFFF AND PUSH4 0xFFFFFFFF AND DUP2 MSTORE PUSH1 0x20 ADD SWAP1 DUP2 MSTORE PUSH1 0x20 ADD PUSH0 KECCAK256 PUSH0 DUP5 DUP5 DUP2 MLOAD DUP2 LT PUSH2 0x2076 JUMPI PUSH2 0x2076 PUSH2 0x36C9 JUMP JUMPDEST PUSH1 0x20 MUL PUSH1 0x20 ADD ADD MLOAD PUSH1 0x20 ADD MLOAD PUSH2 0xFFFF AND PUSH2 0xFFFF AND DUP2 MSTORE PUSH1 0x20 ADD SWAP1 DUP2 MSTORE PUSH1 0x20 ADD PUSH0 KECCAK256 SWAP1 DUP2 PUSH2 0x20A3 SWAP2 SWAP1 PUSH2 0x38FE JUMP JUMPDEST POP PUSH1 0x1 ADD PUSH2 0x1FDD JUMP JUMPDEST POP PUSH32 0xBE4864A8E820971C0247F5992E2DA559595F7BF076A21CB5928D443D2A13B674 DUP2 PUSH1 0x40 MLOAD PUSH2 0x100E SWAP2 SWAP1 PUSH2 0x3B09 JUMP JUMPDEST PUSH1 0x2 DUP2 ADD MLOAD PUSH2 0xFFFF DUP2 AND PUSH1 0x3 EQ PUSH2 0xA40 JUMPI DUP2 PUSH1 0x40 MLOAD PUSH4 0x9A6D49CD PUSH1 0xE0 SHL DUP2 MSTORE PUSH1 0x4 ADD PUSH2 0xB56 SWAP2 SWAP1 PUSH2 0x2CC7 JUMP JUMPDEST PUSH2 0x2110 PUSH2 0x2C07 JUMP JUMPDEST PUSH0 PUSH2 0x211D DUP5 PUSH0 ADD MLOAD PUSH2 0x2719 JUMP JUMPDEST PUSH1 0x20 DUP6 ADD MLOAD SWAP1 SWAP2 POP ISZERO PUSH2 0x2137 JUMPI PUSH2 0x2137 DUP5 PUSH1 0x20 ADD MLOAD PUSH2 0x2740 JUMP JUMPDEST PUSH32 0x0 PUSH1 0x1 PUSH1 0x1 PUSH1 0xA0 SHL SUB AND PUSH4 0x2637A450 DUP3 PUSH1 0x40 MLOAD DUP1 PUSH1 0xA0 ADD PUSH1 0x40 MSTORE DUP1 DUP12 PUSH4 0xFFFFFFFF AND DUP2 MSTORE PUSH1 0x20 ADD PUSH2 0x2187 DUP13 PUSH2 0x1815 JUMP JUMPDEST DUP2 MSTORE PUSH1 0x20 ADD DUP11 DUP2 MSTORE PUSH1 0x20 ADD DUP10 DUP2 MSTORE PUSH1 0x20 ADD PUSH0 DUP10 PUSH1 0x20 ADD MLOAD GT ISZERO ISZERO DUP2 MSTORE POP DUP7 PUSH1 0x40 MLOAD DUP5 PUSH4 0xFFFFFFFF AND PUSH1 0xE0 SHL DUP2 MSTORE PUSH1 0x4 ADD PUSH2 0x21C2 SWAP3 SWAP2 SWAP1 PUSH2 0x39FC JUMP JUMPDEST PUSH1 0x80 PUSH1 0x40 MLOAD DUP1 DUP4 SUB DUP2 DUP6 DUP9 GAS CALL ISZERO DUP1 ISZERO PUSH2 0x21DE JUMPI RETURNDATASIZE PUSH0 DUP1 RETURNDATACOPY RETURNDATASIZE PUSH0 REVERT JUMPDEST POP POP POP POP POP PUSH1 0x40 MLOAD RETURNDATASIZE PUSH1 0x1F NOT PUSH1 0x1F DUP3 ADD AND DUP3 ADD DUP1 PUSH1 0x40 MSTORE POP DUP2 ADD SWAP1 PUSH2 0x2203 SWAP2 SWAP1 PUSH2 0x3B92 JUMP JUMPDEST SWAP8 SWAP7 POP POP POP POP POP POP POP JUMP JUMPDEST PUSH1 0x60 PUSH2 0x2219 DUP3 PUSH2 0x178D JUMP JUMPDEST POP PUSH0 DUP3 DUP2 MSTORE PUSH1 0xB PUSH1 0x20 MSTORE PUSH1 0x40 DUP2 KECCAK256 DUP1 SLOAD PUSH2 0x2232 SWAP1 PUSH2 0x34E2 JUMP JUMPDEST DUP1 PUSH1 0x1F ADD PUSH1 0x20 DUP1 SWAP2 DIV MUL PUSH1 0x20 ADD PUSH1 0x40 MLOAD SWAP1 DUP2 ADD PUSH1 0x40 MSTORE DUP1 SWAP3 SWAP2 SWAP1 DUP2 DUP2 MSTORE PUSH1 0x20 ADD DUP3 DUP1 SLOAD PUSH2 0x225E SWAP1 PUSH2 0x34E2 JUMP JUMPDEST DUP1 ISZERO PUSH2 0x22A9 JUMPI DUP1 PUSH1 0x1F LT PUSH2 0x2280 JUMPI PUSH2 0x100 DUP1 DUP4 SLOAD DIV MUL DUP4 MSTORE SWAP2 PUSH1 0x20 ADD SWAP2 PUSH2 0x22A9 JUMP JUMPDEST DUP3 ADD SWAP2 SWAP1 PUSH0 MSTORE PUSH1 0x20 PUSH0 KECCAK256 SWAP1 JUMPDEST DUP2 SLOAD DUP2 MSTORE SWAP1 PUSH1 0x1 ADD SWAP1 PUSH1 0x20 ADD DUP1 DUP4 GT PUSH2 0x228C JUMPI DUP3 SWAP1 SUB PUSH1 0x1F AND DUP3 ADD SWAP2 JUMPDEST POP POP POP POP POP SWAP1 POP PUSH0 PUSH2 0x22B9 PUSH2 0x281F JUMP JUMPDEST SWAP1 POP DUP1 MLOAD PUSH0 SUB PUSH2 0x22CA JUMPI POP SWAP3 SWAP2 POP POP JUMP JUMPDEST DUP2 MLOAD ISZERO PUSH2 0x22FC JUMPI DUP1 DUP3 PUSH1 0x40 MLOAD PUSH1 0x20 ADD PUSH2 0x22E4 SWAP3 SWAP2 SWAP1 PUSH2 0x3BDA JUMP JUMPDEST PUSH1 0x40 MLOAD PUSH1 0x20 DUP2 DUP4 SUB SUB DUP2 MSTORE SWAP1 PUSH1 0x40 MSTORE SWAP3 POP POP POP SWAP2 SWAP1 POP JUMP JUMPDEST PUSH2 0x107E DUP5 PUSH2 0x282E JUMP JUMPDEST PUSH1 0x1 PUSH1 0x1 PUSH1 0xA0 SHL SUB DUP3 AND PUSH2 0x232E JUMPI PUSH1 0x40 MLOAD PUSH4 0x32505749 PUSH1 0xE1 SHL DUP2 MSTORE PUSH0 PUSH1 0x4 DUP3 ADD MSTORE PUSH1 0x24 ADD PUSH2 0xB56 JUMP JUMPDEST PUSH0 PUSH2 0x233A DUP4 DUP4 PUSH0 PUSH2 0x19FE JUMP JUMPDEST SWAP1 POP PUSH1 0x1 PUSH1 0x1 PUSH1 0xA0 SHL SUB DUP2 AND ISZERO PUSH2 0xF0B JUMPI PUSH1 0x40 MLOAD PUSH4 0x39E35637 PUSH1 0xE1 SHL DUP2 MSTORE PUSH0 PUSH1 0x4 DUP3 ADD MSTORE PUSH1 0x24 ADD PUSH2 0xB56 JUMP JUMPDEST PUSH0 PUSH1 0x1 PUSH1 0x1 PUSH1 0xE0 SHL SUB NOT DUP3 AND PUSH4 0x80AC58CD PUSH1 0xE0 SHL EQ DUP1 PUSH2 0x2396 JUMPI POP PUSH1 0x1 PUSH1 0x1 PUSH1 0xE0 SHL SUB NOT DUP3 AND PUSH4 0x5B5E139F PUSH1 0xE0 SHL EQ JUMPDEST DUP1 PUSH2 0x978 JUMPI POP PUSH4 0x1FFC9A7 PUSH1 0xE0 SHL PUSH1 0x1 PUSH1 0x1 PUSH1 0xE0 SHL SUB NOT DUP4 AND EQ PUSH2 0x978 JUMP JUMPDEST DUP1 DUP1 PUSH2 0x23C9 JUMPI POP PUSH1 0x1 PUSH1 0x1 PUSH1 0xA0 SHL SUB DUP3 AND ISZERO ISZERO JUMPDEST ISZERO PUSH2 0x248A JUMPI PUSH0 PUSH2 0x23D8 DUP5 PUSH2 0x178D JUMP JUMPDEST SWAP1 POP PUSH1 0x1 PUSH1 0x1 PUSH1 0xA0 SHL SUB DUP4 AND ISZERO DUP1 ISZERO SWAP1 PUSH2 0x2404 JUMPI POP DUP3 PUSH1 0x1 PUSH1 0x1 PUSH1 0xA0 SHL SUB AND DUP2 PUSH1 0x1 PUSH1 0x1 PUSH1 0xA0 SHL SUB AND EQ ISZERO JUMPDEST DUP1 ISZERO PUSH2 0x2417 JUMPI POP PUSH2 0x2415 DUP2 DUP5 PUSH2 0x16CB JUMP JUMPDEST ISZERO JUMPDEST ISZERO PUSH2 0x2440 JUMPI PUSH1 0x40 MLOAD PUSH4 0xA9FBF51F PUSH1 0xE0 SHL DUP2 MSTORE PUSH1 0x1 PUSH1 0x1 PUSH1 0xA0 SHL SUB DUP5 AND PUSH1 0x4 DUP3 ADD MSTORE PUSH1 0x24 ADD PUSH2 0xB56 JUMP JUMPDEST DUP2 ISZERO PUSH2 0x2488 JUMPI DUP4 DUP6 PUSH1 0x1 PUSH1 0x1 PUSH1 0xA0 SHL SUB AND DUP3 PUSH1 0x1 PUSH1 0x1 PUSH1 0xA0 SHL SUB AND PUSH32 0x8C5BE1E5EBEC7D5BD14F71427D1E84F3DD0314C0F7B2291E5B200AC8C7C3B925 PUSH1 0x40 MLOAD PUSH1 0x40 MLOAD DUP1 SWAP2 SUB SWAP1 LOG4 JUMPDEST POP JUMPDEST POP POP PUSH0 SWAP1 DUP2 MSTORE PUSH1 0x9 PUSH1 0x20 MSTORE PUSH1 0x40 SWAP1 KECCAK256 DUP1 SLOAD PUSH1 0x1 PUSH1 0x1 PUSH1 0xA0 SHL SUB NOT AND PUSH1 0x1 PUSH1 0x1 PUSH1 0xA0 SHL SUB SWAP3 SWAP1 SWAP3 AND SWAP2 SWAP1 SWAP2 OR SWAP1 SSTORE JUMP JUMPDEST PUSH0 PUSH32 0x0 PUSH2 0x24E5 DUP2 DUP5 PUSH2 0x3C08 JUMP JUMPDEST PUSH2 0x978 SWAP2 SWAP1 PUSH2 0x3C27 JUMP JUMPDEST PUSH0 PUSH2 0x24FD PUSH1 0x20 DUP3 DUP5 DUP7 PUSH2 0x3641 JUMP JUMPDEST PUSH2 0x1AEB SWAP2 PUSH2 0x3C4A JUMP JUMPDEST PUSH0 PUSH2 0x2515 PUSH1 0x28 PUSH1 0x20 DUP5 DUP7 PUSH2 0x3641 JUMP JUMPDEST PUSH2 0x251E SWAP2 PUSH2 0x3C67 JUMP JUMPDEST PUSH1 0xC0 SHR SWAP4 SWAP3 POP POP POP JUMP JUMPDEST PUSH0 PUSH2 0x978 PUSH32 0x0 PUSH1 0x1 PUSH1 0x1 PUSH1 0x40 SHL SUB DUP5 AND PUSH2 0x3C27 JUMP JUMPDEST PUSH1 0x60 PUSH2 0x256B DUP3 PUSH1 0x28 DUP2 DUP7 PUSH2 0x3641 JUMP JUMPDEST DUP1 DUP1 PUSH1 0x1F ADD PUSH1 0x20 DUP1 SWAP2 DIV MUL PUSH1 0x20 ADD PUSH1 0x40 MLOAD SWAP1 DUP2 ADD PUSH1 0x40 MSTORE DUP1 SWAP4 SWAP3 SWAP2 SWAP1 DUP2 DUP2 MSTORE PUSH1 0x20 ADD DUP4 DUP4 DUP1 DUP3 DUP5 CALLDATACOPY PUSH0 SWAP3 ADD SWAP2 SWAP1 SWAP2 MSTORE POP SWAP3 SWAP7 SWAP6 POP POP POP POP POP POP JUMP JUMPDEST PUSH1 0x60 DUP5 DUP5 DUP5 DUP5 PUSH1 0x40 MLOAD PUSH1 0x20 ADD PUSH2 0x25BF SWAP5 SWAP4 SWAP3 SWAP2 SWAP1 PUSH2 0x3C97 JUMP JUMPDEST PUSH1 0x40 MLOAD PUSH1 0x20 DUP2 DUP4 SUB SUB DUP2 MSTORE SWAP1 PUSH1 0x40 MSTORE SWAP1 POP SWAP5 SWAP4 POP POP POP POP JUMP JUMPDEST PUSH2 0x25E3 DUP4 DUP4 DUP4 PUSH2 0x2892 JUMP JUMPDEST PUSH2 0xF0B JUMPI PUSH1 0x1 PUSH1 0x1 PUSH1 0xA0 SHL SUB DUP4 AND PUSH2 0x2611 JUMPI PUSH1 0x40 MLOAD PUSH4 0x7E273289 PUSH1 0xE0 SHL DUP2 MSTORE PUSH1 0x4 DUP2 ADD DUP3 SWAP1 MSTORE PUSH1 0x24 ADD PUSH2 0xB56 JUMP JUMPDEST PUSH1 0x40 MLOAD PUSH4 0x177E802F PUSH1 0xE0 SHL DUP2 MSTORE PUSH1 0x1 PUSH1 0x1 PUSH1 0xA0 SHL SUB DUP4 AND PUSH1 0x4 DUP3 ADD MSTORE PUSH1 0x24 DUP2 ADD DUP3 SWAP1 MSTORE PUSH1 0x44 ADD PUSH2 0xB56 JUMP JUMPDEST PUSH0 PUSH2 0x978 PUSH32 0x0 DUP4 PUSH2 0x3C08 JUMP JUMPDEST DUP1 MLOAD PUSH1 0x60 SWAP1 ISZERO ISZERO DUP1 PUSH2 0x26B0 JUMPI DUP5 DUP5 PUSH1 0x40 MLOAD PUSH1 0x20 ADD PUSH2 0x269C SWAP3 SWAP2 SWAP1 SWAP2 DUP3 MSTORE PUSH1 0xC0 SHL PUSH1 0x1 PUSH1 0x1 PUSH1 0xC0 SHL SUB NOT AND PUSH1 0x20 DUP3 ADD MSTORE PUSH1 0x28 ADD SWAP1 JUMP JUMPDEST PUSH1 0x40 MLOAD PUSH1 0x20 DUP2 DUP4 SUB SUB DUP2 MSTORE SWAP1 PUSH1 0x40 MSTORE PUSH2 0x26D7 JUMP JUMPDEST DUP5 DUP5 CALLER DUP6 PUSH1 0x40 MLOAD PUSH1 0x20 ADD PUSH2 0x26C7 SWAP5 SWAP4 SWAP3 SWAP2 SWAP1 PUSH2 0x3CE5 JUMP JUMPDEST PUSH1 0x40 MLOAD PUSH1 0x20 DUP2 DUP4 SUB SUB DUP2 MSTORE SWAP1 PUSH1 0x40 MSTORE JUMPDEST SWAP2 POP SWAP4 POP SWAP4 SWAP2 POP POP JUMP JUMPDEST PUSH0 PUSH2 0x26ED PUSH0 DUP4 PUSH0 PUSH2 0x19FE JUMP JUMPDEST SWAP1 POP PUSH1 0x1 PUSH1 0x1 PUSH1 0xA0 SHL SUB DUP2 AND PUSH2 0xA40 JUMPI PUSH1 0x40 MLOAD PUSH4 0x7E273289 PUSH1 0xE0 SHL DUP2 MSTORE PUSH1 0x4 DUP2 ADD DUP4 SWAP1 MSTORE PUSH1 0x24 ADD PUSH2 0xB56 JUMP JUMPDEST PUSH0 DUP2 CALLVALUE EQ PUSH2 0x273C JUMPI PUSH1 0x40 MLOAD PUSH4 0x4FB8209 PUSH1 0xE5 SHL DUP2 MSTORE CALLVALUE PUSH1 0x4 DUP3 ADD MSTORE PUSH1 0x24 ADD PUSH2 0xB56 JUMP JUMPDEST POP SWAP1 JUMP JUMPDEST PUSH0 PUSH32 0x0 PUSH1 0x1 PUSH1 0x1 PUSH1 0xA0 SHL SUB AND PUSH4 0xE4FE1D94 PUSH1 0x40 MLOAD DUP2 PUSH4 0xFFFFFFFF AND PUSH1 0xE0 SHL DUP2 MSTORE PUSH1 0x4 ADD PUSH1 0x20 PUSH1 0x40 MLOAD DUP1 DUP4 SUB DUP2 DUP7 GAS STATICCALL ISZERO DUP1 ISZERO PUSH2 0x279D JUMPI RETURNDATASIZE PUSH0 DUP1 RETURNDATACOPY RETURNDATASIZE PUSH0 REVERT JUMPDEST POP POP POP POP PUSH1 0x40 MLOAD RETURNDATASIZE PUSH1 0x1F NOT PUSH1 0x1F DUP3 ADD AND DUP3 ADD DUP1 PUSH1 0x40 MSTORE POP DUP2 ADD SWAP1 PUSH2 0x27C1 SWAP2 SWAP1 PUSH2 0x3D27 JUMP JUMPDEST SWAP1 POP PUSH1 0x1 PUSH1 0x1 PUSH1 0xA0 SHL SUB DUP2 AND PUSH2 0x27EA JUMPI PUSH1 0x40 MLOAD PUSH4 0x29B99A95 PUSH1 0xE1 SHL DUP2 MSTORE PUSH1 0x4 ADD PUSH1 0x40 MLOAD DUP1 SWAP2 SUB SWAP1 REVERT JUMPDEST PUSH2 0xA40 PUSH1 0x1 PUSH1 0x1 PUSH1 0xA0 SHL SUB DUP3 AND CALLER PUSH32 0x0 DUP6 PUSH2 0x28F3 JUMP JUMPDEST PUSH1 0x60 PUSH1 0xD DUP1 SLOAD PUSH2 0x98D SWAP1 PUSH2 0x34E2 JUMP JUMPDEST PUSH1 0x60 PUSH2 0x2839 DUP3 PUSH2 0x178D JUMP JUMPDEST POP PUSH0 PUSH2 0x2843 PUSH2 0x281F JUMP JUMPDEST SWAP1 POP PUSH0 DUP2 MLOAD GT PUSH2 0x2861 JUMPI PUSH1 0x40 MLOAD DUP1 PUSH1 0x20 ADD PUSH1 0x40 MSTORE DUP1 PUSH0 DUP2 MSTORE POP PUSH2 0x1AEB JUMP JUMPDEST DUP1 PUSH2 0x286B DUP5 PUSH2 0x294D JUMP JUMPDEST PUSH1 0x40 MLOAD PUSH1 0x20 ADD PUSH2 0x287C SWAP3 SWAP2 SWAP1 PUSH2 0x3BDA JUMP JUMPDEST PUSH1 0x40 MLOAD PUSH1 0x20 DUP2 DUP4 SUB SUB DUP2 MSTORE SWAP1 PUSH1 0x40 MSTORE SWAP4 SWAP3 POP POP POP JUMP JUMPDEST PUSH0 PUSH1 0x1 PUSH1 0x1 PUSH1 0xA0 SHL SUB DUP4 AND ISZERO DUP1 ISZERO SWAP1 PUSH2 0x107E JUMPI POP DUP3 PUSH1 0x1 PUSH1 0x1 PUSH1 0xA0 SHL SUB AND DUP5 PUSH1 0x1 PUSH1 0x1 PUSH1 0xA0 SHL SUB AND EQ DUP1 PUSH2 0x28CB JUMPI POP PUSH2 0x28CB DUP5 DUP5 PUSH2 0x16CB JUMP JUMPDEST DUP1 PUSH2 0x107E JUMPI POP POP PUSH0 SWAP1 DUP2 MSTORE PUSH1 0x9 PUSH1 0x20 MSTORE PUSH1 0x40 SWAP1 KECCAK256 SLOAD PUSH1 0x1 PUSH1 0x1 PUSH1 0xA0 SHL SUB SWAP1 DUP2 AND SWAP2 AND EQ SWAP2 SWAP1 POP JUMP JUMPDEST PUSH1 0x40 DUP1 MLOAD PUSH1 0x1 PUSH1 0x1 PUSH1 0xA0 SHL SUB DUP6 DUP2 AND PUSH1 0x24 DUP4 ADD MSTORE DUP5 AND PUSH1 0x44 DUP3 ADD MSTORE PUSH1 0x64 DUP1 DUP3 ADD DUP5 SWAP1 MSTORE DUP3 MLOAD DUP1 DUP4 SUB SWAP1 SWAP2 ADD DUP2 MSTORE PUSH1 0x84 SWAP1 SWAP2 ADD SWAP1 SWAP2 MSTORE PUSH1 0x20 DUP2 ADD DUP1 MLOAD PUSH1 0x1 PUSH1 0x1 PUSH1 0xE0 SHL SUB AND PUSH4 0x23B872DD PUSH1 0xE0 SHL OR SWAP1 MSTORE PUSH2 0xCB3 SWAP1 DUP6 SWAP1 PUSH2 0x29DC JUMP JUMPDEST PUSH1 0x60 PUSH0 PUSH2 0x2959 DUP4 PUSH2 0x2A3D JUMP JUMPDEST PUSH1 0x1 ADD SWAP1 POP PUSH0 DUP2 PUSH1 0x1 PUSH1 0x1 PUSH1 0x40 SHL SUB DUP2 GT ISZERO PUSH2 0x2977 JUMPI PUSH2 0x2977 PUSH2 0x2EF8 JUMP JUMPDEST PUSH1 0x40 MLOAD SWAP1 DUP1 DUP3 MSTORE DUP1 PUSH1 0x1F ADD PUSH1 0x1F NOT AND PUSH1 0x20 ADD DUP3 ADD PUSH1 0x40 MSTORE DUP1 ISZERO PUSH2 0x29A1 JUMPI PUSH1 0x20 DUP3 ADD DUP2 DUP1 CALLDATASIZE DUP4 CALLDATACOPY ADD SWAP1 POP JUMPDEST POP SWAP1 POP DUP2 DUP2 ADD PUSH1 0x20 ADD JUMPDEST PUSH0 NOT ADD PUSH16 0x181899199A1A9B1B9C1CB0B131B232B3 PUSH1 0x81 SHL PUSH1 0xA DUP7 MOD BYTE DUP2 MSTORE8 PUSH1 0xA DUP6 DIV SWAP5 POP DUP5 PUSH2 0x29AB JUMPI POP SWAP4 SWAP3 POP POP POP JUMP JUMPDEST PUSH0 PUSH2 0x29F0 PUSH1 0x1 PUSH1 0x1 PUSH1 0xA0 SHL SUB DUP5 AND DUP4 PUSH2 0x2B14 JUMP JUMPDEST SWAP1 POP DUP1 MLOAD PUSH0 EQ ISZERO DUP1 ISZERO PUSH2 0x2A14 JUMPI POP DUP1 DUP1 PUSH1 0x20 ADD SWAP1 MLOAD DUP2 ADD SWAP1 PUSH2 0x2A12 SWAP2 SWAP1 PUSH2 0x39E1 JUMP JUMPDEST ISZERO JUMPDEST ISZERO PUSH2 0xF0B JUMPI PUSH1 0x40 MLOAD PUSH4 0x5274AFE7 PUSH1 0xE0 SHL DUP2 MSTORE PUSH1 0x1 PUSH1 0x1 PUSH1 0xA0 SHL SUB DUP5 AND PUSH1 0x4 DUP3 ADD MSTORE PUSH1 0x24 ADD PUSH2 0xB56 JUMP JUMPDEST PUSH0 DUP1 PUSH19 0x184F03E93FF9F4DAA797ED6E38ED64BF6A1F01 PUSH1 0x40 SHL DUP4 LT PUSH2 0x2A7B JUMPI PUSH19 0x184F03E93FF9F4DAA797ED6E38ED64BF6A1F01 PUSH1 0x40 SHL DUP4 DIV SWAP3 POP PUSH1 0x40 ADD JUMPDEST PUSH14 0x4EE2D6D415B85ACEF8100000000 DUP4 LT PUSH2 0x2AA7 JUMPI PUSH14 0x4EE2D6D415B85ACEF8100000000 DUP4 DIV SWAP3 POP PUSH1 0x20 ADD JUMPDEST PUSH7 0x2386F26FC10000 DUP4 LT PUSH2 0x2AC5 JUMPI PUSH7 0x2386F26FC10000 DUP4 DIV SWAP3 POP PUSH1 0x10 ADD JUMPDEST PUSH4 0x5F5E100 DUP4 LT PUSH2 0x2ADD JUMPI PUSH4 0x5F5E100 DUP4 DIV SWAP3 POP PUSH1 0x8 ADD JUMPDEST PUSH2 0x2710 DUP4 LT PUSH2 0x2AF1 JUMPI PUSH2 0x2710 DUP4 DIV SWAP3 POP PUSH1 0x4 ADD JUMPDEST PUSH1 0x64 DUP4 LT PUSH2 0x2B03 JUMPI PUSH1 0x64 DUP4 DIV SWAP3 POP PUSH1 0x2 ADD JUMPDEST PUSH1 0xA DUP4 LT PUSH2 0x978 JUMPI PUSH1 0x1 ADD SWAP3 SWAP2 POP POP JUMP JUMPDEST PUSH1 0x60 PUSH2 0x1AEB DUP4 DUP4 PUSH0 DUP5 PUSH0 DUP1 DUP6 PUSH1 0x1 PUSH1 0x1 PUSH1 0xA0 SHL SUB AND DUP5 DUP7 PUSH1 0x40 MLOAD PUSH2 0x2B38 SWAP2 SWAP1 PUSH2 0x3D42 JUMP JUMPDEST PUSH0 PUSH1 0x40 MLOAD DUP1 DUP4 SUB DUP2 DUP6 DUP8 GAS CALL SWAP3 POP POP POP RETURNDATASIZE DUP1 PUSH0 DUP2 EQ PUSH2 0x2B72 JUMPI PUSH1 0x40 MLOAD SWAP2 POP PUSH1 0x1F NOT PUSH1 0x3F RETURNDATASIZE ADD AND DUP3 ADD PUSH1 0x40 MSTORE RETURNDATASIZE DUP3 MSTORE RETURNDATASIZE PUSH0 PUSH1 0x20 DUP5 ADD RETURNDATACOPY PUSH2 0x2B77 JUMP JUMPDEST PUSH1 0x60 SWAP2 POP JUMPDEST POP SWAP2 POP SWAP2 POP PUSH2 0xD32 DUP7 DUP4 DUP4 PUSH1 0x60 DUP3 PUSH2 0x2B97 JUMPI PUSH2 0x2B92 DUP3 PUSH2 0x2BDE JUMP JUMPDEST PUSH2 0x1AEB JUMP JUMPDEST DUP2 MLOAD ISZERO DUP1 ISZERO PUSH2 0x2BAE JUMPI POP PUSH1 0x1 PUSH1 0x1 PUSH1 0xA0 SHL SUB DUP5 AND EXTCODESIZE ISZERO JUMPDEST ISZERO PUSH2 0x2BD7 JUMPI PUSH1 0x40 MLOAD PUSH4 0x9996B315 PUSH1 0xE0 SHL DUP2 MSTORE PUSH1 0x1 PUSH1 0x1 PUSH1 0xA0 SHL SUB DUP6 AND PUSH1 0x4 DUP3 ADD MSTORE PUSH1 0x24 ADD PUSH2 0xB56 JUMP JUMPDEST POP DUP1 PUSH2 0x1AEB JUMP JUMPDEST DUP1 MLOAD ISZERO PUSH2 0x2BEE JUMPI DUP1 MLOAD DUP1 DUP3 PUSH1 0x20 ADD REVERT JUMPDEST PUSH1 0x40 MLOAD PUSH4 0xA12F521 PUSH1 0xE1 SHL DUP2 MSTORE PUSH1 0x4 ADD PUSH1 0x40 MLOAD DUP1 SWAP2 SUB SWAP1 REVERT JUMPDEST PUSH1 0x40 MLOAD DUP1 PUSH1 0x60 ADD PUSH1 0x40 MSTORE DUP1 PUSH0 DUP1 NOT AND DUP2 MSTORE PUSH1 0x20 ADD PUSH0 PUSH1 0x1 PUSH1 0x1 PUSH1 0x40 SHL SUB AND DUP2 MSTORE PUSH1 0x20 ADD PUSH2 0x2C45 PUSH1 0x40 MLOAD DUP1 PUSH1 0x40 ADD PUSH1 0x40 MSTORE DUP1 PUSH0 DUP2 MSTORE PUSH1 0x20 ADD PUSH0 DUP2 MSTORE POP SWAP1 JUMP JUMPDEST SWAP1 MSTORE SWAP1 JUMP JUMPDEST PUSH1 0x1 PUSH1 0x1 PUSH1 0xE0 SHL SUB NOT DUP2 AND DUP2 EQ PUSH2 0x1732 JUMPI PUSH0 DUP1 REVERT JUMPDEST PUSH0 PUSH1 0x20 DUP3 DUP5 SUB SLT ISZERO PUSH2 0x2C6F JUMPI PUSH0 DUP1 REVERT JUMPDEST DUP2 CALLDATALOAD PUSH2 0x1AEB DUP2 PUSH2 0x2C4A JUMP JUMPDEST PUSH0 JUMPDEST DUP4 DUP2 LT ISZERO PUSH2 0x2C94 JUMPI DUP2 DUP2 ADD MLOAD DUP4 DUP3 ADD MSTORE PUSH1 0x20 ADD PUSH2 0x2C7C JUMP JUMPDEST POP POP PUSH0 SWAP2 ADD MSTORE JUMP JUMPDEST PUSH0 DUP2 MLOAD DUP1 DUP5 MSTORE PUSH2 0x2CB3 DUP2 PUSH1 0x20 DUP7 ADD PUSH1 0x20 DUP7 ADD PUSH2 0x2C7A JUMP JUMPDEST PUSH1 0x1F ADD PUSH1 0x1F NOT AND SWAP3 SWAP1 SWAP3 ADD PUSH1 0x20 ADD SWAP3 SWAP2 POP POP JUMP JUMPDEST PUSH1 0x20 DUP2 MSTORE PUSH0 PUSH2 0x1AEB PUSH1 0x20 DUP4 ADD DUP5 PUSH2 0x2C9C JUMP JUMPDEST PUSH0 PUSH1 0x20 DUP3 DUP5 SUB SLT ISZERO PUSH2 0x2CE9 JUMPI PUSH0 DUP1 REVERT JUMPDEST POP CALLDATALOAD SWAP2 SWAP1 POP JUMP JUMPDEST PUSH1 0x1 PUSH1 0x1 PUSH1 0xA0 SHL SUB DUP2 AND DUP2 EQ PUSH2 0x1732 JUMPI PUSH0 DUP1 REVERT JUMPDEST PUSH0 DUP1 PUSH1 0x40 DUP4 DUP6 SUB SLT ISZERO PUSH2 0x2D15 JUMPI PUSH0 DUP1 REVERT JUMPDEST DUP3 CALLDATALOAD PUSH2 0x2D20 DUP2 PUSH2 0x2CF0 JUMP JUMPDEST SWAP5 PUSH1 0x20 SWAP4 SWAP1 SWAP4 ADD CALLDATALOAD SWAP4 POP POP POP JUMP JUMPDEST PUSH0 PUSH1 0xE0 DUP3 DUP5 SUB SLT ISZERO PUSH2 0x2D3E JUMPI PUSH0 DUP1 REVERT JUMPDEST POP SWAP2 SWAP1 POP JUMP JUMPDEST PUSH0 PUSH1 0x20 DUP3 DUP5 SUB SLT ISZERO PUSH2 0x2D54 JUMPI PUSH0 DUP1 REVERT JUMPDEST DUP2 CALLDATALOAD PUSH1 0x1 PUSH1 0x1 PUSH1 0x40 SHL SUB DUP2 GT ISZERO PUSH2 0x2D69 JUMPI PUSH0 DUP1 REVERT JUMPDEST PUSH2 0x107E DUP5 DUP3 DUP6 ADD PUSH2 0x2D2E JUMP JUMPDEST DUP4 MLOAD DUP2 MSTORE PUSH1 0x20 DUP1 DUP6 ADD MLOAD SWAP1 DUP3 ADD MSTORE PUSH0 PUSH1 0xA0 DUP3 ADD PUSH1 0x40 PUSH1 0xA0 PUSH1 0x40 DUP6 ADD MSTORE DUP2 DUP7 MLOAD DUP1 DUP5 MSTORE PUSH1 0xC0 DUP7 ADD SWAP2 POP PUSH1 0xC0 DUP2 PUSH1 0x5 SHL DUP8 ADD ADD SWAP4 POP PUSH1 0x20 DUP1 DUP10 ADD PUSH0 JUMPDEST DUP4 DUP2 LT ISZERO PUSH2 0x2DEE JUMPI DUP9 DUP8 SUB PUSH1 0xBF NOT ADD DUP6 MSTORE DUP2 MLOAD DUP1 MLOAD DUP9 MSTORE DUP4 ADD MLOAD DUP4 DUP9 ADD DUP8 SWAP1 MSTORE PUSH2 0x2DDB DUP8 DUP10 ADD DUP3 PUSH2 0x2C9C JUMP JUMPDEST SWAP8 POP POP SWAP4 DUP3 ADD SWAP4 SWAP1 DUP3 ADD SWAP1 PUSH1 0x1 ADD PUSH2 0x2DAF JUMP JUMPDEST POP POP DUP8 MLOAD PUSH1 0x60 DUP9 ADD MSTORE POP POP POP PUSH1 0x20 DUP6 ADD MLOAD PUSH1 0x80 DUP6 ADD MSTORE POP SWAP1 POP PUSH2 0x107E JUMP JUMPDEST PUSH0 PUSH1 0x60 DUP3 DUP5 SUB SLT ISZERO PUSH2 0x2D3E JUMPI PUSH0 DUP1 REVERT JUMPDEST PUSH0 DUP1 DUP4 PUSH1 0x1F DUP5 ADD SLT PUSH2 0x2E2C JUMPI PUSH0 DUP1 REVERT JUMPDEST POP DUP2 CALLDATALOAD PUSH1 0x1 PUSH1 0x1 PUSH1 0x40 SHL SUB DUP2 GT ISZERO PUSH2 0x2E42 JUMPI PUSH0 DUP1 REVERT JUMPDEST PUSH1 0x20 DUP4 ADD SWAP2 POP DUP4 PUSH1 0x20 DUP3 DUP6 ADD ADD GT ISZERO PUSH2 0x2E59 JUMPI PUSH0 DUP1 REVERT JUMPDEST SWAP3 POP SWAP3 SWAP1 POP JUMP JUMPDEST PUSH0 DUP1 PUSH0 DUP1 PUSH0 DUP1 PUSH0 PUSH1 0xE0 DUP9 DUP11 SUB SLT ISZERO PUSH2 0x2E76 JUMPI PUSH0 DUP1 REVERT JUMPDEST PUSH2 0x2E80 DUP10 DUP10 PUSH2 0x2E0C JUMP JUMPDEST SWAP7 POP PUSH1 0x60 DUP9 ADD CALLDATALOAD SWAP6 POP PUSH1 0x80 DUP9 ADD CALLDATALOAD PUSH1 0x1 PUSH1 0x1 PUSH1 0x40 SHL SUB DUP1 DUP3 GT ISZERO PUSH2 0x2EA2 JUMPI PUSH0 DUP1 REVERT JUMPDEST PUSH2 0x2EAE DUP12 DUP4 DUP13 ADD PUSH2 0x2E1C JUMP JUMPDEST SWAP1 SWAP8 POP SWAP6 POP PUSH1 0xA0 DUP11 ADD CALLDATALOAD SWAP2 POP PUSH2 0x2EC3 DUP3 PUSH2 0x2CF0 JUMP JUMPDEST SWAP1 SWAP4 POP PUSH1 0xC0 DUP10 ADD CALLDATALOAD SWAP1 DUP1 DUP3 GT ISZERO PUSH2 0x2ED8 JUMPI PUSH0 DUP1 REVERT JUMPDEST POP PUSH2 0x2EE5 DUP11 DUP3 DUP12 ADD PUSH2 0x2E1C JUMP JUMPDEST SWAP9 SWAP12 SWAP8 SWAP11 POP SWAP6 SWAP9 POP SWAP4 SWAP7 SWAP3 SWAP6 SWAP3 SWAP4 POP POP POP JUMP JUMPDEST PUSH4 0x4E487B71 PUSH1 0xE0 SHL PUSH0 MSTORE PUSH1 0x41 PUSH1 0x4 MSTORE PUSH1 0x24 PUSH0 REVERT JUMPDEST PUSH1 0x40 MLOAD PUSH1 0x60 DUP2 ADD PUSH1 0x1 PUSH1 0x1 PUSH1 0x40 SHL SUB DUP2 GT DUP3 DUP3 LT OR ISZERO PUSH2 0x2F2E JUMPI PUSH2 0x2F2E PUSH2 0x2EF8 JUMP JUMPDEST PUSH1 0x40 MSTORE SWAP1 JUMP JUMPDEST PUSH1 0x40 DUP1 MLOAD SWAP1 DUP2 ADD PUSH1 0x1 PUSH1 0x1 PUSH1 0x40 SHL SUB DUP2 GT DUP3 DUP3 LT OR ISZERO PUSH2 0x2F2E JUMPI PUSH2 0x2F2E PUSH2 0x2EF8 JUMP JUMPDEST PUSH1 0x40 MLOAD PUSH1 0x1F DUP3 ADD PUSH1 0x1F NOT AND DUP2 ADD PUSH1 0x1 PUSH1 0x1 PUSH1 0x40 SHL SUB DUP2 GT DUP3 DUP3 LT OR ISZERO PUSH2 0x2F7E JUMPI PUSH2 0x2F7E PUSH2 0x2EF8 JUMP JUMPDEST PUSH1 0x40 MSTORE SWAP2 SWAP1 POP JUMP JUMPDEST PUSH0 PUSH1 0x1 PUSH1 0x1 PUSH1 0x40 SHL SUB DUP3 GT ISZERO PUSH2 0x2F9E JUMPI PUSH2 0x2F9E PUSH2 0x2EF8 JUMP JUMPDEST POP PUSH1 0x1F ADD PUSH1 0x1F NOT AND PUSH1 0x20 ADD SWAP1 JUMP JUMPDEST PUSH0 DUP3 PUSH1 0x1F DUP4 ADD SLT PUSH2 0x2FBB JUMPI PUSH0 DUP1 REVERT JUMPDEST DUP2 CALLDATALOAD PUSH2 0x2FCE PUSH2 0x2FC9 DUP3 PUSH2 0x2F86 JUMP JUMPDEST PUSH2 0x2F56 JUMP JUMPDEST DUP2 DUP2 MSTORE DUP5 PUSH1 0x20 DUP4 DUP7 ADD ADD GT ISZERO PUSH2 0x2FE2 JUMPI PUSH0 DUP1 REVERT JUMPDEST DUP2 PUSH1 0x20 DUP6 ADD PUSH1 0x20 DUP4 ADD CALLDATACOPY PUSH0 SWAP2 DUP2 ADD PUSH1 0x20 ADD SWAP2 SWAP1 SWAP2 MSTORE SWAP4 SWAP3 POP POP POP JUMP JUMPDEST PUSH0 DUP1 PUSH1 0x40 DUP4 DUP6 SUB SLT ISZERO PUSH2 0x300F JUMPI PUSH0 DUP1 REVERT JUMPDEST DUP3 CALLDATALOAD SWAP2 POP PUSH1 0x20 DUP4 ADD CALLDATALOAD PUSH1 0x1 PUSH1 0x1 PUSH1 0x40 SHL SUB DUP2 GT ISZERO PUSH2 0x302B JUMPI PUSH0 DUP1 REVERT JUMPDEST PUSH2 0x3037 DUP6 DUP3 DUP7 ADD PUSH2 0x2FAC JUMP JUMPDEST SWAP2 POP POP SWAP3 POP SWAP3 SWAP1 POP JUMP JUMPDEST PUSH0 DUP1 PUSH0 PUSH1 0x60 DUP5 DUP7 SUB SLT ISZERO PUSH2 0x3053 JUMPI PUSH0 DUP1 REVERT JUMPDEST DUP4 CALLDATALOAD PUSH2 0x305E DUP2 PUSH2 0x2CF0 JUMP JUMPDEST SWAP3 POP PUSH1 0x20 DUP5 ADD CALLDATALOAD PUSH2 0x306E DUP2 PUSH2 0x2CF0 JUMP JUMPDEST SWAP3 SWAP6 SWAP3 SWAP5 POP POP POP PUSH1 0x40 SWAP2 SWAP1 SWAP2 ADD CALLDATALOAD SWAP1 JUMP JUMPDEST DUP1 CALLDATALOAD PUSH4 0xFFFFFFFF DUP2 AND DUP2 EQ PUSH2 0x3092 JUMPI PUSH0 DUP1 REVERT JUMPDEST SWAP2 SWAP1 POP JUMP JUMPDEST PUSH0 DUP1 PUSH1 0x40 DUP4 DUP6 SUB SLT ISZERO PUSH2 0x30A8 JUMPI PUSH0 DUP1 REVERT JUMPDEST PUSH2 0x2D20 DUP4 PUSH2 0x307F JUMP JUMPDEST DUP1 ISZERO ISZERO DUP2 EQ PUSH2 0x1732 JUMPI PUSH0 DUP1 REVERT JUMPDEST PUSH0 DUP1 PUSH1 0x40 DUP4 DUP6 SUB SLT ISZERO PUSH2 0x30CF JUMPI PUSH0 DUP1 REVERT JUMPDEST DUP3 CALLDATALOAD PUSH1 0x1 PUSH1 0x1 PUSH1 0x40 SHL SUB DUP2 GT ISZERO PUSH2 0x30E4 JUMPI PUSH0 DUP1 REVERT JUMPDEST PUSH2 0x30F0 DUP6 DUP3 DUP7 ADD PUSH2 0x2D2E JUMP JUMPDEST SWAP3 POP POP PUSH1 0x20 DUP4 ADD CALLDATALOAD PUSH2 0x3101 DUP2 PUSH2 0x30B1 JUMP JUMPDEST DUP1 SWAP2 POP POP SWAP3 POP SWAP3 SWAP1 POP JUMP JUMPDEST DUP2 MLOAD DUP2 MSTORE PUSH1 0x20 DUP1 DUP4 ADD MLOAD SWAP1 DUP3 ADD MSTORE PUSH1 0x40 DUP2 ADD PUSH2 0x978 JUMP JUMPDEST PUSH0 DUP1 PUSH0 DUP1 PUSH1 0x80 DUP6 DUP8 SUB SLT ISZERO PUSH2 0x3136 JUMPI PUSH0 DUP1 REVERT JUMPDEST DUP5 CALLDATALOAD PUSH2 0x3141 DUP2 PUSH2 0x2CF0 JUMP JUMPDEST SWAP4 POP PUSH1 0x20 DUP6 ADD CALLDATALOAD SWAP3 POP PUSH1 0x40 DUP6 ADD CALLDATALOAD SWAP2 POP PUSH2 0x315D PUSH1 0x60 DUP7 ADD PUSH2 0x307F JUMP JUMPDEST SWAP1 POP SWAP3 SWAP6 SWAP2 SWAP5 POP SWAP3 POP JUMP JUMPDEST PUSH0 PUSH1 0x20 DUP3 DUP5 SUB SLT ISZERO PUSH2 0x3178 JUMPI PUSH0 DUP1 REVERT JUMPDEST DUP2 CALLDATALOAD PUSH2 0x1AEB DUP2 PUSH2 0x2CF0 JUMP JUMPDEST DUP1 CALLDATALOAD PUSH2 0xFFFF DUP2 AND DUP2 EQ PUSH2 0x3092 JUMPI PUSH0 DUP1 REVERT JUMPDEST PUSH0 DUP1 PUSH1 0x40 DUP4 DUP6 SUB SLT ISZERO PUSH2 0x31A5 JUMPI PUSH0 DUP1 REVERT JUMPDEST PUSH2 0x31AE DUP4 PUSH2 0x307F JUMP JUMPDEST SWAP2 POP PUSH2 0x31BC PUSH1 0x20 DUP5 ADD PUSH2 0x3183 JUMP JUMPDEST SWAP1 POP SWAP3 POP SWAP3 SWAP1 POP JUMP JUMPDEST PUSH0 DUP1 PUSH0 DUP1 PUSH1 0xA0 DUP6 DUP8 SUB SLT ISZERO PUSH2 0x31D8 JUMPI PUSH0 DUP1 REVERT JUMPDEST PUSH2 0x31E2 DUP7 DUP7 PUSH2 0x2E0C JUMP JUMPDEST SWAP4 POP PUSH1 0x60 DUP6 ADD CALLDATALOAD PUSH1 0x1 PUSH1 0x1 PUSH1 0x40 SHL SUB DUP2 GT ISZERO PUSH2 0x31FC JUMPI PUSH0 DUP1 REVERT JUMPDEST PUSH2 0x3208 DUP8 DUP3 DUP9 ADD PUSH2 0x2E1C JUMP JUMPDEST SWAP1 SWAP5 POP SWAP3 POP POP PUSH1 0x80 DUP6 ADD CALLDATALOAD PUSH2 0x321C DUP2 PUSH2 0x2CF0 JUMP JUMPDEST SWAP4 SWAP7 SWAP3 SWAP6 POP SWAP1 SWAP4 POP POP JUMP JUMPDEST PUSH0 DUP1 PUSH1 0x40 DUP4 DUP6 SUB SLT ISZERO PUSH2 0x3238 JUMPI PUSH0 DUP1 REVERT JUMPDEST DUP3 CALLDATALOAD PUSH2 0x3243 DUP2 PUSH2 0x2CF0 JUMP JUMPDEST SWAP2 POP PUSH1 0x20 DUP4 ADD CALLDATALOAD PUSH2 0x3101 DUP2 PUSH2 0x30B1 JUMP JUMPDEST PUSH0 DUP1 PUSH0 DUP1 PUSH1 0x80 DUP6 DUP8 SUB SLT ISZERO PUSH2 0x3266 JUMPI PUSH0 DUP1 REVERT JUMPDEST DUP5 CALLDATALOAD PUSH2 0x3271 DUP2 PUSH2 0x2CF0 JUMP JUMPDEST SWAP4 POP PUSH1 0x20 DUP6 ADD CALLDATALOAD PUSH2 0x3281 DUP2 PUSH2 0x2CF0 JUMP JUMPDEST SWAP3 POP PUSH1 0x40 DUP6 ADD CALLDATALOAD SWAP2 POP PUSH1 0x60 DUP6 ADD CALLDATALOAD PUSH1 0x1 PUSH1 0x1 PUSH1 0x40 SHL SUB DUP2 GT ISZERO PUSH2 0x32A2 JUMPI PUSH0 DUP1 REVERT JUMPDEST PUSH2 0x32AE DUP8 DUP3 DUP9 ADD PUSH2 0x2FAC JUMP JUMPDEST SWAP2 POP POP SWAP3 SWAP6 SWAP2 SWAP5 POP SWAP3 POP JUMP JUMPDEST PUSH0 DUP1 DUP4 PUSH1 0x1F DUP5 ADD SLT PUSH2 0x32CA JUMPI PUSH0 DUP1 REVERT JUMPDEST POP DUP2 CALLDATALOAD PUSH1 0x1 PUSH1 0x1 PUSH1 0x40 SHL SUB DUP2 GT ISZERO PUSH2 0x32E0 JUMPI PUSH0 DUP1 REVERT JUMPDEST PUSH1 0x20 DUP4 ADD SWAP2 POP DUP4 PUSH1 0x20 DUP3 PUSH1 0x5 SHL DUP6 ADD ADD GT ISZERO PUSH2 0x2E59 JUMPI PUSH0 DUP1 REVERT JUMPDEST PUSH0 DUP1 PUSH1 0x20 DUP4 DUP6 SUB SLT ISZERO PUSH2 0x330B JUMPI PUSH0 DUP1 REVERT JUMPDEST DUP3 CALLDATALOAD PUSH1 0x1 PUSH1 0x1 PUSH1 0x40 SHL SUB DUP2 GT ISZERO PUSH2 0x3320 JUMPI PUSH0 DUP1 REVERT JUMPDEST PUSH2 0x332C DUP6 DUP3 DUP7 ADD PUSH2 0x32BA JUMP JUMPDEST SWAP1 SWAP7 SWAP1 SWAP6 POP SWAP4 POP POP POP POP JUMP JUMPDEST PUSH0 PUSH1 0x20 DUP3 DUP5 SUB SLT ISZERO PUSH2 0x3348 JUMPI PUSH0 DUP1 REVERT JUMPDEST PUSH2 0x1AEB DUP3 PUSH2 0x307F JUMP JUMPDEST PUSH0 DUP1 PUSH0 DUP1 PUSH1 0x60 DUP6 DUP8 SUB SLT ISZERO PUSH2 0x3364 JUMPI PUSH0 DUP1 REVERT JUMPDEST PUSH2 0x336D DUP6 PUSH2 0x307F JUMP JUMPDEST SWAP4 POP PUSH2 0x337B PUSH1 0x20 DUP7 ADD PUSH2 0x3183 JUMP JUMPDEST SWAP3 POP PUSH1 0x40 DUP6 ADD CALLDATALOAD PUSH1 0x1 PUSH1 0x1 PUSH1 0x40 SHL SUB DUP2 GT ISZERO PUSH2 0x3395 JUMPI PUSH0 DUP1 REVERT JUMPDEST PUSH2 0x33A1 DUP8 DUP3 DUP9 ADD PUSH2 0x2E1C JUMP JUMPDEST SWAP6 SWAP9 SWAP5 SWAP8 POP SWAP6 POP POP POP POP JUMP JUMPDEST PUSH0 DUP1 PUSH0 DUP4 DUP6 SUB PUSH1 0x80 DUP2 SLT ISZERO PUSH2 0x33C0 JUMPI PUSH0 DUP1 REVERT JUMPDEST DUP5 CALLDATALOAD PUSH1 0x1 PUSH1 0x1 PUSH1 0x40 SHL SUB DUP2 GT ISZERO PUSH2 0x33D5 JUMPI PUSH0 DUP1 REVERT JUMPDEST PUSH2 0x33E1 DUP8 DUP3 DUP9 ADD PUSH2 0x2D2E JUMP JUMPDEST SWAP5 POP POP PUSH1 0x40 PUSH1 0x1F NOT DUP3 ADD SLT ISZERO PUSH2 0x33F5 JUMPI PUSH0 DUP1 REVERT JUMPDEST POP PUSH1 0x20 DUP5 ADD SWAP2 POP PUSH1 0x60 DUP5 ADD CALLDATALOAD PUSH2 0x340A DUP2 PUSH2 0x2CF0 JUMP JUMPDEST DUP1 SWAP2 POP POP SWAP3 POP SWAP3 POP SWAP3 JUMP JUMPDEST PUSH0 PUSH1 0xC0 DUP3 ADD SWAP1 POP DUP4 MLOAD DUP3 MSTORE PUSH1 0x1 PUSH1 0x1 PUSH1 0x40 SHL SUB PUSH1 0x20 DUP6 ADD MLOAD AND PUSH1 0x20 DUP4 ADD MSTORE PUSH1 0x40 DUP5 ADD MLOAD PUSH2 0x344F PUSH1 0x40 DUP5 ADD DUP3 DUP1 MLOAD DUP3 MSTORE PUSH1 0x20 SWAP1 DUP2 ADD MLOAD SWAP2 ADD MSTORE JUMP JUMPDEST POP DUP3 MLOAD PUSH1 0x80 DUP4 ADD MSTORE PUSH1 0x20 DUP4 ADD MLOAD PUSH1 0xA0 DUP4 ADD MSTORE PUSH2 0x1AEB JUMP JUMPDEST PUSH0 DUP1 PUSH1 0x40 DUP4 DUP6 SUB SLT ISZERO PUSH2 0x3477 JUMPI PUSH0 DUP1 REVERT JUMPDEST DUP3 CALLDATALOAD PUSH2 0x3482 DUP2 PUSH2 0x2CF0 JUMP JUMPDEST SWAP2 POP PUSH1 0x20 DUP4 ADD CALLDATALOAD PUSH1 0x1 PUSH1 0x1 PUSH1 0x40 SHL SUB DUP2 GT ISZERO PUSH2 0x302B JUMPI PUSH0 DUP1 REVERT JUMPDEST PUSH0 DUP1 PUSH1 0x40 DUP4 DUP6 SUB SLT ISZERO PUSH2 0x34AD JUMPI PUSH0 DUP1 REVERT JUMPDEST DUP3 CALLDATALOAD PUSH2 0x34B8 DUP2 PUSH2 0x2CF0 JUMP JUMPDEST SWAP2 POP PUSH1 0x20 DUP4 ADD CALLDATALOAD PUSH2 0x3101 DUP2 PUSH2 0x2CF0 JUMP JUMPDEST PUSH0 PUSH1 0x60 DUP3 DUP5 SUB SLT ISZERO PUSH2 0x34D8 JUMPI PUSH0 DUP1 REVERT JUMPDEST PUSH2 0x1AEB DUP4 DUP4 PUSH2 0x2E0C JUMP JUMPDEST PUSH1 0x1 DUP2 DUP2 SHR SWAP1 DUP3 AND DUP1 PUSH2 0x34F6 JUMPI PUSH1 0x7F DUP3 AND SWAP2 POP JUMPDEST PUSH1 0x20 DUP3 LT DUP2 SUB PUSH2 0x2D3E JUMPI PUSH4 0x4E487B71 PUSH1 0xE0 SHL PUSH0 MSTORE PUSH1 0x22 PUSH1 0x4 MSTORE PUSH1 0x24 PUSH0 REVERT JUMPDEST PUSH1 0x20 DUP1 DUP3 MSTORE PUSH1 0x28 SWAP1 DUP3 ADD MSTORE PUSH32 0x426C6F70353A207472616E73666572206F6620746F6B656E2074686174206973 PUSH1 0x40 DUP3 ADD MSTORE PUSH8 0x103737BA1037BBB7 PUSH1 0xC1 SHL PUSH1 0x60 DUP3 ADD MSTORE PUSH1 0x80 ADD SWAP1 JUMP JUMPDEST DUP3 DUP2 MSTORE PUSH1 0x40 PUSH1 0x20 DUP3 ADD MSTORE PUSH0 PUSH2 0x107E PUSH1 0x40 DUP4 ADD DUP5 PUSH2 0x2C9C JUMP JUMPDEST PUSH0 PUSH1 0x1 PUSH1 0x1 PUSH1 0x40 SHL SUB DUP1 DUP5 GT ISZERO PUSH2 0x358D JUMPI PUSH2 0x358D PUSH2 0x2EF8 JUMP JUMPDEST DUP4 PUSH1 0x5 SHL PUSH1 0x20 PUSH2 0x359E DUP2 DUP4 ADD PUSH2 0x2F56 JUMP JUMPDEST DUP7 DUP2 MSTORE SWAP2 DUP6 ADD SWAP2 DUP2 DUP2 ADD SWAP1 CALLDATASIZE DUP5 GT ISZERO PUSH2 0x35B5 JUMPI PUSH0 DUP1 REVERT JUMPDEST DUP7 JUMPDEST DUP5 DUP2 LT ISZERO PUSH2 0x3635 JUMPI DUP1 CALLDATALOAD DUP7 DUP2 GT ISZERO PUSH2 0x35CD JUMPI PUSH0 DUP1 REVERT JUMPDEST DUP9 ADD PUSH1 0x60 CALLDATASIZE DUP3 SWAP1 SUB SLT ISZERO PUSH2 0x35DF JUMPI PUSH0 DUP1 REVERT JUMPDEST PUSH2 0x35E7 PUSH2 0x2F0C JUMP JUMPDEST PUSH2 0x35F0 DUP3 PUSH2 0x307F JUMP JUMPDEST DUP2 MSTORE PUSH2 0x35FD DUP7 DUP4 ADD PUSH2 0x3183 JUMP JUMPDEST DUP7 DUP3 ADD MSTORE PUSH1 0x40 DUP1 DUP4 ADD CALLDATALOAD DUP10 DUP2 GT ISZERO PUSH2 0x3613 JUMPI PUSH0 DUP1 REVERT JUMPDEST PUSH2 0x361F CALLDATASIZE DUP3 DUP7 ADD PUSH2 0x2FAC JUMP JUMPDEST SWAP2 DUP4 ADD SWAP2 SWAP1 SWAP2 MSTORE POP DUP5 MSTORE POP SWAP2 DUP4 ADD SWAP2 DUP4 ADD PUSH2 0x35B7 JUMP JUMPDEST POP SWAP8 SWAP7 POP POP POP POP POP POP POP JUMP JUMPDEST PUSH0 DUP1 DUP6 DUP6 GT ISZERO PUSH2 0x364F JUMPI PUSH0 DUP1 REVERT JUMPDEST DUP4 DUP7 GT ISZERO PUSH2 0x365B JUMPI PUSH0 DUP1 REVERT JUMPDEST POP POP DUP3 ADD SWAP4 SWAP2 SWAP1 SWAP3 SUB SWAP2 POP JUMP JUMPDEST PUSH0 DUP5 MLOAD PUSH2 0x3679 DUP2 DUP5 PUSH1 0x20 DUP10 ADD PUSH2 0x2C7A JUMP JUMPDEST DUP3 ADD DUP4 DUP6 DUP3 CALLDATACOPY PUSH0 SWAP4 ADD SWAP3 DUP4 MSTORE POP SWAP1 SWAP4 SWAP3 POP POP POP JUMP JUMPDEST DUP2 DUP4 MSTORE DUP2 DUP2 PUSH1 0x20 DUP6 ADD CALLDATACOPY POP PUSH0 DUP3 DUP3 ADD PUSH1 0x20 SWAP1 DUP2 ADD SWAP2 SWAP1 SWAP2 MSTORE PUSH1 0x1F SWAP1 SWAP2 ADD PUSH1 0x1F NOT AND SWAP1 SWAP2 ADD ADD SWAP1 JUMP JUMPDEST PUSH1 0x20 DUP2 MSTORE PUSH0 PUSH2 0x107E PUSH1 0x20 DUP4 ADD DUP5 DUP7 PUSH2 0x368E JUMP JUMPDEST PUSH4 0x4E487B71 PUSH1 0xE0 SHL PUSH0 MSTORE PUSH1 0x32 PUSH1 0x4 MSTORE PUSH1 0x24 PUSH0 REVERT JUMPDEST PUSH0 DUP3 CALLDATALOAD PUSH2 0x13E NOT DUP4 CALLDATASIZE SUB ADD DUP2 SLT PUSH2 0x36F2 JUMPI PUSH0 DUP1 REVERT JUMPDEST SWAP2 SWAP1 SWAP2 ADD SWAP3 SWAP2 POP POP JUMP JUMPDEST PUSH0 DUP1 DUP4 CALLDATALOAD PUSH1 0x1E NOT DUP5 CALLDATASIZE SUB ADD DUP2 SLT PUSH2 0x3711 JUMPI PUSH0 DUP1 REVERT JUMPDEST DUP4 ADD DUP1 CALLDATALOAD SWAP2 POP PUSH1 0x1 PUSH1 0x1 PUSH1 0x40 SHL SUB DUP3 GT ISZERO PUSH2 0x372A JUMPI PUSH0 DUP1 REVERT JUMPDEST PUSH1 0x20 ADD SWAP2 POP CALLDATASIZE DUP2 SWAP1 SUB DUP3 SGT ISZERO PUSH2 0x2E59 JUMPI PUSH0 DUP1 REVERT JUMPDEST PUSH1 0x1 PUSH1 0x1 PUSH1 0x40 SHL SUB DUP2 AND DUP2 EQ PUSH2 0x1732 JUMPI PUSH0 DUP1 REVERT JUMPDEST PUSH4 0xFFFFFFFF PUSH2 0x3760 DUP10 PUSH2 0x307F JUMP JUMPDEST AND DUP2 MSTORE PUSH1 0x20 DUP9 ADD CALLDATALOAD PUSH1 0x20 DUP3 ADD MSTORE PUSH0 PUSH1 0x40 DUP10 ADD CALLDATALOAD PUSH2 0x377C DUP2 PUSH2 0x373E JUMP JUMPDEST PUSH1 0x1 PUSH1 0x1 PUSH1 0x40 SHL SUB DUP2 AND PUSH1 0x40 DUP5 ADD MSTORE POP DUP8 PUSH1 0x60 DUP4 ADD MSTORE PUSH1 0xE0 PUSH1 0x80 DUP4 ADD MSTORE PUSH2 0x37A7 PUSH1 0xE0 DUP4 ADD DUP8 DUP10 PUSH2 0x368E JUMP JUMPDEST PUSH1 0x1 PUSH1 0x1 PUSH1 0xA0 SHL SUB DUP7 AND PUSH1 0xA0 DUP5 ADD MSTORE DUP3 DUP2 SUB PUSH1 0xC0 DUP5 ADD MSTORE PUSH2 0x37C9 DUP2 DUP6 DUP8 PUSH2 0x368E JUMP JUMPDEST SWAP11 SWAP10 POP POP POP POP POP POP POP POP POP POP JUMP JUMPDEST PUSH0 PUSH1 0x20 DUP3 DUP5 SUB SLT ISZERO PUSH2 0x37E7 JUMPI PUSH0 DUP1 REVERT JUMPDEST DUP2 MLOAD PUSH1 0x1 PUSH1 0x1 PUSH1 0x40 SHL SUB DUP2 GT ISZERO PUSH2 0x37FC JUMPI PUSH0 DUP1 REVERT JUMPDEST DUP3 ADD PUSH1 0x1F DUP2 ADD DUP5 SGT PUSH2 0x380C JUMPI PUSH0 DUP1 REVERT JUMPDEST DUP1 MLOAD PUSH2 0x381A PUSH2 0x2FC9 DUP3 PUSH2 0x2F86 JUMP JUMPDEST DUP2 DUP2 MSTORE DUP6 PUSH1 0x20 DUP4 DUP6 ADD ADD GT ISZERO PUSH2 0x382E JUMPI PUSH0 DUP1 REVERT JUMPDEST PUSH2 0x1D5F DUP3 PUSH1 0x20 DUP4 ADD PUSH1 0x20 DUP7 ADD PUSH2 0x2C7A JUMP JUMPDEST PUSH0 PUSH1 0x40 DUP3 DUP5 SUB SLT ISZERO PUSH2 0x384F JUMPI PUSH0 DUP1 REVERT JUMPDEST PUSH2 0x3857 PUSH2 0x2F34 JUMP JUMPDEST DUP3 CALLDATALOAD DUP2 MSTORE PUSH1 0x20 DUP4 ADD CALLDATALOAD PUSH1 0x20 DUP3 ADD MSTORE DUP1 SWAP2 POP POP SWAP3 SWAP2 POP POP JUMP JUMPDEST PUSH0 PUSH1 0x20 DUP3 DUP5 SUB SLT ISZERO PUSH2 0x387F JUMPI PUSH0 DUP1 REVERT JUMPDEST DUP2 CALLDATALOAD PUSH2 0x1AEB DUP2 PUSH2 0x373E JUMP JUMPDEST PUSH1 0x1 DUP1 PUSH1 0xA0 SHL SUB DUP6 AND DUP2 MSTORE DUP4 PUSH1 0x20 DUP3 ADD MSTORE PUSH2 0xFFFF DUP4 AND PUSH1 0x40 DUP3 ADD MSTORE PUSH1 0x80 PUSH1 0x60 DUP3 ADD MSTORE PUSH0 PUSH2 0xD32 PUSH1 0x80 DUP4 ADD DUP5 PUSH2 0x2C9C JUMP JUMPDEST PUSH1 0x1F DUP3 GT ISZERO PUSH2 0xF0B JUMPI DUP1 PUSH0 MSTORE PUSH1 0x20 PUSH0 KECCAK256 PUSH1 0x1F DUP5 ADD PUSH1 0x5 SHR DUP2 ADD PUSH1 0x20 DUP6 LT ISZERO PUSH2 0x38DF JUMPI POP DUP1 JUMPDEST PUSH1 0x1F DUP5 ADD PUSH1 0x5 SHR DUP3 ADD SWAP2 POP JUMPDEST DUP2 DUP2 LT ISZERO PUSH2 0x156F JUMPI PUSH0 DUP2 SSTORE PUSH1 0x1 ADD PUSH2 0x38EB JUMP JUMPDEST DUP2 MLOAD PUSH1 0x1 PUSH1 0x1 PUSH1 0x40 SHL SUB DUP2 GT ISZERO PUSH2 0x3917 JUMPI PUSH2 0x3917 PUSH2 0x2EF8 JUMP JUMPDEST PUSH2 0x392B DUP2 PUSH2 0x3925 DUP5 SLOAD PUSH2 0x34E2 JUMP JUMPDEST DUP5 PUSH2 0x38BA JUMP JUMPDEST PUSH1 0x20 DUP1 PUSH1 0x1F DUP4 GT PUSH1 0x1 DUP2 EQ PUSH2 0x395E JUMPI PUSH0 DUP5 ISZERO PUSH2 0x3947 JUMPI POP DUP6 DUP4 ADD MLOAD JUMPDEST PUSH0 NOT PUSH1 0x3 DUP7 SWAP1 SHL SHR NOT AND PUSH1 0x1 DUP6 SWAP1 SHL OR DUP6 SSTORE PUSH2 0x39B5 JUMP JUMPDEST PUSH0 DUP6 DUP2 MSTORE PUSH1 0x20 DUP2 KECCAK256 PUSH1 0x1F NOT DUP7 AND SWAP2 JUMPDEST DUP3 DUP2 LT ISZERO PUSH2 0x398C JUMPI DUP9 DUP7 ADD MLOAD DUP3 SSTORE SWAP5 DUP5 ADD SWAP5 PUSH1 0x1 SWAP1 SWAP2 ADD SWAP1 DUP5 ADD PUSH2 0x396D JUMP JUMPDEST POP DUP6 DUP3 LT ISZERO PUSH2 0x39A9 JUMPI DUP8 DUP6 ADD MLOAD PUSH0 NOT PUSH1 0x3 DUP9 SWAP1 SHL PUSH1 0xF8 AND SHR NOT AND DUP2 SSTORE JUMPDEST POP POP PUSH1 0x1 DUP5 PUSH1 0x1 SHL ADD DUP6 SSTORE JUMPDEST POP POP POP POP POP POP JUMP JUMPDEST PUSH1 0x40 DUP2 MSTORE PUSH0 PUSH2 0x39CF PUSH1 0x40 DUP4 ADD DUP6 PUSH2 0x2C9C JUMP JUMPDEST DUP3 DUP2 SUB PUSH1 0x20 DUP5 ADD MSTORE PUSH2 0x1D5F DUP2 DUP6 PUSH2 0x2C9C JUMP JUMPDEST PUSH0 PUSH1 0x20 DUP3 DUP5 SUB SLT ISZERO PUSH2 0x39F1 JUMPI PUSH0 DUP1 REVERT JUMPDEST DUP2 MLOAD PUSH2 0x1AEB DUP2 PUSH2 0x30B1 JUMP JUMPDEST PUSH1 0x40 DUP2 MSTORE PUSH4 0xFFFFFFFF DUP4 MLOAD AND PUSH1 0x40 DUP3 ADD MSTORE PUSH1 0x20 DUP4 ADD MLOAD PUSH1 0x60 DUP3 ADD MSTORE PUSH0 PUSH1 0x40 DUP5 ADD MLOAD PUSH1 0xA0 PUSH1 0x80 DUP5 ADD MSTORE PUSH2 0x3A31 PUSH1 0xE0 DUP5 ADD DUP3 PUSH2 0x2C9C JUMP JUMPDEST SWAP1 POP PUSH1 0x60 DUP6 ADD MLOAD PUSH1 0x3F NOT DUP5 DUP4 SUB ADD PUSH1 0xA0 DUP6 ADD MSTORE PUSH2 0x3A4E DUP3 DUP3 PUSH2 0x2C9C JUMP JUMPDEST PUSH1 0x80 SWAP7 SWAP1 SWAP7 ADD MLOAD ISZERO ISZERO PUSH1 0xC0 DUP6 ADD MSTORE POP POP POP PUSH1 0x1 PUSH1 0x1 PUSH1 0xA0 SHL SUB SWAP2 SWAP1 SWAP2 AND PUSH1 0x20 SWAP1 SWAP2 ADD MSTORE SWAP1 JUMP JUMPDEST PUSH0 PUSH1 0x40 DUP3 DUP5 SUB SLT ISZERO PUSH2 0x3A84 JUMPI PUSH0 DUP1 REVERT JUMPDEST PUSH2 0x3A8C PUSH2 0x2F34 JUMP JUMPDEST SWAP1 POP DUP2 MLOAD DUP2 MSTORE PUSH1 0x20 DUP3 ADD MLOAD PUSH1 0x20 DUP3 ADD MSTORE SWAP3 SWAP2 POP POP JUMP JUMPDEST PUSH0 PUSH1 0x40 DUP3 DUP5 SUB SLT ISZERO PUSH2 0x3AB2 JUMPI PUSH0 DUP1 REVERT JUMPDEST PUSH2 0x1AEB DUP4 DUP4 PUSH2 0x3A74 JUMP JUMPDEST PUSH1 0x1 PUSH1 0x1 PUSH1 0xA0 SHL SUB DUP6 DUP2 AND DUP3 MSTORE DUP5 AND PUSH1 0x20 DUP3 ADD MSTORE PUSH1 0x40 DUP2 ADD DUP4 SWAP1 MSTORE PUSH1 0x80 PUSH1 0x60 DUP3 ADD DUP2 SWAP1 MSTORE PUSH0 SWAP1 PUSH2 0xD32 SWAP1 DUP4 ADD DUP5 PUSH2 0x2C9C JUMP JUMPDEST PUSH0 PUSH1 0x20 DUP3 DUP5 SUB SLT ISZERO PUSH2 0x3AFE JUMPI PUSH0 DUP1 REVERT JUMPDEST DUP2 MLOAD PUSH2 0x1AEB DUP2 PUSH2 0x2C4A JUMP JUMPDEST PUSH0 PUSH1 0x20 DUP1 DUP4 ADD DUP2 DUP5 MSTORE DUP1 DUP6 MLOAD DUP1 DUP4 MSTORE PUSH1 0x40 SWAP3 POP PUSH1 0x40 DUP7 ADD SWAP2 POP PUSH1 0x40 DUP2 PUSH1 0x5 SHL DUP8 ADD ADD DUP5 DUP9 ADD PUSH0 JUMPDEST DUP4 DUP2 LT ISZERO PUSH2 0x3B84 JUMPI DUP9 DUP4 SUB PUSH1 0x3F NOT ADD DUP6 MSTORE DUP2 MLOAD DUP1 MLOAD PUSH4 0xFFFFFFFF AND DUP5 MSTORE DUP8 DUP2 ADD MLOAD PUSH2 0xFFFF AND DUP9 DUP6 ADD MSTORE DUP7 ADD MLOAD PUSH1 0x60 DUP8 DUP6 ADD DUP2 SWAP1 MSTORE PUSH2 0x3B70 DUP2 DUP7 ADD DUP4 PUSH2 0x2C9C JUMP JUMPDEST SWAP7 DUP10 ADD SWAP7 SWAP5 POP POP POP SWAP1 DUP7 ADD SWAP1 PUSH1 0x1 ADD PUSH2 0x3B30 JUMP JUMPDEST POP SWAP1 SWAP9 SWAP8 POP POP POP POP POP POP POP POP JUMP JUMPDEST PUSH0 PUSH1 0x80 DUP3 DUP5 SUB SLT ISZERO PUSH2 0x3BA2 JUMPI PUSH0 DUP1 REVERT JUMPDEST PUSH2 0x3BAA PUSH2 0x2F0C JUMP JUMPDEST DUP3 MLOAD DUP2 MSTORE PUSH1 0x20 DUP4 ADD MLOAD PUSH2 0x3BBC DUP2 PUSH2 0x373E JUMP JUMPDEST PUSH1 0x20 DUP3 ADD MSTORE PUSH2 0x3BCE DUP5 PUSH1 0x40 DUP6 ADD PUSH2 0x3A74 JUMP JUMPDEST PUSH1 0x40 DUP3 ADD MSTORE SWAP4 SWAP3 POP POP POP JUMP JUMPDEST PUSH0 DUP4 MLOAD PUSH2 0x3BEB DUP2 DUP5 PUSH1 0x20 DUP9 ADD PUSH2 0x2C7A JUMP JUMPDEST DUP4 MLOAD SWAP1 DUP4 ADD SWAP1 PUSH2 0x3BFF DUP2 DUP4 PUSH1 0x20 DUP9 ADD PUSH2 0x2C7A JUMP JUMPDEST ADD SWAP5 SWAP4 POP POP POP POP JUMP JUMPDEST PUSH0 DUP3 PUSH2 0x3C22 JUMPI PUSH4 0x4E487B71 PUSH1 0xE0 SHL PUSH0 MSTORE PUSH1 0x12 PUSH1 0x4 MSTORE PUSH1 0x24 PUSH0 REVERT JUMPDEST POP DIV SWAP1 JUMP JUMPDEST DUP1 DUP3 MUL DUP2 ISZERO DUP3 DUP3 DIV DUP5 EQ OR PUSH2 0x978 JUMPI PUSH4 0x4E487B71 PUSH1 0xE0 SHL PUSH0 MSTORE PUSH1 0x11 PUSH1 0x4 MSTORE PUSH1 0x24 PUSH0 REVERT JUMPDEST DUP1 CALLDATALOAD PUSH1 0x20 DUP4 LT ISZERO PUSH2 0x978 JUMPI PUSH0 NOT PUSH1 0x20 DUP5 SWAP1 SUB PUSH1 0x3 SHL SHL AND SWAP3 SWAP2 POP POP JUMP JUMPDEST PUSH1 0x1 PUSH1 0x1 PUSH1 0xC0 SHL SUB NOT DUP2 CALLDATALOAD DUP2 DUP2 AND SWAP2 PUSH1 0x8 DUP6 LT ISZERO PUSH2 0x3C8F JUMPI DUP1 DUP2 DUP7 PUSH1 0x8 SUB PUSH1 0x3 SHL SHL DUP4 AND AND SWAP3 POP JUMPDEST POP POP SWAP3 SWAP2 POP POP JUMP JUMPDEST PUSH1 0x1 PUSH1 0x1 PUSH1 0x40 SHL SUB PUSH1 0xC0 SHL DUP6 PUSH1 0xC0 SHL AND DUP2 MSTORE PUSH4 0xFFFFFFFF PUSH1 0xE0 SHL DUP5 PUSH1 0xE0 SHL AND PUSH1 0x8 DUP3 ADD MSTORE DUP3 PUSH1 0xC DUP3 ADD MSTORE PUSH0 DUP3 MLOAD PUSH2 0x3CD5 DUP2 PUSH1 0x2C DUP6 ADD PUSH1 0x20 DUP8 ADD PUSH2 0x2C7A JUMP JUMPDEST SWAP2 SWAP1 SWAP2 ADD PUSH1 0x2C ADD SWAP6 SWAP5 POP POP POP POP POP JUMP JUMPDEST DUP5 DUP2 MSTORE PUSH1 0x1 PUSH1 0x1 PUSH1 0x40 SHL SUB PUSH1 0xC0 SHL DUP5 PUSH1 0xC0 SHL AND PUSH1 0x20 DUP3 ADD MSTORE DUP3 PUSH1 0x28 DUP3 ADD MSTORE PUSH0 DUP3 MLOAD PUSH2 0x3D17 DUP2 PUSH1 0x48 DUP6 ADD PUSH1 0x20 DUP8 ADD PUSH2 0x2C7A JUMP JUMPDEST SWAP2 SWAP1 SWAP2 ADD PUSH1 0x48 ADD SWAP6 SWAP5 POP POP POP POP POP JUMP JUMPDEST PUSH0 PUSH1 0x20 DUP3 DUP5 SUB SLT ISZERO PUSH2 0x3D37 JUMPI PUSH0 DUP1 REVERT JUMPDEST DUP2 MLOAD PUSH2 0x1AEB DUP2 PUSH2 0x2CF0 JUMP JUMPDEST PUSH0 DUP3 MLOAD PUSH2 0x36F2 DUP2 DUP5 PUSH1 0x20 DUP8 ADD PUSH2 0x2C7A JUMP INVALID LOG2 PUSH5 0x6970667358 0x22 SLT KECCAK256 PUSH9 0x713142FB5C2613AECE OR 0xB8 0x2E PUSH15 0x6FF32A437777F5D07A492878628F2E 0x5E PUSH15 0x4964736F6C63430008160033000000 "
		},
		"gasEstimates": {
			"creation": {
				"codeDepositCost": "3150600",
				"executionCost": "infinite",
				"totalCost": "infinite"
			},
			"external": {
				"SEND()": "315",
				"SEND_AND_CALL()": "294",
				"allowInitializePath((uint32,bytes32,uint64))": "infinite",
				"approvalRequired()": "298",
				"approve(address,uint256)": "31548",
				"balanceOf(address)": "2625",
				"combineOptions(uint32,uint16,bytes)": "infinite",
				"crossChainTransfer(address,uint256,uint256,uint32)": "infinite",
				"decimalConversionRate()": "infinite",
				"endpoint()": "infinite",
				"enforcedOptions(uint32,uint16)": "infinite",
				"getApproved(uint256)": "infinite",
				"isApprovedForAll(address,address)": "infinite",
				"isComposeMsgSender((uint32,bytes32,uint64),bytes,address)": "850",
				"isPeer(uint32,bytes32)": "2605",
				"latestTokenMinted(address)": "4907",
				"lzReceive((uint32,bytes32,uint64),bytes32,bytes,address,bytes)": "infinite",
				"lzReceiveAndRevert(((uint32,bytes32,uint64),uint32,address,bytes32,uint256,address,bytes,bytes)[])": "infinite",
				"lzReceiveSimulate((uint32,bytes32,uint64),bytes32,bytes,address,bytes)": "infinite",
				"mint(address,string)": "infinite",
				"msgInspector()": "2493",
				"name()": "infinite",
				"nextNonce(uint32,bytes32)": "477",
				"oApp()": "301",
				"oAppVersion()": "284",
				"oftVersion()": "313",
				"owner()": "2485",
				"ownerOf(uint256)": "infinite",
				"peers(uint32)": "2549",
				"preCrime()": "2425",
				"quoteOFT((uint32,bytes32,uint256,uint256,bytes,bytes,bytes))": "infinite",
				"quoteSend((uint32,bytes32,uint256,uint256,bytes,bytes,bytes),bool)": "infinite",
				"renounceOwnership()": "infinite",
				"safeTransferFrom(address,address,uint256)": "infinite",
				"safeTransferFrom(address,address,uint256,bytes)": "infinite",
				"send((uint32,bytes32,uint256,uint256,bytes,bytes,bytes),(uint256,uint256),address)": "infinite",
				"setApprovalForAll(address,bool)": "infinite",
				"setDelegate(address)": "infinite",
				"setEnforcedOptions((uint32,uint16,bytes)[])": "infinite",
				"setMsgInspector(address)": "27913",
				"setPeer(uint32,bytes32)": "26091",
				"setPreCrime(address)": "27902",
				"setRate(uint256)": "24553",
				"setTokenURI(uint256,string)": "infinite",
				"sharedDecimals()": "310",
				"supportsInterface(bytes4)": "infinite",
				"symbol()": "infinite",
				"token()": "321",
				"tokenURI(uint256)": "infinite",
				"transferFrom(address,address,uint256)": "infinite",
				"transferOwnership(address)": "infinite",
				"withdraw()": "infinite"
			},
			"internal": {
				"_baseURI()": "infinite",
				"_credit(address,uint256,uint32)": "infinite",
				"_debit(address,uint256,uint256,uint32)": "infinite"
			}
		},
		"methodIdentifiers": {
			"SEND()": "1f5e1334",
			"SEND_AND_CALL()": "134d4f25",
			"allowInitializePath((uint32,bytes32,uint64))": "ff7bd03d",
			"approvalRequired()": "9f68b964",
			"approve(address,uint256)": "095ea7b3",
			"balanceOf(address)": "70a08231",
			"combineOptions(uint32,uint16,bytes)": "bc70b354",
			"crossChainTransfer(address,uint256,uint256,uint32)": "40fa5497",
			"decimalConversionRate()": "963efcaa",
			"endpoint()": "5e280f11",
			"enforcedOptions(uint32,uint16)": "5535d461",
			"getApproved(uint256)": "081812fc",
			"isApprovedForAll(address,address)": "e985e9c5",
			"isComposeMsgSender((uint32,bytes32,uint64),bytes,address)": "82413eac",
			"isPeer(uint32,bytes32)": "5a0dfe4d",
			"latestTokenMinted(address)": "41e8241f",
			"lzReceive((uint32,bytes32,uint64),bytes32,bytes,address,bytes)": "13137d65",
			"lzReceiveAndRevert(((uint32,bytes32,uint64),uint32,address,bytes32,uint256,address,bytes,bytes)[])": "bd815db0",
			"lzReceiveSimulate((uint32,bytes32,uint64),bytes32,bytes,address,bytes)": "d045a0dc",
			"mint(address,string)": "d0def521",
			"msgInspector()": "111ecdad",
			"name()": "06fdde03",
			"nextNonce(uint32,bytes32)": "7d25a05e",
			"oApp()": "52ae2879",
			"oAppVersion()": "17442b70",
			"oftVersion()": "156a0d0f",
			"owner()": "8da5cb5b",
			"ownerOf(uint256)": "6352211e",
			"peers(uint32)": "bb0b6a53",
			"preCrime()": "b731ea0a",
			"quoteOFT((uint32,bytes32,uint256,uint256,bytes,bytes,bytes))": "0d35b415",
			"quoteSend((uint32,bytes32,uint256,uint256,bytes,bytes,bytes),bool)": "3b6f743b",
			"renounceOwnership()": "715018a6",
			"safeTransferFrom(address,address,uint256)": "42842e0e",
			"safeTransferFrom(address,address,uint256,bytes)": "b88d4fde",
			"send((uint32,bytes32,uint256,uint256,bytes,bytes,bytes),(uint256,uint256),address)": "c7c7f5b3",
			"setApprovalForAll(address,bool)": "a22cb465",
			"setDelegate(address)": "ca5eb5e1",
			"setEnforcedOptions((uint32,uint16,bytes)[])": "b98bd070",
			"setMsgInspector(address)": "6fc1b31e",
			"setPeer(uint32,bytes32)": "3400288b",
			"setPreCrime(address)": "d4243885",
			"setRate(uint256)": "34fcf437",
			"setTokenURI(uint256,string)": "162094c4",
			"sharedDecimals()": "857749b0",
			"supportsInterface(bytes4)": "01ffc9a7",
			"symbol()": "95d89b41",
			"token()": "fc0c546a",
			"tokenURI(uint256)": "c87b56dd",
			"transferFrom(address,address,uint256)": "23b872dd",
			"transferOwnership(address)": "f2fde38b",
			"withdraw()": "3ccfd60b"
		}
	},
	"abi": [
		{
			"inputs": [
				{
					"internalType": "string",
					"name": "_name",
					"type": "string"
				},
				{
					"internalType": "string",
					"name": "_symbol",
					"type": "string"
				},
				{
					"internalType": "address",
					"name": "_lzEndpoint",
					"type": "address"
				},
				{
					"internalType": "address",
					"name": "_delegate",
					"type": "address"
				},
				{
					"internalType": "string",
					"name": "baseTokenURI",
					"type": "string"
				},
				{
					"internalType": "uint256",
					"name": "_initialMintRate",
					"type": "uint256"
				},
				{
					"internalType": "address",
					"name": "_owner",
					"type": "address"
				}
			],
			"stateMutability": "nonpayable",
			"type": "constructor"
		},
		{
			"inputs": [
				{
					"internalType": "address",
					"name": "target",
					"type": "address"
				}
			],
			"name": "AddressEmptyCode",
			"type": "error"
		},
		{
			"inputs": [
				{
					"internalType": "address",
					"name": "account",
					"type": "address"
				}
			],
			"name": "AddressInsufficientBalance",
			"type": "error"
		},
		{
			"inputs": [
				{
					"internalType": "address",
					"name": "sender",
					"type": "address"
				},
				{
					"internalType": "uint256",
					"name": "tokenId",
					"type": "uint256"
				},
				{
					"internalType": "address",
					"name": "owner",
					"type": "address"
				}
			],
			"name": "ERC721IncorrectOwner",
			"type": "error"
		},
		{
			"inputs": [
				{
					"internalType": "address",
					"name": "operator",
					"type": "address"
				},
				{
					"internalType": "uint256",
					"name": "tokenId",
					"type": "uint256"
				}
			],
			"name": "ERC721InsufficientApproval",
			"type": "error"
		},
		{
			"inputs": [
				{
					"internalType": "address",
					"name": "approver",
					"type": "address"
				}
			],
			"name": "ERC721InvalidApprover",
			"type": "error"
		},
		{
			"inputs": [
				{
					"internalType": "address",
					"name": "operator",
					"type": "address"
				}
			],
			"name": "ERC721InvalidOperator",
			"type": "error"
		},
		{
			"inputs": [
				{
					"internalType": "address",
					"name": "owner",
					"type": "address"
				}
			],
			"name": "ERC721InvalidOwner",
			"type": "error"
		},
		{
			"inputs": [
				{
					"internalType": "address",
					"name": "receiver",
					"type": "address"
				}
			],
			"name": "ERC721InvalidReceiver",
			"type": "error"
		},
		{
			"inputs": [
				{
					"internalType": "address",
					"name": "sender",
					"type": "address"
				}
			],
			"name": "ERC721InvalidSender",
			"type": "error"
		},
		{
			"inputs": [
				{
					"internalType": "uint256",
					"name": "tokenId",
					"type": "uint256"
				}
			],
			"name": "ERC721NonexistentToken",
			"type": "error"
		},
		{
			"inputs": [],
			"name": "FailedInnerCall",
			"type": "error"
		},
		{
			"inputs": [],
			"name": "InvalidDelegate",
			"type": "error"
		},
		{
			"inputs": [],
			"name": "InvalidEndpointCall",
			"type": "error"
		},
		{
			"inputs": [],
			"name": "InvalidLocalDecimals",
			"type": "error"
		},
		{
			"inputs": [
				{
					"internalType": "bytes",
					"name": "options",
					"type": "bytes"
				}
			],
			"name": "InvalidOptions",
			"type": "error"
		},
		{
			"inputs": [],
			"name": "LzTokenUnavailable",
			"type": "error"
		},
		{
			"inputs": [
				{
					"internalType": "uint32",
					"name": "eid",
					"type": "uint32"
				}
			],
			"name": "NoPeer",
			"type": "error"
		},
		{
			"inputs": [
				{
					"internalType": "uint256",
					"name": "msgValue",
					"type": "uint256"
				}
			],
			"name": "NotEnoughNative",
			"type": "error"
		},
		{
			"inputs": [
				{
					"internalType": "address",
					"name": "addr",
					"type": "address"
				}
			],
			"name": "OnlyEndpoint",
			"type": "error"
		},
		{
			"inputs": [
				{
					"internalType": "uint32",
					"name": "eid",
					"type": "uint32"
				},
				{
					"internalType": "bytes32",
					"name": "sender",
					"type": "bytes32"
				}
			],
			"name": "OnlyPeer",
			"type": "error"
		},
		{
			"inputs": [],
			"name": "OnlySelf",
			"type": "error"
		},
		{
			"inputs": [
				{
					"internalType": "address",
					"name": "owner",
					"type": "address"
				}
			],
			"name": "OwnableInvalidOwner",
			"type": "error"
		},
		{
			"inputs": [
				{
					"internalType": "address",
					"name": "account",
					"type": "address"
				}
			],
			"name": "OwnableUnauthorizedAccount",
			"type": "error"
		},
		{
			"inputs": [
				{
					"internalType": "address",
					"name": "token",
					"type": "address"
				}
			],
			"name": "SafeERC20FailedOperation",
			"type": "error"
		},
		{
			"inputs": [
				{
					"internalType": "bytes",
					"name": "result",
					"type": "bytes"
				}
			],
			"name": "SimulationResult",
			"type": "error"
		},
		{
			"inputs": [
				{
					"internalType": "uint256",
					"name": "amountLD",
					"type": "uint256"
				},
				{
					"internalType": "uint256",
					"name": "minAmountLD",
					"type": "uint256"
				}
			],
			"name": "SlippageExceeded",
			"type": "error"
		},
		{
			"anonymous": false,
			"inputs": [
				{
					"indexed": true,
					"internalType": "address",
					"name": "owner",
					"type": "address"
				},
				{
					"indexed": true,
					"internalType": "address",
					"name": "approved",
					"type": "address"
				},
				{
					"indexed": true,
					"internalType": "uint256",
					"name": "tokenId",
					"type": "uint256"
				}
			],
			"name": "Approval",
			"type": "event"
		},
		{
			"anonymous": false,
			"inputs": [
				{
					"indexed": true,
					"internalType": "address",
					"name": "owner",
					"type": "address"
				},
				{
					"indexed": true,
					"internalType": "address",
					"name": "operator",
					"type": "address"
				},
				{
					"indexed": false,
					"internalType": "bool",
					"name": "approved",
					"type": "bool"
				}
			],
			"name": "ApprovalForAll",
			"type": "event"
		},
		{
			"anonymous": false,
			"inputs": [
				{
					"indexed": false,
					"internalType": "uint256",
					"name": "_fromTokenId",
					"type": "uint256"
				},
				{
					"indexed": false,
					"internalType": "uint256",
					"name": "_toTokenId",
					"type": "uint256"
				}
			],
			"name": "BatchMetadataUpdate",
			"type": "event"
		},
		{
			"anonymous": false,
			"inputs": [
				{
					"indexed": true,
					"internalType": "uint32",
					"name": "dstEid",
					"type": "uint32"
				},
				{
					"indexed": true,
					"internalType": "address",
					"name": "from",
					"type": "address"
				},
				{
					"indexed": true,
					"internalType": "address",
					"name": "to",
					"type": "address"
				},
				{
					"indexed": false,
					"internalType": "uint256",
					"name": "tokenId",
					"type": "uint256"
				},
				{
					"indexed": false,
					"internalType": "string",
					"name": "tokenURI",
					"type": "string"
				}
			],
			"name": "CrossChainTransfer",
			"type": "event"
		},
		{
			"anonymous": false,
			"inputs": [
				{
					"components": [
						{
							"internalType": "uint32",
							"name": "eid",
							"type": "uint32"
						},
						{
							"internalType": "uint16",
							"name": "msgType",
							"type": "uint16"
						},
						{
							"internalType": "bytes",
							"name": "options",
							"type": "bytes"
						}
					],
					"indexed": false,
					"internalType": "struct EnforcedOptionParam[]",
					"name": "_enforcedOptions",
					"type": "tuple[]"
				}
			],
			"name": "EnforcedOptionSet",
			"type": "event"
		},
		{
			"anonymous": false,
			"inputs": [
				{
					"indexed": false,
					"internalType": "uint256",
					"name": "_tokenId",
					"type": "uint256"
				}
			],
			"name": "MetadataUpdate",
			"type": "event"
		},
		{
			"anonymous": false,
			"inputs": [
				{
					"indexed": false,
					"internalType": "address",
					"name": "inspector",
					"type": "address"
				}
			],
			"name": "MsgInspectorSet",
			"type": "event"
		},
		{
			"anonymous": false,
			"inputs": [
				{
					"indexed": true,
					"internalType": "bytes32",
					"name": "guid",
					"type": "bytes32"
				},
				{
					"indexed": false,
					"internalType": "uint32",
					"name": "srcEid",
					"type": "uint32"
				},
				{
					"indexed": true,
					"internalType": "address",
					"name": "toAddress",
					"type": "address"
				},
				{
					"indexed": false,
					"internalType": "uint256",
					"name": "amountReceivedLD",
					"type": "uint256"
				}
			],
			"name": "OFTReceived",
			"type": "event"
		},
		{
			"anonymous": false,
			"inputs": [
				{
					"indexed": true,
					"internalType": "bytes32",
					"name": "guid",
					"type": "bytes32"
				},
				{
					"indexed": false,
					"internalType": "uint32",
					"name": "dstEid",
					"type": "uint32"
				},
				{
					"indexed": true,
					"internalType": "address",
					"name": "fromAddress",
					"type": "address"
				},
				{
					"indexed": false,
					"internalType": "uint256",
					"name": "amountSentLD",
					"type": "uint256"
				},
				{
					"indexed": false,
					"internalType": "uint256",
					"name": "amountReceivedLD",
					"type": "uint256"
				}
			],
			"name": "OFTSent",
			"type": "event"
		},
		{
			"anonymous": false,
			"inputs": [
				{
					"indexed": true,
					"internalType": "address",
					"name": "previousOwner",
					"type": "address"
				},
				{
					"indexed": true,
					"internalType": "address",
					"name": "newOwner",
					"type": "address"
				}
			],
			"name": "OwnershipTransferred",
			"type": "event"
		},
		{
			"anonymous": false,
			"inputs": [
				{
					"indexed": false,
					"internalType": "uint32",
					"name": "eid",
					"type": "uint32"
				},
				{
					"indexed": false,
					"internalType": "bytes32",
					"name": "peer",
					"type": "bytes32"
				}
			],
			"name": "PeerSet",
			"type": "event"
		},
		{
			"anonymous": false,
			"inputs": [
				{
					"indexed": false,
					"internalType": "address",
					"name": "preCrimeAddress",
					"type": "address"
				}
			],
			"name": "PreCrimeSet",
			"type": "event"
		},
		{
			"anonymous": false,
			"inputs": [
				{
					"indexed": false,
					"internalType": "address",
					"name": "recipient",
					"type": "address"
				},
				{
					"indexed": false,
					"internalType": "uint256",
					"name": "tokenId",
					"type": "uint256"
				}
			],
			"name": "TokenMinted",
			"type": "event"
		},
		{
			"anonymous": false,
			"inputs": [
				{
					"indexed": true,
					"internalType": "address",
					"name": "from",
					"type": "address"
				},
				{
					"indexed": true,
					"internalType": "address",
					"name": "to",
					"type": "address"
				},
				{
					"indexed": true,
					"internalType": "uint256",
					"name": "tokenId",
					"type": "uint256"
				}
			],
			"name": "Transfer",
			"type": "event"
		},
		{
			"inputs": [],
			"name": "SEND",
			"outputs": [
				{
					"internalType": "uint16",
					"name": "",
					"type": "uint16"
				}
			],
			"stateMutability": "view",
			"type": "function"
		},
		{
			"inputs": [],
			"name": "SEND_AND_CALL",
			"outputs": [
				{
					"internalType": "uint16",
					"name": "",
					"type": "uint16"
				}
			],
			"stateMutability": "view",
			"type": "function"
		},
		{
			"inputs": [
				{
					"components": [
						{
							"internalType": "uint32",
							"name": "srcEid",
							"type": "uint32"
						},
						{
							"internalType": "bytes32",
							"name": "sender",
							"type": "bytes32"
						},
						{
							"internalType": "uint64",
							"name": "nonce",
							"type": "uint64"
						}
					],
					"internalType": "struct Origin",
					"name": "origin",
					"type": "tuple"
				}
			],
			"name": "allowInitializePath",
			"outputs": [
				{
					"internalType": "bool",
					"name": "",
					"type": "bool"
				}
			],
			"stateMutability": "view",
			"type": "function"
		},
		{
			"inputs": [],
			"name": "approvalRequired",
			"outputs": [
				{
					"internalType": "bool",
					"name": "",
					"type": "bool"
				}
			],
			"stateMutability": "view",
			"type": "function"
		},
		{
			"inputs": [
				{
					"internalType": "address",
					"name": "to",
					"type": "address"
				},
				{
					"internalType": "uint256",
					"name": "tokenId",
					"type": "uint256"
				}
			],
			"name": "approve",
			"outputs": [],
			"stateMutability": "nonpayable",
			"type": "function"
		},
		{
			"inputs": [
				{
					"internalType": "address",
					"name": "owner",
					"type": "address"
				}
			],
			"name": "balanceOf",
			"outputs": [
				{
					"internalType": "uint256",
					"name": "",
					"type": "uint256"
				}
			],
			"stateMutability": "view",
			"type": "function"
		},
		{
			"inputs": [
				{
					"internalType": "uint32",
					"name": "_eid",
					"type": "uint32"
				},
				{
					"internalType": "uint16",
					"name": "_msgType",
					"type": "uint16"
				},
				{
					"internalType": "bytes",
					"name": "_extraOptions",
					"type": "bytes"
				}
			],
			"name": "combineOptions",
			"outputs": [
				{
					"internalType": "bytes",
					"name": "",
					"type": "bytes"
				}
			],
			"stateMutability": "view",
			"type": "function"
		},
		{
			"inputs": [
				{
					"internalType": "address",
					"name": "_to",
					"type": "address"
				},
				{
					"internalType": "uint256",
					"name": "_tokenId",
					"type": "uint256"
				},
				{
					"internalType": "uint256",
					"name": "_minAmountLD",
					"type": "uint256"
				},
				{
					"internalType": "uint32",
					"name": "_dstEid",
					"type": "uint32"
				}
			],
			"name": "crossChainTransfer",
			"outputs": [],
			"stateMutability": "payable",
			"type": "function"
		},
		{
			"inputs": [],
			"name": "decimalConversionRate",
			"outputs": [
				{
					"internalType": "uint256",
					"name": "",
					"type": "uint256"
				}
			],
			"stateMutability": "view",
			"type": "function"
		},
		{
			"inputs": [],
			"name": "endpoint",
			"outputs": [
				{
					"internalType": "contract ILayerZeroEndpointV2",
					"name": "",
					"type": "address"
				}
			],
			"stateMutability": "view",
			"type": "function"
		},
		{
			"inputs": [
				{
					"internalType": "uint32",
					"name": "eid",
					"type": "uint32"
				},
				{
					"internalType": "uint16",
					"name": "msgType",
					"type": "uint16"
				}
			],
			"name": "enforcedOptions",
			"outputs": [
				{
					"internalType": "bytes",
					"name": "enforcedOption",
					"type": "bytes"
				}
			],
			"stateMutability": "view",
			"type": "function"
		},
		{
			"inputs": [
				{
					"internalType": "uint256",
					"name": "tokenId",
					"type": "uint256"
				}
			],
			"name": "getApproved",
			"outputs": [
				{
					"internalType": "address",
					"name": "",
					"type": "address"
				}
			],
			"stateMutability": "view",
			"type": "function"
		},
		{
			"inputs": [
				{
					"internalType": "address",
					"name": "owner",
					"type": "address"
				},
				{
					"internalType": "address",
					"name": "operator",
					"type": "address"
				}
			],
			"name": "isApprovedForAll",
			"outputs": [
				{
					"internalType": "bool",
					"name": "",
					"type": "bool"
				}
			],
			"stateMutability": "view",
			"type": "function"
		},
		{
			"inputs": [
				{
					"components": [
						{
							"internalType": "uint32",
							"name": "srcEid",
							"type": "uint32"
						},
						{
							"internalType": "bytes32",
							"name": "sender",
							"type": "bytes32"
						},
						{
							"internalType": "uint64",
							"name": "nonce",
							"type": "uint64"
						}
					],
					"internalType": "struct Origin",
					"name": "",
					"type": "tuple"
				},
				{
					"internalType": "bytes",
					"name": "",
					"type": "bytes"
				},
				{
					"internalType": "address",
					"name": "_sender",
					"type": "address"
				}
			],
			"name": "isComposeMsgSender",
			"outputs": [
				{
					"internalType": "bool",
					"name": "",
					"type": "bool"
				}
			],
			"stateMutability": "view",
			"type": "function"
		},
		{
			"inputs": [
				{
					"internalType": "uint32",
					"name": "_eid",
					"type": "uint32"
				},
				{
					"internalType": "bytes32",
					"name": "_peer",
					"type": "bytes32"
				}
			],
			"name": "isPeer",
			"outputs": [
				{
					"internalType": "bool",
					"name": "",
					"type": "bool"
				}
			],
			"stateMutability": "view",
			"type": "function"
		},
		{
			"inputs": [
				{
					"internalType": "address",
					"name": "owner",
					"type": "address"
				}
			],
			"name": "latestTokenMinted",
			"outputs": [
				{
					"internalType": "uint256",
					"name": "",
					"type": "uint256"
				}
			],
			"stateMutability": "view",
			"type": "function"
		},
		{
			"inputs": [
				{
					"components": [
						{
							"internalType": "uint32",
							"name": "srcEid",
							"type": "uint32"
						},
						{
							"internalType": "bytes32",
							"name": "sender",
							"type": "bytes32"
						},
						{
							"internalType": "uint64",
							"name": "nonce",
							"type": "uint64"
						}
					],
					"internalType": "struct Origin",
					"name": "_origin",
					"type": "tuple"
				},
				{
					"internalType": "bytes32",
					"name": "_guid",
					"type": "bytes32"
				},
				{
					"internalType": "bytes",
					"name": "_message",
					"type": "bytes"
				},
				{
					"internalType": "address",
					"name": "_executor",
					"type": "address"
				},
				{
					"internalType": "bytes",
					"name": "_extraData",
					"type": "bytes"
				}
			],
			"name": "lzReceive",
			"outputs": [],
			"stateMutability": "payable",
			"type": "function"
		},
		{
			"inputs": [
				{
					"components": [
						{
							"components": [
								{
									"internalType": "uint32",
									"name": "srcEid",
									"type": "uint32"
								},
								{
									"internalType": "bytes32",
									"name": "sender",
									"type": "bytes32"
								},
								{
									"internalType": "uint64",
									"name": "nonce",
									"type": "uint64"
								}
							],
							"internalType": "struct Origin",
							"name": "origin",
							"type": "tuple"
						},
						{
							"internalType": "uint32",
							"name": "dstEid",
							"type": "uint32"
						},
						{
							"internalType": "address",
							"name": "receiver",
							"type": "address"
						},
						{
							"internalType": "bytes32",
							"name": "guid",
							"type": "bytes32"
						},
						{
							"internalType": "uint256",
							"name": "value",
							"type": "uint256"
						},
						{
							"internalType": "address",
							"name": "executor",
							"type": "address"
						},
						{
							"internalType": "bytes",
							"name": "message",
							"type": "bytes"
						},
						{
							"internalType": "bytes",
							"name": "extraData",
							"type": "bytes"
						}
					],
					"internalType": "struct InboundPacket[]",
					"name": "_packets",
					"type": "tuple[]"
				}
			],
			"name": "lzReceiveAndRevert",
			"outputs": [],
			"stateMutability": "payable",
			"type": "function"
		},
		{
			"inputs": [
				{
					"components": [
						{
							"internalType": "uint32",
							"name": "srcEid",
							"type": "uint32"
						},
						{
							"internalType": "bytes32",
							"name": "sender",
							"type": "bytes32"
						},
						{
							"internalType": "uint64",
							"name": "nonce",
							"type": "uint64"
						}
					],
					"internalType": "struct Origin",
					"name": "_origin",
					"type": "tuple"
				},
				{
					"internalType": "bytes32",
					"name": "_guid",
					"type": "bytes32"
				},
				{
					"internalType": "bytes",
					"name": "_message",
					"type": "bytes"
				},
				{
					"internalType": "address",
					"name": "_executor",
					"type": "address"
				},
				{
					"internalType": "bytes",
					"name": "_extraData",
					"type": "bytes"
				}
			],
			"name": "lzReceiveSimulate",
			"outputs": [],
			"stateMutability": "payable",
			"type": "function"
		},
		{
			"inputs": [
				{
					"internalType": "address",
					"name": "recipient",
					"type": "address"
				},
				{
					"internalType": "string",
					"name": "metadataURI",
					"type": "string"
				}
			],
			"name": "mint",
			"outputs": [],
			"stateMutability": "payable",
			"type": "function"
		},
		{
			"inputs": [],
			"name": "msgInspector",
			"outputs": [
				{
					"internalType": "address",
					"name": "",
					"type": "address"
				}
			],
			"stateMutability": "view",
			"type": "function"
		},
		{
			"inputs": [],
			"name": "name",
			"outputs": [
				{
					"internalType": "string",
					"name": "",
					"type": "string"
				}
			],
			"stateMutability": "view",
			"type": "function"
		},
		{
			"inputs": [
				{
					"internalType": "uint32",
					"name": "",
					"type": "uint32"
				},
				{
					"internalType": "bytes32",
					"name": "",
					"type": "bytes32"
				}
			],
			"name": "nextNonce",
			"outputs": [
				{
					"internalType": "uint64",
					"name": "nonce",
					"type": "uint64"
				}
			],
			"stateMutability": "view",
			"type": "function"
		},
		{
			"inputs": [],
			"name": "oApp",
			"outputs": [
				{
					"internalType": "address",
					"name": "",
					"type": "address"
				}
			],
			"stateMutability": "view",
			"type": "function"
		},
		{
			"inputs": [],
			"name": "oAppVersion",
			"outputs": [
				{
					"internalType": "uint64",
					"name": "senderVersion",
					"type": "uint64"
				},
				{
					"internalType": "uint64",
					"name": "receiverVersion",
					"type": "uint64"
				}
			],
			"stateMutability": "pure",
			"type": "function"
		},
		{
			"inputs": [],
			"name": "oftVersion",
			"outputs": [
				{
					"internalType": "bytes4",
					"name": "interfaceId",
					"type": "bytes4"
				},
				{
					"internalType": "uint64",
					"name": "version",
					"type": "uint64"
				}
			],
			"stateMutability": "pure",
			"type": "function"
		},
		{
			"inputs": [],
			"name": "owner",
			"outputs": [
				{
					"internalType": "address",
					"name": "",
					"type": "address"
				}
			],
			"stateMutability": "view",
			"type": "function"
		},
		{
			"inputs": [
				{
					"internalType": "uint256",
					"name": "tokenId",
					"type": "uint256"
				}
			],
			"name": "ownerOf",
			"outputs": [
				{
					"internalType": "address",
					"name": "",
					"type": "address"
				}
			],
			"stateMutability": "view",
			"type": "function"
		},
		{
			"inputs": [
				{
					"internalType": "uint32",
					"name": "eid",
					"type": "uint32"
				}
			],
			"name": "peers",
			"outputs": [
				{
					"internalType": "bytes32",
					"name": "peer",
					"type": "bytes32"
				}
			],
			"stateMutability": "view",
			"type": "function"
		},
		{
			"inputs": [],
			"name": "preCrime",
			"outputs": [
				{
					"internalType": "address",
					"name": "",
					"type": "address"
				}
			],
			"stateMutability": "view",
			"type": "function"
		},
		{
			"inputs": [
				{
					"components": [
						{
							"internalType": "uint32",
							"name": "dstEid",
							"type": "uint32"
						},
						{
							"internalType": "bytes32",
							"name": "to",
							"type": "bytes32"
						},
						{
							"internalType": "uint256",
							"name": "amountLD",
							"type": "uint256"
						},
						{
							"internalType": "uint256",
							"name": "minAmountLD",
							"type": "uint256"
						},
						{
							"internalType": "bytes",
							"name": "extraOptions",
							"type": "bytes"
						},
						{
							"internalType": "bytes",
							"name": "composeMsg",
							"type": "bytes"
						},
						{
							"internalType": "bytes",
							"name": "oftCmd",
							"type": "bytes"
						}
					],
					"internalType": "struct SendParam",
					"name": "_sendParam",
					"type": "tuple"
				}
			],
			"name": "quoteOFT",
			"outputs": [
				{
					"components": [
						{
							"internalType": "uint256",
							"name": "minAmountLD",
							"type": "uint256"
						},
						{
							"internalType": "uint256",
							"name": "maxAmountLD",
							"type": "uint256"
						}
					],
					"internalType": "struct OFTLimit",
					"name": "oftLimit",
					"type": "tuple"
				},
				{
					"components": [
						{
							"internalType": "int256",
							"name": "feeAmountLD",
							"type": "int256"
						},
						{
							"internalType": "string",
							"name": "description",
							"type": "string"
						}
					],
					"internalType": "struct OFTFeeDetail[]",
					"name": "oftFeeDetails",
					"type": "tuple[]"
				},
				{
					"components": [
						{
							"internalType": "uint256",
							"name": "amountSentLD",
							"type": "uint256"
						},
						{
							"internalType": "uint256",
							"name": "amountReceivedLD",
							"type": "uint256"
						}
					],
					"internalType": "struct OFTReceipt",
					"name": "oftReceipt",
					"type": "tuple"
				}
			],
			"stateMutability": "view",
			"type": "function"
		},
		{
			"inputs": [
				{
					"components": [
						{
							"internalType": "uint32",
							"name": "dstEid",
							"type": "uint32"
						},
						{
							"internalType": "bytes32",
							"name": "to",
							"type": "bytes32"
						},
						{
							"internalType": "uint256",
							"name": "amountLD",
							"type": "uint256"
						},
						{
							"internalType": "uint256",
							"name": "minAmountLD",
							"type": "uint256"
						},
						{
							"internalType": "bytes",
							"name": "extraOptions",
							"type": "bytes"
						},
						{
							"internalType": "bytes",
							"name": "composeMsg",
							"type": "bytes"
						},
						{
							"internalType": "bytes",
							"name": "oftCmd",
							"type": "bytes"
						}
					],
					"internalType": "struct SendParam",
					"name": "_sendParam",
					"type": "tuple"
				},
				{
					"internalType": "bool",
					"name": "_payInLzToken",
					"type": "bool"
				}
			],
			"name": "quoteSend",
			"outputs": [
				{
					"components": [
						{
							"internalType": "uint256",
							"name": "nativeFee",
							"type": "uint256"
						},
						{
							"internalType": "uint256",
							"name": "lzTokenFee",
							"type": "uint256"
						}
					],
					"internalType": "struct MessagingFee",
					"name": "msgFee",
					"type": "tuple"
				}
			],
			"stateMutability": "view",
			"type": "function"
		},
		{
			"inputs": [],
			"name": "renounceOwnership",
			"outputs": [],
			"stateMutability": "nonpayable",
			"type": "function"
		},
		{
			"inputs": [
				{
					"internalType": "address",
					"name": "from",
					"type": "address"
				},
				{
					"internalType": "address",
					"name": "to",
					"type": "address"
				},
				{
					"internalType": "uint256",
					"name": "tokenId",
					"type": "uint256"
				}
			],
			"name": "safeTransferFrom",
			"outputs": [],
			"stateMutability": "nonpayable",
			"type": "function"
		},
		{
			"inputs": [
				{
					"internalType": "address",
					"name": "from",
					"type": "address"
				},
				{
					"internalType": "address",
					"name": "to",
					"type": "address"
				},
				{
					"internalType": "uint256",
					"name": "tokenId",
					"type": "uint256"
				},
				{
					"internalType": "bytes",
					"name": "data",
					"type": "bytes"
				}
			],
			"name": "safeTransferFrom",
			"outputs": [],
			"stateMutability": "nonpayable",
			"type": "function"
		},
		{
			"inputs": [
				{
					"components": [
						{
							"internalType": "uint32",
							"name": "dstEid",
							"type": "uint32"
						},
						{
							"internalType": "bytes32",
							"name": "to",
							"type": "bytes32"
						},
						{
							"internalType": "uint256",
							"name": "amountLD",
							"type": "uint256"
						},
						{
							"internalType": "uint256",
							"name": "minAmountLD",
							"type": "uint256"
						},
						{
							"internalType": "bytes",
							"name": "extraOptions",
							"type": "bytes"
						},
						{
							"internalType": "bytes",
							"name": "composeMsg",
							"type": "bytes"
						},
						{
							"internalType": "bytes",
							"name": "oftCmd",
							"type": "bytes"
						}
					],
					"internalType": "struct SendParam",
					"name": "_sendParam",
					"type": "tuple"
				},
				{
					"components": [
						{
							"internalType": "uint256",
							"name": "nativeFee",
							"type": "uint256"
						},
						{
							"internalType": "uint256",
							"name": "lzTokenFee",
							"type": "uint256"
						}
					],
					"internalType": "struct MessagingFee",
					"name": "_fee",
					"type": "tuple"
				},
				{
					"internalType": "address",
					"name": "_refundAddress",
					"type": "address"
				}
			],
			"name": "send",
			"outputs": [
				{
					"components": [
						{
							"internalType": "bytes32",
							"name": "guid",
							"type": "bytes32"
						},
						{
							"internalType": "uint64",
							"name": "nonce",
							"type": "uint64"
						},
						{
							"components": [
								{
									"internalType": "uint256",
									"name": "nativeFee",
									"type": "uint256"
								},
								{
									"internalType": "uint256",
									"name": "lzTokenFee",
									"type": "uint256"
								}
							],
							"internalType": "struct MessagingFee",
							"name": "fee",
							"type": "tuple"
						}
					],
					"internalType": "struct MessagingReceipt",
					"name": "msgReceipt",
					"type": "tuple"
				},
				{
					"components": [
						{
							"internalType": "uint256",
							"name": "amountSentLD",
							"type": "uint256"
						},
						{
							"internalType": "uint256",
							"name": "amountReceivedLD",
							"type": "uint256"
						}
					],
					"internalType": "struct OFTReceipt",
					"name": "oftReceipt",
					"type": "tuple"
				}
			],
			"stateMutability": "payable",
			"type": "function"
		},
		{
			"inputs": [
				{
					"internalType": "address",
					"name": "operator",
					"type": "address"
				},
				{
					"internalType": "bool",
					"name": "approved",
					"type": "bool"
				}
			],
			"name": "setApprovalForAll",
			"outputs": [],
			"stateMutability": "nonpayable",
			"type": "function"
		},
		{
			"inputs": [
				{
					"internalType": "address",
					"name": "_delegate",
					"type": "address"
				}
			],
			"name": "setDelegate",
			"outputs": [],
			"stateMutability": "nonpayable",
			"type": "function"
		},
		{
			"inputs": [
				{
					"components": [
						{
							"internalType": "uint32",
							"name": "eid",
							"type": "uint32"
						},
						{
							"internalType": "uint16",
							"name": "msgType",
							"type": "uint16"
						},
						{
							"internalType": "bytes",
							"name": "options",
							"type": "bytes"
						}
					],
					"internalType": "struct EnforcedOptionParam[]",
					"name": "_enforcedOptions",
					"type": "tuple[]"
				}
			],
			"name": "setEnforcedOptions",
			"outputs": [],
			"stateMutability": "nonpayable",
			"type": "function"
		},
		{
			"inputs": [
				{
					"internalType": "address",
					"name": "_msgInspector",
					"type": "address"
				}
			],
			"name": "setMsgInspector",
			"outputs": [],
			"stateMutability": "nonpayable",
			"type": "function"
		},
		{
			"inputs": [
				{
					"internalType": "uint32",
					"name": "_eid",
					"type": "uint32"
				},
				{
					"internalType": "bytes32",
					"name": "_peer",
					"type": "bytes32"
				}
			],
			"name": "setPeer",
			"outputs": [],
			"stateMutability": "nonpayable",
			"type": "function"
		},
		{
			"inputs": [
				{
					"internalType": "address",
					"name": "_preCrime",
					"type": "address"
				}
			],
			"name": "setPreCrime",
			"outputs": [],
			"stateMutability": "nonpayable",
			"type": "function"
		},
		{
			"inputs": [
				{
					"internalType": "uint256",
					"name": "_mintRate",
					"type": "uint256"
				}
			],
			"name": "setRate",
			"outputs": [],
			"stateMutability": "nonpayable",
			"type": "function"
		},
		{
			"inputs": [
				{
					"internalType": "uint256",
					"name": "tokenId",
					"type": "uint256"
				},
				{
					"internalType": "string",
					"name": "_tokenURI",
					"type": "string"
				}
			],
			"name": "setTokenURI",
			"outputs": [],
			"stateMutability": "nonpayable",
			"type": "function"
		},
		{
			"inputs": [],
			"name": "sharedDecimals",
			"outputs": [
				{
					"internalType": "uint8",
					"name": "",
					"type": "uint8"
				}
			],
			"stateMutability": "view",
			"type": "function"
		},
		{
			"inputs": [
				{
					"internalType": "bytes4",
					"name": "interfaceId",
					"type": "bytes4"
				}
			],
			"name": "supportsInterface",
			"outputs": [
				{
					"internalType": "bool",
					"name": "",
					"type": "bool"
				}
			],
			"stateMutability": "view",
			"type": "function"
		},
		{
			"inputs": [],
			"name": "symbol",
			"outputs": [
				{
					"internalType": "string",
					"name": "",
					"type": "string"
				}
			],
			"stateMutability": "view",
			"type": "function"
		},
		{
			"inputs": [],
			"name": "token",
			"outputs": [
				{
					"internalType": "address",
					"name": "",
					"type": "address"
				}
			],
			"stateMutability": "view",
			"type": "function"
		},
		{
			"inputs": [
				{
					"internalType": "uint256",
					"name": "tokenId",
					"type": "uint256"
				}
			],
			"name": "tokenURI",
			"outputs": [
				{
					"internalType": "string",
					"name": "",
					"type": "string"
				}
			],
			"stateMutability": "view",
			"type": "function"
		},
		{
			"inputs": [
				{
					"internalType": "address",
					"name": "from",
					"type": "address"
				},
				{
					"internalType": "address",
					"name": "to",
					"type": "address"
				},
				{
					"internalType": "uint256",
					"name": "tokenId",
					"type": "uint256"
				}
			],
			"name": "transferFrom",
			"outputs": [],
			"stateMutability": "nonpayable",
			"type": "function"
		},
		{
			"inputs": [
				{
					"internalType": "address",
					"name": "newOwner",
					"type": "address"
				}
			],
			"name": "transferOwnership",
			"outputs": [],
			"stateMutability": "nonpayable",
			"type": "function"
		},
		{
			"inputs": [],
			"name": "withdraw",
			"outputs": [],
			"stateMutability": "nonpayable",
			"type": "function"
		}
	]
}