{
	"data": {
		"bytecode": {
			"linkReferences": {},
			"object": "60a06040525f601155348015610013575f80fd5b50604051614fa9380380614fa9833981016040819052610032916101d7565b85858585838383838080610045336100eb565b6001600160a01b0316608052506001600655816100b45760405162461bcd60e51b8152602060048201526024808201527f6d696e476173546f5472616e73666572416e6453746f7265206d7573742062656044820152630203e20360e41b606482015260840160405180910390fd5b50600755600b6100c483826102fb565b50600c6100d182826102fb565b505050601295909555505050601355506103b59350505050565b5f80546001600160a01b038381166001600160a01b0319831681178455604051919092169283917f8be0079c531659141344cd1fd0a4f28419497f9722a3daafe3b4186f6b6457e09190a35050565b634e487b7160e01b5f52604160045260245ffd5b5f82601f83011261015d575f80fd5b81516001600160401b038111156101765761017661013a565b604051601f8201601f19908116603f011681016001600160401b03811182821017156101a4576101a461013a565b6040528181528382016020018510156101bb575f80fd5b8160208501602083015e5f918101602001919091529392505050565b5f805f805f8060c087890312156101ec575f80fd5b86516001600160401b03811115610201575f80fd5b61020d89828a0161014e565b602089015190975090506001600160401b0381111561022a575f80fd5b61023689828a0161014e565b604089015160608a0151919750955090506001600160a01b038116811461025b575f80fd5b608088015160a090980151969995985093969395939492505050565b600181811c9082168061028b57607f821691505b6020821081036102a957634e487b7160e01b5f52602260045260245ffd5b50919050565b601f8211156102f657805f5260205f20601f840160051c810160208510156102d45750805b601f840160051c820191505b818110156102f3575f81556001016102e0565b50505b505050565b81516001600160401b038111156103145761031461013a565b610328816103228454610277565b846102af565b6020601f82116001811461035a575f83156103435750848201515b5f19600385901b1c1916600184901b1784556102f3565b5f84815260208120601f198516915b828110156103895787850151825560209485019460019092019101610369565b50848210156103a657868401515f19600387901b60f8161c191681555b50505050600190811b01905550565b608051614b9d61040c5f395f818161091b01528181610b4401528181610e3f015281816110b9015281816112a501528181611cbc0152818161211a0152818161231d0152818161244e0152612aa00152614b9d5ff3fe60806040526004361061037b575f3560e01c80638cfd8f5c116101d3578063c87b56dd116100fd578063df2a5b3b1161009d578063f23536411161006d578063f235364114610ab9578063f2fde38b14610ad8578063f5ecbdbc14610af7578063fa25f9b614610b16575f80fd5b8063df2a5b3b14610a47578063e1d4c87014610a66578063e985e9c514610a7b578063eb8d72b714610a9a575f80fd5b8063d12473a5116100d8578063d12473a5146109e1578063d1deba1f14610a00578063da09f15d14610a13578063ddca3f4314610a32575f80fd5b8063c87b56dd14610990578063cbed8b9c146109af578063d0def521146109ce575f80fd5b8063a22cb46511610173578063b353aaa711610143578063b353aaa71461090a578063b88d4fde1461093d578063baf3292d1461095c578063c44618341461097b575f80fd5b8063a22cb46514610892578063a6c3d165146108b1578063ab3ffb93146108d0578063af3fb21c146108e3575f80fd5b8063950c8a74116101ae578063950c8a741461082157806395d89b41146108405780639ea5d6b1146108545780639f38369a14610873575f80fd5b80638cfd8f5c146107b05780638da5cb5b146107e65780638ffa1f2a14610802575f80fd5b80633f1f4fa4116102b45780635b8c41e6116102545780636aa99da3116102245780636aa99da31461074957806370a082311461075e578063715018a61461077d5780637533d78814610791575f80fd5b80635b8c41e61461069f5780636352211e146106ec57806366ad5c8a1461070b57806369fe0e2d1461072a575f80fd5b8063482881901161028f57806348288190146106395780634ac3f4ff1461064e5780635154c0b414610679578063519056361461068c575f80fd5b80633f1f4fa4146105c257806342842e0e146105fb57806342d65a8d1461061a575f80fd5b80630df374831161031f57806323b872dd116102fa57806323b872dd146105485780632a205e3d146105675780633ccfd60b1461059b5780633d8b38f6146105a3575f80fd5b80630df374831461048957806310ddb137146104a857806322a3ecf9146104c7575f80fd5b806307e0db171161035a57806307e0db17146103f5578063081812fc14610414578063095ea7b31461044b5780630b4cad4c1461046a575f80fd5b80621d35671461037f57806301ffc9a7146103a057806306fdde03146103d4575b5f80fd5b34801561038a575f80fd5b5061039e610399366004613a4f565b610b41565b005b3480156103ab575f80fd5b506103bf6103ba366004613af3565b610d6c565b60405190151581526020015b60405180910390f35b3480156103df575f80fd5b506103e8610d8e565b6040516103cb9190613b3c565b348015610400575f80fd5b5061039e61040f366004613b4e565b610e1e565b34801561041f575f80fd5b5061043361042e366004613b67565b610ea2565b6040516001600160a01b0390911681526020016103cb565b348015610456575f80fd5b5061039e610465366004613b9d565b610ec7565b348015610475575f80fd5b5061039e610484366004613b67565b610fdb565b348015610494575f80fd5b5061039e6104a3366004613bc7565b61107a565b3480156104b3575f80fd5b5061039e6104c2366004613b4e565b611098565b3480156104d2575f80fd5b506105196104e1366004613b67565b600a6020525f908152604090208054600182015460029092015461ffff821692620100009092046001600160a01b0316919060ff1684565b6040805161ffff90951685526001600160a01b03909316602085015291830152151560608201526080016103cb565b348015610553575f80fd5b5061039e610562366004613be1565b6110f0565b348015610572575f80fd5b50610586610581366004613cf1565b611122565b604080519283526020830191909152016103cb565b61039e611147565b3480156105ae575f80fd5b506103bf6105bd366004613d7d565b6111a3565b3480156105cd575f80fd5b506105ed6105dc366004613b4e565b60036020525f908152604090205481565b6040519081526020016103cb565b348015610606575f80fd5b5061039e610615366004613be1565b61126c565b348015610625575f80fd5b5061039e610634366004613d7d565b611286565b348015610644575f80fd5b506105ed60075481565b348015610659575f80fd5b506105ed610668366004613b4e565b60086020525f908152604090205481565b61039e610687366004613dcb565b611307565b61039e61069a366004613e26565b611359565b3480156106aa575f80fd5b506105ed6106b9366004613ed8565b600560209081525f9384526040808520845180860184018051928152908401958401959095209452929052825290205481565b3480156106f7575f80fd5b50610433610706366004613b67565b611370565b348015610716575f80fd5b5061039e610725366004613a4f565b6113cf565b348015610735575f80fd5b5061039e610744366004613b67565b6114a9565b348015610754575f80fd5b506105ed60125481565b348015610769575f80fd5b506105ed610778366004613f31565b6114b6565b348015610788575f80fd5b5061039e61153a565b34801561079c575f80fd5b506103e86107ab366004613b4e565b61154d565b3480156107bb575f80fd5b506105ed6107ca366004613f4c565b600260209081525f928352604080842090915290825290205481565b3480156107f1575f80fd5b505f546001600160a01b0316610433565b34801561080d575f80fd5b5061039e61081c366004613f7d565b6115e4565b34801561082c575f80fd5b50600454610433906001600160a01b031681565b34801561084b575f80fd5b506103e8611826565b34801561085f575f80fd5b5061039e61086e366004613bc7565b611835565b34801561087e575f80fd5b506103e861088d366004613b4e565b6118ea565b34801561089d575f80fd5b5061039e6108ac366004613fae565b6119fb565b3480156108bc575f80fd5b5061039e6108cb366004613d7d565b611a0a565b61039e6108de36600461405f565b611a92565b3480156108ee575f80fd5b506108f7600181565b60405161ffff90911681526020016103cb565b348015610915575f80fd5b506104337f000000000000000000000000000000000000000000000000000000000000000081565b348015610948575f80fd5b5061039e6109573660046140f8565b611aa1565b348015610967575f80fd5b5061039e610976366004613f31565b611ad9565b348015610986575f80fd5b506105ed61271081565b34801561099b575f80fd5b506103e86109aa366004613b67565b611b2f565b3480156109ba575f80fd5b5061039e6109c936600461415f565b611c9d565b61039e6109dc3660046141c8565b611d2d565b3480156109ec575f80fd5b5061039e6109fb366004613bc7565b611e2a565b61039e610a0e366004613a4f565b611ed8565b348015610a1e575f80fd5b50610586610a2d366004614227565b6120e8565b348015610a3d575f80fd5b506105ed60115481565b348015610a52575f80fd5b5061039e610a61366004614250565b6121aa565b348015610a71575f80fd5b506105ed60135481565b348015610a86575f80fd5b506103bf610a95366004614279565b61225a565b348015610aa5575f80fd5b5061039e610ab4366004613d7d565b612287565b348015610ac4575f80fd5b50610586610ad33660046142b0565b6122e0565b348015610ae3575f80fd5b5061039e610af2366004613f31565b6123a7565b348015610b02575f80fd5b506103e8610b11366004614329565b61241d565b348015610b21575f80fd5b506105ed610b30366004613b4e565b60096020525f908152604090205481565b337f00000000000000000000000000000000000000000000000000000000000000006001600160a01b031614610bbe5760405162461bcd60e51b815260206004820152601e60248201527f4c7a4170703a20696e76616c696420656e64706f696e742063616c6c6572000060448201526064015b60405180910390fd5b61ffff86165f9081526001602052604081208054610bdb90614373565b80601f0160208091040260200160405190810160405280929190818152602001828054610c0790614373565b8015610c525780601f10610c2957610100808354040283529160200191610c52565b820191905f5260205f20905b815481529060010190602001808311610c3557829003601f168201915b50505050509050805186869050148015610c6c57505f8151115b8015610c94575080516020820120604051610c8a90889088906143ab565b6040518091039020145b610cef5760405162461bcd60e51b815260206004820152602660248201527f4c7a4170703a20696e76616c696420736f757263652073656e64696e6720636f6044820152651b9d1c9858dd60d21b6064820152608401610bb5565b610d638787878080601f0160208091040260200160405190810160405280939291908181526020018383808284375f9201919091525050604080516020601f8a018190048102820181019092528881528a9350915088908890819084018382808284375f920191909152506124ca92505050565b50505050505050565b5f6001600160e01b031982161580610d885750610d8882612542565b92915050565b6060600b8054610d9d90614373565b80601f0160208091040260200160405190810160405280929190818152602001828054610dc990614373565b8015610e145780601f10610deb57610100808354040283529160200191610e14565b820191905f5260205f20905b815481529060010190602001808311610df757829003601f168201915b5050505050905090565b610e26612581565b6040516307e0db1760e01b815261ffff821660048201527f00000000000000000000000000000000000000000000000000000000000000006001600160a01b0316906307e0db17906024015b5f604051808303815f87803b158015610e89575f80fd5b505af1158015610e9b573d5f803e3d5ffd5b5050505050565b5f610eac826125da565b505f908152600f60205260409020546001600160a01b031690565b5f610ed182611370565b9050806001600160a01b0316836001600160a01b031603610f3e5760405162461bcd60e51b815260206004820152602160248201527f4552433732313a20617070726f76616c20746f2063757272656e74206f776e656044820152603960f91b6064820152608401610bb5565b336001600160a01b0382161480610f5a5750610f5a813361225a565b610fcc5760405162461bcd60e51b815260206004820152603d60248201527f4552433732313a20617070726f76652063616c6c6572206973206e6f7420746f60448201527f6b656e206f776e6572206f7220617070726f76656420666f7220616c6c0000006064820152608401610bb5565b610fd6838361262a565b505050565b610fe3612581565b5f811161103e5760405162461bcd60e51b8152602060048201526024808201527f6d696e476173546f5472616e73666572416e6453746f7265206d7573742062656044820152630203e20360e41b6064820152608401610bb5565b60078190556040518181527ffebbc4f8bb9ec2313950c718d43123124b15778efda4c1f1d529de2995b4f34d906020015b60405180910390a150565b611082612581565b61ffff9091165f90815260036020526040902055565b6110a0612581565b6040516310ddb13760e01b815261ffff821660048201527f00000000000000000000000000000000000000000000000000000000000000006001600160a01b0316906310ddb13790602401610e72565b6110fb335b82612697565b6111175760405162461bcd60e51b8152600401610bb5906143ba565b610fd68383836126f4565b5f80611139878761113288612856565b87876122e0565b915091509550959350505050565b61114f612581565b6040515f90339047908381818185875af1925050503d805f811461118e576040519150601f19603f3d011682016040523d82523d5f602084013e611193565b606091505b50509050806111a0575f80fd5b50565b61ffff83165f90815260016020526040812080548291906111c390614373565b80601f01602080910402602001604051908101604052809291908181526020018280546111ef90614373565b801561123a5780601f106112115761010080835404028352916020019161123a565b820191905f5260205f20905b81548152906001019060200180831161121d57829003601f168201915b5050505050905083836040516112519291906143ab565b60405180910390208180519060200120149150509392505050565b610fd683838360405180602001604052805f815250611aa1565b61128e612581565b6040516342d65a8d60e01b81526001600160a01b037f000000000000000000000000000000000000000000000000000000000000000016906342d65a8d906112de9086908690869060040161442f565b5f604051808303815f87803b1580156112f5575f80fd5b505af1158015610d63573d5f803e3d5ffd5b61ffff83165f9081526009602052604090205461132a908490600190849061289f565b604080513360208201525f818301528151808203830181526060909101909152610fd69084903085853461297b565b610d6387878761136888612856565b878787612b18565b5f818152600d60205260408120546001600160a01b031680610d885760405162461bcd60e51b8152602060048201526018602482015277115490cdcc8c4e881a5b9d985b1a59081d1bdad95b88125160421b6044820152606401610bb5565b33301461142d5760405162461bcd60e51b815260206004820152602660248201527f4e6f6e626c6f636b696e674c7a4170703a2063616c6c6572206d7573742062656044820152650204c7a4170760d41b6064820152608401610bb5565b6114a18686868080601f0160208091040260200160405190810160405280939291908181526020018383808284375f9201919091525050604080516020601f8901819004810282018101909252878152899350915087908790819084018382808284375f92019190915250612cdc92505050565b505050505050565b6114b1612581565b601155565b5f6001600160a01b03821661151f5760405162461bcd60e51b815260206004820152602960248201527f4552433732313a2061646472657373207a65726f206973206e6f7420612076616044820152683634b21037bbb732b960b91b6064820152608401610bb5565b506001600160a01b03165f908152600e602052604090205490565b611542612581565b61154b5f612e56565b565b60016020525f90815260409020805461156590614373565b80601f016020809104026020016040519081016040528092919081815260200182805461159190614373565b80156115dc5780601f106115b3576101008083540402835291602001916115dc565b820191905f5260205f20905b8154815290600101906020018083116115bf57829003601f168201915b505050505081565b6115ec612ea5565b80516020808301919091205f818152600a90925260409091206002015460ff1661164c5760405162461bcd60e51b81526020600482015260116024820152701b9bc818dc99591a5d1cc81cdd1bdc9959607a1b6044820152606401610bb5565b5f828060200190518101906116619190614499565b5f848152600a60205260408120805460019091015492945090925061169c9161ffff8216916201000090046001600160a01b03169085612efe565b5f848152600a602052604090206001015490915081116117105760405162461bcd60e51b815260206004820152602960248201527f6e6f7420656e6f7567682067617320746f2070726f6365737320637265646974604482015268103a3930b739b332b960b91b6064820152608401610bb5565b81518103611786575f838152600a602052604080822080546001600160b01b031916815560018101929092556002909101805460ff19169055517fd7be02b8dd0d27bd0517a9cb4d7469ce27df4313821ae5ec1ff69acc594ba233906117799085815260200190565b60405180910390a1611819565b604080516080810182525f858152600a6020818152848320805461ffff80821687526001600160a01b03620100008084048216868a019081529989018b8152600160608b01818152998f90529790965297519851169096026001600160b01b03199091169690951695909517939093178455915191830191909155516002909101805491151560ff199092169190911790555b5050506111a06001600655565b6060600c8054610d9d90614373565b61183d612581565b5f81116118975760405162461bcd60e51b815260206004820152602260248201527f647374436861696e4964546f42617463684c696d6974206d757374206265203e604482015261020360f41b6064820152608401610bb5565b61ffff82165f81815260086020908152604091829020849055815192835282018390527f7315f7654d594ead24a30160ed9ba2d23247f543016b918343591e93d7afdb6d91015b60405180910390a15050565b61ffff81165f9081526001602052604081208054606092919061190c90614373565b80601f016020809104026020016040519081016040528092919081815260200182805461193890614373565b80156119835780601f1061195a57610100808354040283529160200191611983565b820191905f5260205f20905b81548152906001019060200180831161196657829003601f168201915b5050505050905080515f036119da5760405162461bcd60e51b815260206004820152601d60248201527f4c7a4170703a206e6f20747275737465642070617468207265636f72640000006044820152606401610bb5565b6119f45f601483516119ec9190614569565b839190612f49565b9392505050565b611a06338383613055565b5050565b611a12612581565b818130604051602001611a279392919061457c565b60408051601f1981840301815291815261ffff85165f90815260016020522090611a5190826145e6565b507f8c0400cfe2d1199b1a725c78960bcc2a344d869b80590d0f2bd005db15a572ce838383604051611a859392919061442f565b60405180910390a1505050565b610d6387878787878787612b18565b611aab3383612697565b611ac75760405162461bcd60e51b8152600401610bb5906143ba565b611ad384848484613122565b50505050565b611ae1612581565b600480546001600160a01b0319166001600160a01b0383169081179091556040519081527f5db758e995a17ec1ad84bdef7e8c3293a0bd6179bcce400dff5d4c3d87db726b9060200161106f565b6060611b3a82613155565b611b9e5760405162461bcd60e51b815260206004820152602f60248201527f4552433732314d657461646174613a2055524920717565727920666f72206e6f60448201526e3732bc34b9ba32b73a103a37b5b2b760891b6064820152608401610bb5565b5f8281526014602052604081208054611bb690614373565b80601f0160208091040260200160405190810160405280929190818152602001828054611be290614373565b8015611c2d5780601f10611c0457610100808354040283529160200191611c2d565b820191905f5260205f20905b815481529060010190602001808311611c1057829003601f168201915b505050505090505f611c4960408051602081019091525f815290565b905080515f03611c5a575092915050565b815115611c8c578082604051602001611c749291906146b7565b60405160208183030381529060405292505050919050565b611c9584613171565b949350505050565b611ca5612581565b6040516332fb62e760e21b81526001600160a01b037f0000000000000000000000000000000000000000000000000000000000000000169063cbed8b9c90611cf990889088908890889088906004016146cb565b5f604051808303815f87803b158015611d10575f80fd5b505af1158015611d22573d5f803e3d5ffd5b505050505050505050565b601154341015611d775760405162461bcd60e51b8152602060048201526015602482015274496e73756666696369656e74206d696e742066656560581b6044820152606401610bb5565b6013546012541115611dc15760405162461bcd60e51b8152602060048201526013602482015272151bdad95b881b1a5b5a5d081c995858da1959606a1b6044820152606401610bb5565b601280549081905f611dd283614703565b9190505550611de183826131e0565b611deb81836131f9565b604080516001600160a01b0385168152602081018390527fb9144c96c86541f6fa89c9f2f02495cccf4b08cd6643e26d34ee00aa586558a89101611a85565b611e32612581565b5f8111611e8d5760405162461bcd60e51b815260206004820152602360248201527f647374436861696e4964546f5472616e73666572476173206d7573742062652060448201526203e20360ec1b6064820152608401610bb5565b61ffff82165f81815260096020908152604091829020849055815192835282018390527fc46df2983228ac2d9754e94a0d565e6671665dc8ad38602bc8e544f0685a29fb91016118de565b61ffff86165f908152600560205260408082209051611efa90889088906143ab565b90815260408051602092819003830190206001600160401b0387165f9081529252902054905080611f795760405162461bcd60e51b815260206004820152602360248201527f4e6f6e626c6f636b696e674c7a4170703a206e6f2073746f726564206d65737360448201526261676560e81b6064820152608401610bb5565b808383604051611f8a9291906143ab565b604051809103902014611fe95760405162461bcd60e51b815260206004820152602160248201527f4e6f6e626c6f636b696e674c7a4170703a20696e76616c6964207061796c6f616044820152601960fa1b6064820152608401610bb5565b61ffff87165f90815260056020526040808220905161200b90899089906143ab565b90815260408051602092819003830181206001600160401b0389165f90815290845282902093909355601f880182900482028301820190528682526120a091899189908990819084018382808284375f9201919091525050604080516020601f8a018190048102820181019092528881528a9350915088908890819084018382808284375f92019190915250612cdc92505050565b7fc264d91f3adc5588250e1551f547752ca0cfa8f6b530d243b9f9f4cab10ea8e587878787856040516120d795949392919061471b565b60405180910390a150505050505050565b604080513360208201525f818301819052825180830384018152606083019384905263040a7bb160e41b9093529182917f00000000000000000000000000000000000000000000000000000000000000006001600160a01b0316906340a7bb109061215f908990309086908b908b90606401614755565b6040805180830381865afa158015612179573d5f803e3d5ffd5b505050506040513d601f19601f8201168201806040525081019061219d91906147a8565b9250925050935093915050565b6121b2612581565b5f81116121f95760405162461bcd60e51b81526020600482015260156024820152744c7a4170703a20696e76616c6964206d696e47617360581b6044820152606401610bb5565b61ffff8381165f8181526002602090815260408083209487168084529482529182902085905581519283528201929092529081018290527f9d5c7c0b934da8fefa9c7760c98383778a12dfbfc0c3b3106518f43fb9508ac090606001611a85565b6001600160a01b039182165f90815260106020908152604080832093909416825291909152205460ff1690565b61228f612581565b61ffff83165f9081526001602052604090206122ac8284836147ca565b507ffa41487ad5d6728f0b19276fa1eddc16558578f5109fc39d2dc33c3230470dab838383604051611a859392919061442f565b5f805f86866040516020016122f69291906148bd565b60408051601f198184030181529082905263040a7bb160e41b825291506001600160a01b037f000000000000000000000000000000000000000000000000000000000000000016906340a7bb109061235a908b90309086908b908b90600401614755565b6040805180830381865afa158015612374573d5f803e3d5ffd5b505050506040513d601f19601f8201168201806040525081019061239891906147a8565b92509250509550959350505050565b6123af612581565b6001600160a01b0381166124145760405162461bcd60e51b815260206004820152602660248201527f4f776e61626c653a206e6577206f776e657220697320746865207a65726f206160448201526564647265737360d01b6064820152608401610bb5565b6111a081612e56565b604051633d7b2f6f60e21b815261ffff808616600483015284166024820152306044820152606481018290526060907f00000000000000000000000000000000000000000000000000000000000000006001600160a01b03169063f5ecbdbc906084015f60405180830381865afa15801561249a573d5f803e3d5ffd5b505050506040513d5f823e601f3d908101601f191682016040526124c191908101906148e1565b95945050505050565b5f8061252c5a60966366ad5c8a60e01b898989896040516024016124f19493929190614912565b60408051601f198184030181529190526020810180516001600160e01b03166001600160e01b0319909316929092179091523092919061327a565b91509150816114a1576114a186868686856132fe565b5f6001600160e01b031982166380ac58cd60e01b148061257257506001600160e01b03198216635b5e139f60e01b145b80610d885750610d8882613398565b5f546001600160a01b0316331461154b5760405162461bcd60e51b815260206004820181905260248201527f4f776e61626c653a2063616c6c6572206973206e6f7420746865206f776e65726044820152606401610bb5565b6125e381613155565b6111a05760405162461bcd60e51b8152602060048201526018602482015277115490cdcc8c4e881a5b9d985b1a59081d1bdad95b88125160421b6044820152606401610bb5565b5f818152600f6020526040902080546001600160a01b0319166001600160a01b038416908117909155819061265e82611370565b6001600160a01b03167f8c5be1e5ebec7d5bd14f71427d1e84f3dd0314c0f7b2291e5b200ac8c7c3b92560405160405180910390a45050565b5f806126a283611370565b9050806001600160a01b0316846001600160a01b031614806126c957506126c9818561225a565b80611c955750836001600160a01b03166126e284610ea2565b6001600160a01b031614949350505050565b826001600160a01b031661270782611370565b6001600160a01b03161461272d5760405162461bcd60e51b8152600401610bb59061494f565b6001600160a01b03821661278f5760405162461bcd60e51b8152602060048201526024808201527f4552433732313a207472616e7366657220746f20746865207a65726f206164646044820152637265737360e01b6064820152608401610bb5565b826001600160a01b03166127a282611370565b6001600160a01b0316146127c85760405162461bcd60e51b8152600401610bb59061494f565b5f818152600f6020908152604080832080546001600160a01b03199081169091556001600160a01b03878116808652600e855283862080545f1901905590871680865283862080546001019055868652600d90945282852080549092168417909155905184937fddf252ad1be2c89b69c2b068fc378daa952ba7f163c4a11628f55a4df523b3ef91a4505050565b6040805160018082528183019092526060915f91906020808301908036833701905050905082815f8151811061288e5761288e614994565b602090810291909101015292915050565b5f6128a9836133cc565b61ffff8087165f908152600260209081526040808320938916835292905290812054919250906128da9084906149a8565b90505f811161292b5760405162461bcd60e51b815260206004820152601a60248201527f4c7a4170703a206d696e4761734c696d6974206e6f74207365740000000000006044820152606401610bb5565b808210156114a15760405162461bcd60e51b815260206004820152601b60248201527f4c7a4170703a20676173206c696d697420697320746f6f206c6f7700000000006044820152606401610bb5565b61ffff86165f908152600160205260408120805461299890614373565b80601f01602080910402602001604051908101604052809291908181526020018280546129c490614373565b8015612a0f5780601f106129e657610100808354040283529160200191612a0f565b820191905f5260205f20905b8154815290600101906020018083116129f257829003601f168201915b5050505050905080515f03612a7f5760405162461bcd60e51b815260206004820152603060248201527f4c7a4170703a2064657374696e6174696f6e20636861696e206973206e6f742060448201526f61207472757374656420736f7572636560801b6064820152608401610bb5565b612a8a878751613427565b60405162c5803160e81b81526001600160a01b037f0000000000000000000000000000000000000000000000000000000000000000169063c5803100908490612ae1908b9086908c908c908c908c906004016149bb565b5f604051808303818588803b158015612af8575f80fd5b505af1158015612b0a573d5f803e3d5ffd5b505050505050505050505050565b5f845111612b5e5760405162461bcd60e51b8152602060048201526013602482015272746f6b656e4964735b5d20697320656d70747960681b6044820152606401610bb5565b835160011480612b81575061ffff86165f90815260086020526040902054845111155b612bd85760405162461bcd60e51b815260206004820152602260248201527f62617463682073697a65206578636565647320647374206261746368206c696d6044820152611a5d60f21b6064820152608401610bb5565b5f5b8451811015612c1057612c08888888888581518110612bfb57612bfb614994565b6020026020010151613497565b600101612bda565b505f8585604051602001612c259291906148bd565b6040516020818303038152906040529050612c6887600184885160095f8d61ffff1661ffff1681526020019081526020015f2054612c639190614a21565b61289f565b612c7687828686863461297b565b85604051612c849190614a38565b6040518091039020886001600160a01b03168861ffff167fe1b87c47fdeb4f9cbadbca9df3af7aba453bb6e501075d0440d88125b711522a88604051612cca9190614a43565b60405180910390a45050505050505050565b5f8082806020019051810190612cf29190614499565b91509150805f81518110612d0857612d08614994565b60200260200101515f03612d1d575050611ad3565b60148201515f612d2f88838386612efe565b90508251811015612e025784516020808701919091206040805160808101825261ffff808d1682526001600160a01b038088168387019081528385018881526001606086018181525f898152600a909a529887902095518654935190941662010000026001600160b01b03199093169390941692909217178355519082015592516002909301805493151560ff199094169390931790925590517f10e0b70d256bccc84b7027506978bd8b68984a870788b93b479def144c839ad790612df89083908990614a55565b60405180910390a1505b816001600160a01b031687604051612e1a9190614a38565b60405180910390208961ffff167f5b821db8a46f8ecbe1941ba2f51cfeea9643268b56631f70d45e2a745d99026586604051612cca9190614a43565b5f80546001600160a01b038381166001600160a01b0319831681178455604051919092169283917f8be0079c531659141344cd1fd0a4f28419497f9722a3daafe3b4186f6b6457e09190a35050565b600260065403612ef75760405162461bcd60e51b815260206004820152601f60248201527f5265656e7472616e637947756172643a207265656e7472616e742063616c6c006044820152606401610bb5565b6002600655565b5f825b82518110156124c1576007545a106124c157612f378686858481518110612f2a57612f2a614994565b6020026020010151613582565b80612f4181614703565b915050612f01565b606081612f5781601f6149a8565b1015612f965760405162461bcd60e51b815260206004820152600e60248201526d736c6963655f6f766572666c6f7760901b6044820152606401610bb5565b612fa082846149a8565b84511015612fe45760405162461bcd60e51b8152602060048201526011602482015270736c6963655f6f75744f66426f756e647360781b6044820152606401610bb5565b6060821580156130025760405191505f82526020820160405261304c565b6040519150601f8416801560200281840101858101878315602002848b0101015b8183101561303b578051835260209283019201613023565b5050858452601f01601f1916604052505b50949350505050565b816001600160a01b0316836001600160a01b0316036130b65760405162461bcd60e51b815260206004820152601960248201527f4552433732313a20617070726f766520746f2063616c6c6572000000000000006044820152606401610bb5565b6001600160a01b038381165f81815260106020908152604080832094871680845294825291829020805460ff191686151590811790915591519182527f17307eab39ab6107e8899845ad3d59bd9653f200f220920489ca2b5937696c31910160405180910390a3505050565b61312d8484846126f4565b613139848484846135e1565b611ad35760405162461bcd60e51b8152600401610bb590614a6d565b5f908152600d60205260409020546001600160a01b0316151590565b606061317c826125da565b5f61319160408051602081019091525f815290565b90505f8151116131af5760405180602001604052805f8152506119f4565b806131b9846136db565b6040516020016131ca9291906146b7565b6040516020818303038152906040529392505050565b611a06828260405180602001604052805f81525061376a565b61320282613155565b6132635760405162461bcd60e51b815260206004820152602c60248201527f4552433732314d657461646174613a2055524920736574206f66206e6f6e657860448201526b34b9ba32b73a103a37b5b2b760a11b6064820152608401610bb5565b5f828152601460205260409020610fd682826145e6565b5f60605f805f8661ffff166001600160401b0381111561329c5761329c613c1f565b6040519080825280601f01601f1916602001820160405280156132c6576020820181803683370190505b5090505f808751602089015f8d8df191503d9250868311156132e6578692505b828152825f602083013e909890975095505050505050565b818051906020012060055f8761ffff1661ffff1681526020019081526020015f208560405161332d9190614a38565b9081526040805191829003602090810183206001600160401b0388165f908152915220919091557fe183f33de2837795525b4792ca4cd60535bd77c53b7e7030060bfcf5734d6b0c906133899087908790879087908790614abf565b60405180910390a15050505050565b5f6001600160e01b031982166322bac5d960e01b1480610d8857506301ffc9a760e01b6001600160e01b0319831614610d88565b5f60228251101561341f5760405162461bcd60e51b815260206004820152601c60248201527f4c7a4170703a20696e76616c69642061646170746572506172616d73000000006044820152606401610bb5565b506022015190565b61ffff82165f908152600360205260408120549081900361344757506127105b80821115610fd65760405162461bcd60e51b815260206004820181905260248201527f4c7a4170703a207061796c6f61642073697a6520697320746f6f206c617267656044820152606401610bb5565b6134a0336110f5565b6135035760405162461bcd60e51b815260206004820152602e60248201527f4f4e46543732313a2073656e642063616c6c6572206973206e6f74206f776e6560448201526d1c881b9bdc88185c1c1c9bdd995960921b6064820152608401610bb5565b836001600160a01b031661351682611370565b6001600160a01b0316146135775760405162461bcd60e51b815260206004820152602260248201527f4f4e46543732313a2073656e642066726f6d20696e636f7272656374206f776e60448201526132b960f11b6064820152608401610bb5565b611ad38430836126f4565b61358b81613155565b15806135b7575061359b81613155565b80156135b75750306135ac82611370565b6001600160a01b0316145b6135bf575f80fd5b6135c881613155565b6135d657610fd682826131e0565b610fd63083836126f4565b5f6001600160a01b0384163b156136d357604051630a85bd0160e11b81526001600160a01b0385169063150b7a0290613624903390899088908890600401614b10565b6020604051808303815f875af192505050801561365e575060408051601f3d908101601f1916820190925261365b91810190614b4c565b60015b6136b9573d80801561368b576040519150601f19603f3d011682016040523d82523d5f602084013e613690565b606091505b5080515f036136b15760405162461bcd60e51b8152600401610bb590614a6d565b805181602001fd5b6001600160e01b031916630a85bd0160e11b149050611c95565b506001611c95565b60605f6136e78361379c565b60010190505f816001600160401b0381111561370557613705613c1f565b6040519080825280601f01601f19166020018201604052801561372f576020820181803683370190505b5090508181016020015b5f19016f181899199a1a9b1b9c1cb0b131b232b360811b600a86061a8153600a850494508461373957509392505050565b6137748383613873565b6137805f8484846135e1565b610fd65760405162461bcd60e51b8152600401610bb590614a6d565b5f8072184f03e93ff9f4daa797ed6e38ed64bf6a1f0160401b83106137da5772184f03e93ff9f4daa797ed6e38ed64bf6a1f0160401b830492506040015b6d04ee2d6d415b85acef81000000008310613806576d04ee2d6d415b85acef8100000000830492506020015b662386f26fc10000831061382457662386f26fc10000830492506010015b6305f5e100831061383c576305f5e100830492506008015b612710831061385057612710830492506004015b60648310613862576064830492506002015b600a8310610d885760010192915050565b6001600160a01b0382166138c95760405162461bcd60e51b815260206004820181905260248201527f4552433732313a206d696e7420746f20746865207a65726f20616464726573736044820152606401610bb5565b6138d281613155565b1561391f5760405162461bcd60e51b815260206004820152601c60248201527f4552433732313a20746f6b656e20616c7265616479206d696e746564000000006044820152606401610bb5565b61392881613155565b156139755760405162461bcd60e51b815260206004820152601c60248201527f4552433732313a20746f6b656e20616c7265616479206d696e746564000000006044820152606401610bb5565b6001600160a01b0382165f818152600e6020908152604080832080546001019055848352600d90915280822080546001600160a01b0319168417905551839291907fddf252ad1be2c89b69c2b068fc378daa952ba7f163c4a11628f55a4df523b3ef908290a45050565b803561ffff811681146139f0575f80fd5b919050565b5f8083601f840112613a05575f80fd5b5081356001600160401b03811115613a1b575f80fd5b602083019150836020828501011115613a32575f80fd5b9250929050565b80356001600160401b03811681146139f0575f80fd5b5f805f805f8060808789031215613a64575f80fd5b613a6d876139df565b955060208701356001600160401b03811115613a87575f80fd5b613a9389828a016139f5565b9096509450613aa6905060408801613a39565b925060608701356001600160401b03811115613ac0575f80fd5b613acc89828a016139f5565b979a9699509497509295939492505050565b6001600160e01b0319811681146111a0575f80fd5b5f60208284031215613b03575f80fd5b81356119f481613ade565b5f81518084528060208401602086015e5f602082860101526020601f19601f83011685010191505092915050565b602081525f6119f46020830184613b0e565b5f60208284031215613b5e575f80fd5b6119f4826139df565b5f60208284031215613b77575f80fd5b5035919050565b6001600160a01b03811681146111a0575f80fd5b80356139f081613b7e565b5f8060408385031215613bae575f80fd5b8235613bb981613b7e565b946020939093013593505050565b5f8060408385031215613bd8575f80fd5b613bb9836139df565b5f805f60608486031215613bf3575f80fd5b8335613bfe81613b7e565b92506020840135613c0e81613b7e565b929592945050506040919091013590565b634e487b7160e01b5f52604160045260245ffd5b604051601f8201601f191681016001600160401b0381118282101715613c5b57613c5b613c1f565b604052919050565b5f6001600160401b03821115613c7b57613c7b613c1f565b50601f01601f191660200190565b5f613c9b613c9684613c63565b613c33565b9050828152838383011115613cae575f80fd5b828260208301375f602084830101529392505050565b5f82601f830112613cd3575f80fd5b6119f483833560208501613c89565b803580151581146139f0575f80fd5b5f805f805f60a08688031215613d05575f80fd5b613d0e866139df565b945060208601356001600160401b03811115613d28575f80fd5b613d3488828901613cc4565b94505060408601359250613d4a60608701613ce2565b915060808601356001600160401b03811115613d64575f80fd5b613d7088828901613cc4565b9150509295509295909350565b5f805f60408486031215613d8f575f80fd5b613d98846139df565b925060208401356001600160401b03811115613db2575f80fd5b613dbe868287016139f5565b9497909650939450505050565b5f805f60608486031215613ddd575f80fd5b613de6846139df565b92506020840135613df681613b7e565b915060408401356001600160401b03811115613e10575f80fd5b613e1c86828701613cc4565b9150509250925092565b5f805f805f805f60e0888a031215613e3c575f80fd5b8735613e4781613b7e565b9650613e55602089016139df565b955060408801356001600160401b03811115613e6f575f80fd5b613e7b8a828b01613cc4565b955050606088013593506080880135613e9381613b7e565b925060a0880135613ea381613b7e565b915060c08801356001600160401b03811115613ebd575f80fd5b613ec98a828b01613cc4565b91505092959891949750929550565b5f805f60608486031215613eea575f80fd5b613ef3846139df565b925060208401356001600160401b03811115613f0d575f80fd5b613f1986828701613cc4565b925050613f2860408501613a39565b90509250925092565b5f60208284031215613f41575f80fd5b81356119f481613b7e565b5f8060408385031215613f5d575f80fd5b613f66836139df565b9150613f74602084016139df565b90509250929050565b5f60208284031215613f8d575f80fd5b81356001600160401b03811115613fa2575f80fd5b611c9584828501613cc4565b5f8060408385031215613fbf575f80fd5b8235613fca81613b7e565b9150613f7460208401613ce2565b5f6001600160401b03821115613ff057613ff0613c1f565b5060051b60200190565b5f82601f830112614009575f80fd5b8135614017613c9682613fd8565b8082825260208201915060208360051b860101925085831115614038575f80fd5b602085015b8381101561405557803583526020928301920161403d565b5095945050505050565b5f805f805f805f60e0888a031215614075575f80fd5b873561408081613b7e565b965061408e602089016139df565b955060408801356001600160401b038111156140a8575f80fd5b6140b48a828b01613cc4565b95505060608801356001600160401b038111156140cf575f80fd5b6140db8a828b01613ffa565b9450506140ea60808901613b92565b9250613ea360a08901613b92565b5f805f806080858703121561410b575f80fd5b843561411681613b7e565b9350602085013561412681613b7e565b92506040850135915060608501356001600160401b03811115614147575f80fd5b61415387828801613cc4565b91505092959194509250565b5f805f805f60808688031215614173575f80fd5b61417c866139df565b945061418a602087016139df565b93506040860135925060608601356001600160401b038111156141ab575f80fd5b6141b7888289016139f5565b969995985093965092949392505050565b5f80604083850312156141d9575f80fd5b82356141e481613b7e565b915060208301356001600160401b038111156141fe575f80fd5b8301601f8101851361420e575f80fd5b61421d85823560208401613c89565b9150509250929050565b5f805f60608486031215614239575f80fd5b614242846139df565b9250613df660208501613ce2565b5f805f60608486031215614262575f80fd5b61426b846139df565b9250613c0e602085016139df565b5f806040838503121561428a575f80fd5b823561429581613b7e565b915060208301356142a581613b7e565b809150509250929050565b5f805f805f60a086880312156142c4575f80fd5b6142cd866139df565b945060208601356001600160401b038111156142e7575f80fd5b6142f388828901613cc4565b94505060408601356001600160401b0381111561430e575f80fd5b61431a88828901613ffa565b935050613d4a60608701613ce2565b5f805f806080858703121561433c575f80fd5b614345856139df565b9350614353602086016139df565b9250604085013561436381613b7e565b9396929550929360600135925050565b600181811c9082168061438757607f821691505b6020821081036143a557634e487b7160e01b5f52602260045260245ffd5b50919050565b818382375f9101908152919050565b6020808252602d908201527f4552433732313a2063616c6c6572206973206e6f7420746f6b656e206f776e6560408201526c1c881bdc88185c1c1c9bdd9959609a1b606082015260800190565b81835281816020850137505f828201602090810191909152601f909101601f19169091010190565b61ffff84168152604060208201525f6124c1604083018486614407565b5f82601f83011261445b575f80fd5b8151614469613c9682613c63565b81815284602083860101111561447d575f80fd5b8160208501602083015e5f918101602001919091529392505050565b5f80604083850312156144aa575f80fd5b82516001600160401b038111156144bf575f80fd5b6144cb8582860161444c565b92505060208301516001600160401b038111156144e6575f80fd5b8301601f810185136144f6575f80fd5b8051614504613c9682613fd8565b8082825260208201915060208360051b850101925087831115614525575f80fd5b6020840193505b8284101561454757835182526020938401939091019061452c565b809450505050509250929050565b634e487b7160e01b5f52601160045260245ffd5b81810381811115610d8857610d88614555565b8284823760609190911b6bffffffffffffffffffffffff19169101908152601401919050565b601f821115610fd657805f5260205f20601f840160051c810160208510156145c75750805b601f840160051c820191505b81811015610e9b575f81556001016145d3565b81516001600160401b038111156145ff576145ff613c1f565b6146138161460d8454614373565b846145a2565b6020601f821160018114614645575f831561462e5750848201515b5f19600385901b1c1916600184901b178455610e9b565b5f84815260208120601f198516915b828110156146745787850151825560209485019460019092019101614654565b508482101561469157868401515f19600387901b60f8161c191681555b50505050600190811b01905550565b5f81518060208401855e5f93019283525090919050565b5f611c956146c583866146a0565b846146a0565b61ffff8616815261ffff85166020820152836040820152608060608201525f6146f8608083018486614407565b979650505050505050565b5f6001820161471457614714614555565b5060010190565b61ffff86168152608060208201525f614738608083018688614407565b6001600160401b0394909416604083015250606001529392505050565b61ffff861681526001600160a01b038516602082015260a0604082018190525f9061478290830186613b0e565b8415156060840152828103608084015261479c8185613b0e565b98975050505050505050565b5f80604083850312156147b9575f80fd5b505080516020909101519092909150565b6001600160401b038311156147e1576147e1613c1f565b6147f5836147ef8354614373565b836145a2565b5f601f841160018114614826575f851561480f5750838201355b5f19600387901b1c1916600186901b178355610e9b565b5f83815260208120601f198716915b828110156148555786850135825560209485019460019092019101614835565b5086821015614871575f1960f88860031b161c19848701351681555b505060018560011b0183555050505050565b5f8151808452602084019350602083015f5b828110156148b3578151865260209586019590910190600101614895565b5093949350505050565b604081525f6148cf6040830185613b0e565b82810360208401526124c18185614883565b5f602082840312156148f1575f80fd5b81516001600160401b03811115614906575f80fd5b611c958482850161444c565b61ffff85168152608060208201525f61492e6080830186613b0e565b6001600160401b038516604084015282810360608401526146f88185613b0e565b60208082526025908201527f4552433732313a207472616e736665722066726f6d20696e636f72726563742060408201526437bbb732b960d91b606082015260800190565b634e487b7160e01b5f52603260045260245ffd5b80820180821115610d8857610d88614555565b61ffff8716815260c060208201525f6149d760c0830188613b0e565b82810360408401526149e98188613b0e565b6001600160a01b0387811660608601528616608085015283810360a08501529050614a148185613b0e565b9998505050505050505050565b8082028115828204841417610d8857610d88614555565b5f6119f482846146a0565b602081525f6119f46020830184614883565b828152604060208201525f611c956040830184613b0e565b60208082526032908201527f4552433732313a207472616e7366657220746f206e6f6e20455243373231526560408201527131b2b4bb32b91034b6b83632b6b2b73a32b960711b606082015260800190565b61ffff8616815260a060208201525f614adb60a0830187613b0e565b6001600160401b03861660408401528281036060840152614afc8186613b0e565b9050828103608084015261479c8185613b0e565b6001600160a01b03858116825284166020820152604081018390526080606082018190525f90614b4290830184613b0e565b9695505050505050565b5f60208284031215614b5c575f80fd5b81516119f481613ade56fea26469706673582212209c12ad9eb201af0760387e40116284aef2b4345651485e5e15552e47a2c3c0ac64736f6c634300081a0033",
			"opcodes": "PUSH1 0xA0 PUSH1 0x40 MSTORE PUSH0 PUSH1 0x11 SSTORE CALLVALUE DUP1 ISZERO PUSH2 0x13 JUMPI PUSH0 DUP1 REVERT JUMPDEST POP PUSH1 0x40 MLOAD PUSH2 0x4FA9 CODESIZE SUB DUP1 PUSH2 0x4FA9 DUP4 CODECOPY DUP2 ADD PUSH1 0x40 DUP2 SWAP1 MSTORE PUSH2 0x32 SWAP2 PUSH2 0x1D7 JUMP JUMPDEST DUP6 DUP6 DUP6 DUP6 DUP4 DUP4 DUP4 DUP4 DUP1 DUP1 PUSH2 0x45 CALLER PUSH2 0xEB JUMP JUMPDEST PUSH1 0x1 PUSH1 0x1 PUSH1 0xA0 SHL SUB AND PUSH1 0x80 MSTORE POP PUSH1 0x1 PUSH1 0x6 SSTORE DUP2 PUSH2 0xB4 JUMPI PUSH1 0x40 MLOAD PUSH3 0x461BCD PUSH1 0xE5 SHL DUP2 MSTORE PUSH1 0x20 PUSH1 0x4 DUP3 ADD MSTORE PUSH1 0x24 DUP1 DUP3 ADD MSTORE PUSH32 0x6D696E476173546F5472616E73666572416E6453746F7265206D757374206265 PUSH1 0x44 DUP3 ADD MSTORE PUSH4 0x203E203 PUSH1 0xE4 SHL PUSH1 0x64 DUP3 ADD MSTORE PUSH1 0x84 ADD PUSH1 0x40 MLOAD DUP1 SWAP2 SUB SWAP1 REVERT JUMPDEST POP PUSH1 0x7 SSTORE PUSH1 0xB PUSH2 0xC4 DUP4 DUP3 PUSH2 0x2FB JUMP JUMPDEST POP PUSH1 0xC PUSH2 0xD1 DUP3 DUP3 PUSH2 0x2FB JUMP JUMPDEST POP POP POP PUSH1 0x12 SWAP6 SWAP1 SWAP6 SSTORE POP POP POP PUSH1 0x13 SSTORE POP PUSH2 0x3B5 SWAP4 POP POP POP POP JUMP JUMPDEST PUSH0 DUP1 SLOAD PUSH1 0x1 PUSH1 0x1 PUSH1 0xA0 SHL SUB DUP4 DUP2 AND PUSH1 0x1 PUSH1 0x1 PUSH1 0xA0 SHL SUB NOT DUP4 AND DUP2 OR DUP5 SSTORE PUSH1 0x40 MLOAD SWAP2 SWAP1 SWAP3 AND SWAP3 DUP4 SWAP2 PUSH32 0x8BE0079C531659141344CD1FD0A4F28419497F9722A3DAAFE3B4186F6B6457E0 SWAP2 SWAP1 LOG3 POP POP JUMP JUMPDEST PUSH4 0x4E487B71 PUSH1 0xE0 SHL PUSH0 MSTORE PUSH1 0x41 PUSH1 0x4 MSTORE PUSH1 0x24 PUSH0 REVERT JUMPDEST PUSH0 DUP3 PUSH1 0x1F DUP4 ADD SLT PUSH2 0x15D JUMPI PUSH0 DUP1 REVERT JUMPDEST DUP2 MLOAD PUSH1 0x1 PUSH1 0x1 PUSH1 0x40 SHL SUB DUP2 GT ISZERO PUSH2 0x176 JUMPI PUSH2 0x176 PUSH2 0x13A JUMP JUMPDEST PUSH1 0x40 MLOAD PUSH1 0x1F DUP3 ADD PUSH1 0x1F NOT SWAP1 DUP2 AND PUSH1 0x3F ADD AND DUP2 ADD PUSH1 0x1 PUSH1 0x1 PUSH1 0x40 SHL SUB DUP2 GT DUP3 DUP3 LT OR ISZERO PUSH2 0x1A4 JUMPI PUSH2 0x1A4 PUSH2 0x13A JUMP JUMPDEST PUSH1 0x40 MSTORE DUP2 DUP2 MSTORE DUP4 DUP3 ADD PUSH1 0x20 ADD DUP6 LT ISZERO PUSH2 0x1BB JUMPI PUSH0 DUP1 REVERT JUMPDEST DUP2 PUSH1 0x20 DUP6 ADD PUSH1 0x20 DUP4 ADD MCOPY PUSH0 SWAP2 DUP2 ADD PUSH1 0x20 ADD SWAP2 SWAP1 SWAP2 MSTORE SWAP4 SWAP3 POP POP POP JUMP JUMPDEST PUSH0 DUP1 PUSH0 DUP1 PUSH0 DUP1 PUSH1 0xC0 DUP8 DUP10 SUB SLT ISZERO PUSH2 0x1EC JUMPI PUSH0 DUP1 REVERT JUMPDEST DUP7 MLOAD PUSH1 0x1 PUSH1 0x1 PUSH1 0x40 SHL SUB DUP2 GT ISZERO PUSH2 0x201 JUMPI PUSH0 DUP1 REVERT JUMPDEST PUSH2 0x20D DUP10 DUP3 DUP11 ADD PUSH2 0x14E JUMP JUMPDEST PUSH1 0x20 DUP10 ADD MLOAD SWAP1 SWAP8 POP SWAP1 POP PUSH1 0x1 PUSH1 0x1 PUSH1 0x40 SHL SUB DUP2 GT ISZERO PUSH2 0x22A JUMPI PUSH0 DUP1 REVERT JUMPDEST PUSH2 0x236 DUP10 DUP3 DUP11 ADD PUSH2 0x14E JUMP JUMPDEST PUSH1 0x40 DUP10 ADD MLOAD PUSH1 0x60 DUP11 ADD MLOAD SWAP2 SWAP8 POP SWAP6 POP SWAP1 POP PUSH1 0x1 PUSH1 0x1 PUSH1 0xA0 SHL SUB DUP2 AND DUP2 EQ PUSH2 0x25B JUMPI PUSH0 DUP1 REVERT JUMPDEST PUSH1 0x80 DUP9 ADD MLOAD PUSH1 0xA0 SWAP1 SWAP9 ADD MLOAD SWAP7 SWAP10 SWAP6 SWAP9 POP SWAP4 SWAP7 SWAP4 SWAP6 SWAP4 SWAP5 SWAP3 POP POP POP JUMP JUMPDEST PUSH1 0x1 DUP2 DUP2 SHR SWAP1 DUP3 AND DUP1 PUSH2 0x28B JUMPI PUSH1 0x7F DUP3 AND SWAP2 POP JUMPDEST PUSH1 0x20 DUP3 LT DUP2 SUB PUSH2 0x2A9 JUMPI PUSH4 0x4E487B71 PUSH1 0xE0 SHL PUSH0 MSTORE PUSH1 0x22 PUSH1 0x4 MSTORE PUSH1 0x24 PUSH0 REVERT JUMPDEST POP SWAP2 SWAP1 POP JUMP JUMPDEST PUSH1 0x1F DUP3 GT ISZERO PUSH2 0x2F6 JUMPI DUP1 PUSH0 MSTORE PUSH1 0x20 PUSH0 KECCAK256 PUSH1 0x1F DUP5 ADD PUSH1 0x5 SHR DUP2 ADD PUSH1 0x20 DUP6 LT ISZERO PUSH2 0x2D4 JUMPI POP DUP1 JUMPDEST PUSH1 0x1F DUP5 ADD PUSH1 0x5 SHR DUP3 ADD SWAP2 POP JUMPDEST DUP2 DUP2 LT ISZERO PUSH2 0x2F3 JUMPI PUSH0 DUP2 SSTORE PUSH1 0x1 ADD PUSH2 0x2E0 JUMP JUMPDEST POP POP JUMPDEST POP POP POP JUMP JUMPDEST DUP2 MLOAD PUSH1 0x1 PUSH1 0x1 PUSH1 0x40 SHL SUB DUP2 GT ISZERO PUSH2 0x314 JUMPI PUSH2 0x314 PUSH2 0x13A JUMP JUMPDEST PUSH2 0x328 DUP2 PUSH2 0x322 DUP5 SLOAD PUSH2 0x277 JUMP JUMPDEST DUP5 PUSH2 0x2AF JUMP JUMPDEST PUSH1 0x20 PUSH1 0x1F DUP3 GT PUSH1 0x1 DUP2 EQ PUSH2 0x35A JUMPI PUSH0 DUP4 ISZERO PUSH2 0x343 JUMPI POP DUP5 DUP3 ADD MLOAD JUMPDEST PUSH0 NOT PUSH1 0x3 DUP6 SWAP1 SHL SHR NOT AND PUSH1 0x1 DUP5 SWAP1 SHL OR DUP5 SSTORE PUSH2 0x2F3 JUMP JUMPDEST PUSH0 DUP5 DUP2 MSTORE PUSH1 0x20 DUP2 KECCAK256 PUSH1 0x1F NOT DUP6 AND SWAP2 JUMPDEST DUP3 DUP2 LT ISZERO PUSH2 0x389 JUMPI DUP8 DUP6 ADD MLOAD DUP3 SSTORE PUSH1 0x20 SWAP5 DUP6 ADD SWAP5 PUSH1 0x1 SWAP1 SWAP3 ADD SWAP2 ADD PUSH2 0x369 JUMP JUMPDEST POP DUP5 DUP3 LT ISZERO PUSH2 0x3A6 JUMPI DUP7 DUP5 ADD MLOAD PUSH0 NOT PUSH1 0x3 DUP8 SWAP1 SHL PUSH1 0xF8 AND SHR NOT AND DUP2 SSTORE JUMPDEST POP POP POP POP PUSH1 0x1 SWAP1 DUP2 SHL ADD SWAP1 SSTORE POP JUMP JUMPDEST PUSH1 0x80 MLOAD PUSH2 0x4B9D PUSH2 0x40C PUSH0 CODECOPY PUSH0 DUP2 DUP2 PUSH2 0x91B ADD MSTORE DUP2 DUP2 PUSH2 0xB44 ADD MSTORE DUP2 DUP2 PUSH2 0xE3F ADD MSTORE DUP2 DUP2 PUSH2 0x10B9 ADD MSTORE DUP2 DUP2 PUSH2 0x12A5 ADD MSTORE DUP2 DUP2 PUSH2 0x1CBC ADD MSTORE DUP2 DUP2 PUSH2 0x211A ADD MSTORE DUP2 DUP2 PUSH2 0x231D ADD MSTORE DUP2 DUP2 PUSH2 0x244E ADD MSTORE PUSH2 0x2AA0 ADD MSTORE PUSH2 0x4B9D PUSH0 RETURN INVALID PUSH1 0x80 PUSH1 0x40 MSTORE PUSH1 0x4 CALLDATASIZE LT PUSH2 0x37B JUMPI PUSH0 CALLDATALOAD PUSH1 0xE0 SHR DUP1 PUSH4 0x8CFD8F5C GT PUSH2 0x1D3 JUMPI DUP1 PUSH4 0xC87B56DD GT PUSH2 0xFD JUMPI DUP1 PUSH4 0xDF2A5B3B GT PUSH2 0x9D JUMPI DUP1 PUSH4 0xF2353641 GT PUSH2 0x6D JUMPI DUP1 PUSH4 0xF2353641 EQ PUSH2 0xAB9 JUMPI DUP1 PUSH4 0xF2FDE38B EQ PUSH2 0xAD8 JUMPI DUP1 PUSH4 0xF5ECBDBC EQ PUSH2 0xAF7 JUMPI DUP1 PUSH4 0xFA25F9B6 EQ PUSH2 0xB16 JUMPI PUSH0 DUP1 REVERT JUMPDEST DUP1 PUSH4 0xDF2A5B3B EQ PUSH2 0xA47 JUMPI DUP1 PUSH4 0xE1D4C870 EQ PUSH2 0xA66 JUMPI DUP1 PUSH4 0xE985E9C5 EQ PUSH2 0xA7B JUMPI DUP1 PUSH4 0xEB8D72B7 EQ PUSH2 0xA9A JUMPI PUSH0 DUP1 REVERT JUMPDEST DUP1 PUSH4 0xD12473A5 GT PUSH2 0xD8 JUMPI DUP1 PUSH4 0xD12473A5 EQ PUSH2 0x9E1 JUMPI DUP1 PUSH4 0xD1DEBA1F EQ PUSH2 0xA00 JUMPI DUP1 PUSH4 0xDA09F15D EQ PUSH2 0xA13 JUMPI DUP1 PUSH4 0xDDCA3F43 EQ PUSH2 0xA32 JUMPI PUSH0 DUP1 REVERT JUMPDEST DUP1 PUSH4 0xC87B56DD EQ PUSH2 0x990 JUMPI DUP1 PUSH4 0xCBED8B9C EQ PUSH2 0x9AF JUMPI DUP1 PUSH4 0xD0DEF521 EQ PUSH2 0x9CE JUMPI PUSH0 DUP1 REVERT JUMPDEST DUP1 PUSH4 0xA22CB465 GT PUSH2 0x173 JUMPI DUP1 PUSH4 0xB353AAA7 GT PUSH2 0x143 JUMPI DUP1 PUSH4 0xB353AAA7 EQ PUSH2 0x90A JUMPI DUP1 PUSH4 0xB88D4FDE EQ PUSH2 0x93D JUMPI DUP1 PUSH4 0xBAF3292D EQ PUSH2 0x95C JUMPI DUP1 PUSH4 0xC4461834 EQ PUSH2 0x97B JUMPI PUSH0 DUP1 REVERT JUMPDEST DUP1 PUSH4 0xA22CB465 EQ PUSH2 0x892 JUMPI DUP1 PUSH4 0xA6C3D165 EQ PUSH2 0x8B1 JUMPI DUP1 PUSH4 0xAB3FFB93 EQ PUSH2 0x8D0 JUMPI DUP1 PUSH4 0xAF3FB21C EQ PUSH2 0x8E3 JUMPI PUSH0 DUP1 REVERT JUMPDEST DUP1 PUSH4 0x950C8A74 GT PUSH2 0x1AE JUMPI DUP1 PUSH4 0x950C8A74 EQ PUSH2 0x821 JUMPI DUP1 PUSH4 0x95D89B41 EQ PUSH2 0x840 JUMPI DUP1 PUSH4 0x9EA5D6B1 EQ PUSH2 0x854 JUMPI DUP1 PUSH4 0x9F38369A EQ PUSH2 0x873 JUMPI PUSH0 DUP1 REVERT JUMPDEST DUP1 PUSH4 0x8CFD8F5C EQ PUSH2 0x7B0 JUMPI DUP1 PUSH4 0x8DA5CB5B EQ PUSH2 0x7E6 JUMPI DUP1 PUSH4 0x8FFA1F2A EQ PUSH2 0x802 JUMPI PUSH0 DUP1 REVERT JUMPDEST DUP1 PUSH4 0x3F1F4FA4 GT PUSH2 0x2B4 JUMPI DUP1 PUSH4 0x5B8C41E6 GT PUSH2 0x254 JUMPI DUP1 PUSH4 0x6AA99DA3 GT PUSH2 0x224 JUMPI DUP1 PUSH4 0x6AA99DA3 EQ PUSH2 0x749 JUMPI DUP1 PUSH4 0x70A08231 EQ PUSH2 0x75E JUMPI DUP1 PUSH4 0x715018A6 EQ PUSH2 0x77D JUMPI DUP1 PUSH4 0x7533D788 EQ PUSH2 0x791 JUMPI PUSH0 DUP1 REVERT JUMPDEST DUP1 PUSH4 0x5B8C41E6 EQ PUSH2 0x69F JUMPI DUP1 PUSH4 0x6352211E EQ PUSH2 0x6EC JUMPI DUP1 PUSH4 0x66AD5C8A EQ PUSH2 0x70B JUMPI DUP1 PUSH4 0x69FE0E2D EQ PUSH2 0x72A JUMPI PUSH0 DUP1 REVERT JUMPDEST DUP1 PUSH4 0x48288190 GT PUSH2 0x28F JUMPI DUP1 PUSH4 0x48288190 EQ PUSH2 0x639 JUMPI DUP1 PUSH4 0x4AC3F4FF EQ PUSH2 0x64E JUMPI DUP1 PUSH4 0x5154C0B4 EQ PUSH2 0x679 JUMPI DUP1 PUSH4 0x51905636 EQ PUSH2 0x68C JUMPI PUSH0 DUP1 REVERT JUMPDEST DUP1 PUSH4 0x3F1F4FA4 EQ PUSH2 0x5C2 JUMPI DUP1 PUSH4 0x42842E0E EQ PUSH2 0x5FB JUMPI DUP1 PUSH4 0x42D65A8D EQ PUSH2 0x61A JUMPI PUSH0 DUP1 REVERT JUMPDEST DUP1 PUSH4 0xDF37483 GT PUSH2 0x31F JUMPI DUP1 PUSH4 0x23B872DD GT PUSH2 0x2FA JUMPI DUP1 PUSH4 0x23B872DD EQ PUSH2 0x548 JUMPI DUP1 PUSH4 0x2A205E3D EQ PUSH2 0x567 JUMPI DUP1 PUSH4 0x3CCFD60B EQ PUSH2 0x59B JUMPI DUP1 PUSH4 0x3D8B38F6 EQ PUSH2 0x5A3 JUMPI PUSH0 DUP1 REVERT JUMPDEST DUP1 PUSH4 0xDF37483 EQ PUSH2 0x489 JUMPI DUP1 PUSH4 0x10DDB137 EQ PUSH2 0x4A8 JUMPI DUP1 PUSH4 0x22A3ECF9 EQ PUSH2 0x4C7 JUMPI PUSH0 DUP1 REVERT JUMPDEST DUP1 PUSH4 0x7E0DB17 GT PUSH2 0x35A JUMPI DUP1 PUSH4 0x7E0DB17 EQ PUSH2 0x3F5 JUMPI DUP1 PUSH4 0x81812FC EQ PUSH2 0x414 JUMPI DUP1 PUSH4 0x95EA7B3 EQ PUSH2 0x44B JUMPI DUP1 PUSH4 0xB4CAD4C EQ PUSH2 0x46A JUMPI PUSH0 DUP1 REVERT JUMPDEST DUP1 PUSH3 0x1D3567 EQ PUSH2 0x37F JUMPI DUP1 PUSH4 0x1FFC9A7 EQ PUSH2 0x3A0 JUMPI DUP1 PUSH4 0x6FDDE03 EQ PUSH2 0x3D4 JUMPI JUMPDEST PUSH0 DUP1 REVERT JUMPDEST CALLVALUE DUP1 ISZERO PUSH2 0x38A JUMPI PUSH0 DUP1 REVERT JUMPDEST POP PUSH2 0x39E PUSH2 0x399 CALLDATASIZE PUSH1 0x4 PUSH2 0x3A4F JUMP JUMPDEST PUSH2 0xB41 JUMP JUMPDEST STOP JUMPDEST CALLVALUE DUP1 ISZERO PUSH2 0x3AB JUMPI PUSH0 DUP1 REVERT JUMPDEST POP PUSH2 0x3BF PUSH2 0x3BA CALLDATASIZE PUSH1 0x4 PUSH2 0x3AF3 JUMP JUMPDEST PUSH2 0xD6C JUMP JUMPDEST PUSH1 0x40 MLOAD SWAP1 ISZERO ISZERO DUP2 MSTORE PUSH1 0x20 ADD JUMPDEST PUSH1 0x40 MLOAD DUP1 SWAP2 SUB SWAP1 RETURN JUMPDEST CALLVALUE DUP1 ISZERO PUSH2 0x3DF JUMPI PUSH0 DUP1 REVERT JUMPDEST POP PUSH2 0x3E8 PUSH2 0xD8E JUMP JUMPDEST PUSH1 0x40 MLOAD PUSH2 0x3CB SWAP2 SWAP1 PUSH2 0x3B3C JUMP JUMPDEST CALLVALUE DUP1 ISZERO PUSH2 0x400 JUMPI PUSH0 DUP1 REVERT JUMPDEST POP PUSH2 0x39E PUSH2 0x40F CALLDATASIZE PUSH1 0x4 PUSH2 0x3B4E JUMP JUMPDEST PUSH2 0xE1E JUMP JUMPDEST CALLVALUE DUP1 ISZERO PUSH2 0x41F JUMPI PUSH0 DUP1 REVERT JUMPDEST POP PUSH2 0x433 PUSH2 0x42E CALLDATASIZE PUSH1 0x4 PUSH2 0x3B67 JUMP JUMPDEST PUSH2 0xEA2 JUMP JUMPDEST PUSH1 0x40 MLOAD PUSH1 0x1 PUSH1 0x1 PUSH1 0xA0 SHL SUB SWAP1 SWAP2 AND DUP2 MSTORE PUSH1 0x20 ADD PUSH2 0x3CB JUMP JUMPDEST CALLVALUE DUP1 ISZERO PUSH2 0x456 JUMPI PUSH0 DUP1 REVERT JUMPDEST POP PUSH2 0x39E PUSH2 0x465 CALLDATASIZE PUSH1 0x4 PUSH2 0x3B9D JUMP JUMPDEST PUSH2 0xEC7 JUMP JUMPDEST CALLVALUE DUP1 ISZERO PUSH2 0x475 JUMPI PUSH0 DUP1 REVERT JUMPDEST POP PUSH2 0x39E PUSH2 0x484 CALLDATASIZE PUSH1 0x4 PUSH2 0x3B67 JUMP JUMPDEST PUSH2 0xFDB JUMP JUMPDEST CALLVALUE DUP1 ISZERO PUSH2 0x494 JUMPI PUSH0 DUP1 REVERT JUMPDEST POP PUSH2 0x39E PUSH2 0x4A3 CALLDATASIZE PUSH1 0x4 PUSH2 0x3BC7 JUMP JUMPDEST PUSH2 0x107A JUMP JUMPDEST CALLVALUE DUP1 ISZERO PUSH2 0x4B3 JUMPI PUSH0 DUP1 REVERT JUMPDEST POP PUSH2 0x39E PUSH2 0x4C2 CALLDATASIZE PUSH1 0x4 PUSH2 0x3B4E JUMP JUMPDEST PUSH2 0x1098 JUMP JUMPDEST CALLVALUE DUP1 ISZERO PUSH2 0x4D2 JUMPI PUSH0 DUP1 REVERT JUMPDEST POP PUSH2 0x519 PUSH2 0x4E1 CALLDATASIZE PUSH1 0x4 PUSH2 0x3B67 JUMP JUMPDEST PUSH1 0xA PUSH1 0x20 MSTORE PUSH0 SWAP1 DUP2 MSTORE PUSH1 0x40 SWAP1 KECCAK256 DUP1 SLOAD PUSH1 0x1 DUP3 ADD SLOAD PUSH1 0x2 SWAP1 SWAP3 ADD SLOAD PUSH2 0xFFFF DUP3 AND SWAP3 PUSH3 0x10000 SWAP1 SWAP3 DIV PUSH1 0x1 PUSH1 0x1 PUSH1 0xA0 SHL SUB AND SWAP2 SWAP1 PUSH1 0xFF AND DUP5 JUMP JUMPDEST PUSH1 0x40 DUP1 MLOAD PUSH2 0xFFFF SWAP1 SWAP6 AND DUP6 MSTORE PUSH1 0x1 PUSH1 0x1 PUSH1 0xA0 SHL SUB SWAP1 SWAP4 AND PUSH1 0x20 DUP6 ADD MSTORE SWAP2 DUP4 ADD MSTORE ISZERO ISZERO PUSH1 0x60 DUP3 ADD MSTORE PUSH1 0x80 ADD PUSH2 0x3CB JUMP JUMPDEST CALLVALUE DUP1 ISZERO PUSH2 0x553 JUMPI PUSH0 DUP1 REVERT JUMPDEST POP PUSH2 0x39E PUSH2 0x562 CALLDATASIZE PUSH1 0x4 PUSH2 0x3BE1 JUMP JUMPDEST PUSH2 0x10F0 JUMP JUMPDEST CALLVALUE DUP1 ISZERO PUSH2 0x572 JUMPI PUSH0 DUP1 REVERT JUMPDEST POP PUSH2 0x586 PUSH2 0x581 CALLDATASIZE PUSH1 0x4 PUSH2 0x3CF1 JUMP JUMPDEST PUSH2 0x1122 JUMP JUMPDEST PUSH1 0x40 DUP1 MLOAD SWAP3 DUP4 MSTORE PUSH1 0x20 DUP4 ADD SWAP2 SWAP1 SWAP2 MSTORE ADD PUSH2 0x3CB JUMP JUMPDEST PUSH2 0x39E PUSH2 0x1147 JUMP JUMPDEST CALLVALUE DUP1 ISZERO PUSH2 0x5AE JUMPI PUSH0 DUP1 REVERT JUMPDEST POP PUSH2 0x3BF PUSH2 0x5BD CALLDATASIZE PUSH1 0x4 PUSH2 0x3D7D JUMP JUMPDEST PUSH2 0x11A3 JUMP JUMPDEST CALLVALUE DUP1 ISZERO PUSH2 0x5CD JUMPI PUSH0 DUP1 REVERT JUMPDEST POP PUSH2 0x5ED PUSH2 0x5DC CALLDATASIZE PUSH1 0x4 PUSH2 0x3B4E JUMP JUMPDEST PUSH1 0x3 PUSH1 0x20 MSTORE PUSH0 SWAP1 DUP2 MSTORE PUSH1 0x40 SWAP1 KECCAK256 SLOAD DUP2 JUMP JUMPDEST PUSH1 0x40 MLOAD SWAP1 DUP2 MSTORE PUSH1 0x20 ADD PUSH2 0x3CB JUMP JUMPDEST CALLVALUE DUP1 ISZERO PUSH2 0x606 JUMPI PUSH0 DUP1 REVERT JUMPDEST POP PUSH2 0x39E PUSH2 0x615 CALLDATASIZE PUSH1 0x4 PUSH2 0x3BE1 JUMP JUMPDEST PUSH2 0x126C JUMP JUMPDEST CALLVALUE DUP1 ISZERO PUSH2 0x625 JUMPI PUSH0 DUP1 REVERT JUMPDEST POP PUSH2 0x39E PUSH2 0x634 CALLDATASIZE PUSH1 0x4 PUSH2 0x3D7D JUMP JUMPDEST PUSH2 0x1286 JUMP JUMPDEST CALLVALUE DUP1 ISZERO PUSH2 0x644 JUMPI PUSH0 DUP1 REVERT JUMPDEST POP PUSH2 0x5ED PUSH1 0x7 SLOAD DUP2 JUMP JUMPDEST CALLVALUE DUP1 ISZERO PUSH2 0x659 JUMPI PUSH0 DUP1 REVERT JUMPDEST POP PUSH2 0x5ED PUSH2 0x668 CALLDATASIZE PUSH1 0x4 PUSH2 0x3B4E JUMP JUMPDEST PUSH1 0x8 PUSH1 0x20 MSTORE PUSH0 SWAP1 DUP2 MSTORE PUSH1 0x40 SWAP1 KECCAK256 SLOAD DUP2 JUMP JUMPDEST PUSH2 0x39E PUSH2 0x687 CALLDATASIZE PUSH1 0x4 PUSH2 0x3DCB JUMP JUMPDEST PUSH2 0x1307 JUMP JUMPDEST PUSH2 0x39E PUSH2 0x69A CALLDATASIZE PUSH1 0x4 PUSH2 0x3E26 JUMP JUMPDEST PUSH2 0x1359 JUMP JUMPDEST CALLVALUE DUP1 ISZERO PUSH2 0x6AA JUMPI PUSH0 DUP1 REVERT JUMPDEST POP PUSH2 0x5ED PUSH2 0x6B9 CALLDATASIZE PUSH1 0x4 PUSH2 0x3ED8 JUMP JUMPDEST PUSH1 0x5 PUSH1 0x20 SWAP1 DUP2 MSTORE PUSH0 SWAP4 DUP5 MSTORE PUSH1 0x40 DUP1 DUP6 KECCAK256 DUP5 MLOAD DUP1 DUP7 ADD DUP5 ADD DUP1 MLOAD SWAP3 DUP2 MSTORE SWAP1 DUP5 ADD SWAP6 DUP5 ADD SWAP6 SWAP1 SWAP6 KECCAK256 SWAP5 MSTORE SWAP3 SWAP1 MSTORE DUP3 MSTORE SWAP1 KECCAK256 SLOAD DUP2 JUMP JUMPDEST CALLVALUE DUP1 ISZERO PUSH2 0x6F7 JUMPI PUSH0 DUP1 REVERT JUMPDEST POP PUSH2 0x433 PUSH2 0x706 CALLDATASIZE PUSH1 0x4 PUSH2 0x3B67 JUMP JUMPDEST PUSH2 0x1370 JUMP JUMPDEST CALLVALUE DUP1 ISZERO PUSH2 0x716 JUMPI PUSH0 DUP1 REVERT JUMPDEST POP PUSH2 0x39E PUSH2 0x725 CALLDATASIZE PUSH1 0x4 PUSH2 0x3A4F JUMP JUMPDEST PUSH2 0x13CF JUMP JUMPDEST CALLVALUE DUP1 ISZERO PUSH2 0x735 JUMPI PUSH0 DUP1 REVERT JUMPDEST POP PUSH2 0x39E PUSH2 0x744 CALLDATASIZE PUSH1 0x4 PUSH2 0x3B67 JUMP JUMPDEST PUSH2 0x14A9 JUMP JUMPDEST CALLVALUE DUP1 ISZERO PUSH2 0x754 JUMPI PUSH0 DUP1 REVERT JUMPDEST POP PUSH2 0x5ED PUSH1 0x12 SLOAD DUP2 JUMP JUMPDEST CALLVALUE DUP1 ISZERO PUSH2 0x769 JUMPI PUSH0 DUP1 REVERT JUMPDEST POP PUSH2 0x5ED PUSH2 0x778 CALLDATASIZE PUSH1 0x4 PUSH2 0x3F31 JUMP JUMPDEST PUSH2 0x14B6 JUMP JUMPDEST CALLVALUE DUP1 ISZERO PUSH2 0x788 JUMPI PUSH0 DUP1 REVERT JUMPDEST POP PUSH2 0x39E PUSH2 0x153A JUMP JUMPDEST CALLVALUE DUP1 ISZERO PUSH2 0x79C JUMPI PUSH0 DUP1 REVERT JUMPDEST POP PUSH2 0x3E8 PUSH2 0x7AB CALLDATASIZE PUSH1 0x4 PUSH2 0x3B4E JUMP JUMPDEST PUSH2 0x154D JUMP JUMPDEST CALLVALUE DUP1 ISZERO PUSH2 0x7BB JUMPI PUSH0 DUP1 REVERT JUMPDEST POP PUSH2 0x5ED PUSH2 0x7CA CALLDATASIZE PUSH1 0x4 PUSH2 0x3F4C JUMP JUMPDEST PUSH1 0x2 PUSH1 0x20 SWAP1 DUP2 MSTORE PUSH0 SWAP3 DUP4 MSTORE PUSH1 0x40 DUP1 DUP5 KECCAK256 SWAP1 SWAP2 MSTORE SWAP1 DUP3 MSTORE SWAP1 KECCAK256 SLOAD DUP2 JUMP JUMPDEST CALLVALUE DUP1 ISZERO PUSH2 0x7F1 JUMPI PUSH0 DUP1 REVERT JUMPDEST POP PUSH0 SLOAD PUSH1 0x1 PUSH1 0x1 PUSH1 0xA0 SHL SUB AND PUSH2 0x433 JUMP JUMPDEST CALLVALUE DUP1 ISZERO PUSH2 0x80D JUMPI PUSH0 DUP1 REVERT JUMPDEST POP PUSH2 0x39E PUSH2 0x81C CALLDATASIZE PUSH1 0x4 PUSH2 0x3F7D JUMP JUMPDEST PUSH2 0x15E4 JUMP JUMPDEST CALLVALUE DUP1 ISZERO PUSH2 0x82C JUMPI PUSH0 DUP1 REVERT JUMPDEST POP PUSH1 0x4 SLOAD PUSH2 0x433 SWAP1 PUSH1 0x1 PUSH1 0x1 PUSH1 0xA0 SHL SUB AND DUP2 JUMP JUMPDEST CALLVALUE DUP1 ISZERO PUSH2 0x84B JUMPI PUSH0 DUP1 REVERT JUMPDEST POP PUSH2 0x3E8 PUSH2 0x1826 JUMP JUMPDEST CALLVALUE DUP1 ISZERO PUSH2 0x85F JUMPI PUSH0 DUP1 REVERT JUMPDEST POP PUSH2 0x39E PUSH2 0x86E CALLDATASIZE PUSH1 0x4 PUSH2 0x3BC7 JUMP JUMPDEST PUSH2 0x1835 JUMP JUMPDEST CALLVALUE DUP1 ISZERO PUSH2 0x87E JUMPI PUSH0 DUP1 REVERT JUMPDEST POP PUSH2 0x3E8 PUSH2 0x88D CALLDATASIZE PUSH1 0x4 PUSH2 0x3B4E JUMP JUMPDEST PUSH2 0x18EA JUMP JUMPDEST CALLVALUE DUP1 ISZERO PUSH2 0x89D JUMPI PUSH0 DUP1 REVERT JUMPDEST POP PUSH2 0x39E PUSH2 0x8AC CALLDATASIZE PUSH1 0x4 PUSH2 0x3FAE JUMP JUMPDEST PUSH2 0x19FB JUMP JUMPDEST CALLVALUE DUP1 ISZERO PUSH2 0x8BC JUMPI PUSH0 DUP1 REVERT JUMPDEST POP PUSH2 0x39E PUSH2 0x8CB CALLDATASIZE PUSH1 0x4 PUSH2 0x3D7D JUMP JUMPDEST PUSH2 0x1A0A JUMP JUMPDEST PUSH2 0x39E PUSH2 0x8DE CALLDATASIZE PUSH1 0x4 PUSH2 0x405F JUMP JUMPDEST PUSH2 0x1A92 JUMP JUMPDEST CALLVALUE DUP1 ISZERO PUSH2 0x8EE JUMPI PUSH0 DUP1 REVERT JUMPDEST POP PUSH2 0x8F7 PUSH1 0x1 DUP2 JUMP JUMPDEST PUSH1 0x40 MLOAD PUSH2 0xFFFF SWAP1 SWAP2 AND DUP2 MSTORE PUSH1 0x20 ADD PUSH2 0x3CB JUMP JUMPDEST CALLVALUE DUP1 ISZERO PUSH2 0x915 JUMPI PUSH0 DUP1 REVERT JUMPDEST POP PUSH2 0x433 PUSH32 0x0 DUP2 JUMP JUMPDEST CALLVALUE DUP1 ISZERO PUSH2 0x948 JUMPI PUSH0 DUP1 REVERT JUMPDEST POP PUSH2 0x39E PUSH2 0x957 CALLDATASIZE PUSH1 0x4 PUSH2 0x40F8 JUMP JUMPDEST PUSH2 0x1AA1 JUMP JUMPDEST CALLVALUE DUP1 ISZERO PUSH2 0x967 JUMPI PUSH0 DUP1 REVERT JUMPDEST POP PUSH2 0x39E PUSH2 0x976 CALLDATASIZE PUSH1 0x4 PUSH2 0x3F31 JUMP JUMPDEST PUSH2 0x1AD9 JUMP JUMPDEST CALLVALUE DUP1 ISZERO PUSH2 0x986 JUMPI PUSH0 DUP1 REVERT JUMPDEST POP PUSH2 0x5ED PUSH2 0x2710 DUP2 JUMP JUMPDEST CALLVALUE DUP1 ISZERO PUSH2 0x99B JUMPI PUSH0 DUP1 REVERT JUMPDEST POP PUSH2 0x3E8 PUSH2 0x9AA CALLDATASIZE PUSH1 0x4 PUSH2 0x3B67 JUMP JUMPDEST PUSH2 0x1B2F JUMP JUMPDEST CALLVALUE DUP1 ISZERO PUSH2 0x9BA JUMPI PUSH0 DUP1 REVERT JUMPDEST POP PUSH2 0x39E PUSH2 0x9C9 CALLDATASIZE PUSH1 0x4 PUSH2 0x415F JUMP JUMPDEST PUSH2 0x1C9D JUMP JUMPDEST PUSH2 0x39E PUSH2 0x9DC CALLDATASIZE PUSH1 0x4 PUSH2 0x41C8 JUMP JUMPDEST PUSH2 0x1D2D JUMP JUMPDEST CALLVALUE DUP1 ISZERO PUSH2 0x9EC JUMPI PUSH0 DUP1 REVERT JUMPDEST POP PUSH2 0x39E PUSH2 0x9FB CALLDATASIZE PUSH1 0x4 PUSH2 0x3BC7 JUMP JUMPDEST PUSH2 0x1E2A JUMP JUMPDEST PUSH2 0x39E PUSH2 0xA0E CALLDATASIZE PUSH1 0x4 PUSH2 0x3A4F JUMP JUMPDEST PUSH2 0x1ED8 JUMP JUMPDEST CALLVALUE DUP1 ISZERO PUSH2 0xA1E JUMPI PUSH0 DUP1 REVERT JUMPDEST POP PUSH2 0x586 PUSH2 0xA2D CALLDATASIZE PUSH1 0x4 PUSH2 0x4227 JUMP JUMPDEST PUSH2 0x20E8 JUMP JUMPDEST CALLVALUE DUP1 ISZERO PUSH2 0xA3D JUMPI PUSH0 DUP1 REVERT JUMPDEST POP PUSH2 0x5ED PUSH1 0x11 SLOAD DUP2 JUMP JUMPDEST CALLVALUE DUP1 ISZERO PUSH2 0xA52 JUMPI PUSH0 DUP1 REVERT JUMPDEST POP PUSH2 0x39E PUSH2 0xA61 CALLDATASIZE PUSH1 0x4 PUSH2 0x4250 JUMP JUMPDEST PUSH2 0x21AA JUMP JUMPDEST CALLVALUE DUP1 ISZERO PUSH2 0xA71 JUMPI PUSH0 DUP1 REVERT JUMPDEST POP PUSH2 0x5ED PUSH1 0x13 SLOAD DUP2 JUMP JUMPDEST CALLVALUE DUP1 ISZERO PUSH2 0xA86 JUMPI PUSH0 DUP1 REVERT JUMPDEST POP PUSH2 0x3BF PUSH2 0xA95 CALLDATASIZE PUSH1 0x4 PUSH2 0x4279 JUMP JUMPDEST PUSH2 0x225A JUMP JUMPDEST CALLVALUE DUP1 ISZERO PUSH2 0xAA5 JUMPI PUSH0 DUP1 REVERT JUMPDEST POP PUSH2 0x39E PUSH2 0xAB4 CALLDATASIZE PUSH1 0x4 PUSH2 0x3D7D JUMP JUMPDEST PUSH2 0x2287 JUMP JUMPDEST CALLVALUE DUP1 ISZERO PUSH2 0xAC4 JUMPI PUSH0 DUP1 REVERT JUMPDEST POP PUSH2 0x586 PUSH2 0xAD3 CALLDATASIZE PUSH1 0x4 PUSH2 0x42B0 JUMP JUMPDEST PUSH2 0x22E0 JUMP JUMPDEST CALLVALUE DUP1 ISZERO PUSH2 0xAE3 JUMPI PUSH0 DUP1 REVERT JUMPDEST POP PUSH2 0x39E PUSH2 0xAF2 CALLDATASIZE PUSH1 0x4 PUSH2 0x3F31 JUMP JUMPDEST PUSH2 0x23A7 JUMP JUMPDEST CALLVALUE DUP1 ISZERO PUSH2 0xB02 JUMPI PUSH0 DUP1 REVERT JUMPDEST POP PUSH2 0x3E8 PUSH2 0xB11 CALLDATASIZE PUSH1 0x4 PUSH2 0x4329 JUMP JUMPDEST PUSH2 0x241D JUMP JUMPDEST CALLVALUE DUP1 ISZERO PUSH2 0xB21 JUMPI PUSH0 DUP1 REVERT JUMPDEST POP PUSH2 0x5ED PUSH2 0xB30 CALLDATASIZE PUSH1 0x4 PUSH2 0x3B4E JUMP JUMPDEST PUSH1 0x9 PUSH1 0x20 MSTORE PUSH0 SWAP1 DUP2 MSTORE PUSH1 0x40 SWAP1 KECCAK256 SLOAD DUP2 JUMP JUMPDEST CALLER PUSH32 0x0 PUSH1 0x1 PUSH1 0x1 PUSH1 0xA0 SHL SUB AND EQ PUSH2 0xBBE JUMPI PUSH1 0x40 MLOAD PUSH3 0x461BCD PUSH1 0xE5 SHL DUP2 MSTORE PUSH1 0x20 PUSH1 0x4 DUP3 ADD MSTORE PUSH1 0x1E PUSH1 0x24 DUP3 ADD MSTORE PUSH32 0x4C7A4170703A20696E76616C696420656E64706F696E742063616C6C65720000 PUSH1 0x44 DUP3 ADD MSTORE PUSH1 0x64 ADD JUMPDEST PUSH1 0x40 MLOAD DUP1 SWAP2 SUB SWAP1 REVERT JUMPDEST PUSH2 0xFFFF DUP7 AND PUSH0 SWAP1 DUP2 MSTORE PUSH1 0x1 PUSH1 0x20 MSTORE PUSH1 0x40 DUP2 KECCAK256 DUP1 SLOAD PUSH2 0xBDB SWAP1 PUSH2 0x4373 JUMP JUMPDEST DUP1 PUSH1 0x1F ADD PUSH1 0x20 DUP1 SWAP2 DIV MUL PUSH1 0x20 ADD PUSH1 0x40 MLOAD SWAP1 DUP2 ADD PUSH1 0x40 MSTORE DUP1 SWAP3 SWAP2 SWAP1 DUP2 DUP2 MSTORE PUSH1 0x20 ADD DUP3 DUP1 SLOAD PUSH2 0xC07 SWAP1 PUSH2 0x4373 JUMP JUMPDEST DUP1 ISZERO PUSH2 0xC52 JUMPI DUP1 PUSH1 0x1F LT PUSH2 0xC29 JUMPI PUSH2 0x100 DUP1 DUP4 SLOAD DIV MUL DUP4 MSTORE SWAP2 PUSH1 0x20 ADD SWAP2 PUSH2 0xC52 JUMP JUMPDEST DUP3 ADD SWAP2 SWAP1 PUSH0 MSTORE PUSH1 0x20 PUSH0 KECCAK256 SWAP1 JUMPDEST DUP2 SLOAD DUP2 MSTORE SWAP1 PUSH1 0x1 ADD SWAP1 PUSH1 0x20 ADD DUP1 DUP4 GT PUSH2 0xC35 JUMPI DUP3 SWAP1 SUB PUSH1 0x1F AND DUP3 ADD SWAP2 JUMPDEST POP POP POP POP POP SWAP1 POP DUP1 MLOAD DUP7 DUP7 SWAP1 POP EQ DUP1 ISZERO PUSH2 0xC6C JUMPI POP PUSH0 DUP2 MLOAD GT JUMPDEST DUP1 ISZERO PUSH2 0xC94 JUMPI POP DUP1 MLOAD PUSH1 0x20 DUP3 ADD KECCAK256 PUSH1 0x40 MLOAD PUSH2 0xC8A SWAP1 DUP9 SWAP1 DUP9 SWAP1 PUSH2 0x43AB JUMP JUMPDEST PUSH1 0x40 MLOAD DUP1 SWAP2 SUB SWAP1 KECCAK256 EQ JUMPDEST PUSH2 0xCEF JUMPI PUSH1 0x40 MLOAD PUSH3 0x461BCD PUSH1 0xE5 SHL DUP2 MSTORE PUSH1 0x20 PUSH1 0x4 DUP3 ADD MSTORE PUSH1 0x26 PUSH1 0x24 DUP3 ADD MSTORE PUSH32 0x4C7A4170703A20696E76616C696420736F757263652073656E64696E6720636F PUSH1 0x44 DUP3 ADD MSTORE PUSH6 0x1B9D1C9858DD PUSH1 0xD2 SHL PUSH1 0x64 DUP3 ADD MSTORE PUSH1 0x84 ADD PUSH2 0xBB5 JUMP JUMPDEST PUSH2 0xD63 DUP8 DUP8 DUP8 DUP1 DUP1 PUSH1 0x1F ADD PUSH1 0x20 DUP1 SWAP2 DIV MUL PUSH1 0x20 ADD PUSH1 0x40 MLOAD SWAP1 DUP2 ADD PUSH1 0x40 MSTORE DUP1 SWAP4 SWAP3 SWAP2 SWAP1 DUP2 DUP2 MSTORE PUSH1 0x20 ADD DUP4 DUP4 DUP1 DUP3 DUP5 CALLDATACOPY PUSH0 SWAP3 ADD SWAP2 SWAP1 SWAP2 MSTORE POP POP PUSH1 0x40 DUP1 MLOAD PUSH1 0x20 PUSH1 0x1F DUP11 ADD DUP2 SWAP1 DIV DUP2 MUL DUP3 ADD DUP2 ADD SWAP1 SWAP3 MSTORE DUP9 DUP2 MSTORE DUP11 SWAP4 POP SWAP2 POP DUP9 SWAP1 DUP9 SWAP1 DUP2 SWAP1 DUP5 ADD DUP4 DUP3 DUP1 DUP3 DUP5 CALLDATACOPY PUSH0 SWAP3 ADD SWAP2 SWAP1 SWAP2 MSTORE POP PUSH2 0x24CA SWAP3 POP POP POP JUMP JUMPDEST POP POP POP POP POP POP POP JUMP JUMPDEST PUSH0 PUSH1 0x1 PUSH1 0x1 PUSH1 0xE0 SHL SUB NOT DUP3 AND ISZERO DUP1 PUSH2 0xD88 JUMPI POP PUSH2 0xD88 DUP3 PUSH2 0x2542 JUMP JUMPDEST SWAP3 SWAP2 POP POP JUMP JUMPDEST PUSH1 0x60 PUSH1 0xB DUP1 SLOAD PUSH2 0xD9D SWAP1 PUSH2 0x4373 JUMP JUMPDEST DUP1 PUSH1 0x1F ADD PUSH1 0x20 DUP1 SWAP2 DIV MUL PUSH1 0x20 ADD PUSH1 0x40 MLOAD SWAP1 DUP2 ADD PUSH1 0x40 MSTORE DUP1 SWAP3 SWAP2 SWAP1 DUP2 DUP2 MSTORE PUSH1 0x20 ADD DUP3 DUP1 SLOAD PUSH2 0xDC9 SWAP1 PUSH2 0x4373 JUMP JUMPDEST DUP1 ISZERO PUSH2 0xE14 JUMPI DUP1 PUSH1 0x1F LT PUSH2 0xDEB JUMPI PUSH2 0x100 DUP1 DUP4 SLOAD DIV MUL DUP4 MSTORE SWAP2 PUSH1 0x20 ADD SWAP2 PUSH2 0xE14 JUMP JUMPDEST DUP3 ADD SWAP2 SWAP1 PUSH0 MSTORE PUSH1 0x20 PUSH0 KECCAK256 SWAP1 JUMPDEST DUP2 SLOAD DUP2 MSTORE SWAP1 PUSH1 0x1 ADD SWAP1 PUSH1 0x20 ADD DUP1 DUP4 GT PUSH2 0xDF7 JUMPI DUP3 SWAP1 SUB PUSH1 0x1F AND DUP3 ADD SWAP2 JUMPDEST POP POP POP POP POP SWAP1 POP SWAP1 JUMP JUMPDEST PUSH2 0xE26 PUSH2 0x2581 JUMP JUMPDEST PUSH1 0x40 MLOAD PUSH4 0x7E0DB17 PUSH1 0xE0 SHL DUP2 MSTORE PUSH2 0xFFFF DUP3 AND PUSH1 0x4 DUP3 ADD MSTORE PUSH32 0x0 PUSH1 0x1 PUSH1 0x1 PUSH1 0xA0 SHL SUB AND SWAP1 PUSH4 0x7E0DB17 SWAP1 PUSH1 0x24 ADD JUMPDEST PUSH0 PUSH1 0x40 MLOAD DUP1 DUP4 SUB DUP2 PUSH0 DUP8 DUP1 EXTCODESIZE ISZERO DUP1 ISZERO PUSH2 0xE89 JUMPI PUSH0 DUP1 REVERT JUMPDEST POP GAS CALL ISZERO DUP1 ISZERO PUSH2 0xE9B JUMPI RETURNDATASIZE PUSH0 DUP1 RETURNDATACOPY RETURNDATASIZE PUSH0 REVERT JUMPDEST POP POP POP POP POP JUMP JUMPDEST PUSH0 PUSH2 0xEAC DUP3 PUSH2 0x25DA JUMP JUMPDEST POP PUSH0 SWAP1 DUP2 MSTORE PUSH1 0xF PUSH1 0x20 MSTORE PUSH1 0x40 SWAP1 KECCAK256 SLOAD PUSH1 0x1 PUSH1 0x1 PUSH1 0xA0 SHL SUB AND SWAP1 JUMP JUMPDEST PUSH0 PUSH2 0xED1 DUP3 PUSH2 0x1370 JUMP JUMPDEST SWAP1 POP DUP1 PUSH1 0x1 PUSH1 0x1 PUSH1 0xA0 SHL SUB AND DUP4 PUSH1 0x1 PUSH1 0x1 PUSH1 0xA0 SHL SUB AND SUB PUSH2 0xF3E JUMPI PUSH1 0x40 MLOAD PUSH3 0x461BCD PUSH1 0xE5 SHL DUP2 MSTORE PUSH1 0x20 PUSH1 0x4 DUP3 ADD MSTORE PUSH1 0x21 PUSH1 0x24 DUP3 ADD MSTORE PUSH32 0x4552433732313A20617070726F76616C20746F2063757272656E74206F776E65 PUSH1 0x44 DUP3 ADD MSTORE PUSH1 0x39 PUSH1 0xF9 SHL PUSH1 0x64 DUP3 ADD MSTORE PUSH1 0x84 ADD PUSH2 0xBB5 JUMP JUMPDEST CALLER PUSH1 0x1 PUSH1 0x1 PUSH1 0xA0 SHL SUB DUP3 AND EQ DUP1 PUSH2 0xF5A JUMPI POP PUSH2 0xF5A DUP2 CALLER PUSH2 0x225A JUMP JUMPDEST PUSH2 0xFCC JUMPI PUSH1 0x40 MLOAD PUSH3 0x461BCD PUSH1 0xE5 SHL DUP2 MSTORE PUSH1 0x20 PUSH1 0x4 DUP3 ADD MSTORE PUSH1 0x3D PUSH1 0x24 DUP3 ADD MSTORE PUSH32 0x4552433732313A20617070726F76652063616C6C6572206973206E6F7420746F PUSH1 0x44 DUP3 ADD MSTORE PUSH32 0x6B656E206F776E6572206F7220617070726F76656420666F7220616C6C000000 PUSH1 0x64 DUP3 ADD MSTORE PUSH1 0x84 ADD PUSH2 0xBB5 JUMP JUMPDEST PUSH2 0xFD6 DUP4 DUP4 PUSH2 0x262A JUMP JUMPDEST POP POP POP JUMP JUMPDEST PUSH2 0xFE3 PUSH2 0x2581 JUMP JUMPDEST PUSH0 DUP2 GT PUSH2 0x103E JUMPI PUSH1 0x40 MLOAD PUSH3 0x461BCD PUSH1 0xE5 SHL DUP2 MSTORE PUSH1 0x20 PUSH1 0x4 DUP3 ADD MSTORE PUSH1 0x24 DUP1 DUP3 ADD MSTORE PUSH32 0x6D696E476173546F5472616E73666572416E6453746F7265206D757374206265 PUSH1 0x44 DUP3 ADD MSTORE PUSH4 0x203E203 PUSH1 0xE4 SHL PUSH1 0x64 DUP3 ADD MSTORE PUSH1 0x84 ADD PUSH2 0xBB5 JUMP JUMPDEST PUSH1 0x7 DUP2 SWAP1 SSTORE PUSH1 0x40 MLOAD DUP2 DUP2 MSTORE PUSH32 0xFEBBC4F8BB9EC2313950C718D43123124B15778EFDA4C1F1D529DE2995B4F34D SWAP1 PUSH1 0x20 ADD JUMPDEST PUSH1 0x40 MLOAD DUP1 SWAP2 SUB SWAP1 LOG1 POP JUMP JUMPDEST PUSH2 0x1082 PUSH2 0x2581 JUMP JUMPDEST PUSH2 0xFFFF SWAP1 SWAP2 AND PUSH0 SWAP1 DUP2 MSTORE PUSH1 0x3 PUSH1 0x20 MSTORE PUSH1 0x40 SWAP1 KECCAK256 SSTORE JUMP JUMPDEST PUSH2 0x10A0 PUSH2 0x2581 JUMP JUMPDEST PUSH1 0x40 MLOAD PUSH4 0x10DDB137 PUSH1 0xE0 SHL DUP2 MSTORE PUSH2 0xFFFF DUP3 AND PUSH1 0x4 DUP3 ADD MSTORE PUSH32 0x0 PUSH1 0x1 PUSH1 0x1 PUSH1 0xA0 SHL SUB AND SWAP1 PUSH4 0x10DDB137 SWAP1 PUSH1 0x24 ADD PUSH2 0xE72 JUMP JUMPDEST PUSH2 0x10FB CALLER JUMPDEST DUP3 PUSH2 0x2697 JUMP JUMPDEST PUSH2 0x1117 JUMPI PUSH1 0x40 MLOAD PUSH3 0x461BCD PUSH1 0xE5 SHL DUP2 MSTORE PUSH1 0x4 ADD PUSH2 0xBB5 SWAP1 PUSH2 0x43BA JUMP JUMPDEST PUSH2 0xFD6 DUP4 DUP4 DUP4 PUSH2 0x26F4 JUMP JUMPDEST PUSH0 DUP1 PUSH2 0x1139 DUP8 DUP8 PUSH2 0x1132 DUP9 PUSH2 0x2856 JUMP JUMPDEST DUP8 DUP8 PUSH2 0x22E0 JUMP JUMPDEST SWAP2 POP SWAP2 POP SWAP6 POP SWAP6 SWAP4 POP POP POP POP JUMP JUMPDEST PUSH2 0x114F PUSH2 0x2581 JUMP JUMPDEST PUSH1 0x40 MLOAD PUSH0 SWAP1 CALLER SWAP1 SELFBALANCE SWAP1 DUP4 DUP2 DUP2 DUP2 DUP6 DUP8 GAS CALL SWAP3 POP POP POP RETURNDATASIZE DUP1 PUSH0 DUP2 EQ PUSH2 0x118E JUMPI PUSH1 0x40 MLOAD SWAP2 POP PUSH1 0x1F NOT PUSH1 0x3F RETURNDATASIZE ADD AND DUP3 ADD PUSH1 0x40 MSTORE RETURNDATASIZE DUP3 MSTORE RETURNDATASIZE PUSH0 PUSH1 0x20 DUP5 ADD RETURNDATACOPY PUSH2 0x1193 JUMP JUMPDEST PUSH1 0x60 SWAP2 POP JUMPDEST POP POP SWAP1 POP DUP1 PUSH2 0x11A0 JUMPI PUSH0 DUP1 REVERT JUMPDEST POP JUMP JUMPDEST PUSH2 0xFFFF DUP4 AND PUSH0 SWAP1 DUP2 MSTORE PUSH1 0x1 PUSH1 0x20 MSTORE PUSH1 0x40 DUP2 KECCAK256 DUP1 SLOAD DUP3 SWAP2 SWAP1 PUSH2 0x11C3 SWAP1 PUSH2 0x4373 JUMP JUMPDEST DUP1 PUSH1 0x1F ADD PUSH1 0x20 DUP1 SWAP2 DIV MUL PUSH1 0x20 ADD PUSH1 0x40 MLOAD SWAP1 DUP2 ADD PUSH1 0x40 MSTORE DUP1 SWAP3 SWAP2 SWAP1 DUP2 DUP2 MSTORE PUSH1 0x20 ADD DUP3 DUP1 SLOAD PUSH2 0x11EF SWAP1 PUSH2 0x4373 JUMP JUMPDEST DUP1 ISZERO PUSH2 0x123A JUMPI DUP1 PUSH1 0x1F LT PUSH2 0x1211 JUMPI PUSH2 0x100 DUP1 DUP4 SLOAD DIV MUL DUP4 MSTORE SWAP2 PUSH1 0x20 ADD SWAP2 PUSH2 0x123A JUMP JUMPDEST DUP3 ADD SWAP2 SWAP1 PUSH0 MSTORE PUSH1 0x20 PUSH0 KECCAK256 SWAP1 JUMPDEST DUP2 SLOAD DUP2 MSTORE SWAP1 PUSH1 0x1 ADD SWAP1 PUSH1 0x20 ADD DUP1 DUP4 GT PUSH2 0x121D JUMPI DUP3 SWAP1 SUB PUSH1 0x1F AND DUP3 ADD SWAP2 JUMPDEST POP POP POP POP POP SWAP1 POP DUP4 DUP4 PUSH1 0x40 MLOAD PUSH2 0x1251 SWAP3 SWAP2 SWAP1 PUSH2 0x43AB JUMP JUMPDEST PUSH1 0x40 MLOAD DUP1 SWAP2 SUB SWAP1 KECCAK256 DUP2 DUP1 MLOAD SWAP1 PUSH1 0x20 ADD KECCAK256 EQ SWAP2 POP POP SWAP4 SWAP3 POP POP POP JUMP JUMPDEST PUSH2 0xFD6 DUP4 DUP4 DUP4 PUSH1 0x40 MLOAD DUP1 PUSH1 0x20 ADD PUSH1 0x40 MSTORE DUP1 PUSH0 DUP2 MSTORE POP PUSH2 0x1AA1 JUMP JUMPDEST PUSH2 0x128E PUSH2 0x2581 JUMP JUMPDEST PUSH1 0x40 MLOAD PUSH4 0x42D65A8D PUSH1 0xE0 SHL DUP2 MSTORE PUSH1 0x1 PUSH1 0x1 PUSH1 0xA0 SHL SUB PUSH32 0x0 AND SWAP1 PUSH4 0x42D65A8D SWAP1 PUSH2 0x12DE SWAP1 DUP7 SWAP1 DUP7 SWAP1 DUP7 SWAP1 PUSH1 0x4 ADD PUSH2 0x442F JUMP JUMPDEST PUSH0 PUSH1 0x40 MLOAD DUP1 DUP4 SUB DUP2 PUSH0 DUP8 DUP1 EXTCODESIZE ISZERO DUP1 ISZERO PUSH2 0x12F5 JUMPI PUSH0 DUP1 REVERT JUMPDEST POP GAS CALL ISZERO DUP1 ISZERO PUSH2 0xD63 JUMPI RETURNDATASIZE PUSH0 DUP1 RETURNDATACOPY RETURNDATASIZE PUSH0 REVERT JUMPDEST PUSH2 0xFFFF DUP4 AND PUSH0 SWAP1 DUP2 MSTORE PUSH1 0x9 PUSH1 0x20 MSTORE PUSH1 0x40 SWAP1 KECCAK256 SLOAD PUSH2 0x132A SWAP1 DUP5 SWAP1 PUSH1 0x1 SWAP1 DUP5 SWAP1 PUSH2 0x289F JUMP JUMPDEST PUSH1 0x40 DUP1 MLOAD CALLER PUSH1 0x20 DUP3 ADD MSTORE PUSH0 DUP2 DUP4 ADD MSTORE DUP2 MLOAD DUP1 DUP3 SUB DUP4 ADD DUP2 MSTORE PUSH1 0x60 SWAP1 SWAP2 ADD SWAP1 SWAP2 MSTORE PUSH2 0xFD6 SWAP1 DUP5 SWAP1 ADDRESS DUP6 DUP6 CALLVALUE PUSH2 0x297B JUMP JUMPDEST PUSH2 0xD63 DUP8 DUP8 DUP8 PUSH2 0x1368 DUP9 PUSH2 0x2856 JUMP JUMPDEST DUP8 DUP8 DUP8 PUSH2 0x2B18 JUMP JUMPDEST PUSH0 DUP2 DUP2 MSTORE PUSH1 0xD PUSH1 0x20 MSTORE PUSH1 0x40 DUP2 KECCAK256 SLOAD PUSH1 0x1 PUSH1 0x1 PUSH1 0xA0 SHL SUB AND DUP1 PUSH2 0xD88 JUMPI PUSH1 0x40 MLOAD PUSH3 0x461BCD PUSH1 0xE5 SHL DUP2 MSTORE PUSH1 0x20 PUSH1 0x4 DUP3 ADD MSTORE PUSH1 0x18 PUSH1 0x24 DUP3 ADD MSTORE PUSH24 0x115490CDCC8C4E881A5B9D985B1A59081D1BDAD95B881251 PUSH1 0x42 SHL PUSH1 0x44 DUP3 ADD MSTORE PUSH1 0x64 ADD PUSH2 0xBB5 JUMP JUMPDEST CALLER ADDRESS EQ PUSH2 0x142D JUMPI PUSH1 0x40 MLOAD PUSH3 0x461BCD PUSH1 0xE5 SHL DUP2 MSTORE PUSH1 0x20 PUSH1 0x4 DUP3 ADD MSTORE PUSH1 0x26 PUSH1 0x24 DUP3 ADD MSTORE PUSH32 0x4E6F6E626C6F636B696E674C7A4170703A2063616C6C6572206D757374206265 PUSH1 0x44 DUP3 ADD MSTORE PUSH6 0x204C7A41707 PUSH1 0xD4 SHL PUSH1 0x64 DUP3 ADD MSTORE PUSH1 0x84 ADD PUSH2 0xBB5 JUMP JUMPDEST PUSH2 0x14A1 DUP7 DUP7 DUP7 DUP1 DUP1 PUSH1 0x1F ADD PUSH1 0x20 DUP1 SWAP2 DIV MUL PUSH1 0x20 ADD PUSH1 0x40 MLOAD SWAP1 DUP2 ADD PUSH1 0x40 MSTORE DUP1 SWAP4 SWAP3 SWAP2 SWAP1 DUP2 DUP2 MSTORE PUSH1 0x20 ADD DUP4 DUP4 DUP1 DUP3 DUP5 CALLDATACOPY PUSH0 SWAP3 ADD SWAP2 SWAP1 SWAP2 MSTORE POP POP PUSH1 0x40 DUP1 MLOAD PUSH1 0x20 PUSH1 0x1F DUP10 ADD DUP2 SWAP1 DIV DUP2 MUL DUP3 ADD DUP2 ADD SWAP1 SWAP3 MSTORE DUP8 DUP2 MSTORE DUP10 SWAP4 POP SWAP2 POP DUP8 SWAP1 DUP8 SWAP1 DUP2 SWAP1 DUP5 ADD DUP4 DUP3 DUP1 DUP3 DUP5 CALLDATACOPY PUSH0 SWAP3 ADD SWAP2 SWAP1 SWAP2 MSTORE POP PUSH2 0x2CDC SWAP3 POP POP POP JUMP JUMPDEST POP POP POP POP POP POP JUMP JUMPDEST PUSH2 0x14B1 PUSH2 0x2581 JUMP JUMPDEST PUSH1 0x11 SSTORE JUMP JUMPDEST PUSH0 PUSH1 0x1 PUSH1 0x1 PUSH1 0xA0 SHL SUB DUP3 AND PUSH2 0x151F JUMPI PUSH1 0x40 MLOAD PUSH3 0x461BCD PUSH1 0xE5 SHL DUP2 MSTORE PUSH1 0x20 PUSH1 0x4 DUP3 ADD MSTORE PUSH1 0x29 PUSH1 0x24 DUP3 ADD MSTORE PUSH32 0x4552433732313A2061646472657373207A65726F206973206E6F742061207661 PUSH1 0x44 DUP3 ADD MSTORE PUSH9 0x3634B21037BBB732B9 PUSH1 0xB9 SHL PUSH1 0x64 DUP3 ADD MSTORE PUSH1 0x84 ADD PUSH2 0xBB5 JUMP JUMPDEST POP PUSH1 0x1 PUSH1 0x1 PUSH1 0xA0 SHL SUB AND PUSH0 SWAP1 DUP2 MSTORE PUSH1 0xE PUSH1 0x20 MSTORE PUSH1 0x40 SWAP1 KECCAK256 SLOAD SWAP1 JUMP JUMPDEST PUSH2 0x1542 PUSH2 0x2581 JUMP JUMPDEST PUSH2 0x154B PUSH0 PUSH2 0x2E56 JUMP JUMPDEST JUMP JUMPDEST PUSH1 0x1 PUSH1 0x20 MSTORE PUSH0 SWAP1 DUP2 MSTORE PUSH1 0x40 SWAP1 KECCAK256 DUP1 SLOAD PUSH2 0x1565 SWAP1 PUSH2 0x4373 JUMP JUMPDEST DUP1 PUSH1 0x1F ADD PUSH1 0x20 DUP1 SWAP2 DIV MUL PUSH1 0x20 ADD PUSH1 0x40 MLOAD SWAP1 DUP2 ADD PUSH1 0x40 MSTORE DUP1 SWAP3 SWAP2 SWAP1 DUP2 DUP2 MSTORE PUSH1 0x20 ADD DUP3 DUP1 SLOAD PUSH2 0x1591 SWAP1 PUSH2 0x4373 JUMP JUMPDEST DUP1 ISZERO PUSH2 0x15DC JUMPI DUP1 PUSH1 0x1F LT PUSH2 0x15B3 JUMPI PUSH2 0x100 DUP1 DUP4 SLOAD DIV MUL DUP4 MSTORE SWAP2 PUSH1 0x20 ADD SWAP2 PUSH2 0x15DC JUMP JUMPDEST DUP3 ADD SWAP2 SWAP1 PUSH0 MSTORE PUSH1 0x20 PUSH0 KECCAK256 SWAP1 JUMPDEST DUP2 SLOAD DUP2 MSTORE SWAP1 PUSH1 0x1 ADD SWAP1 PUSH1 0x20 ADD DUP1 DUP4 GT PUSH2 0x15BF JUMPI DUP3 SWAP1 SUB PUSH1 0x1F AND DUP3 ADD SWAP2 JUMPDEST POP POP POP POP POP DUP2 JUMP JUMPDEST PUSH2 0x15EC PUSH2 0x2EA5 JUMP JUMPDEST DUP1 MLOAD PUSH1 0x20 DUP1 DUP4 ADD SWAP2 SWAP1 SWAP2 KECCAK256 PUSH0 DUP2 DUP2 MSTORE PUSH1 0xA SWAP1 SWAP3 MSTORE PUSH1 0x40 SWAP1 SWAP2 KECCAK256 PUSH1 0x2 ADD SLOAD PUSH1 0xFF AND PUSH2 0x164C JUMPI PUSH1 0x40 MLOAD PUSH3 0x461BCD PUSH1 0xE5 SHL DUP2 MSTORE PUSH1 0x20 PUSH1 0x4 DUP3 ADD MSTORE PUSH1 0x11 PUSH1 0x24 DUP3 ADD MSTORE PUSH17 0x1B9BC818DC99591A5D1CC81CDD1BDC9959 PUSH1 0x7A SHL PUSH1 0x44 DUP3 ADD MSTORE PUSH1 0x64 ADD PUSH2 0xBB5 JUMP JUMPDEST PUSH0 DUP3 DUP1 PUSH1 0x20 ADD SWAP1 MLOAD DUP2 ADD SWAP1 PUSH2 0x1661 SWAP2 SWAP1 PUSH2 0x4499 JUMP JUMPDEST PUSH0 DUP5 DUP2 MSTORE PUSH1 0xA PUSH1 0x20 MSTORE PUSH1 0x40 DUP2 KECCAK256 DUP1 SLOAD PUSH1 0x1 SWAP1 SWAP2 ADD SLOAD SWAP3 SWAP5 POP SWAP1 SWAP3 POP PUSH2 0x169C SWAP2 PUSH2 0xFFFF DUP3 AND SWAP2 PUSH3 0x10000 SWAP1 DIV PUSH1 0x1 PUSH1 0x1 PUSH1 0xA0 SHL SUB AND SWAP1 DUP6 PUSH2 0x2EFE JUMP JUMPDEST PUSH0 DUP5 DUP2 MSTORE PUSH1 0xA PUSH1 0x20 MSTORE PUSH1 0x40 SWAP1 KECCAK256 PUSH1 0x1 ADD SLOAD SWAP1 SWAP2 POP DUP2 GT PUSH2 0x1710 JUMPI PUSH1 0x40 MLOAD PUSH3 0x461BCD PUSH1 0xE5 SHL DUP2 MSTORE PUSH1 0x20 PUSH1 0x4 DUP3 ADD MSTORE PUSH1 0x29 PUSH1 0x24 DUP3 ADD MSTORE PUSH32 0x6E6F7420656E6F7567682067617320746F2070726F6365737320637265646974 PUSH1 0x44 DUP3 ADD MSTORE PUSH9 0x103A3930B739B332B9 PUSH1 0xB9 SHL PUSH1 0x64 DUP3 ADD MSTORE PUSH1 0x84 ADD PUSH2 0xBB5 JUMP JUMPDEST DUP2 MLOAD DUP2 SUB PUSH2 0x1786 JUMPI PUSH0 DUP4 DUP2 MSTORE PUSH1 0xA PUSH1 0x20 MSTORE PUSH1 0x40 DUP1 DUP3 KECCAK256 DUP1 SLOAD PUSH1 0x1 PUSH1 0x1 PUSH1 0xB0 SHL SUB NOT AND DUP2 SSTORE PUSH1 0x1 DUP2 ADD SWAP3 SWAP1 SWAP3 SSTORE PUSH1 0x2 SWAP1 SWAP2 ADD DUP1 SLOAD PUSH1 0xFF NOT AND SWAP1 SSTORE MLOAD PUSH32 0xD7BE02B8DD0D27BD0517A9CB4D7469CE27DF4313821AE5EC1FF69ACC594BA233 SWAP1 PUSH2 0x1779 SWAP1 DUP6 DUP2 MSTORE PUSH1 0x20 ADD SWAP1 JUMP JUMPDEST PUSH1 0x40 MLOAD DUP1 SWAP2 SUB SWAP1 LOG1 PUSH2 0x1819 JUMP JUMPDEST PUSH1 0x40 DUP1 MLOAD PUSH1 0x80 DUP2 ADD DUP3 MSTORE PUSH0 DUP6 DUP2 MSTORE PUSH1 0xA PUSH1 0x20 DUP2 DUP2 MSTORE DUP5 DUP4 KECCAK256 DUP1 SLOAD PUSH2 0xFFFF DUP1 DUP3 AND DUP8 MSTORE PUSH1 0x1 PUSH1 0x1 PUSH1 0xA0 SHL SUB PUSH3 0x10000 DUP1 DUP5 DIV DUP3 AND DUP7 DUP11 ADD SWAP1 DUP2 MSTORE SWAP10 DUP10 ADD DUP12 DUP2 MSTORE PUSH1 0x1 PUSH1 0x60 DUP12 ADD DUP2 DUP2 MSTORE SWAP10 DUP16 SWAP1 MSTORE SWAP8 SWAP1 SWAP7 MSTORE SWAP8 MLOAD SWAP9 MLOAD AND SWAP1 SWAP7 MUL PUSH1 0x1 PUSH1 0x1 PUSH1 0xB0 SHL SUB NOT SWAP1 SWAP2 AND SWAP7 SWAP1 SWAP6 AND SWAP6 SWAP1 SWAP6 OR SWAP4 SWAP1 SWAP4 OR DUP5 SSTORE SWAP2 MLOAD SWAP2 DUP4 ADD SWAP2 SWAP1 SWAP2 SSTORE MLOAD PUSH1 0x2 SWAP1 SWAP2 ADD DUP1 SLOAD SWAP2 ISZERO ISZERO PUSH1 0xFF NOT SWAP1 SWAP3 AND SWAP2 SWAP1 SWAP2 OR SWAP1 SSTORE JUMPDEST POP POP POP PUSH2 0x11A0 PUSH1 0x1 PUSH1 0x6 SSTORE JUMP JUMPDEST PUSH1 0x60 PUSH1 0xC DUP1 SLOAD PUSH2 0xD9D SWAP1 PUSH2 0x4373 JUMP JUMPDEST PUSH2 0x183D PUSH2 0x2581 JUMP JUMPDEST PUSH0 DUP2 GT PUSH2 0x1897 JUMPI PUSH1 0x40 MLOAD PUSH3 0x461BCD PUSH1 0xE5 SHL DUP2 MSTORE PUSH1 0x20 PUSH1 0x4 DUP3 ADD MSTORE PUSH1 0x22 PUSH1 0x24 DUP3 ADD MSTORE PUSH32 0x647374436861696E4964546F42617463684C696D6974206D757374206265203E PUSH1 0x44 DUP3 ADD MSTORE PUSH2 0x203 PUSH1 0xF4 SHL PUSH1 0x64 DUP3 ADD MSTORE PUSH1 0x84 ADD PUSH2 0xBB5 JUMP JUMPDEST PUSH2 0xFFFF DUP3 AND PUSH0 DUP2 DUP2 MSTORE PUSH1 0x8 PUSH1 0x20 SWAP1 DUP2 MSTORE PUSH1 0x40 SWAP2 DUP3 SWAP1 KECCAK256 DUP5 SWAP1 SSTORE DUP2 MLOAD SWAP3 DUP4 MSTORE DUP3 ADD DUP4 SWAP1 MSTORE PUSH32 0x7315F7654D594EAD24A30160ED9BA2D23247F543016B918343591E93D7AFDB6D SWAP2 ADD JUMPDEST PUSH1 0x40 MLOAD DUP1 SWAP2 SUB SWAP1 LOG1 POP POP JUMP JUMPDEST PUSH2 0xFFFF DUP2 AND PUSH0 SWAP1 DUP2 MSTORE PUSH1 0x1 PUSH1 0x20 MSTORE PUSH1 0x40 DUP2 KECCAK256 DUP1 SLOAD PUSH1 0x60 SWAP3 SWAP2 SWAP1 PUSH2 0x190C SWAP1 PUSH2 0x4373 JUMP JUMPDEST DUP1 PUSH1 0x1F ADD PUSH1 0x20 DUP1 SWAP2 DIV MUL PUSH1 0x20 ADD PUSH1 0x40 MLOAD SWAP1 DUP2 ADD PUSH1 0x40 MSTORE DUP1 SWAP3 SWAP2 SWAP1 DUP2 DUP2 MSTORE PUSH1 0x20 ADD DUP3 DUP1 SLOAD PUSH2 0x1938 SWAP1 PUSH2 0x4373 JUMP JUMPDEST DUP1 ISZERO PUSH2 0x1983 JUMPI DUP1 PUSH1 0x1F LT PUSH2 0x195A JUMPI PUSH2 0x100 DUP1 DUP4 SLOAD DIV MUL DUP4 MSTORE SWAP2 PUSH1 0x20 ADD SWAP2 PUSH2 0x1983 JUMP JUMPDEST DUP3 ADD SWAP2 SWAP1 PUSH0 MSTORE PUSH1 0x20 PUSH0 KECCAK256 SWAP1 JUMPDEST DUP2 SLOAD DUP2 MSTORE SWAP1 PUSH1 0x1 ADD SWAP1 PUSH1 0x20 ADD DUP1 DUP4 GT PUSH2 0x1966 JUMPI DUP3 SWAP1 SUB PUSH1 0x1F AND DUP3 ADD SWAP2 JUMPDEST POP POP POP POP POP SWAP1 POP DUP1 MLOAD PUSH0 SUB PUSH2 0x19DA JUMPI PUSH1 0x40 MLOAD PUSH3 0x461BCD PUSH1 0xE5 SHL DUP2 MSTORE PUSH1 0x20 PUSH1 0x4 DUP3 ADD MSTORE PUSH1 0x1D PUSH1 0x24 DUP3 ADD MSTORE PUSH32 0x4C7A4170703A206E6F20747275737465642070617468207265636F7264000000 PUSH1 0x44 DUP3 ADD MSTORE PUSH1 0x64 ADD PUSH2 0xBB5 JUMP JUMPDEST PUSH2 0x19F4 PUSH0 PUSH1 0x14 DUP4 MLOAD PUSH2 0x19EC SWAP2 SWAP1 PUSH2 0x4569 JUMP JUMPDEST DUP4 SWAP2 SWAP1 PUSH2 0x2F49 JUMP JUMPDEST SWAP4 SWAP3 POP POP POP JUMP JUMPDEST PUSH2 0x1A06 CALLER DUP4 DUP4 PUSH2 0x3055 JUMP JUMPDEST POP POP JUMP JUMPDEST PUSH2 0x1A12 PUSH2 0x2581 JUMP JUMPDEST DUP2 DUP2 ADDRESS PUSH1 0x40 MLOAD PUSH1 0x20 ADD PUSH2 0x1A27 SWAP4 SWAP3 SWAP2 SWAP1 PUSH2 0x457C JUMP JUMPDEST PUSH1 0x40 DUP1 MLOAD PUSH1 0x1F NOT DUP2 DUP5 SUB ADD DUP2 MSTORE SWAP2 DUP2 MSTORE PUSH2 0xFFFF DUP6 AND PUSH0 SWAP1 DUP2 MSTORE PUSH1 0x1 PUSH1 0x20 MSTORE KECCAK256 SWAP1 PUSH2 0x1A51 SWAP1 DUP3 PUSH2 0x45E6 JUMP JUMPDEST POP PUSH32 0x8C0400CFE2D1199B1A725C78960BCC2A344D869B80590D0F2BD005DB15A572CE DUP4 DUP4 DUP4 PUSH1 0x40 MLOAD PUSH2 0x1A85 SWAP4 SWAP3 SWAP2 SWAP1 PUSH2 0x442F JUMP JUMPDEST PUSH1 0x40 MLOAD DUP1 SWAP2 SUB SWAP1 LOG1 POP POP POP JUMP JUMPDEST PUSH2 0xD63 DUP8 DUP8 DUP8 DUP8 DUP8 DUP8 DUP8 PUSH2 0x2B18 JUMP JUMPDEST PUSH2 0x1AAB CALLER DUP4 PUSH2 0x2697 JUMP JUMPDEST PUSH2 0x1AC7 JUMPI PUSH1 0x40 MLOAD PUSH3 0x461BCD PUSH1 0xE5 SHL DUP2 MSTORE PUSH1 0x4 ADD PUSH2 0xBB5 SWAP1 PUSH2 0x43BA JUMP JUMPDEST PUSH2 0x1AD3 DUP5 DUP5 DUP5 DUP5 PUSH2 0x3122 JUMP JUMPDEST POP POP POP POP JUMP JUMPDEST PUSH2 0x1AE1 PUSH2 0x2581 JUMP JUMPDEST PUSH1 0x4 DUP1 SLOAD PUSH1 0x1 PUSH1 0x1 PUSH1 0xA0 SHL SUB NOT AND PUSH1 0x1 PUSH1 0x1 PUSH1 0xA0 SHL SUB DUP4 AND SWAP1 DUP2 OR SWAP1 SWAP2 SSTORE PUSH1 0x40 MLOAD SWAP1 DUP2 MSTORE PUSH32 0x5DB758E995A17EC1AD84BDEF7E8C3293A0BD6179BCCE400DFF5D4C3D87DB726B SWAP1 PUSH1 0x20 ADD PUSH2 0x106F JUMP JUMPDEST PUSH1 0x60 PUSH2 0x1B3A DUP3 PUSH2 0x3155 JUMP JUMPDEST PUSH2 0x1B9E JUMPI PUSH1 0x40 MLOAD PUSH3 0x461BCD PUSH1 0xE5 SHL DUP2 MSTORE PUSH1 0x20 PUSH1 0x4 DUP3 ADD MSTORE PUSH1 0x2F PUSH1 0x24 DUP3 ADD MSTORE PUSH32 0x4552433732314D657461646174613A2055524920717565727920666F72206E6F PUSH1 0x44 DUP3 ADD MSTORE PUSH15 0x3732BC34B9BA32B73A103A37B5B2B7 PUSH1 0x89 SHL PUSH1 0x64 DUP3 ADD MSTORE PUSH1 0x84 ADD PUSH2 0xBB5 JUMP JUMPDEST PUSH0 DUP3 DUP2 MSTORE PUSH1 0x14 PUSH1 0x20 MSTORE PUSH1 0x40 DUP2 KECCAK256 DUP1 SLOAD PUSH2 0x1BB6 SWAP1 PUSH2 0x4373 JUMP JUMPDEST DUP1 PUSH1 0x1F ADD PUSH1 0x20 DUP1 SWAP2 DIV MUL PUSH1 0x20 ADD PUSH1 0x40 MLOAD SWAP1 DUP2 ADD PUSH1 0x40 MSTORE DUP1 SWAP3 SWAP2 SWAP1 DUP2 DUP2 MSTORE PUSH1 0x20 ADD DUP3 DUP1 SLOAD PUSH2 0x1BE2 SWAP1 PUSH2 0x4373 JUMP JUMPDEST DUP1 ISZERO PUSH2 0x1C2D JUMPI DUP1 PUSH1 0x1F LT PUSH2 0x1C04 JUMPI PUSH2 0x100 DUP1 DUP4 SLOAD DIV MUL DUP4 MSTORE SWAP2 PUSH1 0x20 ADD SWAP2 PUSH2 0x1C2D JUMP JUMPDEST DUP3 ADD SWAP2 SWAP1 PUSH0 MSTORE PUSH1 0x20 PUSH0 KECCAK256 SWAP1 JUMPDEST DUP2 SLOAD DUP2 MSTORE SWAP1 PUSH1 0x1 ADD SWAP1 PUSH1 0x20 ADD DUP1 DUP4 GT PUSH2 0x1C10 JUMPI DUP3 SWAP1 SUB PUSH1 0x1F AND DUP3 ADD SWAP2 JUMPDEST POP POP POP POP POP SWAP1 POP PUSH0 PUSH2 0x1C49 PUSH1 0x40 DUP1 MLOAD PUSH1 0x20 DUP2 ADD SWAP1 SWAP2 MSTORE PUSH0 DUP2 MSTORE SWAP1 JUMP JUMPDEST SWAP1 POP DUP1 MLOAD PUSH0 SUB PUSH2 0x1C5A JUMPI POP SWAP3 SWAP2 POP POP JUMP JUMPDEST DUP2 MLOAD ISZERO PUSH2 0x1C8C JUMPI DUP1 DUP3 PUSH1 0x40 MLOAD PUSH1 0x20 ADD PUSH2 0x1C74 SWAP3 SWAP2 SWAP1 PUSH2 0x46B7 JUMP JUMPDEST PUSH1 0x40 MLOAD PUSH1 0x20 DUP2 DUP4 SUB SUB DUP2 MSTORE SWAP1 PUSH1 0x40 MSTORE SWAP3 POP POP POP SWAP2 SWAP1 POP JUMP JUMPDEST PUSH2 0x1C95 DUP5 PUSH2 0x3171 JUMP JUMPDEST SWAP5 SWAP4 POP POP POP POP JUMP JUMPDEST PUSH2 0x1CA5 PUSH2 0x2581 JUMP JUMPDEST PUSH1 0x40 MLOAD PUSH4 0x32FB62E7 PUSH1 0xE2 SHL DUP2 MSTORE PUSH1 0x1 PUSH1 0x1 PUSH1 0xA0 SHL SUB PUSH32 0x0 AND SWAP1 PUSH4 0xCBED8B9C SWAP1 PUSH2 0x1CF9 SWAP1 DUP9 SWAP1 DUP9 SWAP1 DUP9 SWAP1 DUP9 SWAP1 DUP9 SWAP1 PUSH1 0x4 ADD PUSH2 0x46CB JUMP JUMPDEST PUSH0 PUSH1 0x40 MLOAD DUP1 DUP4 SUB DUP2 PUSH0 DUP8 DUP1 EXTCODESIZE ISZERO DUP1 ISZERO PUSH2 0x1D10 JUMPI PUSH0 DUP1 REVERT JUMPDEST POP GAS CALL ISZERO DUP1 ISZERO PUSH2 0x1D22 JUMPI RETURNDATASIZE PUSH0 DUP1 RETURNDATACOPY RETURNDATASIZE PUSH0 REVERT JUMPDEST POP POP POP POP POP POP POP POP POP JUMP JUMPDEST PUSH1 0x11 SLOAD CALLVALUE LT ISZERO PUSH2 0x1D77 JUMPI PUSH1 0x40 MLOAD PUSH3 0x461BCD PUSH1 0xE5 SHL DUP2 MSTORE PUSH1 0x20 PUSH1 0x4 DUP3 ADD MSTORE PUSH1 0x15 PUSH1 0x24 DUP3 ADD MSTORE PUSH21 0x496E73756666696369656E74206D696E7420666565 PUSH1 0x58 SHL PUSH1 0x44 DUP3 ADD MSTORE PUSH1 0x64 ADD PUSH2 0xBB5 JUMP JUMPDEST PUSH1 0x13 SLOAD PUSH1 0x12 SLOAD GT ISZERO PUSH2 0x1DC1 JUMPI PUSH1 0x40 MLOAD PUSH3 0x461BCD PUSH1 0xE5 SHL DUP2 MSTORE PUSH1 0x20 PUSH1 0x4 DUP3 ADD MSTORE PUSH1 0x13 PUSH1 0x24 DUP3 ADD MSTORE PUSH19 0x151BDAD95B881B1A5B5A5D081C995858DA1959 PUSH1 0x6A SHL PUSH1 0x44 DUP3 ADD MSTORE PUSH1 0x64 ADD PUSH2 0xBB5 JUMP JUMPDEST PUSH1 0x12 DUP1 SLOAD SWAP1 DUP2 SWAP1 PUSH0 PUSH2 0x1DD2 DUP4 PUSH2 0x4703 JUMP JUMPDEST SWAP2 SWAP1 POP SSTORE POP PUSH2 0x1DE1 DUP4 DUP3 PUSH2 0x31E0 JUMP JUMPDEST PUSH2 0x1DEB DUP2 DUP4 PUSH2 0x31F9 JUMP JUMPDEST PUSH1 0x40 DUP1 MLOAD PUSH1 0x1 PUSH1 0x1 PUSH1 0xA0 SHL SUB DUP6 AND DUP2 MSTORE PUSH1 0x20 DUP2 ADD DUP4 SWAP1 MSTORE PUSH32 0xB9144C96C86541F6FA89C9F2F02495CCCF4B08CD6643E26D34EE00AA586558A8 SWAP2 ADD PUSH2 0x1A85 JUMP JUMPDEST PUSH2 0x1E32 PUSH2 0x2581 JUMP JUMPDEST PUSH0 DUP2 GT PUSH2 0x1E8D JUMPI PUSH1 0x40 MLOAD PUSH3 0x461BCD PUSH1 0xE5 SHL DUP2 MSTORE PUSH1 0x20 PUSH1 0x4 DUP3 ADD MSTORE PUSH1 0x23 PUSH1 0x24 DUP3 ADD MSTORE PUSH32 0x647374436861696E4964546F5472616E73666572476173206D75737420626520 PUSH1 0x44 DUP3 ADD MSTORE PUSH3 0x3E203 PUSH1 0xEC SHL PUSH1 0x64 DUP3 ADD MSTORE PUSH1 0x84 ADD PUSH2 0xBB5 JUMP JUMPDEST PUSH2 0xFFFF DUP3 AND PUSH0 DUP2 DUP2 MSTORE PUSH1 0x9 PUSH1 0x20 SWAP1 DUP2 MSTORE PUSH1 0x40 SWAP2 DUP3 SWAP1 KECCAK256 DUP5 SWAP1 SSTORE DUP2 MLOAD SWAP3 DUP4 MSTORE DUP3 ADD DUP4 SWAP1 MSTORE PUSH32 0xC46DF2983228AC2D9754E94A0D565E6671665DC8AD38602BC8E544F0685A29FB SWAP2 ADD PUSH2 0x18DE JUMP JUMPDEST PUSH2 0xFFFF DUP7 AND PUSH0 SWAP1 DUP2 MSTORE PUSH1 0x5 PUSH1 0x20 MSTORE PUSH1 0x40 DUP1 DUP3 KECCAK256 SWAP1 MLOAD PUSH2 0x1EFA SWAP1 DUP9 SWAP1 DUP9 SWAP1 PUSH2 0x43AB JUMP JUMPDEST SWAP1 DUP2 MSTORE PUSH1 0x40 DUP1 MLOAD PUSH1 0x20 SWAP3 DUP2 SWAP1 SUB DUP4 ADD SWAP1 KECCAK256 PUSH1 0x1 PUSH1 0x1 PUSH1 0x40 SHL SUB DUP8 AND PUSH0 SWAP1 DUP2 MSTORE SWAP3 MSTORE SWAP1 KECCAK256 SLOAD SWAP1 POP DUP1 PUSH2 0x1F79 JUMPI PUSH1 0x40 MLOAD PUSH3 0x461BCD PUSH1 0xE5 SHL DUP2 MSTORE PUSH1 0x20 PUSH1 0x4 DUP3 ADD MSTORE PUSH1 0x23 PUSH1 0x24 DUP3 ADD MSTORE PUSH32 0x4E6F6E626C6F636B696E674C7A4170703A206E6F2073746F726564206D657373 PUSH1 0x44 DUP3 ADD MSTORE PUSH3 0x616765 PUSH1 0xE8 SHL PUSH1 0x64 DUP3 ADD MSTORE PUSH1 0x84 ADD PUSH2 0xBB5 JUMP JUMPDEST DUP1 DUP4 DUP4 PUSH1 0x40 MLOAD PUSH2 0x1F8A SWAP3 SWAP2 SWAP1 PUSH2 0x43AB JUMP JUMPDEST PUSH1 0x40 MLOAD DUP1 SWAP2 SUB SWAP1 KECCAK256 EQ PUSH2 0x1FE9 JUMPI PUSH1 0x40 MLOAD PUSH3 0x461BCD PUSH1 0xE5 SHL DUP2 MSTORE PUSH1 0x20 PUSH1 0x4 DUP3 ADD MSTORE PUSH1 0x21 PUSH1 0x24 DUP3 ADD MSTORE PUSH32 0x4E6F6E626C6F636B696E674C7A4170703A20696E76616C6964207061796C6F61 PUSH1 0x44 DUP3 ADD MSTORE PUSH1 0x19 PUSH1 0xFA SHL PUSH1 0x64 DUP3 ADD MSTORE PUSH1 0x84 ADD PUSH2 0xBB5 JUMP JUMPDEST PUSH2 0xFFFF DUP8 AND PUSH0 SWAP1 DUP2 MSTORE PUSH1 0x5 PUSH1 0x20 MSTORE PUSH1 0x40 DUP1 DUP3 KECCAK256 SWAP1 MLOAD PUSH2 0x200B SWAP1 DUP10 SWAP1 DUP10 SWAP1 PUSH2 0x43AB JUMP JUMPDEST SWAP1 DUP2 MSTORE PUSH1 0x40 DUP1 MLOAD PUSH1 0x20 SWAP3 DUP2 SWAP1 SUB DUP4 ADD DUP2 KECCAK256 PUSH1 0x1 PUSH1 0x1 PUSH1 0x40 SHL SUB DUP10 AND PUSH0 SWAP1 DUP2 MSTORE SWAP1 DUP5 MSTORE DUP3 SWAP1 KECCAK256 SWAP4 SWAP1 SWAP4 SSTORE PUSH1 0x1F DUP9 ADD DUP3 SWAP1 DIV DUP3 MUL DUP4 ADD DUP3 ADD SWAP1 MSTORE DUP7 DUP3 MSTORE PUSH2 0x20A0 SWAP2 DUP10 SWAP2 DUP10 SWAP1 DUP10 SWAP1 DUP2 SWAP1 DUP5 ADD DUP4 DUP3 DUP1 DUP3 DUP5 CALLDATACOPY PUSH0 SWAP3 ADD SWAP2 SWAP1 SWAP2 MSTORE POP POP PUSH1 0x40 DUP1 MLOAD PUSH1 0x20 PUSH1 0x1F DUP11 ADD DUP2 SWAP1 DIV DUP2 MUL DUP3 ADD DUP2 ADD SWAP1 SWAP3 MSTORE DUP9 DUP2 MSTORE DUP11 SWAP4 POP SWAP2 POP DUP9 SWAP1 DUP9 SWAP1 DUP2 SWAP1 DUP5 ADD DUP4 DUP3 DUP1 DUP3 DUP5 CALLDATACOPY PUSH0 SWAP3 ADD SWAP2 SWAP1 SWAP2 MSTORE POP PUSH2 0x2CDC SWAP3 POP POP POP JUMP JUMPDEST PUSH32 0xC264D91F3ADC5588250E1551F547752CA0CFA8F6B530D243B9F9F4CAB10EA8E5 DUP8 DUP8 DUP8 DUP8 DUP6 PUSH1 0x40 MLOAD PUSH2 0x20D7 SWAP6 SWAP5 SWAP4 SWAP3 SWAP2 SWAP1 PUSH2 0x471B JUMP JUMPDEST PUSH1 0x40 MLOAD DUP1 SWAP2 SUB SWAP1 LOG1 POP POP POP POP POP POP POP JUMP JUMPDEST PUSH1 0x40 DUP1 MLOAD CALLER PUSH1 0x20 DUP3 ADD MSTORE PUSH0 DUP2 DUP4 ADD DUP2 SWAP1 MSTORE DUP3 MLOAD DUP1 DUP4 SUB DUP5 ADD DUP2 MSTORE PUSH1 0x60 DUP4 ADD SWAP4 DUP5 SWAP1 MSTORE PUSH4 0x40A7BB1 PUSH1 0xE4 SHL SWAP1 SWAP4 MSTORE SWAP2 DUP3 SWAP2 PUSH32 0x0 PUSH1 0x1 PUSH1 0x1 PUSH1 0xA0 SHL SUB AND SWAP1 PUSH4 0x40A7BB10 SWAP1 PUSH2 0x215F SWAP1 DUP10 SWAP1 ADDRESS SWAP1 DUP7 SWAP1 DUP12 SWAP1 DUP12 SWAP1 PUSH1 0x64 ADD PUSH2 0x4755 JUMP JUMPDEST PUSH1 0x40 DUP1 MLOAD DUP1 DUP4 SUB DUP2 DUP7 GAS STATICCALL ISZERO DUP1 ISZERO PUSH2 0x2179 JUMPI RETURNDATASIZE PUSH0 DUP1 RETURNDATACOPY RETURNDATASIZE PUSH0 REVERT JUMPDEST POP POP POP POP PUSH1 0x40 MLOAD RETURNDATASIZE PUSH1 0x1F NOT PUSH1 0x1F DUP3 ADD AND DUP3 ADD DUP1 PUSH1 0x40 MSTORE POP DUP2 ADD SWAP1 PUSH2 0x219D SWAP2 SWAP1 PUSH2 0x47A8 JUMP JUMPDEST SWAP3 POP SWAP3 POP POP SWAP4 POP SWAP4 SWAP2 POP POP JUMP JUMPDEST PUSH2 0x21B2 PUSH2 0x2581 JUMP JUMPDEST PUSH0 DUP2 GT PUSH2 0x21F9 JUMPI PUSH1 0x40 MLOAD PUSH3 0x461BCD PUSH1 0xE5 SHL DUP2 MSTORE PUSH1 0x20 PUSH1 0x4 DUP3 ADD MSTORE PUSH1 0x15 PUSH1 0x24 DUP3 ADD MSTORE PUSH21 0x4C7A4170703A20696E76616C6964206D696E476173 PUSH1 0x58 SHL PUSH1 0x44 DUP3 ADD MSTORE PUSH1 0x64 ADD PUSH2 0xBB5 JUMP JUMPDEST PUSH2 0xFFFF DUP4 DUP2 AND PUSH0 DUP2 DUP2 MSTORE PUSH1 0x2 PUSH1 0x20 SWAP1 DUP2 MSTORE PUSH1 0x40 DUP1 DUP4 KECCAK256 SWAP5 DUP8 AND DUP1 DUP5 MSTORE SWAP5 DUP3 MSTORE SWAP2 DUP3 SWAP1 KECCAK256 DUP6 SWAP1 SSTORE DUP2 MLOAD SWAP3 DUP4 MSTORE DUP3 ADD SWAP3 SWAP1 SWAP3 MSTORE SWAP1 DUP2 ADD DUP3 SWAP1 MSTORE PUSH32 0x9D5C7C0B934DA8FEFA9C7760C98383778A12DFBFC0C3B3106518F43FB9508AC0 SWAP1 PUSH1 0x60 ADD PUSH2 0x1A85 JUMP JUMPDEST PUSH1 0x1 PUSH1 0x1 PUSH1 0xA0 SHL SUB SWAP2 DUP3 AND PUSH0 SWAP1 DUP2 MSTORE PUSH1 0x10 PUSH1 0x20 SWAP1 DUP2 MSTORE PUSH1 0x40 DUP1 DUP4 KECCAK256 SWAP4 SWAP1 SWAP5 AND DUP3 MSTORE SWAP2 SWAP1 SWAP2 MSTORE KECCAK256 SLOAD PUSH1 0xFF AND SWAP1 JUMP JUMPDEST PUSH2 0x228F PUSH2 0x2581 JUMP JUMPDEST PUSH2 0xFFFF DUP4 AND PUSH0 SWAP1 DUP2 MSTORE PUSH1 0x1 PUSH1 0x20 MSTORE PUSH1 0x40 SWAP1 KECCAK256 PUSH2 0x22AC DUP3 DUP5 DUP4 PUSH2 0x47CA JUMP JUMPDEST POP PUSH32 0xFA41487AD5D6728F0B19276FA1EDDC16558578F5109FC39D2DC33C3230470DAB DUP4 DUP4 DUP4 PUSH1 0x40 MLOAD PUSH2 0x1A85 SWAP4 SWAP3 SWAP2 SWAP1 PUSH2 0x442F JUMP JUMPDEST PUSH0 DUP1 PUSH0 DUP7 DUP7 PUSH1 0x40 MLOAD PUSH1 0x20 ADD PUSH2 0x22F6 SWAP3 SWAP2 SWAP1 PUSH2 0x48BD JUMP JUMPDEST PUSH1 0x40 DUP1 MLOAD PUSH1 0x1F NOT DUP2 DUP5 SUB ADD DUP2 MSTORE SWAP1 DUP3 SWAP1 MSTORE PUSH4 0x40A7BB1 PUSH1 0xE4 SHL DUP3 MSTORE SWAP2 POP PUSH1 0x1 PUSH1 0x1 PUSH1 0xA0 SHL SUB PUSH32 0x0 AND SWAP1 PUSH4 0x40A7BB10 SWAP1 PUSH2 0x235A SWAP1 DUP12 SWAP1 ADDRESS SWAP1 DUP7 SWAP1 DUP12 SWAP1 DUP12 SWAP1 PUSH1 0x4 ADD PUSH2 0x4755 JUMP JUMPDEST PUSH1 0x40 DUP1 MLOAD DUP1 DUP4 SUB DUP2 DUP7 GAS STATICCALL ISZERO DUP1 ISZERO PUSH2 0x2374 JUMPI RETURNDATASIZE PUSH0 DUP1 RETURNDATACOPY RETURNDATASIZE PUSH0 REVERT JUMPDEST POP POP POP POP PUSH1 0x40 MLOAD RETURNDATASIZE PUSH1 0x1F NOT PUSH1 0x1F DUP3 ADD AND DUP3 ADD DUP1 PUSH1 0x40 MSTORE POP DUP2 ADD SWAP1 PUSH2 0x2398 SWAP2 SWAP1 PUSH2 0x47A8 JUMP JUMPDEST SWAP3 POP SWAP3 POP POP SWAP6 POP SWAP6 SWAP4 POP POP POP POP JUMP JUMPDEST PUSH2 0x23AF PUSH2 0x2581 JUMP JUMPDEST PUSH1 0x1 PUSH1 0x1 PUSH1 0xA0 SHL SUB DUP2 AND PUSH2 0x2414 JUMPI PUSH1 0x40 MLOAD PUSH3 0x461BCD PUSH1 0xE5 SHL DUP2 MSTORE PUSH1 0x20 PUSH1 0x4 DUP3 ADD MSTORE PUSH1 0x26 PUSH1 0x24 DUP3 ADD MSTORE PUSH32 0x4F776E61626C653A206E6577206F776E657220697320746865207A65726F2061 PUSH1 0x44 DUP3 ADD MSTORE PUSH6 0x646472657373 PUSH1 0xD0 SHL PUSH1 0x64 DUP3 ADD MSTORE PUSH1 0x84 ADD PUSH2 0xBB5 JUMP JUMPDEST PUSH2 0x11A0 DUP2 PUSH2 0x2E56 JUMP JUMPDEST PUSH1 0x40 MLOAD PUSH4 0x3D7B2F6F PUSH1 0xE2 SHL DUP2 MSTORE PUSH2 0xFFFF DUP1 DUP7 AND PUSH1 0x4 DUP4 ADD MSTORE DUP5 AND PUSH1 0x24 DUP3 ADD MSTORE ADDRESS PUSH1 0x44 DUP3 ADD MSTORE PUSH1 0x64 DUP2 ADD DUP3 SWAP1 MSTORE PUSH1 0x60 SWAP1 PUSH32 0x0 PUSH1 0x1 PUSH1 0x1 PUSH1 0xA0 SHL SUB AND SWAP1 PUSH4 0xF5ECBDBC SWAP1 PUSH1 0x84 ADD PUSH0 PUSH1 0x40 MLOAD DUP1 DUP4 SUB DUP2 DUP7 GAS STATICCALL ISZERO DUP1 ISZERO PUSH2 0x249A JUMPI RETURNDATASIZE PUSH0 DUP1 RETURNDATACOPY RETURNDATASIZE PUSH0 REVERT JUMPDEST POP POP POP POP PUSH1 0x40 MLOAD RETURNDATASIZE PUSH0 DUP3 RETURNDATACOPY PUSH1 0x1F RETURNDATASIZE SWAP1 DUP2 ADD PUSH1 0x1F NOT AND DUP3 ADD PUSH1 0x40 MSTORE PUSH2 0x24C1 SWAP2 SWAP1 DUP2 ADD SWAP1 PUSH2 0x48E1 JUMP JUMPDEST SWAP6 SWAP5 POP POP POP POP POP JUMP JUMPDEST PUSH0 DUP1 PUSH2 0x252C GAS PUSH1 0x96 PUSH4 0x66AD5C8A PUSH1 0xE0 SHL DUP10 DUP10 DUP10 DUP10 PUSH1 0x40 MLOAD PUSH1 0x24 ADD PUSH2 0x24F1 SWAP5 SWAP4 SWAP3 SWAP2 SWAP1 PUSH2 0x4912 JUMP JUMPDEST PUSH1 0x40 DUP1 MLOAD PUSH1 0x1F NOT DUP2 DUP5 SUB ADD DUP2 MSTORE SWAP2 SWAP1 MSTORE PUSH1 0x20 DUP2 ADD DUP1 MLOAD PUSH1 0x1 PUSH1 0x1 PUSH1 0xE0 SHL SUB AND PUSH1 0x1 PUSH1 0x1 PUSH1 0xE0 SHL SUB NOT SWAP1 SWAP4 AND SWAP3 SWAP1 SWAP3 OR SWAP1 SWAP2 MSTORE ADDRESS SWAP3 SWAP2 SWAP1 PUSH2 0x327A JUMP JUMPDEST SWAP2 POP SWAP2 POP DUP2 PUSH2 0x14A1 JUMPI PUSH2 0x14A1 DUP7 DUP7 DUP7 DUP7 DUP6 PUSH2 0x32FE JUMP JUMPDEST PUSH0 PUSH1 0x1 PUSH1 0x1 PUSH1 0xE0 SHL SUB NOT DUP3 AND PUSH4 0x80AC58CD PUSH1 0xE0 SHL EQ DUP1 PUSH2 0x2572 JUMPI POP PUSH1 0x1 PUSH1 0x1 PUSH1 0xE0 SHL SUB NOT DUP3 AND PUSH4 0x5B5E139F PUSH1 0xE0 SHL EQ JUMPDEST DUP1 PUSH2 0xD88 JUMPI POP PUSH2 0xD88 DUP3 PUSH2 0x3398 JUMP JUMPDEST PUSH0 SLOAD PUSH1 0x1 PUSH1 0x1 PUSH1 0xA0 SHL SUB AND CALLER EQ PUSH2 0x154B JUMPI PUSH1 0x40 MLOAD PUSH3 0x461BCD PUSH1 0xE5 SHL DUP2 MSTORE PUSH1 0x20 PUSH1 0x4 DUP3 ADD DUP2 SWAP1 MSTORE PUSH1 0x24 DUP3 ADD MSTORE PUSH32 0x4F776E61626C653A2063616C6C6572206973206E6F7420746865206F776E6572 PUSH1 0x44 DUP3 ADD MSTORE PUSH1 0x64 ADD PUSH2 0xBB5 JUMP JUMPDEST PUSH2 0x25E3 DUP2 PUSH2 0x3155 JUMP JUMPDEST PUSH2 0x11A0 JUMPI PUSH1 0x40 MLOAD PUSH3 0x461BCD PUSH1 0xE5 SHL DUP2 MSTORE PUSH1 0x20 PUSH1 0x4 DUP3 ADD MSTORE PUSH1 0x18 PUSH1 0x24 DUP3 ADD MSTORE PUSH24 0x115490CDCC8C4E881A5B9D985B1A59081D1BDAD95B881251 PUSH1 0x42 SHL PUSH1 0x44 DUP3 ADD MSTORE PUSH1 0x64 ADD PUSH2 0xBB5 JUMP JUMPDEST PUSH0 DUP2 DUP2 MSTORE PUSH1 0xF PUSH1 0x20 MSTORE PUSH1 0x40 SWAP1 KECCAK256 DUP1 SLOAD PUSH1 0x1 PUSH1 0x1 PUSH1 0xA0 SHL SUB NOT AND PUSH1 0x1 PUSH1 0x1 PUSH1 0xA0 SHL SUB DUP5 AND SWAP1 DUP2 OR SWAP1 SWAP2 SSTORE DUP2 SWAP1 PUSH2 0x265E DUP3 PUSH2 0x1370 JUMP JUMPDEST PUSH1 0x1 PUSH1 0x1 PUSH1 0xA0 SHL SUB AND PUSH32 0x8C5BE1E5EBEC7D5BD14F71427D1E84F3DD0314C0F7B2291E5B200AC8C7C3B925 PUSH1 0x40 MLOAD PUSH1 0x40 MLOAD DUP1 SWAP2 SUB SWAP1 LOG4 POP POP JUMP JUMPDEST PUSH0 DUP1 PUSH2 0x26A2 DUP4 PUSH2 0x1370 JUMP JUMPDEST SWAP1 POP DUP1 PUSH1 0x1 PUSH1 0x1 PUSH1 0xA0 SHL SUB AND DUP5 PUSH1 0x1 PUSH1 0x1 PUSH1 0xA0 SHL SUB AND EQ DUP1 PUSH2 0x26C9 JUMPI POP PUSH2 0x26C9 DUP2 DUP6 PUSH2 0x225A JUMP JUMPDEST DUP1 PUSH2 0x1C95 JUMPI POP DUP4 PUSH1 0x1 PUSH1 0x1 PUSH1 0xA0 SHL SUB AND PUSH2 0x26E2 DUP5 PUSH2 0xEA2 JUMP JUMPDEST PUSH1 0x1 PUSH1 0x1 PUSH1 0xA0 SHL SUB AND EQ SWAP5 SWAP4 POP POP POP POP JUMP JUMPDEST DUP3 PUSH1 0x1 PUSH1 0x1 PUSH1 0xA0 SHL SUB AND PUSH2 0x2707 DUP3 PUSH2 0x1370 JUMP JUMPDEST PUSH1 0x1 PUSH1 0x1 PUSH1 0xA0 SHL SUB AND EQ PUSH2 0x272D JUMPI PUSH1 0x40 MLOAD PUSH3 0x461BCD PUSH1 0xE5 SHL DUP2 MSTORE PUSH1 0x4 ADD PUSH2 0xBB5 SWAP1 PUSH2 0x494F JUMP JUMPDEST PUSH1 0x1 PUSH1 0x1 PUSH1 0xA0 SHL SUB DUP3 AND PUSH2 0x278F JUMPI PUSH1 0x40 MLOAD PUSH3 0x461BCD PUSH1 0xE5 SHL DUP2 MSTORE PUSH1 0x20 PUSH1 0x4 DUP3 ADD MSTORE PUSH1 0x24 DUP1 DUP3 ADD MSTORE PUSH32 0x4552433732313A207472616E7366657220746F20746865207A65726F20616464 PUSH1 0x44 DUP3 ADD MSTORE PUSH4 0x72657373 PUSH1 0xE0 SHL PUSH1 0x64 DUP3 ADD MSTORE PUSH1 0x84 ADD PUSH2 0xBB5 JUMP JUMPDEST DUP3 PUSH1 0x1 PUSH1 0x1 PUSH1 0xA0 SHL SUB AND PUSH2 0x27A2 DUP3 PUSH2 0x1370 JUMP JUMPDEST PUSH1 0x1 PUSH1 0x1 PUSH1 0xA0 SHL SUB AND EQ PUSH2 0x27C8 JUMPI PUSH1 0x40 MLOAD PUSH3 0x461BCD PUSH1 0xE5 SHL DUP2 MSTORE PUSH1 0x4 ADD PUSH2 0xBB5 SWAP1 PUSH2 0x494F JUMP JUMPDEST PUSH0 DUP2 DUP2 MSTORE PUSH1 0xF PUSH1 0x20 SWAP1 DUP2 MSTORE PUSH1 0x40 DUP1 DUP4 KECCAK256 DUP1 SLOAD PUSH1 0x1 PUSH1 0x1 PUSH1 0xA0 SHL SUB NOT SWAP1 DUP2 AND SWAP1 SWAP2 SSTORE PUSH1 0x1 PUSH1 0x1 PUSH1 0xA0 SHL SUB DUP8 DUP2 AND DUP1 DUP7 MSTORE PUSH1 0xE DUP6 MSTORE DUP4 DUP7 KECCAK256 DUP1 SLOAD PUSH0 NOT ADD SWAP1 SSTORE SWAP1 DUP8 AND DUP1 DUP7 MSTORE DUP4 DUP7 KECCAK256 DUP1 SLOAD PUSH1 0x1 ADD SWAP1 SSTORE DUP7 DUP7 MSTORE PUSH1 0xD SWAP1 SWAP5 MSTORE DUP3 DUP6 KECCAK256 DUP1 SLOAD SWAP1 SWAP3 AND DUP5 OR SWAP1 SWAP2 SSTORE SWAP1 MLOAD DUP5 SWAP4 PUSH32 0xDDF252AD1BE2C89B69C2B068FC378DAA952BA7F163C4A11628F55A4DF523B3EF SWAP2 LOG4 POP POP POP JUMP JUMPDEST PUSH1 0x40 DUP1 MLOAD PUSH1 0x1 DUP1 DUP3 MSTORE DUP2 DUP4 ADD SWAP1 SWAP3 MSTORE PUSH1 0x60 SWAP2 PUSH0 SWAP2 SWAP1 PUSH1 0x20 DUP1 DUP4 ADD SWAP1 DUP1 CALLDATASIZE DUP4 CALLDATACOPY ADD SWAP1 POP POP SWAP1 POP DUP3 DUP2 PUSH0 DUP2 MLOAD DUP2 LT PUSH2 0x288E JUMPI PUSH2 0x288E PUSH2 0x4994 JUMP JUMPDEST PUSH1 0x20 SWAP1 DUP2 MUL SWAP2 SWAP1 SWAP2 ADD ADD MSTORE SWAP3 SWAP2 POP POP JUMP JUMPDEST PUSH0 PUSH2 0x28A9 DUP4 PUSH2 0x33CC JUMP JUMPDEST PUSH2 0xFFFF DUP1 DUP8 AND PUSH0 SWAP1 DUP2 MSTORE PUSH1 0x2 PUSH1 0x20 SWAP1 DUP2 MSTORE PUSH1 0x40 DUP1 DUP4 KECCAK256 SWAP4 DUP10 AND DUP4 MSTORE SWAP3 SWAP1 MSTORE SWAP1 DUP2 KECCAK256 SLOAD SWAP2 SWAP3 POP SWAP1 PUSH2 0x28DA SWAP1 DUP5 SWAP1 PUSH2 0x49A8 JUMP JUMPDEST SWAP1 POP PUSH0 DUP2 GT PUSH2 0x292B JUMPI PUSH1 0x40 MLOAD PUSH3 0x461BCD PUSH1 0xE5 SHL DUP2 MSTORE PUSH1 0x20 PUSH1 0x4 DUP3 ADD MSTORE PUSH1 0x1A PUSH1 0x24 DUP3 ADD MSTORE PUSH32 0x4C7A4170703A206D696E4761734C696D6974206E6F7420736574000000000000 PUSH1 0x44 DUP3 ADD MSTORE PUSH1 0x64 ADD PUSH2 0xBB5 JUMP JUMPDEST DUP1 DUP3 LT ISZERO PUSH2 0x14A1 JUMPI PUSH1 0x40 MLOAD PUSH3 0x461BCD PUSH1 0xE5 SHL DUP2 MSTORE PUSH1 0x20 PUSH1 0x4 DUP3 ADD MSTORE PUSH1 0x1B PUSH1 0x24 DUP3 ADD MSTORE PUSH32 0x4C7A4170703A20676173206C696D697420697320746F6F206C6F770000000000 PUSH1 0x44 DUP3 ADD MSTORE PUSH1 0x64 ADD PUSH2 0xBB5 JUMP JUMPDEST PUSH2 0xFFFF DUP7 AND PUSH0 SWAP1 DUP2 MSTORE PUSH1 0x1 PUSH1 0x20 MSTORE PUSH1 0x40 DUP2 KECCAK256 DUP1 SLOAD PUSH2 0x2998 SWAP1 PUSH2 0x4373 JUMP JUMPDEST DUP1 PUSH1 0x1F ADD PUSH1 0x20 DUP1 SWAP2 DIV MUL PUSH1 0x20 ADD PUSH1 0x40 MLOAD SWAP1 DUP2 ADD PUSH1 0x40 MSTORE DUP1 SWAP3 SWAP2 SWAP1 DUP2 DUP2 MSTORE PUSH1 0x20 ADD DUP3 DUP1 SLOAD PUSH2 0x29C4 SWAP1 PUSH2 0x4373 JUMP JUMPDEST DUP1 ISZERO PUSH2 0x2A0F JUMPI DUP1 PUSH1 0x1F LT PUSH2 0x29E6 JUMPI PUSH2 0x100 DUP1 DUP4 SLOAD DIV MUL DUP4 MSTORE SWAP2 PUSH1 0x20 ADD SWAP2 PUSH2 0x2A0F JUMP JUMPDEST DUP3 ADD SWAP2 SWAP1 PUSH0 MSTORE PUSH1 0x20 PUSH0 KECCAK256 SWAP1 JUMPDEST DUP2 SLOAD DUP2 MSTORE SWAP1 PUSH1 0x1 ADD SWAP1 PUSH1 0x20 ADD DUP1 DUP4 GT PUSH2 0x29F2 JUMPI DUP3 SWAP1 SUB PUSH1 0x1F AND DUP3 ADD SWAP2 JUMPDEST POP POP POP POP POP SWAP1 POP DUP1 MLOAD PUSH0 SUB PUSH2 0x2A7F JUMPI PUSH1 0x40 MLOAD PUSH3 0x461BCD PUSH1 0xE5 SHL DUP2 MSTORE PUSH1 0x20 PUSH1 0x4 DUP3 ADD MSTORE PUSH1 0x30 PUSH1 0x24 DUP3 ADD MSTORE PUSH32 0x4C7A4170703A2064657374696E6174696F6E20636861696E206973206E6F7420 PUSH1 0x44 DUP3 ADD MSTORE PUSH16 0x61207472757374656420736F75726365 PUSH1 0x80 SHL PUSH1 0x64 DUP3 ADD MSTORE PUSH1 0x84 ADD PUSH2 0xBB5 JUMP JUMPDEST PUSH2 0x2A8A DUP8 DUP8 MLOAD PUSH2 0x3427 JUMP JUMPDEST PUSH1 0x40 MLOAD PUSH3 0xC58031 PUSH1 0xE8 SHL DUP2 MSTORE PUSH1 0x1 PUSH1 0x1 PUSH1 0xA0 SHL SUB PUSH32 0x0 AND SWAP1 PUSH4 0xC5803100 SWAP1 DUP5 SWAP1 PUSH2 0x2AE1 SWAP1 DUP12 SWAP1 DUP7 SWAP1 DUP13 SWAP1 DUP13 SWAP1 DUP13 SWAP1 DUP13 SWAP1 PUSH1 0x4 ADD PUSH2 0x49BB JUMP JUMPDEST PUSH0 PUSH1 0x40 MLOAD DUP1 DUP4 SUB DUP2 DUP6 DUP9 DUP1 EXTCODESIZE ISZERO DUP1 ISZERO PUSH2 0x2AF8 JUMPI PUSH0 DUP1 REVERT JUMPDEST POP GAS CALL ISZERO DUP1 ISZERO PUSH2 0x2B0A JUMPI RETURNDATASIZE PUSH0 DUP1 RETURNDATACOPY RETURNDATASIZE PUSH0 REVERT JUMPDEST POP POP POP POP POP POP POP POP POP POP POP POP JUMP JUMPDEST PUSH0 DUP5 MLOAD GT PUSH2 0x2B5E JUMPI PUSH1 0x40 MLOAD PUSH3 0x461BCD PUSH1 0xE5 SHL DUP2 MSTORE PUSH1 0x20 PUSH1 0x4 DUP3 ADD MSTORE PUSH1 0x13 PUSH1 0x24 DUP3 ADD MSTORE PUSH19 0x746F6B656E4964735B5D20697320656D707479 PUSH1 0x68 SHL PUSH1 0x44 DUP3 ADD MSTORE PUSH1 0x64 ADD PUSH2 0xBB5 JUMP JUMPDEST DUP4 MLOAD PUSH1 0x1 EQ DUP1 PUSH2 0x2B81 JUMPI POP PUSH2 0xFFFF DUP7 AND PUSH0 SWAP1 DUP2 MSTORE PUSH1 0x8 PUSH1 0x20 MSTORE PUSH1 0x40 SWAP1 KECCAK256 SLOAD DUP5 MLOAD GT ISZERO JUMPDEST PUSH2 0x2BD8 JUMPI PUSH1 0x40 MLOAD PUSH3 0x461BCD PUSH1 0xE5 SHL DUP2 MSTORE PUSH1 0x20 PUSH1 0x4 DUP3 ADD MSTORE PUSH1 0x22 PUSH1 0x24 DUP3 ADD MSTORE PUSH32 0x62617463682073697A65206578636565647320647374206261746368206C696D PUSH1 0x44 DUP3 ADD MSTORE PUSH2 0x1A5D PUSH1 0xF2 SHL PUSH1 0x64 DUP3 ADD MSTORE PUSH1 0x84 ADD PUSH2 0xBB5 JUMP JUMPDEST PUSH0 JUMPDEST DUP5 MLOAD DUP2 LT ISZERO PUSH2 0x2C10 JUMPI PUSH2 0x2C08 DUP9 DUP9 DUP9 DUP9 DUP6 DUP2 MLOAD DUP2 LT PUSH2 0x2BFB JUMPI PUSH2 0x2BFB PUSH2 0x4994 JUMP JUMPDEST PUSH1 0x20 MUL PUSH1 0x20 ADD ADD MLOAD PUSH2 0x3497 JUMP JUMPDEST PUSH1 0x1 ADD PUSH2 0x2BDA JUMP JUMPDEST POP PUSH0 DUP6 DUP6 PUSH1 0x40 MLOAD PUSH1 0x20 ADD PUSH2 0x2C25 SWAP3 SWAP2 SWAP1 PUSH2 0x48BD JUMP JUMPDEST PUSH1 0x40 MLOAD PUSH1 0x20 DUP2 DUP4 SUB SUB DUP2 MSTORE SWAP1 PUSH1 0x40 MSTORE SWAP1 POP PUSH2 0x2C68 DUP8 PUSH1 0x1 DUP5 DUP9 MLOAD PUSH1 0x9 PUSH0 DUP14 PUSH2 0xFFFF AND PUSH2 0xFFFF AND DUP2 MSTORE PUSH1 0x20 ADD SWAP1 DUP2 MSTORE PUSH1 0x20 ADD PUSH0 KECCAK256 SLOAD PUSH2 0x2C63 SWAP2 SWAP1 PUSH2 0x4A21 JUMP JUMPDEST PUSH2 0x289F JUMP JUMPDEST PUSH2 0x2C76 DUP8 DUP3 DUP7 DUP7 DUP7 CALLVALUE PUSH2 0x297B JUMP JUMPDEST DUP6 PUSH1 0x40 MLOAD PUSH2 0x2C84 SWAP2 SWAP1 PUSH2 0x4A38 JUMP JUMPDEST PUSH1 0x40 MLOAD DUP1 SWAP2 SUB SWAP1 KECCAK256 DUP9 PUSH1 0x1 PUSH1 0x1 PUSH1 0xA0 SHL SUB AND DUP9 PUSH2 0xFFFF AND PUSH32 0xE1B87C47FDEB4F9CBADBCA9DF3AF7ABA453BB6E501075D0440D88125B711522A DUP9 PUSH1 0x40 MLOAD PUSH2 0x2CCA SWAP2 SWAP1 PUSH2 0x4A43 JUMP JUMPDEST PUSH1 0x40 MLOAD DUP1 SWAP2 SUB SWAP1 LOG4 POP POP POP POP POP POP POP POP JUMP JUMPDEST PUSH0 DUP1 DUP3 DUP1 PUSH1 0x20 ADD SWAP1 MLOAD DUP2 ADD SWAP1 PUSH2 0x2CF2 SWAP2 SWAP1 PUSH2 0x4499 JUMP JUMPDEST SWAP2 POP SWAP2 POP DUP1 PUSH0 DUP2 MLOAD DUP2 LT PUSH2 0x2D08 JUMPI PUSH2 0x2D08 PUSH2 0x4994 JUMP JUMPDEST PUSH1 0x20 MUL PUSH1 0x20 ADD ADD MLOAD PUSH0 SUB PUSH2 0x2D1D JUMPI POP POP PUSH2 0x1AD3 JUMP JUMPDEST PUSH1 0x14 DUP3 ADD MLOAD PUSH0 PUSH2 0x2D2F DUP9 DUP4 DUP4 DUP7 PUSH2 0x2EFE JUMP JUMPDEST SWAP1 POP DUP3 MLOAD DUP2 LT ISZERO PUSH2 0x2E02 JUMPI DUP5 MLOAD PUSH1 0x20 DUP1 DUP8 ADD SWAP2 SWAP1 SWAP2 KECCAK256 PUSH1 0x40 DUP1 MLOAD PUSH1 0x80 DUP2 ADD DUP3 MSTORE PUSH2 0xFFFF DUP1 DUP14 AND DUP3 MSTORE PUSH1 0x1 PUSH1 0x1 PUSH1 0xA0 SHL SUB DUP1 DUP9 AND DUP4 DUP8 ADD SWAP1 DUP2 MSTORE DUP4 DUP6 ADD DUP9 DUP2 MSTORE PUSH1 0x1 PUSH1 0x60 DUP7 ADD DUP2 DUP2 MSTORE PUSH0 DUP10 DUP2 MSTORE PUSH1 0xA SWAP1 SWAP11 MSTORE SWAP9 DUP8 SWAP1 KECCAK256 SWAP6 MLOAD DUP7 SLOAD SWAP4 MLOAD SWAP1 SWAP5 AND PUSH3 0x10000 MUL PUSH1 0x1 PUSH1 0x1 PUSH1 0xB0 SHL SUB NOT SWAP1 SWAP4 AND SWAP4 SWAP1 SWAP5 AND SWAP3 SWAP1 SWAP3 OR OR DUP4 SSTORE MLOAD SWAP1 DUP3 ADD SSTORE SWAP3 MLOAD PUSH1 0x2 SWAP1 SWAP4 ADD DUP1 SLOAD SWAP4 ISZERO ISZERO PUSH1 0xFF NOT SWAP1 SWAP5 AND SWAP4 SWAP1 SWAP4 OR SWAP1 SWAP3 SSTORE SWAP1 MLOAD PUSH32 0x10E0B70D256BCCC84B7027506978BD8B68984A870788B93B479DEF144C839AD7 SWAP1 PUSH2 0x2DF8 SWAP1 DUP4 SWAP1 DUP10 SWAP1 PUSH2 0x4A55 JUMP JUMPDEST PUSH1 0x40 MLOAD DUP1 SWAP2 SUB SWAP1 LOG1 POP JUMPDEST DUP2 PUSH1 0x1 PUSH1 0x1 PUSH1 0xA0 SHL SUB AND DUP8 PUSH1 0x40 MLOAD PUSH2 0x2E1A SWAP2 SWAP1 PUSH2 0x4A38 JUMP JUMPDEST PUSH1 0x40 MLOAD DUP1 SWAP2 SUB SWAP1 KECCAK256 DUP10 PUSH2 0xFFFF AND PUSH32 0x5B821DB8A46F8ECBE1941BA2F51CFEEA9643268B56631F70D45E2A745D990265 DUP7 PUSH1 0x40 MLOAD PUSH2 0x2CCA SWAP2 SWAP1 PUSH2 0x4A43 JUMP JUMPDEST PUSH0 DUP1 SLOAD PUSH1 0x1 PUSH1 0x1 PUSH1 0xA0 SHL SUB DUP4 DUP2 AND PUSH1 0x1 PUSH1 0x1 PUSH1 0xA0 SHL SUB NOT DUP4 AND DUP2 OR DUP5 SSTORE PUSH1 0x40 MLOAD SWAP2 SWAP1 SWAP3 AND SWAP3 DUP4 SWAP2 PUSH32 0x8BE0079C531659141344CD1FD0A4F28419497F9722A3DAAFE3B4186F6B6457E0 SWAP2 SWAP1 LOG3 POP POP JUMP JUMPDEST PUSH1 0x2 PUSH1 0x6 SLOAD SUB PUSH2 0x2EF7 JUMPI PUSH1 0x40 MLOAD PUSH3 0x461BCD PUSH1 0xE5 SHL DUP2 MSTORE PUSH1 0x20 PUSH1 0x4 DUP3 ADD MSTORE PUSH1 0x1F PUSH1 0x24 DUP3 ADD MSTORE PUSH32 0x5265656E7472616E637947756172643A207265656E7472616E742063616C6C00 PUSH1 0x44 DUP3 ADD MSTORE PUSH1 0x64 ADD PUSH2 0xBB5 JUMP JUMPDEST PUSH1 0x2 PUSH1 0x6 SSTORE JUMP JUMPDEST PUSH0 DUP3 JUMPDEST DUP3 MLOAD DUP2 LT ISZERO PUSH2 0x24C1 JUMPI PUSH1 0x7 SLOAD GAS LT PUSH2 0x24C1 JUMPI PUSH2 0x2F37 DUP7 DUP7 DUP6 DUP5 DUP2 MLOAD DUP2 LT PUSH2 0x2F2A JUMPI PUSH2 0x2F2A PUSH2 0x4994 JUMP JUMPDEST PUSH1 0x20 MUL PUSH1 0x20 ADD ADD MLOAD PUSH2 0x3582 JUMP JUMPDEST DUP1 PUSH2 0x2F41 DUP2 PUSH2 0x4703 JUMP JUMPDEST SWAP2 POP POP PUSH2 0x2F01 JUMP JUMPDEST PUSH1 0x60 DUP2 PUSH2 0x2F57 DUP2 PUSH1 0x1F PUSH2 0x49A8 JUMP JUMPDEST LT ISZERO PUSH2 0x2F96 JUMPI PUSH1 0x40 MLOAD PUSH3 0x461BCD PUSH1 0xE5 SHL DUP2 MSTORE PUSH1 0x20 PUSH1 0x4 DUP3 ADD MSTORE PUSH1 0xE PUSH1 0x24 DUP3 ADD MSTORE PUSH14 0x736C6963655F6F766572666C6F77 PUSH1 0x90 SHL PUSH1 0x44 DUP3 ADD MSTORE PUSH1 0x64 ADD PUSH2 0xBB5 JUMP JUMPDEST PUSH2 0x2FA0 DUP3 DUP5 PUSH2 0x49A8 JUMP JUMPDEST DUP5 MLOAD LT ISZERO PUSH2 0x2FE4 JUMPI PUSH1 0x40 MLOAD PUSH3 0x461BCD PUSH1 0xE5 SHL DUP2 MSTORE PUSH1 0x20 PUSH1 0x4 DUP3 ADD MSTORE PUSH1 0x11 PUSH1 0x24 DUP3 ADD MSTORE PUSH17 0x736C6963655F6F75744F66426F756E6473 PUSH1 0x78 SHL PUSH1 0x44 DUP3 ADD MSTORE PUSH1 0x64 ADD PUSH2 0xBB5 JUMP JUMPDEST PUSH1 0x60 DUP3 ISZERO DUP1 ISZERO PUSH2 0x3002 JUMPI PUSH1 0x40 MLOAD SWAP2 POP PUSH0 DUP3 MSTORE PUSH1 0x20 DUP3 ADD PUSH1 0x40 MSTORE PUSH2 0x304C JUMP JUMPDEST PUSH1 0x40 MLOAD SWAP2 POP PUSH1 0x1F DUP5 AND DUP1 ISZERO PUSH1 0x20 MUL DUP2 DUP5 ADD ADD DUP6 DUP2 ADD DUP8 DUP4 ISZERO PUSH1 0x20 MUL DUP5 DUP12 ADD ADD ADD JUMPDEST DUP2 DUP4 LT ISZERO PUSH2 0x303B JUMPI DUP1 MLOAD DUP4 MSTORE PUSH1 0x20 SWAP3 DUP4 ADD SWAP3 ADD PUSH2 0x3023 JUMP JUMPDEST POP POP DUP6 DUP5 MSTORE PUSH1 0x1F ADD PUSH1 0x1F NOT AND PUSH1 0x40 MSTORE POP JUMPDEST POP SWAP5 SWAP4 POP POP POP POP JUMP JUMPDEST DUP2 PUSH1 0x1 PUSH1 0x1 PUSH1 0xA0 SHL SUB AND DUP4 PUSH1 0x1 PUSH1 0x1 PUSH1 0xA0 SHL SUB AND SUB PUSH2 0x30B6 JUMPI PUSH1 0x40 MLOAD PUSH3 0x461BCD PUSH1 0xE5 SHL DUP2 MSTORE PUSH1 0x20 PUSH1 0x4 DUP3 ADD MSTORE PUSH1 0x19 PUSH1 0x24 DUP3 ADD MSTORE PUSH32 0x4552433732313A20617070726F766520746F2063616C6C657200000000000000 PUSH1 0x44 DUP3 ADD MSTORE PUSH1 0x64 ADD PUSH2 0xBB5 JUMP JUMPDEST PUSH1 0x1 PUSH1 0x1 PUSH1 0xA0 SHL SUB DUP4 DUP2 AND PUSH0 DUP2 DUP2 MSTORE PUSH1 0x10 PUSH1 0x20 SWAP1 DUP2 MSTORE PUSH1 0x40 DUP1 DUP4 KECCAK256 SWAP5 DUP8 AND DUP1 DUP5 MSTORE SWAP5 DUP3 MSTORE SWAP2 DUP3 SWAP1 KECCAK256 DUP1 SLOAD PUSH1 0xFF NOT AND DUP7 ISZERO ISZERO SWAP1 DUP2 OR SWAP1 SWAP2 SSTORE SWAP2 MLOAD SWAP2 DUP3 MSTORE PUSH32 0x17307EAB39AB6107E8899845AD3D59BD9653F200F220920489CA2B5937696C31 SWAP2 ADD PUSH1 0x40 MLOAD DUP1 SWAP2 SUB SWAP1 LOG3 POP POP POP JUMP JUMPDEST PUSH2 0x312D DUP5 DUP5 DUP5 PUSH2 0x26F4 JUMP JUMPDEST PUSH2 0x3139 DUP5 DUP5 DUP5 DUP5 PUSH2 0x35E1 JUMP JUMPDEST PUSH2 0x1AD3 JUMPI PUSH1 0x40 MLOAD PUSH3 0x461BCD PUSH1 0xE5 SHL DUP2 MSTORE PUSH1 0x4 ADD PUSH2 0xBB5 SWAP1 PUSH2 0x4A6D JUMP JUMPDEST PUSH0 SWAP1 DUP2 MSTORE PUSH1 0xD PUSH1 0x20 MSTORE PUSH1 0x40 SWAP1 KECCAK256 SLOAD PUSH1 0x1 PUSH1 0x1 PUSH1 0xA0 SHL SUB AND ISZERO ISZERO SWAP1 JUMP JUMPDEST PUSH1 0x60 PUSH2 0x317C DUP3 PUSH2 0x25DA JUMP JUMPDEST PUSH0 PUSH2 0x3191 PUSH1 0x40 DUP1 MLOAD PUSH1 0x20 DUP2 ADD SWAP1 SWAP2 MSTORE PUSH0 DUP2 MSTORE SWAP1 JUMP JUMPDEST SWAP1 POP PUSH0 DUP2 MLOAD GT PUSH2 0x31AF JUMPI PUSH1 0x40 MLOAD DUP1 PUSH1 0x20 ADD PUSH1 0x40 MSTORE DUP1 PUSH0 DUP2 MSTORE POP PUSH2 0x19F4 JUMP JUMPDEST DUP1 PUSH2 0x31B9 DUP5 PUSH2 0x36DB JUMP JUMPDEST PUSH1 0x40 MLOAD PUSH1 0x20 ADD PUSH2 0x31CA SWAP3 SWAP2 SWAP1 PUSH2 0x46B7 JUMP JUMPDEST PUSH1 0x40 MLOAD PUSH1 0x20 DUP2 DUP4 SUB SUB DUP2 MSTORE SWAP1 PUSH1 0x40 MSTORE SWAP4 SWAP3 POP POP POP JUMP JUMPDEST PUSH2 0x1A06 DUP3 DUP3 PUSH1 0x40 MLOAD DUP1 PUSH1 0x20 ADD PUSH1 0x40 MSTORE DUP1 PUSH0 DUP2 MSTORE POP PUSH2 0x376A JUMP JUMPDEST PUSH2 0x3202 DUP3 PUSH2 0x3155 JUMP JUMPDEST PUSH2 0x3263 JUMPI PUSH1 0x40 MLOAD PUSH3 0x461BCD PUSH1 0xE5 SHL DUP2 MSTORE PUSH1 0x20 PUSH1 0x4 DUP3 ADD MSTORE PUSH1 0x2C PUSH1 0x24 DUP3 ADD MSTORE PUSH32 0x4552433732314D657461646174613A2055524920736574206F66206E6F6E6578 PUSH1 0x44 DUP3 ADD MSTORE PUSH12 0x34B9BA32B73A103A37B5B2B7 PUSH1 0xA1 SHL PUSH1 0x64 DUP3 ADD MSTORE PUSH1 0x84 ADD PUSH2 0xBB5 JUMP JUMPDEST PUSH0 DUP3 DUP2 MSTORE PUSH1 0x14 PUSH1 0x20 MSTORE PUSH1 0x40 SWAP1 KECCAK256 PUSH2 0xFD6 DUP3 DUP3 PUSH2 0x45E6 JUMP JUMPDEST PUSH0 PUSH1 0x60 PUSH0 DUP1 PUSH0 DUP7 PUSH2 0xFFFF AND PUSH1 0x1 PUSH1 0x1 PUSH1 0x40 SHL SUB DUP2 GT ISZERO PUSH2 0x329C JUMPI PUSH2 0x329C PUSH2 0x3C1F JUMP JUMPDEST PUSH1 0x40 MLOAD SWAP1 DUP1 DUP3 MSTORE DUP1 PUSH1 0x1F ADD PUSH1 0x1F NOT AND PUSH1 0x20 ADD DUP3 ADD PUSH1 0x40 MSTORE DUP1 ISZERO PUSH2 0x32C6 JUMPI PUSH1 0x20 DUP3 ADD DUP2 DUP1 CALLDATASIZE DUP4 CALLDATACOPY ADD SWAP1 POP JUMPDEST POP SWAP1 POP PUSH0 DUP1 DUP8 MLOAD PUSH1 0x20 DUP10 ADD PUSH0 DUP14 DUP14 CALL SWAP2 POP RETURNDATASIZE SWAP3 POP DUP7 DUP4 GT ISZERO PUSH2 0x32E6 JUMPI DUP7 SWAP3 POP JUMPDEST DUP3 DUP2 MSTORE DUP3 PUSH0 PUSH1 0x20 DUP4 ADD RETURNDATACOPY SWAP1 SWAP9 SWAP1 SWAP8 POP SWAP6 POP POP POP POP POP POP JUMP JUMPDEST DUP2 DUP1 MLOAD SWAP1 PUSH1 0x20 ADD KECCAK256 PUSH1 0x5 PUSH0 DUP8 PUSH2 0xFFFF AND PUSH2 0xFFFF AND DUP2 MSTORE PUSH1 0x20 ADD SWAP1 DUP2 MSTORE PUSH1 0x20 ADD PUSH0 KECCAK256 DUP6 PUSH1 0x40 MLOAD PUSH2 0x332D SWAP2 SWAP1 PUSH2 0x4A38 JUMP JUMPDEST SWAP1 DUP2 MSTORE PUSH1 0x40 DUP1 MLOAD SWAP2 DUP3 SWAP1 SUB PUSH1 0x20 SWAP1 DUP2 ADD DUP4 KECCAK256 PUSH1 0x1 PUSH1 0x1 PUSH1 0x40 SHL SUB DUP9 AND PUSH0 SWAP1 DUP2 MSTORE SWAP2 MSTORE KECCAK256 SWAP2 SWAP1 SWAP2 SSTORE PUSH32 0xE183F33DE2837795525B4792CA4CD60535BD77C53B7E7030060BFCF5734D6B0C SWAP1 PUSH2 0x3389 SWAP1 DUP8 SWAP1 DUP8 SWAP1 DUP8 SWAP1 DUP8 SWAP1 DUP8 SWAP1 PUSH2 0x4ABF JUMP JUMPDEST PUSH1 0x40 MLOAD DUP1 SWAP2 SUB SWAP1 LOG1 POP POP POP POP POP JUMP JUMPDEST PUSH0 PUSH1 0x1 PUSH1 0x1 PUSH1 0xE0 SHL SUB NOT DUP3 AND PUSH4 0x22BAC5D9 PUSH1 0xE0 SHL EQ DUP1 PUSH2 0xD88 JUMPI POP PUSH4 0x1FFC9A7 PUSH1 0xE0 SHL PUSH1 0x1 PUSH1 0x1 PUSH1 0xE0 SHL SUB NOT DUP4 AND EQ PUSH2 0xD88 JUMP JUMPDEST PUSH0 PUSH1 0x22 DUP3 MLOAD LT ISZERO PUSH2 0x341F JUMPI PUSH1 0x40 MLOAD PUSH3 0x461BCD PUSH1 0xE5 SHL DUP2 MSTORE PUSH1 0x20 PUSH1 0x4 DUP3 ADD MSTORE PUSH1 0x1C PUSH1 0x24 DUP3 ADD MSTORE PUSH32 0x4C7A4170703A20696E76616C69642061646170746572506172616D7300000000 PUSH1 0x44 DUP3 ADD MSTORE PUSH1 0x64 ADD PUSH2 0xBB5 JUMP JUMPDEST POP PUSH1 0x22 ADD MLOAD SWAP1 JUMP JUMPDEST PUSH2 0xFFFF DUP3 AND PUSH0 SWAP1 DUP2 MSTORE PUSH1 0x3 PUSH1 0x20 MSTORE PUSH1 0x40 DUP2 KECCAK256 SLOAD SWAP1 DUP2 SWAP1 SUB PUSH2 0x3447 JUMPI POP PUSH2 0x2710 JUMPDEST DUP1 DUP3 GT ISZERO PUSH2 0xFD6 JUMPI PUSH1 0x40 MLOAD PUSH3 0x461BCD PUSH1 0xE5 SHL DUP2 MSTORE PUSH1 0x20 PUSH1 0x4 DUP3 ADD DUP2 SWAP1 MSTORE PUSH1 0x24 DUP3 ADD MSTORE PUSH32 0x4C7A4170703A207061796C6F61642073697A6520697320746F6F206C61726765 PUSH1 0x44 DUP3 ADD MSTORE PUSH1 0x64 ADD PUSH2 0xBB5 JUMP JUMPDEST PUSH2 0x34A0 CALLER PUSH2 0x10F5 JUMP JUMPDEST PUSH2 0x3503 JUMPI PUSH1 0x40 MLOAD PUSH3 0x461BCD PUSH1 0xE5 SHL DUP2 MSTORE PUSH1 0x20 PUSH1 0x4 DUP3 ADD MSTORE PUSH1 0x2E PUSH1 0x24 DUP3 ADD MSTORE PUSH32 0x4F4E46543732313A2073656E642063616C6C6572206973206E6F74206F776E65 PUSH1 0x44 DUP3 ADD MSTORE PUSH14 0x1C881B9BDC88185C1C1C9BDD9959 PUSH1 0x92 SHL PUSH1 0x64 DUP3 ADD MSTORE PUSH1 0x84 ADD PUSH2 0xBB5 JUMP JUMPDEST DUP4 PUSH1 0x1 PUSH1 0x1 PUSH1 0xA0 SHL SUB AND PUSH2 0x3516 DUP3 PUSH2 0x1370 JUMP JUMPDEST PUSH1 0x1 PUSH1 0x1 PUSH1 0xA0 SHL SUB AND EQ PUSH2 0x3577 JUMPI PUSH1 0x40 MLOAD PUSH3 0x461BCD PUSH1 0xE5 SHL DUP2 MSTORE PUSH1 0x20 PUSH1 0x4 DUP3 ADD MSTORE PUSH1 0x22 PUSH1 0x24 DUP3 ADD MSTORE PUSH32 0x4F4E46543732313A2073656E642066726F6D20696E636F7272656374206F776E PUSH1 0x44 DUP3 ADD MSTORE PUSH2 0x32B9 PUSH1 0xF1 SHL PUSH1 0x64 DUP3 ADD MSTORE PUSH1 0x84 ADD PUSH2 0xBB5 JUMP JUMPDEST PUSH2 0x1AD3 DUP5 ADDRESS DUP4 PUSH2 0x26F4 JUMP JUMPDEST PUSH2 0x358B DUP2 PUSH2 0x3155 JUMP JUMPDEST ISZERO DUP1 PUSH2 0x35B7 JUMPI POP PUSH2 0x359B DUP2 PUSH2 0x3155 JUMP JUMPDEST DUP1 ISZERO PUSH2 0x35B7 JUMPI POP ADDRESS PUSH2 0x35AC DUP3 PUSH2 0x1370 JUMP JUMPDEST PUSH1 0x1 PUSH1 0x1 PUSH1 0xA0 SHL SUB AND EQ JUMPDEST PUSH2 0x35BF JUMPI PUSH0 DUP1 REVERT JUMPDEST PUSH2 0x35C8 DUP2 PUSH2 0x3155 JUMP JUMPDEST PUSH2 0x35D6 JUMPI PUSH2 0xFD6 DUP3 DUP3 PUSH2 0x31E0 JUMP JUMPDEST PUSH2 0xFD6 ADDRESS DUP4 DUP4 PUSH2 0x26F4 JUMP JUMPDEST PUSH0 PUSH1 0x1 PUSH1 0x1 PUSH1 0xA0 SHL SUB DUP5 AND EXTCODESIZE ISZERO PUSH2 0x36D3 JUMPI PUSH1 0x40 MLOAD PUSH4 0xA85BD01 PUSH1 0xE1 SHL DUP2 MSTORE PUSH1 0x1 PUSH1 0x1 PUSH1 0xA0 SHL SUB DUP6 AND SWAP1 PUSH4 0x150B7A02 SWAP1 PUSH2 0x3624 SWAP1 CALLER SWAP1 DUP10 SWAP1 DUP9 SWAP1 DUP9 SWAP1 PUSH1 0x4 ADD PUSH2 0x4B10 JUMP JUMPDEST PUSH1 0x20 PUSH1 0x40 MLOAD DUP1 DUP4 SUB DUP2 PUSH0 DUP8 GAS CALL SWAP3 POP POP POP DUP1 ISZERO PUSH2 0x365E JUMPI POP PUSH1 0x40 DUP1 MLOAD PUSH1 0x1F RETURNDATASIZE SWAP1 DUP2 ADD PUSH1 0x1F NOT AND DUP3 ADD SWAP1 SWAP3 MSTORE PUSH2 0x365B SWAP2 DUP2 ADD SWAP1 PUSH2 0x4B4C JUMP JUMPDEST PUSH1 0x1 JUMPDEST PUSH2 0x36B9 JUMPI RETURNDATASIZE DUP1 DUP1 ISZERO PUSH2 0x368B JUMPI PUSH1 0x40 MLOAD SWAP2 POP PUSH1 0x1F NOT PUSH1 0x3F RETURNDATASIZE ADD AND DUP3 ADD PUSH1 0x40 MSTORE RETURNDATASIZE DUP3 MSTORE RETURNDATASIZE PUSH0 PUSH1 0x20 DUP5 ADD RETURNDATACOPY PUSH2 0x3690 JUMP JUMPDEST PUSH1 0x60 SWAP2 POP JUMPDEST POP DUP1 MLOAD PUSH0 SUB PUSH2 0x36B1 JUMPI PUSH1 0x40 MLOAD PUSH3 0x461BCD PUSH1 0xE5 SHL DUP2 MSTORE PUSH1 0x4 ADD PUSH2 0xBB5 SWAP1 PUSH2 0x4A6D JUMP JUMPDEST DUP1 MLOAD DUP2 PUSH1 0x20 ADD REVERT JUMPDEST PUSH1 0x1 PUSH1 0x1 PUSH1 0xE0 SHL SUB NOT AND PUSH4 0xA85BD01 PUSH1 0xE1 SHL EQ SWAP1 POP PUSH2 0x1C95 JUMP JUMPDEST POP PUSH1 0x1 PUSH2 0x1C95 JUMP JUMPDEST PUSH1 0x60 PUSH0 PUSH2 0x36E7 DUP4 PUSH2 0x379C JUMP JUMPDEST PUSH1 0x1 ADD SWAP1 POP PUSH0 DUP2 PUSH1 0x1 PUSH1 0x1 PUSH1 0x40 SHL SUB DUP2 GT ISZERO PUSH2 0x3705 JUMPI PUSH2 0x3705 PUSH2 0x3C1F JUMP JUMPDEST PUSH1 0x40 MLOAD SWAP1 DUP1 DUP3 MSTORE DUP1 PUSH1 0x1F ADD PUSH1 0x1F NOT AND PUSH1 0x20 ADD DUP3 ADD PUSH1 0x40 MSTORE DUP1 ISZERO PUSH2 0x372F JUMPI PUSH1 0x20 DUP3 ADD DUP2 DUP1 CALLDATASIZE DUP4 CALLDATACOPY ADD SWAP1 POP JUMPDEST POP SWAP1 POP DUP2 DUP2 ADD PUSH1 0x20 ADD JUMPDEST PUSH0 NOT ADD PUSH16 0x181899199A1A9B1B9C1CB0B131B232B3 PUSH1 0x81 SHL PUSH1 0xA DUP7 MOD BYTE DUP2 MSTORE8 PUSH1 0xA DUP6 DIV SWAP5 POP DUP5 PUSH2 0x3739 JUMPI POP SWAP4 SWAP3 POP POP POP JUMP JUMPDEST PUSH2 0x3774 DUP4 DUP4 PUSH2 0x3873 JUMP JUMPDEST PUSH2 0x3780 PUSH0 DUP5 DUP5 DUP5 PUSH2 0x35E1 JUMP JUMPDEST PUSH2 0xFD6 JUMPI PUSH1 0x40 MLOAD PUSH3 0x461BCD PUSH1 0xE5 SHL DUP2 MSTORE PUSH1 0x4 ADD PUSH2 0xBB5 SWAP1 PUSH2 0x4A6D JUMP JUMPDEST PUSH0 DUP1 PUSH19 0x184F03E93FF9F4DAA797ED6E38ED64BF6A1F01 PUSH1 0x40 SHL DUP4 LT PUSH2 0x37DA JUMPI PUSH19 0x184F03E93FF9F4DAA797ED6E38ED64BF6A1F01 PUSH1 0x40 SHL DUP4 DIV SWAP3 POP PUSH1 0x40 ADD JUMPDEST PUSH14 0x4EE2D6D415B85ACEF8100000000 DUP4 LT PUSH2 0x3806 JUMPI PUSH14 0x4EE2D6D415B85ACEF8100000000 DUP4 DIV SWAP3 POP PUSH1 0x20 ADD JUMPDEST PUSH7 0x2386F26FC10000 DUP4 LT PUSH2 0x3824 JUMPI PUSH7 0x2386F26FC10000 DUP4 DIV SWAP3 POP PUSH1 0x10 ADD JUMPDEST PUSH4 0x5F5E100 DUP4 LT PUSH2 0x383C JUMPI PUSH4 0x5F5E100 DUP4 DIV SWAP3 POP PUSH1 0x8 ADD JUMPDEST PUSH2 0x2710 DUP4 LT PUSH2 0x3850 JUMPI PUSH2 0x2710 DUP4 DIV SWAP3 POP PUSH1 0x4 ADD JUMPDEST PUSH1 0x64 DUP4 LT PUSH2 0x3862 JUMPI PUSH1 0x64 DUP4 DIV SWAP3 POP PUSH1 0x2 ADD JUMPDEST PUSH1 0xA DUP4 LT PUSH2 0xD88 JUMPI PUSH1 0x1 ADD SWAP3 SWAP2 POP POP JUMP JUMPDEST PUSH1 0x1 PUSH1 0x1 PUSH1 0xA0 SHL SUB DUP3 AND PUSH2 0x38C9 JUMPI PUSH1 0x40 MLOAD PUSH3 0x461BCD PUSH1 0xE5 SHL DUP2 MSTORE PUSH1 0x20 PUSH1 0x4 DUP3 ADD DUP2 SWAP1 MSTORE PUSH1 0x24 DUP3 ADD MSTORE PUSH32 0x4552433732313A206D696E7420746F20746865207A65726F2061646472657373 PUSH1 0x44 DUP3 ADD MSTORE PUSH1 0x64 ADD PUSH2 0xBB5 JUMP JUMPDEST PUSH2 0x38D2 DUP2 PUSH2 0x3155 JUMP JUMPDEST ISZERO PUSH2 0x391F JUMPI PUSH1 0x40 MLOAD PUSH3 0x461BCD PUSH1 0xE5 SHL DUP2 MSTORE PUSH1 0x20 PUSH1 0x4 DUP3 ADD MSTORE PUSH1 0x1C PUSH1 0x24 DUP3 ADD MSTORE PUSH32 0x4552433732313A20746F6B656E20616C7265616479206D696E74656400000000 PUSH1 0x44 DUP3 ADD MSTORE PUSH1 0x64 ADD PUSH2 0xBB5 JUMP JUMPDEST PUSH2 0x3928 DUP2 PUSH2 0x3155 JUMP JUMPDEST ISZERO PUSH2 0x3975 JUMPI PUSH1 0x40 MLOAD PUSH3 0x461BCD PUSH1 0xE5 SHL DUP2 MSTORE PUSH1 0x20 PUSH1 0x4 DUP3 ADD MSTORE PUSH1 0x1C PUSH1 0x24 DUP3 ADD MSTORE PUSH32 0x4552433732313A20746F6B656E20616C7265616479206D696E74656400000000 PUSH1 0x44 DUP3 ADD MSTORE PUSH1 0x64 ADD PUSH2 0xBB5 JUMP JUMPDEST PUSH1 0x1 PUSH1 0x1 PUSH1 0xA0 SHL SUB DUP3 AND PUSH0 DUP2 DUP2 MSTORE PUSH1 0xE PUSH1 0x20 SWAP1 DUP2 MSTORE PUSH1 0x40 DUP1 DUP4 KECCAK256 DUP1 SLOAD PUSH1 0x1 ADD SWAP1 SSTORE DUP5 DUP4 MSTORE PUSH1 0xD SWAP1 SWAP2 MSTORE DUP1 DUP3 KECCAK256 DUP1 SLOAD PUSH1 0x1 PUSH1 0x1 PUSH1 0xA0 SHL SUB NOT AND DUP5 OR SWAP1 SSTORE MLOAD DUP4 SWAP3 SWAP2 SWAP1 PUSH32 0xDDF252AD1BE2C89B69C2B068FC378DAA952BA7F163C4A11628F55A4DF523B3EF SWAP1 DUP3 SWAP1 LOG4 POP POP JUMP JUMPDEST DUP1 CALLDATALOAD PUSH2 0xFFFF DUP2 AND DUP2 EQ PUSH2 0x39F0 JUMPI PUSH0 DUP1 REVERT JUMPDEST SWAP2 SWAP1 POP JUMP JUMPDEST PUSH0 DUP1 DUP4 PUSH1 0x1F DUP5 ADD SLT PUSH2 0x3A05 JUMPI PUSH0 DUP1 REVERT JUMPDEST POP DUP2 CALLDATALOAD PUSH1 0x1 PUSH1 0x1 PUSH1 0x40 SHL SUB DUP2 GT ISZERO PUSH2 0x3A1B JUMPI PUSH0 DUP1 REVERT JUMPDEST PUSH1 0x20 DUP4 ADD SWAP2 POP DUP4 PUSH1 0x20 DUP3 DUP6 ADD ADD GT ISZERO PUSH2 0x3A32 JUMPI PUSH0 DUP1 REVERT JUMPDEST SWAP3 POP SWAP3 SWAP1 POP JUMP JUMPDEST DUP1 CALLDATALOAD PUSH1 0x1 PUSH1 0x1 PUSH1 0x40 SHL SUB DUP2 AND DUP2 EQ PUSH2 0x39F0 JUMPI PUSH0 DUP1 REVERT JUMPDEST PUSH0 DUP1 PUSH0 DUP1 PUSH0 DUP1 PUSH1 0x80 DUP8 DUP10 SUB SLT ISZERO PUSH2 0x3A64 JUMPI PUSH0 DUP1 REVERT JUMPDEST PUSH2 0x3A6D DUP8 PUSH2 0x39DF JUMP JUMPDEST SWAP6 POP PUSH1 0x20 DUP8 ADD CALLDATALOAD PUSH1 0x1 PUSH1 0x1 PUSH1 0x40 SHL SUB DUP2 GT ISZERO PUSH2 0x3A87 JUMPI PUSH0 DUP1 REVERT JUMPDEST PUSH2 0x3A93 DUP10 DUP3 DUP11 ADD PUSH2 0x39F5 JUMP JUMPDEST SWAP1 SWAP7 POP SWAP5 POP PUSH2 0x3AA6 SWAP1 POP PUSH1 0x40 DUP9 ADD PUSH2 0x3A39 JUMP JUMPDEST SWAP3 POP PUSH1 0x60 DUP8 ADD CALLDATALOAD PUSH1 0x1 PUSH1 0x1 PUSH1 0x40 SHL SUB DUP2 GT ISZERO PUSH2 0x3AC0 JUMPI PUSH0 DUP1 REVERT JUMPDEST PUSH2 0x3ACC DUP10 DUP3 DUP11 ADD PUSH2 0x39F5 JUMP JUMPDEST SWAP8 SWAP11 SWAP7 SWAP10 POP SWAP5 SWAP8 POP SWAP3 SWAP6 SWAP4 SWAP5 SWAP3 POP POP POP JUMP JUMPDEST PUSH1 0x1 PUSH1 0x1 PUSH1 0xE0 SHL SUB NOT DUP2 AND DUP2 EQ PUSH2 0x11A0 JUMPI PUSH0 DUP1 REVERT JUMPDEST PUSH0 PUSH1 0x20 DUP3 DUP5 SUB SLT ISZERO PUSH2 0x3B03 JUMPI PUSH0 DUP1 REVERT JUMPDEST DUP2 CALLDATALOAD PUSH2 0x19F4 DUP2 PUSH2 0x3ADE JUMP JUMPDEST PUSH0 DUP2 MLOAD DUP1 DUP5 MSTORE DUP1 PUSH1 0x20 DUP5 ADD PUSH1 0x20 DUP7 ADD MCOPY PUSH0 PUSH1 0x20 DUP3 DUP7 ADD ADD MSTORE PUSH1 0x20 PUSH1 0x1F NOT PUSH1 0x1F DUP4 ADD AND DUP6 ADD ADD SWAP2 POP POP SWAP3 SWAP2 POP POP JUMP JUMPDEST PUSH1 0x20 DUP2 MSTORE PUSH0 PUSH2 0x19F4 PUSH1 0x20 DUP4 ADD DUP5 PUSH2 0x3B0E JUMP JUMPDEST PUSH0 PUSH1 0x20 DUP3 DUP5 SUB SLT ISZERO PUSH2 0x3B5E JUMPI PUSH0 DUP1 REVERT JUMPDEST PUSH2 0x19F4 DUP3 PUSH2 0x39DF JUMP JUMPDEST PUSH0 PUSH1 0x20 DUP3 DUP5 SUB SLT ISZERO PUSH2 0x3B77 JUMPI PUSH0 DUP1 REVERT JUMPDEST POP CALLDATALOAD SWAP2 SWAP1 POP JUMP JUMPDEST PUSH1 0x1 PUSH1 0x1 PUSH1 0xA0 SHL SUB DUP2 AND DUP2 EQ PUSH2 0x11A0 JUMPI PUSH0 DUP1 REVERT JUMPDEST DUP1 CALLDATALOAD PUSH2 0x39F0 DUP2 PUSH2 0x3B7E JUMP JUMPDEST PUSH0 DUP1 PUSH1 0x40 DUP4 DUP6 SUB SLT ISZERO PUSH2 0x3BAE JUMPI PUSH0 DUP1 REVERT JUMPDEST DUP3 CALLDATALOAD PUSH2 0x3BB9 DUP2 PUSH2 0x3B7E JUMP JUMPDEST SWAP5 PUSH1 0x20 SWAP4 SWAP1 SWAP4 ADD CALLDATALOAD SWAP4 POP POP POP JUMP JUMPDEST PUSH0 DUP1 PUSH1 0x40 DUP4 DUP6 SUB SLT ISZERO PUSH2 0x3BD8 JUMPI PUSH0 DUP1 REVERT JUMPDEST PUSH2 0x3BB9 DUP4 PUSH2 0x39DF JUMP JUMPDEST PUSH0 DUP1 PUSH0 PUSH1 0x60 DUP5 DUP7 SUB SLT ISZERO PUSH2 0x3BF3 JUMPI PUSH0 DUP1 REVERT JUMPDEST DUP4 CALLDATALOAD PUSH2 0x3BFE DUP2 PUSH2 0x3B7E JUMP JUMPDEST SWAP3 POP PUSH1 0x20 DUP5 ADD CALLDATALOAD PUSH2 0x3C0E DUP2 PUSH2 0x3B7E JUMP JUMPDEST SWAP3 SWAP6 SWAP3 SWAP5 POP POP POP PUSH1 0x40 SWAP2 SWAP1 SWAP2 ADD CALLDATALOAD SWAP1 JUMP JUMPDEST PUSH4 0x4E487B71 PUSH1 0xE0 SHL PUSH0 MSTORE PUSH1 0x41 PUSH1 0x4 MSTORE PUSH1 0x24 PUSH0 REVERT JUMPDEST PUSH1 0x40 MLOAD PUSH1 0x1F DUP3 ADD PUSH1 0x1F NOT AND DUP2 ADD PUSH1 0x1 PUSH1 0x1 PUSH1 0x40 SHL SUB DUP2 GT DUP3 DUP3 LT OR ISZERO PUSH2 0x3C5B JUMPI PUSH2 0x3C5B PUSH2 0x3C1F JUMP JUMPDEST PUSH1 0x40 MSTORE SWAP2 SWAP1 POP JUMP JUMPDEST PUSH0 PUSH1 0x1 PUSH1 0x1 PUSH1 0x40 SHL SUB DUP3 GT ISZERO PUSH2 0x3C7B JUMPI PUSH2 0x3C7B PUSH2 0x3C1F JUMP JUMPDEST POP PUSH1 0x1F ADD PUSH1 0x1F NOT AND PUSH1 0x20 ADD SWAP1 JUMP JUMPDEST PUSH0 PUSH2 0x3C9B PUSH2 0x3C96 DUP5 PUSH2 0x3C63 JUMP JUMPDEST PUSH2 0x3C33 JUMP JUMPDEST SWAP1 POP DUP3 DUP2 MSTORE DUP4 DUP4 DUP4 ADD GT ISZERO PUSH2 0x3CAE JUMPI PUSH0 DUP1 REVERT JUMPDEST DUP3 DUP3 PUSH1 0x20 DUP4 ADD CALLDATACOPY PUSH0 PUSH1 0x20 DUP5 DUP4 ADD ADD MSTORE SWAP4 SWAP3 POP POP POP JUMP JUMPDEST PUSH0 DUP3 PUSH1 0x1F DUP4 ADD SLT PUSH2 0x3CD3 JUMPI PUSH0 DUP1 REVERT JUMPDEST PUSH2 0x19F4 DUP4 DUP4 CALLDATALOAD PUSH1 0x20 DUP6 ADD PUSH2 0x3C89 JUMP JUMPDEST DUP1 CALLDATALOAD DUP1 ISZERO ISZERO DUP2 EQ PUSH2 0x39F0 JUMPI PUSH0 DUP1 REVERT JUMPDEST PUSH0 DUP1 PUSH0 DUP1 PUSH0 PUSH1 0xA0 DUP7 DUP9 SUB SLT ISZERO PUSH2 0x3D05 JUMPI PUSH0 DUP1 REVERT JUMPDEST PUSH2 0x3D0E DUP7 PUSH2 0x39DF JUMP JUMPDEST SWAP5 POP PUSH1 0x20 DUP7 ADD CALLDATALOAD PUSH1 0x1 PUSH1 0x1 PUSH1 0x40 SHL SUB DUP2 GT ISZERO PUSH2 0x3D28 JUMPI PUSH0 DUP1 REVERT JUMPDEST PUSH2 0x3D34 DUP9 DUP3 DUP10 ADD PUSH2 0x3CC4 JUMP JUMPDEST SWAP5 POP POP PUSH1 0x40 DUP7 ADD CALLDATALOAD SWAP3 POP PUSH2 0x3D4A PUSH1 0x60 DUP8 ADD PUSH2 0x3CE2 JUMP JUMPDEST SWAP2 POP PUSH1 0x80 DUP7 ADD CALLDATALOAD PUSH1 0x1 PUSH1 0x1 PUSH1 0x40 SHL SUB DUP2 GT ISZERO PUSH2 0x3D64 JUMPI PUSH0 DUP1 REVERT JUMPDEST PUSH2 0x3D70 DUP9 DUP3 DUP10 ADD PUSH2 0x3CC4 JUMP JUMPDEST SWAP2 POP POP SWAP3 SWAP6 POP SWAP3 SWAP6 SWAP1 SWAP4 POP JUMP JUMPDEST PUSH0 DUP1 PUSH0 PUSH1 0x40 DUP5 DUP7 SUB SLT ISZERO PUSH2 0x3D8F JUMPI PUSH0 DUP1 REVERT JUMPDEST PUSH2 0x3D98 DUP5 PUSH2 0x39DF JUMP JUMPDEST SWAP3 POP PUSH1 0x20 DUP5 ADD CALLDATALOAD PUSH1 0x1 PUSH1 0x1 PUSH1 0x40 SHL SUB DUP2 GT ISZERO PUSH2 0x3DB2 JUMPI PUSH0 DUP1 REVERT JUMPDEST PUSH2 0x3DBE DUP7 DUP3 DUP8 ADD PUSH2 0x39F5 JUMP JUMPDEST SWAP5 SWAP8 SWAP1 SWAP7 POP SWAP4 SWAP5 POP POP POP POP JUMP JUMPDEST PUSH0 DUP1 PUSH0 PUSH1 0x60 DUP5 DUP7 SUB SLT ISZERO PUSH2 0x3DDD JUMPI PUSH0 DUP1 REVERT JUMPDEST PUSH2 0x3DE6 DUP5 PUSH2 0x39DF JUMP JUMPDEST SWAP3 POP PUSH1 0x20 DUP5 ADD CALLDATALOAD PUSH2 0x3DF6 DUP2 PUSH2 0x3B7E JUMP JUMPDEST SWAP2 POP PUSH1 0x40 DUP5 ADD CALLDATALOAD PUSH1 0x1 PUSH1 0x1 PUSH1 0x40 SHL SUB DUP2 GT ISZERO PUSH2 0x3E10 JUMPI PUSH0 DUP1 REVERT JUMPDEST PUSH2 0x3E1C DUP7 DUP3 DUP8 ADD PUSH2 0x3CC4 JUMP JUMPDEST SWAP2 POP POP SWAP3 POP SWAP3 POP SWAP3 JUMP JUMPDEST PUSH0 DUP1 PUSH0 DUP1 PUSH0 DUP1 PUSH0 PUSH1 0xE0 DUP9 DUP11 SUB SLT ISZERO PUSH2 0x3E3C JUMPI PUSH0 DUP1 REVERT JUMPDEST DUP8 CALLDATALOAD PUSH2 0x3E47 DUP2 PUSH2 0x3B7E JUMP JUMPDEST SWAP7 POP PUSH2 0x3E55 PUSH1 0x20 DUP10 ADD PUSH2 0x39DF JUMP JUMPDEST SWAP6 POP PUSH1 0x40 DUP9 ADD CALLDATALOAD PUSH1 0x1 PUSH1 0x1 PUSH1 0x40 SHL SUB DUP2 GT ISZERO PUSH2 0x3E6F JUMPI PUSH0 DUP1 REVERT JUMPDEST PUSH2 0x3E7B DUP11 DUP3 DUP12 ADD PUSH2 0x3CC4 JUMP JUMPDEST SWAP6 POP POP PUSH1 0x60 DUP9 ADD CALLDATALOAD SWAP4 POP PUSH1 0x80 DUP9 ADD CALLDATALOAD PUSH2 0x3E93 DUP2 PUSH2 0x3B7E JUMP JUMPDEST SWAP3 POP PUSH1 0xA0 DUP9 ADD CALLDATALOAD PUSH2 0x3EA3 DUP2 PUSH2 0x3B7E JUMP JUMPDEST SWAP2 POP PUSH1 0xC0 DUP9 ADD CALLDATALOAD PUSH1 0x1 PUSH1 0x1 PUSH1 0x40 SHL SUB DUP2 GT ISZERO PUSH2 0x3EBD JUMPI PUSH0 DUP1 REVERT JUMPDEST PUSH2 0x3EC9 DUP11 DUP3 DUP12 ADD PUSH2 0x3CC4 JUMP JUMPDEST SWAP2 POP POP SWAP3 SWAP6 SWAP9 SWAP2 SWAP5 SWAP8 POP SWAP3 SWAP6 POP JUMP JUMPDEST PUSH0 DUP1 PUSH0 PUSH1 0x60 DUP5 DUP7 SUB SLT ISZERO PUSH2 0x3EEA JUMPI PUSH0 DUP1 REVERT JUMPDEST PUSH2 0x3EF3 DUP5 PUSH2 0x39DF JUMP JUMPDEST SWAP3 POP PUSH1 0x20 DUP5 ADD CALLDATALOAD PUSH1 0x1 PUSH1 0x1 PUSH1 0x40 SHL SUB DUP2 GT ISZERO PUSH2 0x3F0D JUMPI PUSH0 DUP1 REVERT JUMPDEST PUSH2 0x3F19 DUP7 DUP3 DUP8 ADD PUSH2 0x3CC4 JUMP JUMPDEST SWAP3 POP POP PUSH2 0x3F28 PUSH1 0x40 DUP6 ADD PUSH2 0x3A39 JUMP JUMPDEST SWAP1 POP SWAP3 POP SWAP3 POP SWAP3 JUMP JUMPDEST PUSH0 PUSH1 0x20 DUP3 DUP5 SUB SLT ISZERO PUSH2 0x3F41 JUMPI PUSH0 DUP1 REVERT JUMPDEST DUP2 CALLDATALOAD PUSH2 0x19F4 DUP2 PUSH2 0x3B7E JUMP JUMPDEST PUSH0 DUP1 PUSH1 0x40 DUP4 DUP6 SUB SLT ISZERO PUSH2 0x3F5D JUMPI PUSH0 DUP1 REVERT JUMPDEST PUSH2 0x3F66 DUP4 PUSH2 0x39DF JUMP JUMPDEST SWAP2 POP PUSH2 0x3F74 PUSH1 0x20 DUP5 ADD PUSH2 0x39DF JUMP JUMPDEST SWAP1 POP SWAP3 POP SWAP3 SWAP1 POP JUMP JUMPDEST PUSH0 PUSH1 0x20 DUP3 DUP5 SUB SLT ISZERO PUSH2 0x3F8D JUMPI PUSH0 DUP1 REVERT JUMPDEST DUP2 CALLDATALOAD PUSH1 0x1 PUSH1 0x1 PUSH1 0x40 SHL SUB DUP2 GT ISZERO PUSH2 0x3FA2 JUMPI PUSH0 DUP1 REVERT JUMPDEST PUSH2 0x1C95 DUP5 DUP3 DUP6 ADD PUSH2 0x3CC4 JUMP JUMPDEST PUSH0 DUP1 PUSH1 0x40 DUP4 DUP6 SUB SLT ISZERO PUSH2 0x3FBF JUMPI PUSH0 DUP1 REVERT JUMPDEST DUP3 CALLDATALOAD PUSH2 0x3FCA DUP2 PUSH2 0x3B7E JUMP JUMPDEST SWAP2 POP PUSH2 0x3F74 PUSH1 0x20 DUP5 ADD PUSH2 0x3CE2 JUMP JUMPDEST PUSH0 PUSH1 0x1 PUSH1 0x1 PUSH1 0x40 SHL SUB DUP3 GT ISZERO PUSH2 0x3FF0 JUMPI PUSH2 0x3FF0 PUSH2 0x3C1F JUMP JUMPDEST POP PUSH1 0x5 SHL PUSH1 0x20 ADD SWAP1 JUMP JUMPDEST PUSH0 DUP3 PUSH1 0x1F DUP4 ADD SLT PUSH2 0x4009 JUMPI PUSH0 DUP1 REVERT JUMPDEST DUP2 CALLDATALOAD PUSH2 0x4017 PUSH2 0x3C96 DUP3 PUSH2 0x3FD8 JUMP JUMPDEST DUP1 DUP3 DUP3 MSTORE PUSH1 0x20 DUP3 ADD SWAP2 POP PUSH1 0x20 DUP4 PUSH1 0x5 SHL DUP7 ADD ADD SWAP3 POP DUP6 DUP4 GT ISZERO PUSH2 0x4038 JUMPI PUSH0 DUP1 REVERT JUMPDEST PUSH1 0x20 DUP6 ADD JUMPDEST DUP4 DUP2 LT ISZERO PUSH2 0x4055 JUMPI DUP1 CALLDATALOAD DUP4 MSTORE PUSH1 0x20 SWAP3 DUP4 ADD SWAP3 ADD PUSH2 0x403D JUMP JUMPDEST POP SWAP6 SWAP5 POP POP POP POP POP JUMP JUMPDEST PUSH0 DUP1 PUSH0 DUP1 PUSH0 DUP1 PUSH0 PUSH1 0xE0 DUP9 DUP11 SUB SLT ISZERO PUSH2 0x4075 JUMPI PUSH0 DUP1 REVERT JUMPDEST DUP8 CALLDATALOAD PUSH2 0x4080 DUP2 PUSH2 0x3B7E JUMP JUMPDEST SWAP7 POP PUSH2 0x408E PUSH1 0x20 DUP10 ADD PUSH2 0x39DF JUMP JUMPDEST SWAP6 POP PUSH1 0x40 DUP9 ADD CALLDATALOAD PUSH1 0x1 PUSH1 0x1 PUSH1 0x40 SHL SUB DUP2 GT ISZERO PUSH2 0x40A8 JUMPI PUSH0 DUP1 REVERT JUMPDEST PUSH2 0x40B4 DUP11 DUP3 DUP12 ADD PUSH2 0x3CC4 JUMP JUMPDEST SWAP6 POP POP PUSH1 0x60 DUP9 ADD CALLDATALOAD PUSH1 0x1 PUSH1 0x1 PUSH1 0x40 SHL SUB DUP2 GT ISZERO PUSH2 0x40CF JUMPI PUSH0 DUP1 REVERT JUMPDEST PUSH2 0x40DB DUP11 DUP3 DUP12 ADD PUSH2 0x3FFA JUMP JUMPDEST SWAP5 POP POP PUSH2 0x40EA PUSH1 0x80 DUP10 ADD PUSH2 0x3B92 JUMP JUMPDEST SWAP3 POP PUSH2 0x3EA3 PUSH1 0xA0 DUP10 ADD PUSH2 0x3B92 JUMP JUMPDEST PUSH0 DUP1 PUSH0 DUP1 PUSH1 0x80 DUP6 DUP8 SUB SLT ISZERO PUSH2 0x410B JUMPI PUSH0 DUP1 REVERT JUMPDEST DUP5 CALLDATALOAD PUSH2 0x4116 DUP2 PUSH2 0x3B7E JUMP JUMPDEST SWAP4 POP PUSH1 0x20 DUP6 ADD CALLDATALOAD PUSH2 0x4126 DUP2 PUSH2 0x3B7E JUMP JUMPDEST SWAP3 POP PUSH1 0x40 DUP6 ADD CALLDATALOAD SWAP2 POP PUSH1 0x60 DUP6 ADD CALLDATALOAD PUSH1 0x1 PUSH1 0x1 PUSH1 0x40 SHL SUB DUP2 GT ISZERO PUSH2 0x4147 JUMPI PUSH0 DUP1 REVERT JUMPDEST PUSH2 0x4153 DUP8 DUP3 DUP9 ADD PUSH2 0x3CC4 JUMP JUMPDEST SWAP2 POP POP SWAP3 SWAP6 SWAP2 SWAP5 POP SWAP3 POP JUMP JUMPDEST PUSH0 DUP1 PUSH0 DUP1 PUSH0 PUSH1 0x80 DUP7 DUP9 SUB SLT ISZERO PUSH2 0x4173 JUMPI PUSH0 DUP1 REVERT JUMPDEST PUSH2 0x417C DUP7 PUSH2 0x39DF JUMP JUMPDEST SWAP5 POP PUSH2 0x418A PUSH1 0x20 DUP8 ADD PUSH2 0x39DF JUMP JUMPDEST SWAP4 POP PUSH1 0x40 DUP7 ADD CALLDATALOAD SWAP3 POP PUSH1 0x60 DUP7 ADD CALLDATALOAD PUSH1 0x1 PUSH1 0x1 PUSH1 0x40 SHL SUB DUP2 GT ISZERO PUSH2 0x41AB JUMPI PUSH0 DUP1 REVERT JUMPDEST PUSH2 0x41B7 DUP9 DUP3 DUP10 ADD PUSH2 0x39F5 JUMP JUMPDEST SWAP7 SWAP10 SWAP6 SWAP9 POP SWAP4 SWAP7 POP SWAP3 SWAP5 SWAP4 SWAP3 POP POP POP JUMP JUMPDEST PUSH0 DUP1 PUSH1 0x40 DUP4 DUP6 SUB SLT ISZERO PUSH2 0x41D9 JUMPI PUSH0 DUP1 REVERT JUMPDEST DUP3 CALLDATALOAD PUSH2 0x41E4 DUP2 PUSH2 0x3B7E JUMP JUMPDEST SWAP2 POP PUSH1 0x20 DUP4 ADD CALLDATALOAD PUSH1 0x1 PUSH1 0x1 PUSH1 0x40 SHL SUB DUP2 GT ISZERO PUSH2 0x41FE JUMPI PUSH0 DUP1 REVERT JUMPDEST DUP4 ADD PUSH1 0x1F DUP2 ADD DUP6 SGT PUSH2 0x420E JUMPI PUSH0 DUP1 REVERT JUMPDEST PUSH2 0x421D DUP6 DUP3 CALLDATALOAD PUSH1 0x20 DUP5 ADD PUSH2 0x3C89 JUMP JUMPDEST SWAP2 POP POP SWAP3 POP SWAP3 SWAP1 POP JUMP JUMPDEST PUSH0 DUP1 PUSH0 PUSH1 0x60 DUP5 DUP7 SUB SLT ISZERO PUSH2 0x4239 JUMPI PUSH0 DUP1 REVERT JUMPDEST PUSH2 0x4242 DUP5 PUSH2 0x39DF JUMP JUMPDEST SWAP3 POP PUSH2 0x3DF6 PUSH1 0x20 DUP6 ADD PUSH2 0x3CE2 JUMP JUMPDEST PUSH0 DUP1 PUSH0 PUSH1 0x60 DUP5 DUP7 SUB SLT ISZERO PUSH2 0x4262 JUMPI PUSH0 DUP1 REVERT JUMPDEST PUSH2 0x426B DUP5 PUSH2 0x39DF JUMP JUMPDEST SWAP3 POP PUSH2 0x3C0E PUSH1 0x20 DUP6 ADD PUSH2 0x39DF JUMP JUMPDEST PUSH0 DUP1 PUSH1 0x40 DUP4 DUP6 SUB SLT ISZERO PUSH2 0x428A JUMPI PUSH0 DUP1 REVERT JUMPDEST DUP3 CALLDATALOAD PUSH2 0x4295 DUP2 PUSH2 0x3B7E JUMP JUMPDEST SWAP2 POP PUSH1 0x20 DUP4 ADD CALLDATALOAD PUSH2 0x42A5 DUP2 PUSH2 0x3B7E JUMP JUMPDEST DUP1 SWAP2 POP POP SWAP3 POP SWAP3 SWAP1 POP JUMP JUMPDEST PUSH0 DUP1 PUSH0 DUP1 PUSH0 PUSH1 0xA0 DUP7 DUP9 SUB SLT ISZERO PUSH2 0x42C4 JUMPI PUSH0 DUP1 REVERT JUMPDEST PUSH2 0x42CD DUP7 PUSH2 0x39DF JUMP JUMPDEST SWAP5 POP PUSH1 0x20 DUP7 ADD CALLDATALOAD PUSH1 0x1 PUSH1 0x1 PUSH1 0x40 SHL SUB DUP2 GT ISZERO PUSH2 0x42E7 JUMPI PUSH0 DUP1 REVERT JUMPDEST PUSH2 0x42F3 DUP9 DUP3 DUP10 ADD PUSH2 0x3CC4 JUMP JUMPDEST SWAP5 POP POP PUSH1 0x40 DUP7 ADD CALLDATALOAD PUSH1 0x1 PUSH1 0x1 PUSH1 0x40 SHL SUB DUP2 GT ISZERO PUSH2 0x430E JUMPI PUSH0 DUP1 REVERT JUMPDEST PUSH2 0x431A DUP9 DUP3 DUP10 ADD PUSH2 0x3FFA JUMP JUMPDEST SWAP4 POP POP PUSH2 0x3D4A PUSH1 0x60 DUP8 ADD PUSH2 0x3CE2 JUMP JUMPDEST PUSH0 DUP1 PUSH0 DUP1 PUSH1 0x80 DUP6 DUP8 SUB SLT ISZERO PUSH2 0x433C JUMPI PUSH0 DUP1 REVERT JUMPDEST PUSH2 0x4345 DUP6 PUSH2 0x39DF JUMP JUMPDEST SWAP4 POP PUSH2 0x4353 PUSH1 0x20 DUP7 ADD PUSH2 0x39DF JUMP JUMPDEST SWAP3 POP PUSH1 0x40 DUP6 ADD CALLDATALOAD PUSH2 0x4363 DUP2 PUSH2 0x3B7E JUMP JUMPDEST SWAP4 SWAP7 SWAP3 SWAP6 POP SWAP3 SWAP4 PUSH1 0x60 ADD CALLDATALOAD SWAP3 POP POP JUMP JUMPDEST PUSH1 0x1 DUP2 DUP2 SHR SWAP1 DUP3 AND DUP1 PUSH2 0x4387 JUMPI PUSH1 0x7F DUP3 AND SWAP2 POP JUMPDEST PUSH1 0x20 DUP3 LT DUP2 SUB PUSH2 0x43A5 JUMPI PUSH4 0x4E487B71 PUSH1 0xE0 SHL PUSH0 MSTORE PUSH1 0x22 PUSH1 0x4 MSTORE PUSH1 0x24 PUSH0 REVERT JUMPDEST POP SWAP2 SWAP1 POP JUMP JUMPDEST DUP2 DUP4 DUP3 CALLDATACOPY PUSH0 SWAP2 ADD SWAP1 DUP2 MSTORE SWAP2 SWAP1 POP JUMP JUMPDEST PUSH1 0x20 DUP1 DUP3 MSTORE PUSH1 0x2D SWAP1 DUP3 ADD MSTORE PUSH32 0x4552433732313A2063616C6C6572206973206E6F7420746F6B656E206F776E65 PUSH1 0x40 DUP3 ADD MSTORE PUSH13 0x1C881BDC88185C1C1C9BDD9959 PUSH1 0x9A SHL PUSH1 0x60 DUP3 ADD MSTORE PUSH1 0x80 ADD SWAP1 JUMP JUMPDEST DUP2 DUP4 MSTORE DUP2 DUP2 PUSH1 0x20 DUP6 ADD CALLDATACOPY POP PUSH0 DUP3 DUP3 ADD PUSH1 0x20 SWAP1 DUP2 ADD SWAP2 SWAP1 SWAP2 MSTORE PUSH1 0x1F SWAP1 SWAP2 ADD PUSH1 0x1F NOT AND SWAP1 SWAP2 ADD ADD SWAP1 JUMP JUMPDEST PUSH2 0xFFFF DUP5 AND DUP2 MSTORE PUSH1 0x40 PUSH1 0x20 DUP3 ADD MSTORE PUSH0 PUSH2 0x24C1 PUSH1 0x40 DUP4 ADD DUP5 DUP7 PUSH2 0x4407 JUMP JUMPDEST PUSH0 DUP3 PUSH1 0x1F DUP4 ADD SLT PUSH2 0x445B JUMPI PUSH0 DUP1 REVERT JUMPDEST DUP2 MLOAD PUSH2 0x4469 PUSH2 0x3C96 DUP3 PUSH2 0x3C63 JUMP JUMPDEST DUP2 DUP2 MSTORE DUP5 PUSH1 0x20 DUP4 DUP7 ADD ADD GT ISZERO PUSH2 0x447D JUMPI PUSH0 DUP1 REVERT JUMPDEST DUP2 PUSH1 0x20 DUP6 ADD PUSH1 0x20 DUP4 ADD MCOPY PUSH0 SWAP2 DUP2 ADD PUSH1 0x20 ADD SWAP2 SWAP1 SWAP2 MSTORE SWAP4 SWAP3 POP POP POP JUMP JUMPDEST PUSH0 DUP1 PUSH1 0x40 DUP4 DUP6 SUB SLT ISZERO PUSH2 0x44AA JUMPI PUSH0 DUP1 REVERT JUMPDEST DUP3 MLOAD PUSH1 0x1 PUSH1 0x1 PUSH1 0x40 SHL SUB DUP2 GT ISZERO PUSH2 0x44BF JUMPI PUSH0 DUP1 REVERT JUMPDEST PUSH2 0x44CB DUP6 DUP3 DUP7 ADD PUSH2 0x444C JUMP JUMPDEST SWAP3 POP POP PUSH1 0x20 DUP4 ADD MLOAD PUSH1 0x1 PUSH1 0x1 PUSH1 0x40 SHL SUB DUP2 GT ISZERO PUSH2 0x44E6 JUMPI PUSH0 DUP1 REVERT JUMPDEST DUP4 ADD PUSH1 0x1F DUP2 ADD DUP6 SGT PUSH2 0x44F6 JUMPI PUSH0 DUP1 REVERT JUMPDEST DUP1 MLOAD PUSH2 0x4504 PUSH2 0x3C96 DUP3 PUSH2 0x3FD8 JUMP JUMPDEST DUP1 DUP3 DUP3 MSTORE PUSH1 0x20 DUP3 ADD SWAP2 POP PUSH1 0x20 DUP4 PUSH1 0x5 SHL DUP6 ADD ADD SWAP3 POP DUP8 DUP4 GT ISZERO PUSH2 0x4525 JUMPI PUSH0 DUP1 REVERT JUMPDEST PUSH1 0x20 DUP5 ADD SWAP4 POP JUMPDEST DUP3 DUP5 LT ISZERO PUSH2 0x4547 JUMPI DUP4 MLOAD DUP3 MSTORE PUSH1 0x20 SWAP4 DUP5 ADD SWAP4 SWAP1 SWAP2 ADD SWAP1 PUSH2 0x452C JUMP JUMPDEST DUP1 SWAP5 POP POP POP POP POP SWAP3 POP SWAP3 SWAP1 POP JUMP JUMPDEST PUSH4 0x4E487B71 PUSH1 0xE0 SHL PUSH0 MSTORE PUSH1 0x11 PUSH1 0x4 MSTORE PUSH1 0x24 PUSH0 REVERT JUMPDEST DUP2 DUP2 SUB DUP2 DUP2 GT ISZERO PUSH2 0xD88 JUMPI PUSH2 0xD88 PUSH2 0x4555 JUMP JUMPDEST DUP3 DUP5 DUP3 CALLDATACOPY PUSH1 0x60 SWAP2 SWAP1 SWAP2 SHL PUSH12 0xFFFFFFFFFFFFFFFFFFFFFFFF NOT AND SWAP2 ADD SWAP1 DUP2 MSTORE PUSH1 0x14 ADD SWAP2 SWAP1 POP JUMP JUMPDEST PUSH1 0x1F DUP3 GT ISZERO PUSH2 0xFD6 JUMPI DUP1 PUSH0 MSTORE PUSH1 0x20 PUSH0 KECCAK256 PUSH1 0x1F DUP5 ADD PUSH1 0x5 SHR DUP2 ADD PUSH1 0x20 DUP6 LT ISZERO PUSH2 0x45C7 JUMPI POP DUP1 JUMPDEST PUSH1 0x1F DUP5 ADD PUSH1 0x5 SHR DUP3 ADD SWAP2 POP JUMPDEST DUP2 DUP2 LT ISZERO PUSH2 0xE9B JUMPI PUSH0 DUP2 SSTORE PUSH1 0x1 ADD PUSH2 0x45D3 JUMP JUMPDEST DUP2 MLOAD PUSH1 0x1 PUSH1 0x1 PUSH1 0x40 SHL SUB DUP2 GT ISZERO PUSH2 0x45FF JUMPI PUSH2 0x45FF PUSH2 0x3C1F JUMP JUMPDEST PUSH2 0x4613 DUP2 PUSH2 0x460D DUP5 SLOAD PUSH2 0x4373 JUMP JUMPDEST DUP5 PUSH2 0x45A2 JUMP JUMPDEST PUSH1 0x20 PUSH1 0x1F DUP3 GT PUSH1 0x1 DUP2 EQ PUSH2 0x4645 JUMPI PUSH0 DUP4 ISZERO PUSH2 0x462E JUMPI POP DUP5 DUP3 ADD MLOAD JUMPDEST PUSH0 NOT PUSH1 0x3 DUP6 SWAP1 SHL SHR NOT AND PUSH1 0x1 DUP5 SWAP1 SHL OR DUP5 SSTORE PUSH2 0xE9B JUMP JUMPDEST PUSH0 DUP5 DUP2 MSTORE PUSH1 0x20 DUP2 KECCAK256 PUSH1 0x1F NOT DUP6 AND SWAP2 JUMPDEST DUP3 DUP2 LT ISZERO PUSH2 0x4674 JUMPI DUP8 DUP6 ADD MLOAD DUP3 SSTORE PUSH1 0x20 SWAP5 DUP6 ADD SWAP5 PUSH1 0x1 SWAP1 SWAP3 ADD SWAP2 ADD PUSH2 0x4654 JUMP JUMPDEST POP DUP5 DUP3 LT ISZERO PUSH2 0x4691 JUMPI DUP7 DUP5 ADD MLOAD PUSH0 NOT PUSH1 0x3 DUP8 SWAP1 SHL PUSH1 0xF8 AND SHR NOT AND DUP2 SSTORE JUMPDEST POP POP POP POP PUSH1 0x1 SWAP1 DUP2 SHL ADD SWAP1 SSTORE POP JUMP JUMPDEST PUSH0 DUP2 MLOAD DUP1 PUSH1 0x20 DUP5 ADD DUP6 MCOPY PUSH0 SWAP4 ADD SWAP3 DUP4 MSTORE POP SWAP1 SWAP2 SWAP1 POP JUMP JUMPDEST PUSH0 PUSH2 0x1C95 PUSH2 0x46C5 DUP4 DUP7 PUSH2 0x46A0 JUMP JUMPDEST DUP5 PUSH2 0x46A0 JUMP JUMPDEST PUSH2 0xFFFF DUP7 AND DUP2 MSTORE PUSH2 0xFFFF DUP6 AND PUSH1 0x20 DUP3 ADD MSTORE DUP4 PUSH1 0x40 DUP3 ADD MSTORE PUSH1 0x80 PUSH1 0x60 DUP3 ADD MSTORE PUSH0 PUSH2 0x46F8 PUSH1 0x80 DUP4 ADD DUP5 DUP7 PUSH2 0x4407 JUMP JUMPDEST SWAP8 SWAP7 POP POP POP POP POP POP POP JUMP JUMPDEST PUSH0 PUSH1 0x1 DUP3 ADD PUSH2 0x4714 JUMPI PUSH2 0x4714 PUSH2 0x4555 JUMP JUMPDEST POP PUSH1 0x1 ADD SWAP1 JUMP JUMPDEST PUSH2 0xFFFF DUP7 AND DUP2 MSTORE PUSH1 0x80 PUSH1 0x20 DUP3 ADD MSTORE PUSH0 PUSH2 0x4738 PUSH1 0x80 DUP4 ADD DUP7 DUP9 PUSH2 0x4407 JUMP JUMPDEST PUSH1 0x1 PUSH1 0x1 PUSH1 0x40 SHL SUB SWAP5 SWAP1 SWAP5 AND PUSH1 0x40 DUP4 ADD MSTORE POP PUSH1 0x60 ADD MSTORE SWAP4 SWAP3 POP POP POP JUMP JUMPDEST PUSH2 0xFFFF DUP7 AND DUP2 MSTORE PUSH1 0x1 PUSH1 0x1 PUSH1 0xA0 SHL SUB DUP6 AND PUSH1 0x20 DUP3 ADD MSTORE PUSH1 0xA0 PUSH1 0x40 DUP3 ADD DUP2 SWAP1 MSTORE PUSH0 SWAP1 PUSH2 0x4782 SWAP1 DUP4 ADD DUP7 PUSH2 0x3B0E JUMP JUMPDEST DUP5 ISZERO ISZERO PUSH1 0x60 DUP5 ADD MSTORE DUP3 DUP2 SUB PUSH1 0x80 DUP5 ADD MSTORE PUSH2 0x479C DUP2 DUP6 PUSH2 0x3B0E JUMP JUMPDEST SWAP9 SWAP8 POP POP POP POP POP POP POP POP JUMP JUMPDEST PUSH0 DUP1 PUSH1 0x40 DUP4 DUP6 SUB SLT ISZERO PUSH2 0x47B9 JUMPI PUSH0 DUP1 REVERT JUMPDEST POP POP DUP1 MLOAD PUSH1 0x20 SWAP1 SWAP2 ADD MLOAD SWAP1 SWAP3 SWAP1 SWAP2 POP JUMP JUMPDEST PUSH1 0x1 PUSH1 0x1 PUSH1 0x40 SHL SUB DUP4 GT ISZERO PUSH2 0x47E1 JUMPI PUSH2 0x47E1 PUSH2 0x3C1F JUMP JUMPDEST PUSH2 0x47F5 DUP4 PUSH2 0x47EF DUP4 SLOAD PUSH2 0x4373 JUMP JUMPDEST DUP4 PUSH2 0x45A2 JUMP JUMPDEST PUSH0 PUSH1 0x1F DUP5 GT PUSH1 0x1 DUP2 EQ PUSH2 0x4826 JUMPI PUSH0 DUP6 ISZERO PUSH2 0x480F JUMPI POP DUP4 DUP3 ADD CALLDATALOAD JUMPDEST PUSH0 NOT PUSH1 0x3 DUP8 SWAP1 SHL SHR NOT AND PUSH1 0x1 DUP7 SWAP1 SHL OR DUP4 SSTORE PUSH2 0xE9B JUMP JUMPDEST PUSH0 DUP4 DUP2 MSTORE PUSH1 0x20 DUP2 KECCAK256 PUSH1 0x1F NOT DUP8 AND SWAP2 JUMPDEST DUP3 DUP2 LT ISZERO PUSH2 0x4855 JUMPI DUP7 DUP6 ADD CALLDATALOAD DUP3 SSTORE PUSH1 0x20 SWAP5 DUP6 ADD SWAP5 PUSH1 0x1 SWAP1 SWAP3 ADD SWAP2 ADD PUSH2 0x4835 JUMP JUMPDEST POP DUP7 DUP3 LT ISZERO PUSH2 0x4871 JUMPI PUSH0 NOT PUSH1 0xF8 DUP9 PUSH1 0x3 SHL AND SHR NOT DUP5 DUP8 ADD CALLDATALOAD AND DUP2 SSTORE JUMPDEST POP POP PUSH1 0x1 DUP6 PUSH1 0x1 SHL ADD DUP4 SSTORE POP POP POP POP POP JUMP JUMPDEST PUSH0 DUP2 MLOAD DUP1 DUP5 MSTORE PUSH1 0x20 DUP5 ADD SWAP4 POP PUSH1 0x20 DUP4 ADD PUSH0 JUMPDEST DUP3 DUP2 LT ISZERO PUSH2 0x48B3 JUMPI DUP2 MLOAD DUP7 MSTORE PUSH1 0x20 SWAP6 DUP7 ADD SWAP6 SWAP1 SWAP2 ADD SWAP1 PUSH1 0x1 ADD PUSH2 0x4895 JUMP JUMPDEST POP SWAP4 SWAP5 SWAP4 POP POP POP POP JUMP JUMPDEST PUSH1 0x40 DUP2 MSTORE PUSH0 PUSH2 0x48CF PUSH1 0x40 DUP4 ADD DUP6 PUSH2 0x3B0E JUMP JUMPDEST DUP3 DUP2 SUB PUSH1 0x20 DUP5 ADD MSTORE PUSH2 0x24C1 DUP2 DUP6 PUSH2 0x4883 JUMP JUMPDEST PUSH0 PUSH1 0x20 DUP3 DUP5 SUB SLT ISZERO PUSH2 0x48F1 JUMPI PUSH0 DUP1 REVERT JUMPDEST DUP2 MLOAD PUSH1 0x1 PUSH1 0x1 PUSH1 0x40 SHL SUB DUP2 GT ISZERO PUSH2 0x4906 JUMPI PUSH0 DUP1 REVERT JUMPDEST PUSH2 0x1C95 DUP5 DUP3 DUP6 ADD PUSH2 0x444C JUMP JUMPDEST PUSH2 0xFFFF DUP6 AND DUP2 MSTORE PUSH1 0x80 PUSH1 0x20 DUP3 ADD MSTORE PUSH0 PUSH2 0x492E PUSH1 0x80 DUP4 ADD DUP7 PUSH2 0x3B0E JUMP JUMPDEST PUSH1 0x1 PUSH1 0x1 PUSH1 0x40 SHL SUB DUP6 AND PUSH1 0x40 DUP5 ADD MSTORE DUP3 DUP2 SUB PUSH1 0x60 DUP5 ADD MSTORE PUSH2 0x46F8 DUP2 DUP6 PUSH2 0x3B0E JUMP JUMPDEST PUSH1 0x20 DUP1 DUP3 MSTORE PUSH1 0x25 SWAP1 DUP3 ADD MSTORE PUSH32 0x4552433732313A207472616E736665722066726F6D20696E636F727265637420 PUSH1 0x40 DUP3 ADD MSTORE PUSH5 0x37BBB732B9 PUSH1 0xD9 SHL PUSH1 0x60 DUP3 ADD MSTORE PUSH1 0x80 ADD SWAP1 JUMP JUMPDEST PUSH4 0x4E487B71 PUSH1 0xE0 SHL PUSH0 MSTORE PUSH1 0x32 PUSH1 0x4 MSTORE PUSH1 0x24 PUSH0 REVERT JUMPDEST DUP1 DUP3 ADD DUP1 DUP3 GT ISZERO PUSH2 0xD88 JUMPI PUSH2 0xD88 PUSH2 0x4555 JUMP JUMPDEST PUSH2 0xFFFF DUP8 AND DUP2 MSTORE PUSH1 0xC0 PUSH1 0x20 DUP3 ADD MSTORE PUSH0 PUSH2 0x49D7 PUSH1 0xC0 DUP4 ADD DUP9 PUSH2 0x3B0E JUMP JUMPDEST DUP3 DUP2 SUB PUSH1 0x40 DUP5 ADD MSTORE PUSH2 0x49E9 DUP2 DUP9 PUSH2 0x3B0E JUMP JUMPDEST PUSH1 0x1 PUSH1 0x1 PUSH1 0xA0 SHL SUB DUP8 DUP2 AND PUSH1 0x60 DUP7 ADD MSTORE DUP7 AND PUSH1 0x80 DUP6 ADD MSTORE DUP4 DUP2 SUB PUSH1 0xA0 DUP6 ADD MSTORE SWAP1 POP PUSH2 0x4A14 DUP2 DUP6 PUSH2 0x3B0E JUMP JUMPDEST SWAP10 SWAP9 POP POP POP POP POP POP POP POP POP JUMP JUMPDEST DUP1 DUP3 MUL DUP2 ISZERO DUP3 DUP3 DIV DUP5 EQ OR PUSH2 0xD88 JUMPI PUSH2 0xD88 PUSH2 0x4555 JUMP JUMPDEST PUSH0 PUSH2 0x19F4 DUP3 DUP5 PUSH2 0x46A0 JUMP JUMPDEST PUSH1 0x20 DUP2 MSTORE PUSH0 PUSH2 0x19F4 PUSH1 0x20 DUP4 ADD DUP5 PUSH2 0x4883 JUMP JUMPDEST DUP3 DUP2 MSTORE PUSH1 0x40 PUSH1 0x20 DUP3 ADD MSTORE PUSH0 PUSH2 0x1C95 PUSH1 0x40 DUP4 ADD DUP5 PUSH2 0x3B0E JUMP JUMPDEST PUSH1 0x20 DUP1 DUP3 MSTORE PUSH1 0x32 SWAP1 DUP3 ADD MSTORE PUSH32 0x4552433732313A207472616E7366657220746F206E6F6E204552433732315265 PUSH1 0x40 DUP3 ADD MSTORE PUSH18 0x31B2B4BB32B91034B6B83632B6B2B73A32B9 PUSH1 0x71 SHL PUSH1 0x60 DUP3 ADD MSTORE PUSH1 0x80 ADD SWAP1 JUMP JUMPDEST PUSH2 0xFFFF DUP7 AND DUP2 MSTORE PUSH1 0xA0 PUSH1 0x20 DUP3 ADD MSTORE PUSH0 PUSH2 0x4ADB PUSH1 0xA0 DUP4 ADD DUP8 PUSH2 0x3B0E JUMP JUMPDEST PUSH1 0x1 PUSH1 0x1 PUSH1 0x40 SHL SUB DUP7 AND PUSH1 0x40 DUP5 ADD MSTORE DUP3 DUP2 SUB PUSH1 0x60 DUP5 ADD MSTORE PUSH2 0x4AFC DUP2 DUP7 PUSH2 0x3B0E JUMP JUMPDEST SWAP1 POP DUP3 DUP2 SUB PUSH1 0x80 DUP5 ADD MSTORE PUSH2 0x479C DUP2 DUP6 PUSH2 0x3B0E JUMP JUMPDEST PUSH1 0x1 PUSH1 0x1 PUSH1 0xA0 SHL SUB DUP6 DUP2 AND DUP3 MSTORE DUP5 AND PUSH1 0x20 DUP3 ADD MSTORE PUSH1 0x40 DUP2 ADD DUP4 SWAP1 MSTORE PUSH1 0x80 PUSH1 0x60 DUP3 ADD DUP2 SWAP1 MSTORE PUSH0 SWAP1 PUSH2 0x4B42 SWAP1 DUP4 ADD DUP5 PUSH2 0x3B0E JUMP JUMPDEST SWAP7 SWAP6 POP POP POP POP POP POP JUMP JUMPDEST PUSH0 PUSH1 0x20 DUP3 DUP5 SUB SLT ISZERO PUSH2 0x4B5C JUMPI PUSH0 DUP1 REVERT JUMPDEST DUP2 MLOAD PUSH2 0x19F4 DUP2 PUSH2 0x3ADE JUMP INVALID LOG2 PUSH5 0x6970667358 0x22 SLT KECCAK256 SWAP13 SLT 0xAD SWAP15 0xB2 ADD 0xAF SMOD PUSH1 0x38 PUSH31 0x40116284AEF2B4345651485E5E15552E47A2C3C0AC64736F6C634300081A00 CALLER "
		},
		"gasEstimates": {
			"creation": {
				"codeDepositCost": "3871400",
				"executionCost": "infinite",
				"totalCost": "infinite"
			},
			"external": {
				"DEFAULT_PAYLOAD_SIZE_LIMIT()": "327",
				"FUNCTION_TYPE_SEND()": "337",
				"approve(address,uint256)": "infinite",
				"balanceOf(address)": "2668",
				"bridgeGas(uint16,address,bytes)": "infinite",
				"clearCredits(bytes)": "infinite",
				"dstChainIdToBatchLimit(uint16)": "2594",
				"dstChainIdToTransferGas(uint16)": "2636",
				"estimateGasBridgeFee(uint16,bool,bytes)": "infinite",
				"estimateSendBatchFee(uint16,bytes,uint256[],bool,bytes)": "infinite",
				"estimateSendFee(uint16,bytes,uint256,bool,bytes)": "infinite",
				"failedMessages(uint16,bytes,uint64)": "infinite",
				"fee()": "2427",
				"forceResumeReceive(uint16,bytes)": "infinite",
				"getApproved(uint256)": "4846",
				"getConfig(uint16,uint16,address,uint256)": "infinite",
				"getTrustedRemoteAddress(uint16)": "infinite",
				"isApprovedForAll(address,address)": "infinite",
				"isTrustedRemote(uint16,bytes)": "infinite",
				"lzEndpoint()": "infinite",
				"lzReceive(uint16,bytes,uint64,bytes)": "infinite",
				"maxMintId()": "2383",
				"minDstGasLookup(uint16,uint16)": "infinite",
				"minGasToTransferAndStore()": "2362",
				"mint(address,string)": "infinite",
				"name()": "infinite",
				"nextMintId()": "2361",
				"nonblockingLzReceive(uint16,bytes,uint64,bytes)": "infinite",
				"owner()": "2420",
				"ownerOf(uint256)": "2625",
				"payloadSizeLimitLookup(uint16)": "2573",
				"precrime()": "2404",
				"renounceOwnership()": "infinite",
				"retryMessage(uint16,bytes,uint64,bytes)": "infinite",
				"safeTransferFrom(address,address,uint256)": "infinite",
				"safeTransferFrom(address,address,uint256,bytes)": "infinite",
				"sendBatchFrom(address,uint16,bytes,uint256[],address,address,bytes)": "infinite",
				"sendFrom(address,uint16,bytes,uint256,address,address,bytes)": "infinite",
				"setApprovalForAll(address,bool)": "26772",
				"setConfig(uint16,uint16,uint256,bytes)": "infinite",
				"setDstChainIdToBatchLimit(uint16,uint256)": "26134",
				"setDstChainIdToTransferGas(uint16,uint256)": "26100",
				"setFee(uint256)": "24619",
				"setMinDstGas(uint16,uint16,uint256)": "infinite",
				"setMinGasToTransferAndStore(uint256)": "25708",
				"setPayloadSizeLimit(uint16,uint256)": "24721",
				"setPrecrime(address)": "27902",
				"setReceiveVersion(uint16)": "infinite",
				"setSendVersion(uint16)": "infinite",
				"setTrustedRemote(uint16,bytes)": "infinite",
				"setTrustedRemoteAddress(uint16,bytes)": "infinite",
				"storedCredits(bytes32)": "6915",
				"supportsInterface(bytes4)": "infinite",
				"symbol()": "infinite",
				"tokenURI(uint256)": "infinite",
				"transferFrom(address,address,uint256)": "infinite",
				"transferOwnership(address)": "infinite",
				"trustedRemoteLookup(uint16)": "infinite",
				"withdraw()": "infinite"
			},
			"internal": {
				"_baseURI()": "infinite",
				"_setTokenURI(uint256,string memory)": "infinite"
			}
		},
		"methodIdentifiers": {
			"DEFAULT_PAYLOAD_SIZE_LIMIT()": "c4461834",
			"FUNCTION_TYPE_SEND()": "af3fb21c",
			"approve(address,uint256)": "095ea7b3",
			"balanceOf(address)": "70a08231",
			"bridgeGas(uint16,address,bytes)": "5154c0b4",
			"clearCredits(bytes)": "8ffa1f2a",
			"dstChainIdToBatchLimit(uint16)": "4ac3f4ff",
			"dstChainIdToTransferGas(uint16)": "fa25f9b6",
			"estimateGasBridgeFee(uint16,bool,bytes)": "da09f15d",
			"estimateSendBatchFee(uint16,bytes,uint256[],bool,bytes)": "f2353641",
			"estimateSendFee(uint16,bytes,uint256,bool,bytes)": "2a205e3d",
			"failedMessages(uint16,bytes,uint64)": "5b8c41e6",
			"fee()": "ddca3f43",
			"forceResumeReceive(uint16,bytes)": "42d65a8d",
			"getApproved(uint256)": "081812fc",
			"getConfig(uint16,uint16,address,uint256)": "f5ecbdbc",
			"getTrustedRemoteAddress(uint16)": "9f38369a",
			"isApprovedForAll(address,address)": "e985e9c5",
			"isTrustedRemote(uint16,bytes)": "3d8b38f6",
			"lzEndpoint()": "b353aaa7",
			"lzReceive(uint16,bytes,uint64,bytes)": "001d3567",
			"maxMintId()": "e1d4c870",
			"minDstGasLookup(uint16,uint16)": "8cfd8f5c",
			"minGasToTransferAndStore()": "48288190",
			"mint(address,string)": "d0def521",
			"name()": "06fdde03",
			"nextMintId()": "6aa99da3",
			"nonblockingLzReceive(uint16,bytes,uint64,bytes)": "66ad5c8a",
			"owner()": "8da5cb5b",
			"ownerOf(uint256)": "6352211e",
			"payloadSizeLimitLookup(uint16)": "3f1f4fa4",
			"precrime()": "950c8a74",
			"renounceOwnership()": "715018a6",
			"retryMessage(uint16,bytes,uint64,bytes)": "d1deba1f",
			"safeTransferFrom(address,address,uint256)": "42842e0e",
			"safeTransferFrom(address,address,uint256,bytes)": "b88d4fde",
			"sendBatchFrom(address,uint16,bytes,uint256[],address,address,bytes)": "ab3ffb93",
			"sendFrom(address,uint16,bytes,uint256,address,address,bytes)": "51905636",
			"setApprovalForAll(address,bool)": "a22cb465",
			"setConfig(uint16,uint16,uint256,bytes)": "cbed8b9c",
			"setDstChainIdToBatchLimit(uint16,uint256)": "9ea5d6b1",
			"setDstChainIdToTransferGas(uint16,uint256)": "d12473a5",
			"setFee(uint256)": "69fe0e2d",
			"setMinDstGas(uint16,uint16,uint256)": "df2a5b3b",
			"setMinGasToTransferAndStore(uint256)": "0b4cad4c",
			"setPayloadSizeLimit(uint16,uint256)": "0df37483",
			"setPrecrime(address)": "baf3292d",
			"setReceiveVersion(uint16)": "10ddb137",
			"setSendVersion(uint16)": "07e0db17",
			"setTrustedRemote(uint16,bytes)": "eb8d72b7",
			"setTrustedRemoteAddress(uint16,bytes)": "a6c3d165",
			"storedCredits(bytes32)": "22a3ecf9",
			"supportsInterface(bytes4)": "01ffc9a7",
			"symbol()": "95d89b41",
			"tokenURI(uint256)": "c87b56dd",
			"transferFrom(address,address,uint256)": "23b872dd",
			"transferOwnership(address)": "f2fde38b",
			"trustedRemoteLookup(uint16)": "7533d788",
			"withdraw()": "3ccfd60b"
		}
	},
	"abi": [
		{
			"inputs": [
				{
					"internalType": "string",
					"name": "_name",
					"type": "string"
				},
				{
					"internalType": "string",
					"name": "_symbol",
					"type": "string"
				},
				{
					"internalType": "uint256",
					"name": "_minGasToTransfer",
					"type": "uint256"
				},
				{
					"internalType": "address",
					"name": "_layerZeroEndpoint",
					"type": "address"
				},
				{
					"internalType": "uint256",
					"name": "_startMintId",
					"type": "uint256"
				},
				{
					"internalType": "uint256",
					"name": "_endMintId",
					"type": "uint256"
				}
			],
			"stateMutability": "nonpayable",
			"type": "constructor"
		},
		{
			"anonymous": false,
			"inputs": [
				{
					"indexed": true,
					"internalType": "address",
					"name": "owner",
					"type": "address"
				},
				{
					"indexed": true,
					"internalType": "address",
					"name": "approved",
					"type": "address"
				},
				{
					"indexed": true,
					"internalType": "uint256",
					"name": "tokenId",
					"type": "uint256"
				}
			],
			"name": "Approval",
			"type": "event"
		},
		{
			"anonymous": false,
			"inputs": [
				{
					"indexed": true,
					"internalType": "address",
					"name": "owner",
					"type": "address"
				},
				{
					"indexed": true,
					"internalType": "address",
					"name": "operator",
					"type": "address"
				},
				{
					"indexed": false,
					"internalType": "bool",
					"name": "approved",
					"type": "bool"
				}
			],
			"name": "ApprovalForAll",
			"type": "event"
		},
		{
			"anonymous": false,
			"inputs": [
				{
					"indexed": false,
					"internalType": "bytes32",
					"name": "_hashedPayload",
					"type": "bytes32"
				}
			],
			"name": "CreditCleared",
			"type": "event"
		},
		{
			"anonymous": false,
			"inputs": [
				{
					"indexed": false,
					"internalType": "bytes32",
					"name": "_hashedPayload",
					"type": "bytes32"
				},
				{
					"indexed": false,
					"internalType": "bytes",
					"name": "_payload",
					"type": "bytes"
				}
			],
			"name": "CreditStored",
			"type": "event"
		},
		{
			"anonymous": false,
			"inputs": [
				{
					"indexed": false,
					"internalType": "uint16",
					"name": "_srcChainId",
					"type": "uint16"
				},
				{
					"indexed": false,
					"internalType": "bytes",
					"name": "_srcAddress",
					"type": "bytes"
				},
				{
					"indexed": false,
					"internalType": "uint64",
					"name": "_nonce",
					"type": "uint64"
				},
				{
					"indexed": false,
					"internalType": "bytes",
					"name": "_payload",
					"type": "bytes"
				},
				{
					"indexed": false,
					"internalType": "bytes",
					"name": "_reason",
					"type": "bytes"
				}
			],
			"name": "MessageFailed",
			"type": "event"
		},
		{
			"anonymous": false,
			"inputs": [
				{
					"indexed": true,
					"internalType": "address",
					"name": "previousOwner",
					"type": "address"
				},
				{
					"indexed": true,
					"internalType": "address",
					"name": "newOwner",
					"type": "address"
				}
			],
			"name": "OwnershipTransferred",
			"type": "event"
		},
		{
			"anonymous": false,
			"inputs": [
				{
					"indexed": true,
					"internalType": "uint16",
					"name": "_srcChainId",
					"type": "uint16"
				},
				{
					"indexed": true,
					"internalType": "bytes",
					"name": "_srcAddress",
					"type": "bytes"
				},
				{
					"indexed": true,
					"internalType": "address",
					"name": "_toAddress",
					"type": "address"
				},
				{
					"indexed": false,
					"internalType": "uint256[]",
					"name": "_tokenIds",
					"type": "uint256[]"
				}
			],
			"name": "ReceiveFromChain",
			"type": "event"
		},
		{
			"anonymous": false,
			"inputs": [
				{
					"indexed": false,
					"internalType": "uint16",
					"name": "_srcChainId",
					"type": "uint16"
				},
				{
					"indexed": false,
					"internalType": "bytes",
					"name": "_srcAddress",
					"type": "bytes"
				},
				{
					"indexed": false,
					"internalType": "uint64",
					"name": "_nonce",
					"type": "uint64"
				},
				{
					"indexed": false,
					"internalType": "bytes32",
					"name": "_payloadHash",
					"type": "bytes32"
				}
			],
			"name": "RetryMessageSuccess",
			"type": "event"
		},
		{
			"anonymous": false,
			"inputs": [
				{
					"indexed": true,
					"internalType": "uint16",
					"name": "_dstChainId",
					"type": "uint16"
				},
				{
					"indexed": true,
					"internalType": "address",
					"name": "_from",
					"type": "address"
				},
				{
					"indexed": true,
					"internalType": "bytes",
					"name": "_toAddress",
					"type": "bytes"
				},
				{
					"indexed": false,
					"internalType": "uint256[]",
					"name": "_tokenIds",
					"type": "uint256[]"
				}
			],
			"name": "SendToChain",
			"type": "event"
		},
		{
			"anonymous": false,
			"inputs": [
				{
					"indexed": false,
					"internalType": "uint16",
					"name": "_dstChainId",
					"type": "uint16"
				},
				{
					"indexed": false,
					"internalType": "uint256",
					"name": "_dstChainIdToBatchLimit",
					"type": "uint256"
				}
			],
			"name": "SetDstChainIdToBatchLimit",
			"type": "event"
		},
		{
			"anonymous": false,
			"inputs": [
				{
					"indexed": false,
					"internalType": "uint16",
					"name": "_dstChainId",
					"type": "uint16"
				},
				{
					"indexed": false,
					"internalType": "uint256",
					"name": "_dstChainIdToTransferGas",
					"type": "uint256"
				}
			],
			"name": "SetDstChainIdToTransferGas",
			"type": "event"
		},
		{
			"anonymous": false,
			"inputs": [
				{
					"indexed": false,
					"internalType": "uint16",
					"name": "_dstChainId",
					"type": "uint16"
				},
				{
					"indexed": false,
					"internalType": "uint16",
					"name": "_type",
					"type": "uint16"
				},
				{
					"indexed": false,
					"internalType": "uint256",
					"name": "_minDstGas",
					"type": "uint256"
				}
			],
			"name": "SetMinDstGas",
			"type": "event"
		},
		{
			"anonymous": false,
			"inputs": [
				{
					"indexed": false,
					"internalType": "uint256",
					"name": "_minGasToTransferAndStore",
					"type": "uint256"
				}
			],
			"name": "SetMinGasToTransferAndStore",
			"type": "event"
		},
		{
			"anonymous": false,
			"inputs": [
				{
					"indexed": false,
					"internalType": "address",
					"name": "precrime",
					"type": "address"
				}
			],
			"name": "SetPrecrime",
			"type": "event"
		},
		{
			"anonymous": false,
			"inputs": [
				{
					"indexed": false,
					"internalType": "uint16",
					"name": "_remoteChainId",
					"type": "uint16"
				},
				{
					"indexed": false,
					"internalType": "bytes",
					"name": "_path",
					"type": "bytes"
				}
			],
			"name": "SetTrustedRemote",
			"type": "event"
		},
		{
			"anonymous": false,
			"inputs": [
				{
					"indexed": false,
					"internalType": "uint16",
					"name": "_remoteChainId",
					"type": "uint16"
				},
				{
					"indexed": false,
					"internalType": "bytes",
					"name": "_remoteAddress",
					"type": "bytes"
				}
			],
			"name": "SetTrustedRemoteAddress",
			"type": "event"
		},
		{
			"anonymous": false,
			"inputs": [
				{
					"indexed": false,
					"internalType": "address",
					"name": "recipient",
					"type": "address"
				},
				{
					"indexed": false,
					"internalType": "uint256",
					"name": "tokenId",
					"type": "uint256"
				}
			],
			"name": "TokenMinted",
			"type": "event"
		},
		{
			"anonymous": false,
			"inputs": [
				{
					"indexed": true,
					"internalType": "address",
					"name": "from",
					"type": "address"
				},
				{
					"indexed": true,
					"internalType": "address",
					"name": "to",
					"type": "address"
				},
				{
					"indexed": true,
					"internalType": "uint256",
					"name": "tokenId",
					"type": "uint256"
				}
			],
			"name": "Transfer",
			"type": "event"
		},
		{
			"inputs": [],
			"name": "DEFAULT_PAYLOAD_SIZE_LIMIT",
			"outputs": [
				{
					"internalType": "uint256",
					"name": "",
					"type": "uint256"
				}
			],
			"stateMutability": "view",
			"type": "function"
		},
		{
			"inputs": [],
			"name": "FUNCTION_TYPE_SEND",
			"outputs": [
				{
					"internalType": "uint16",
					"name": "",
					"type": "uint16"
				}
			],
			"stateMutability": "view",
			"type": "function"
		},
		{
			"inputs": [
				{
					"internalType": "address",
					"name": "to",
					"type": "address"
				},
				{
					"internalType": "uint256",
					"name": "tokenId",
					"type": "uint256"
				}
			],
			"name": "approve",
			"outputs": [],
			"stateMutability": "nonpayable",
			"type": "function"
		},
		{
			"inputs": [
				{
					"internalType": "address",
					"name": "owner",
					"type": "address"
				}
			],
			"name": "balanceOf",
			"outputs": [
				{
					"internalType": "uint256",
					"name": "",
					"type": "uint256"
				}
			],
			"stateMutability": "view",
			"type": "function"
		},
		{
			"inputs": [
				{
					"internalType": "uint16",
					"name": "_dstChainId",
					"type": "uint16"
				},
				{
					"internalType": "address",
					"name": "_zroPaymentAddress",
					"type": "address"
				},
				{
					"internalType": "bytes",
					"name": "_adapterParams",
					"type": "bytes"
				}
			],
			"name": "bridgeGas",
			"outputs": [],
			"stateMutability": "payable",
			"type": "function"
		},
		{
			"inputs": [
				{
					"internalType": "bytes",
					"name": "_payload",
					"type": "bytes"
				}
			],
			"name": "clearCredits",
			"outputs": [],
			"stateMutability": "nonpayable",
			"type": "function"
		},
		{
			"inputs": [
				{
					"internalType": "uint16",
					"name": "",
					"type": "uint16"
				}
			],
			"name": "dstChainIdToBatchLimit",
			"outputs": [
				{
					"internalType": "uint256",
					"name": "",
					"type": "uint256"
				}
			],
			"stateMutability": "view",
			"type": "function"
		},
		{
			"inputs": [
				{
					"internalType": "uint16",
					"name": "",
					"type": "uint16"
				}
			],
			"name": "dstChainIdToTransferGas",
			"outputs": [
				{
					"internalType": "uint256",
					"name": "",
					"type": "uint256"
				}
			],
			"stateMutability": "view",
			"type": "function"
		},
		{
			"inputs": [
				{
					"internalType": "uint16",
					"name": "_dstChainId",
					"type": "uint16"
				},
				{
					"internalType": "bool",
					"name": "_useZro",
					"type": "bool"
				},
				{
					"internalType": "bytes",
					"name": "_adapterParams",
					"type": "bytes"
				}
			],
			"name": "estimateGasBridgeFee",
			"outputs": [
				{
					"internalType": "uint256",
					"name": "nativeFee",
					"type": "uint256"
				},
				{
					"internalType": "uint256",
					"name": "zroFee",
					"type": "uint256"
				}
			],
			"stateMutability": "view",
			"type": "function"
		},
		{
			"inputs": [
				{
					"internalType": "uint16",
					"name": "_dstChainId",
					"type": "uint16"
				},
				{
					"internalType": "bytes",
					"name": "_toAddress",
					"type": "bytes"
				},
				{
					"internalType": "uint256[]",
					"name": "_tokenIds",
					"type": "uint256[]"
				},
				{
					"internalType": "bool",
					"name": "_useZro",
					"type": "bool"
				},
				{
					"internalType": "bytes",
					"name": "_adapterParams",
					"type": "bytes"
				}
			],
			"name": "estimateSendBatchFee",
			"outputs": [
				{
					"internalType": "uint256",
					"name": "nativeFee",
					"type": "uint256"
				},
				{
					"internalType": "uint256",
					"name": "zroFee",
					"type": "uint256"
				}
			],
			"stateMutability": "view",
			"type": "function"
		},
		{
			"inputs": [
				{
					"internalType": "uint16",
					"name": "_dstChainId",
					"type": "uint16"
				},
				{
					"internalType": "bytes",
					"name": "_toAddress",
					"type": "bytes"
				},
				{
					"internalType": "uint256",
					"name": "_tokenId",
					"type": "uint256"
				},
				{
					"internalType": "bool",
					"name": "_useZro",
					"type": "bool"
				},
				{
					"internalType": "bytes",
					"name": "_adapterParams",
					"type": "bytes"
				}
			],
			"name": "estimateSendFee",
			"outputs": [
				{
					"internalType": "uint256",
					"name": "nativeFee",
					"type": "uint256"
				},
				{
					"internalType": "uint256",
					"name": "zroFee",
					"type": "uint256"
				}
			],
			"stateMutability": "view",
			"type": "function"
		},
		{
			"inputs": [
				{
					"internalType": "uint16",
					"name": "",
					"type": "uint16"
				},
				{
					"internalType": "bytes",
					"name": "",
					"type": "bytes"
				},
				{
					"internalType": "uint64",
					"name": "",
					"type": "uint64"
				}
			],
			"name": "failedMessages",
			"outputs": [
				{
					"internalType": "bytes32",
					"name": "",
					"type": "bytes32"
				}
			],
			"stateMutability": "view",
			"type": "function"
		},
		{
			"inputs": [],
			"name": "fee",
			"outputs": [
				{
					"internalType": "uint256",
					"name": "",
					"type": "uint256"
				}
			],
			"stateMutability": "view",
			"type": "function"
		},
		{
			"inputs": [
				{
					"internalType": "uint16",
					"name": "_srcChainId",
					"type": "uint16"
				},
				{
					"internalType": "bytes",
					"name": "_srcAddress",
					"type": "bytes"
				}
			],
			"name": "forceResumeReceive",
			"outputs": [],
			"stateMutability": "nonpayable",
			"type": "function"
		},
		{
			"inputs": [
				{
					"internalType": "uint256",
					"name": "tokenId",
					"type": "uint256"
				}
			],
			"name": "getApproved",
			"outputs": [
				{
					"internalType": "address",
					"name": "",
					"type": "address"
				}
			],
			"stateMutability": "view",
			"type": "function"
		},
		{
			"inputs": [
				{
					"internalType": "uint16",
					"name": "_version",
					"type": "uint16"
				},
				{
					"internalType": "uint16",
					"name": "_chainId",
					"type": "uint16"
				},
				{
					"internalType": "address",
					"name": "",
					"type": "address"
				},
				{
					"internalType": "uint256",
					"name": "_configType",
					"type": "uint256"
				}
			],
			"name": "getConfig",
			"outputs": [
				{
					"internalType": "bytes",
					"name": "",
					"type": "bytes"
				}
			],
			"stateMutability": "view",
			"type": "function"
		},
		{
			"inputs": [
				{
					"internalType": "uint16",
					"name": "_remoteChainId",
					"type": "uint16"
				}
			],
			"name": "getTrustedRemoteAddress",
			"outputs": [
				{
					"internalType": "bytes",
					"name": "",
					"type": "bytes"
				}
			],
			"stateMutability": "view",
			"type": "function"
		},
		{
			"inputs": [
				{
					"internalType": "address",
					"name": "owner",
					"type": "address"
				},
				{
					"internalType": "address",
					"name": "operator",
					"type": "address"
				}
			],
			"name": "isApprovedForAll",
			"outputs": [
				{
					"internalType": "bool",
					"name": "",
					"type": "bool"
				}
			],
			"stateMutability": "view",
			"type": "function"
		},
		{
			"inputs": [
				{
					"internalType": "uint16",
					"name": "_srcChainId",
					"type": "uint16"
				},
				{
					"internalType": "bytes",
					"name": "_srcAddress",
					"type": "bytes"
				}
			],
			"name": "isTrustedRemote",
			"outputs": [
				{
					"internalType": "bool",
					"name": "",
					"type": "bool"
				}
			],
			"stateMutability": "view",
			"type": "function"
		},
		{
			"inputs": [],
			"name": "lzEndpoint",
			"outputs": [
				{
					"internalType": "contract ILayerZeroEndpoint",
					"name": "",
					"type": "address"
				}
			],
			"stateMutability": "view",
			"type": "function"
		},
		{
			"inputs": [
				{
					"internalType": "uint16",
					"name": "_srcChainId",
					"type": "uint16"
				},
				{
					"internalType": "bytes",
					"name": "_srcAddress",
					"type": "bytes"
				},
				{
					"internalType": "uint64",
					"name": "_nonce",
					"type": "uint64"
				},
				{
					"internalType": "bytes",
					"name": "_payload",
					"type": "bytes"
				}
			],
			"name": "lzReceive",
			"outputs": [],
			"stateMutability": "nonpayable",
			"type": "function"
		},
		{
			"inputs": [],
			"name": "maxMintId",
			"outputs": [
				{
					"internalType": "uint256",
					"name": "",
					"type": "uint256"
				}
			],
			"stateMutability": "view",
			"type": "function"
		},
		{
			"inputs": [
				{
					"internalType": "uint16",
					"name": "",
					"type": "uint16"
				},
				{
					"internalType": "uint16",
					"name": "",
					"type": "uint16"
				}
			],
			"name": "minDstGasLookup",
			"outputs": [
				{
					"internalType": "uint256",
					"name": "",
					"type": "uint256"
				}
			],
			"stateMutability": "view",
			"type": "function"
		},
		{
			"inputs": [],
			"name": "minGasToTransferAndStore",
			"outputs": [
				{
					"internalType": "uint256",
					"name": "",
					"type": "uint256"
				}
			],
			"stateMutability": "view",
			"type": "function"
		},
		{
			"inputs": [
				{
					"internalType": "address",
					"name": "recipient",
					"type": "address"
				},
				{
					"internalType": "string",
					"name": "metadataURI",
					"type": "string"
				}
			],
			"name": "mint",
			"outputs": [],
			"stateMutability": "payable",
			"type": "function"
		},
		{
			"inputs": [],
			"name": "name",
			"outputs": [
				{
					"internalType": "string",
					"name": "",
					"type": "string"
				}
			],
			"stateMutability": "view",
			"type": "function"
		},
		{
			"inputs": [],
			"name": "nextMintId",
			"outputs": [
				{
					"internalType": "uint256",
					"name": "",
					"type": "uint256"
				}
			],
			"stateMutability": "view",
			"type": "function"
		},
		{
			"inputs": [
				{
					"internalType": "uint16",
					"name": "_srcChainId",
					"type": "uint16"
				},
				{
					"internalType": "bytes",
					"name": "_srcAddress",
					"type": "bytes"
				},
				{
					"internalType": "uint64",
					"name": "_nonce",
					"type": "uint64"
				},
				{
					"internalType": "bytes",
					"name": "_payload",
					"type": "bytes"
				}
			],
			"name": "nonblockingLzReceive",
			"outputs": [],
			"stateMutability": "nonpayable",
			"type": "function"
		},
		{
			"inputs": [],
			"name": "owner",
			"outputs": [
				{
					"internalType": "address",
					"name": "",
					"type": "address"
				}
			],
			"stateMutability": "view",
			"type": "function"
		},
		{
			"inputs": [
				{
					"internalType": "uint256",
					"name": "tokenId",
					"type": "uint256"
				}
			],
			"name": "ownerOf",
			"outputs": [
				{
					"internalType": "address",
					"name": "",
					"type": "address"
				}
			],
			"stateMutability": "view",
			"type": "function"
		},
		{
			"inputs": [
				{
					"internalType": "uint16",
					"name": "",
					"type": "uint16"
				}
			],
			"name": "payloadSizeLimitLookup",
			"outputs": [
				{
					"internalType": "uint256",
					"name": "",
					"type": "uint256"
				}
			],
			"stateMutability": "view",
			"type": "function"
		},
		{
			"inputs": [],
			"name": "precrime",
			"outputs": [
				{
					"internalType": "address",
					"name": "",
					"type": "address"
				}
			],
			"stateMutability": "view",
			"type": "function"
		},
		{
			"inputs": [],
			"name": "renounceOwnership",
			"outputs": [],
			"stateMutability": "nonpayable",
			"type": "function"
		},
		{
			"inputs": [
				{
					"internalType": "uint16",
					"name": "_srcChainId",
					"type": "uint16"
				},
				{
					"internalType": "bytes",
					"name": "_srcAddress",
					"type": "bytes"
				},
				{
					"internalType": "uint64",
					"name": "_nonce",
					"type": "uint64"
				},
				{
					"internalType": "bytes",
					"name": "_payload",
					"type": "bytes"
				}
			],
			"name": "retryMessage",
			"outputs": [],
			"stateMutability": "payable",
			"type": "function"
		},
		{
			"inputs": [
				{
					"internalType": "address",
					"name": "from",
					"type": "address"
				},
				{
					"internalType": "address",
					"name": "to",
					"type": "address"
				},
				{
					"internalType": "uint256",
					"name": "tokenId",
					"type": "uint256"
				}
			],
			"name": "safeTransferFrom",
			"outputs": [],
			"stateMutability": "nonpayable",
			"type": "function"
		},
		{
			"inputs": [
				{
					"internalType": "address",
					"name": "from",
					"type": "address"
				},
				{
					"internalType": "address",
					"name": "to",
					"type": "address"
				},
				{
					"internalType": "uint256",
					"name": "tokenId",
					"type": "uint256"
				},
				{
					"internalType": "bytes",
					"name": "data",
					"type": "bytes"
				}
			],
			"name": "safeTransferFrom",
			"outputs": [],
			"stateMutability": "nonpayable",
			"type": "function"
		},
		{
			"inputs": [
				{
					"internalType": "address",
					"name": "_from",
					"type": "address"
				},
				{
					"internalType": "uint16",
					"name": "_dstChainId",
					"type": "uint16"
				},
				{
					"internalType": "bytes",
					"name": "_toAddress",
					"type": "bytes"
				},
				{
					"internalType": "uint256[]",
					"name": "_tokenIds",
					"type": "uint256[]"
				},
				{
					"internalType": "address payable",
					"name": "_refundAddress",
					"type": "address"
				},
				{
					"internalType": "address",
					"name": "_zroPaymentAddress",
					"type": "address"
				},
				{
					"internalType": "bytes",
					"name": "_adapterParams",
					"type": "bytes"
				}
			],
			"name": "sendBatchFrom",
			"outputs": [],
			"stateMutability": "payable",
			"type": "function"
		},
		{
			"inputs": [
				{
					"internalType": "address",
					"name": "_from",
					"type": "address"
				},
				{
					"internalType": "uint16",
					"name": "_dstChainId",
					"type": "uint16"
				},
				{
					"internalType": "bytes",
					"name": "_toAddress",
					"type": "bytes"
				},
				{
					"internalType": "uint256",
					"name": "_tokenId",
					"type": "uint256"
				},
				{
					"internalType": "address payable",
					"name": "_refundAddress",
					"type": "address"
				},
				{
					"internalType": "address",
					"name": "_zroPaymentAddress",
					"type": "address"
				},
				{
					"internalType": "bytes",
					"name": "_adapterParams",
					"type": "bytes"
				}
			],
			"name": "sendFrom",
			"outputs": [],
			"stateMutability": "payable",
			"type": "function"
		},
		{
			"inputs": [
				{
					"internalType": "address",
					"name": "operator",
					"type": "address"
				},
				{
					"internalType": "bool",
					"name": "approved",
					"type": "bool"
				}
			],
			"name": "setApprovalForAll",
			"outputs": [],
			"stateMutability": "nonpayable",
			"type": "function"
		},
		{
			"inputs": [
				{
					"internalType": "uint16",
					"name": "_version",
					"type": "uint16"
				},
				{
					"internalType": "uint16",
					"name": "_chainId",
					"type": "uint16"
				},
				{
					"internalType": "uint256",
					"name": "_configType",
					"type": "uint256"
				},
				{
					"internalType": "bytes",
					"name": "_config",
					"type": "bytes"
				}
			],
			"name": "setConfig",
			"outputs": [],
			"stateMutability": "nonpayable",
			"type": "function"
		},
		{
			"inputs": [
				{
					"internalType": "uint16",
					"name": "_dstChainId",
					"type": "uint16"
				},
				{
					"internalType": "uint256",
					"name": "_dstChainIdToBatchLimit",
					"type": "uint256"
				}
			],
			"name": "setDstChainIdToBatchLimit",
			"outputs": [],
			"stateMutability": "nonpayable",
			"type": "function"
		},
		{
			"inputs": [
				{
					"internalType": "uint16",
					"name": "_dstChainId",
					"type": "uint16"
				},
				{
					"internalType": "uint256",
					"name": "_dstChainIdToTransferGas",
					"type": "uint256"
				}
			],
			"name": "setDstChainIdToTransferGas",
			"outputs": [],
			"stateMutability": "nonpayable",
			"type": "function"
		},
		{
			"inputs": [
				{
					"internalType": "uint256",
					"name": "_fee",
					"type": "uint256"
				}
			],
			"name": "setFee",
			"outputs": [],
			"stateMutability": "nonpayable",
			"type": "function"
		},
		{
			"inputs": [
				{
					"internalType": "uint16",
					"name": "_dstChainId",
					"type": "uint16"
				},
				{
					"internalType": "uint16",
					"name": "_packetType",
					"type": "uint16"
				},
				{
					"internalType": "uint256",
					"name": "_minGas",
					"type": "uint256"
				}
			],
			"name": "setMinDstGas",
			"outputs": [],
			"stateMutability": "nonpayable",
			"type": "function"
		},
		{
			"inputs": [
				{
					"internalType": "uint256",
					"name": "_minGasToTransferAndStore",
					"type": "uint256"
				}
			],
			"name": "setMinGasToTransferAndStore",
			"outputs": [],
			"stateMutability": "nonpayable",
			"type": "function"
		},
		{
			"inputs": [
				{
					"internalType": "uint16",
					"name": "_dstChainId",
					"type": "uint16"
				},
				{
					"internalType": "uint256",
					"name": "_size",
					"type": "uint256"
				}
			],
			"name": "setPayloadSizeLimit",
			"outputs": [],
			"stateMutability": "nonpayable",
			"type": "function"
		},
		{
			"inputs": [
				{
					"internalType": "address",
					"name": "_precrime",
					"type": "address"
				}
			],
			"name": "setPrecrime",
			"outputs": [],
			"stateMutability": "nonpayable",
			"type": "function"
		},
		{
			"inputs": [
				{
					"internalType": "uint16",
					"name": "_version",
					"type": "uint16"
				}
			],
			"name": "setReceiveVersion",
			"outputs": [],
			"stateMutability": "nonpayable",
			"type": "function"
		},
		{
			"inputs": [
				{
					"internalType": "uint16",
					"name": "_version",
					"type": "uint16"
				}
			],
			"name": "setSendVersion",
			"outputs": [],
			"stateMutability": "nonpayable",
			"type": "function"
		},
		{
			"inputs": [
				{
					"internalType": "uint16",
					"name": "_remoteChainId",
					"type": "uint16"
				},
				{
					"internalType": "bytes",
					"name": "_path",
					"type": "bytes"
				}
			],
			"name": "setTrustedRemote",
			"outputs": [],
			"stateMutability": "nonpayable",
			"type": "function"
		},
		{
			"inputs": [
				{
					"internalType": "uint16",
					"name": "_remoteChainId",
					"type": "uint16"
				},
				{
					"internalType": "bytes",
					"name": "_remoteAddress",
					"type": "bytes"
				}
			],
			"name": "setTrustedRemoteAddress",
			"outputs": [],
			"stateMutability": "nonpayable",
			"type": "function"
		},
		{
			"inputs": [
				{
					"internalType": "bytes32",
					"name": "",
					"type": "bytes32"
				}
			],
			"name": "storedCredits",
			"outputs": [
				{
					"internalType": "uint16",
					"name": "srcChainId",
					"type": "uint16"
				},
				{
					"internalType": "address",
					"name": "toAddress",
					"type": "address"
				},
				{
					"internalType": "uint256",
					"name": "index",
					"type": "uint256"
				},
				{
					"internalType": "bool",
					"name": "creditsRemain",
					"type": "bool"
				}
			],
			"stateMutability": "view",
			"type": "function"
		},
		{
			"inputs": [
				{
					"internalType": "bytes4",
					"name": "interfaceId",
					"type": "bytes4"
				}
			],
			"name": "supportsInterface",
			"outputs": [
				{
					"internalType": "bool",
					"name": "",
					"type": "bool"
				}
			],
			"stateMutability": "view",
			"type": "function"
		},
		{
			"inputs": [],
			"name": "symbol",
			"outputs": [
				{
					"internalType": "string",
					"name": "",
					"type": "string"
				}
			],
			"stateMutability": "view",
			"type": "function"
		},
		{
			"inputs": [
				{
					"internalType": "uint256",
					"name": "tokenId",
					"type": "uint256"
				}
			],
			"name": "tokenURI",
			"outputs": [
				{
					"internalType": "string",
					"name": "",
					"type": "string"
				}
			],
			"stateMutability": "view",
			"type": "function"
		},
		{
			"inputs": [
				{
					"internalType": "address",
					"name": "from",
					"type": "address"
				},
				{
					"internalType": "address",
					"name": "to",
					"type": "address"
				},
				{
					"internalType": "uint256",
					"name": "tokenId",
					"type": "uint256"
				}
			],
			"name": "transferFrom",
			"outputs": [],
			"stateMutability": "nonpayable",
			"type": "function"
		},
		{
			"inputs": [
				{
					"internalType": "address",
					"name": "newOwner",
					"type": "address"
				}
			],
			"name": "transferOwnership",
			"outputs": [],
			"stateMutability": "nonpayable",
			"type": "function"
		},
		{
			"inputs": [
				{
					"internalType": "uint16",
					"name": "",
					"type": "uint16"
				}
			],
			"name": "trustedRemoteLookup",
			"outputs": [
				{
					"internalType": "bytes",
					"name": "",
					"type": "bytes"
				}
			],
			"stateMutability": "view",
			"type": "function"
		},
		{
			"inputs": [],
			"name": "withdraw",
			"outputs": [],
			"stateMutability": "payable",
			"type": "function"
		}
	]
}